{"contracts/Voting system.sol":{"VotingBuilder":{"abi":[{"inputs":[{"internalType":"address","name":"_address","type":"address"}],"name":"checkAdmin","outputs":[{"internalType":"bool","name":"","type":"bool"}],"stateMutability":"view","type":"function"},{"inputs":[{"internalType":"address","name":"_address","type":"address"}],"name":"checkOperator","outputs":[{"internalType":"bool","name":"","type":"bool"}],"stateMutability":"view","type":"function"},{"inputs":[],"name":"createVoting","outputs":[],"stateMutability":"payable","type":"function"},{"inputs":[],"name":"getOwner","outputs":[{"internalType":"address","name":"","type":"address"}],"stateMutability":"view","type":"function"},{"inputs":[],"name":"getVoting","outputs":[{"internalType":"contract Voting","name":"","type":"address"}],"stateMutability":"view","type":"function"},{"inputs":[],"name":"getVotingParams","outputs":[{"components":[{"internalType":"bool","name":"isRepeated","type":"bool"},{"internalType":"bool","name":"isVoterDisclosed","type":"bool"},{"internalType":"bool","name":"isVotePowered","type":"bool"},{"internalType":"bool","name":"isVotersLimited","type":"bool"},{"internalType":"bool","name":"isPrivate","type":"bool"},{"internalType":"bool","name":"isResultPartial","type":"bool"},{"internalType":"bool","name":"isResultVetoed","type":"bool"},{"internalType":"bool","name":"isMultiChoiced","type":"bool"},{"internalType":"bool","name":"isFunded","type":"bool"},{"internalType":"uint256","name":"fundingUsersLimit","type":"uint256"},{"internalType":"uint256","name":"votersLimit","type":"uint256"},{"internalType":"uint256","name":"votesPercentageToWin","type":"uint256"},{"internalType":"address[]","name":"votersPrivate","type":"address[]"},{"internalType":"uint256[]","name":"voterPowers","type":"uint256[]"},{"internalType":"string[]","name":"choices","type":"string[]"}],"internalType":"struct VotingBuilder.VotingParameters","name":"","type":"tuple"}],"stateMutability":"view","type":"function"},{"inputs":[{"internalType":"address","name":"_address","type":"address"}],"name":"grantRoleAdmin","outputs":[],"stateMutability":"nonpayable","type":"function"},{"inputs":[{"internalType":"address","name":"_address","type":"address"}],"name":"grantRoleOperator","outputs":[],"stateMutability":"nonpayable","type":"function"},{"inputs":[{"internalType":"address","name":"_address","type":"address"}],"name":"revokeRoleAdmin","outputs":[],"stateMutability":"nonpayable","type":"function"},{"inputs":[{"internalType":"address","name":"_address","type":"address"}],"name":"revokeRoleOperator","outputs":[],"stateMutability":"nonpayable","type":"function"},{"inputs":[{"internalType":"uint256","name":"usersAmount","type":"uint256"}],"name":"toggleIsFunded","outputs":[],"stateMutability":"nonpayable","type":"function"},{"inputs":[{"internalType":"string[]","name":"_choices","type":"string[]"}],"name":"toggleIsMultiChoiced","outputs":[],"stateMutability":"nonpayable","type":"function"},{"inputs":[{"internalType":"address[]","name":"voters","type":"address[]"}],"name":"toggleIsPrivate","outputs":[],"stateMutability":"nonpayable","type":"function"},{"inputs":[],"name":"toggleIsRepeated","outputs":[],"stateMutability":"nonpayable","type":"function"},{"inputs":[{"internalType":"uint256","name":"_percentage","type":"uint256"}],"name":"toggleIsResultPartial","outputs":[],"stateMutability":"nonpayable","type":"function"},{"inputs":[],"name":"toggleIsResultVetoed","outputs":[],"stateMutability":"nonpayable","type":"function"},{"inputs":[{"internalType":"uint256[]","name":"powers","type":"uint256[]"}],"name":"toggleIsVotePowered","outputs":[],"stateMutability":"nonpayable","type":"function"},{"inputs":[],"name":"toggleIsVoterDisclosed","outputs":[],"stateMutability":"nonpayable","type":"function"},{"inputs":[{"internalType":"uint256","name":"_votersLimit","type":"uint256"}],"name":"toggleIsVotersLimited","outputs":[],"stateMutability":"nonpayable","type":"function"},{"inputs":[{"internalType":"address","name":"newOwner","type":"address"}],"name":"transferOwnership","outputs":[],"stateMutability":"nonpayable","type":"function"}],"evm":{"bytecode":{"linkReferences":{},"object":"608060405234801561001057600080fd5b50600280546001600160a01b031916321790556156c1806100326000396000f3fe6080604052600436106200017b5760003560e01c80639228274311620000cf578063bb17bb5d116200007d578063e2e294681162000060578063e2e294681462000403578063f2fde38b1462000428578063f61d9567146200044d57600080fd5b8063bb17bb5d14620003a1578063de1ac2fd14620003c657600080fd5b8063a6c8210e11620000b2578063a6c8210e146200033d578063a84a505f1462000364578063b336e5cc146200037c57600080fd5b80639228274314620003005780639cfee576146200032557600080fd5b806344702ec6116200012d57806385c0b3af116200011057806385c0b3af146200026d578063893d20e814620002925780639026dee814620002b257600080fd5b806344702ec6146200023057806362eb965c146200025557600080fd5b806315fe5583116200016257806315fe558314620001cc5780631986d37614620001f15780633c5663df146200022657600080fd5b806303175b9a14620001805780630a84246d14620001a7575b600080fd5b3480156200018d57600080fd5b50620001a56200019f36600462002569565b62000472565b005b348015620001b457600080fd5b50620001a5620001c636600462002569565b62000595565b348015620001d957600080fd5b50620001a5620001eb36600462002569565b620006b1565b348015620001fe57600080fd5b5062000209620007c9565b6040516001600160a01b0390911681526020015b60405180910390f35b620001a562000834565b3480156200023d57600080fd5b50620001a56200024f366004620025ff565b62000f1b565b3480156200026257600080fd5b50620001a56200110a565b3480156200027a57600080fd5b50620001a56200028c366004620026a8565b6200118c565b3480156200029f57600080fd5b506002546001600160a01b031662000209565b348015620002bf57600080fd5b50620002ef620002d136600462002569565b6001600160a01b031660009081526020819052604090205460ff1690565b60405190151581526020016200021d565b3480156200030d57600080fd5b50620001a56200031f36600462002569565b620012c2565b3480156200033257600080fd5b50620001a5620013da565b3480156200034a57600080fd5b506200035562001565565b6040516200021d9190620027d8565b3480156200037157600080fd5b50620001a56200189b565b3480156200038957600080fd5b50620001a56200039b366004620026a8565b62001913565b348015620003ae57600080fd5b50620001a5620003c03660046200290a565b620019b2565b348015620003d357600080fd5b50620002ef620003e536600462002569565b6001600160a01b031660009081526001602052604090205460ff1690565b3480156200041057600080fd5b50620001a562000422366004620026a8565b62001bd3565b3480156200043557600080fd5b50620001a56200044736600462002569565b62001f14565b3480156200045a57600080fd5b50620001a56200046c36600462002a22565b62002030565b6002546001600160a01b03163314620004dd5760405162461bcd60e51b815260206004820152602260248201527f4f6e6c79206f776e65722063616e20706572666f726d2074686973206163746960448201526137b760f11b60648201526084015b60405180910390fd5b6001600160a01b03811660009081526001602052604090205460ff16156200056e5760405162461bcd60e51b815260206004820152603560248201527f566f74696e67526f6c654d6f64656c3a20526f6c6520616c726561647920677260448201527f616e74656420746f2074686973206164647265737300000000000000000000006064820152608401620004d4565b6001600160a01b03166000908152600160208190526040909120805460ff19169091179055565b6002546001600160a01b03163314620005fc5760405162461bcd60e51b815260206004820152602260248201527f4f6e6c79206f776e65722063616e20706572666f726d2074686973206163746960448201526137b760f11b6064820152608401620004d4565b6001600160a01b03811660009081526020819052604090205460ff16156200068d5760405162461bcd60e51b815260206004820152603560248201527f566f74696e67526f6c654d6f64656c3a20526f6c6520616c726561647920677260448201527f616e74656420746f2074686973206164647265737300000000000000000000006064820152608401620004d4565b6001600160a01b03166000908152602081905260409020805460ff19166001179055565b6002546001600160a01b03163314620007185760405162461bcd60e51b815260206004820152602260248201527f4f6e6c79206f776e65722063616e20706572666f726d2074686973206163746960448201526137b760f11b6064820152608401620004d4565b6001600160a01b03811660009081526001602052604090205460ff16620007a85760405162461bcd60e51b815260206004820152603460248201527f566f74696e67526f6c654d6f64656c3a20526f6c65206973206e6f742067726160448201527f6e74656420746f207468697320616464726573730000000000000000000000006064820152608401620004d4565b6001600160a01b03166000908152600160205260409020805460ff19169055565b3360009081526020819052604081205460ff16620008245760405162461bcd60e51b815260206004820152602260248201526000805160206200566c83398151915260448201526137b760f11b6064820152608401620004d4565b506003546001600160a01b031690565b3360009081526020819052604090205460ff166200088f5760405162461bcd60e51b815260206004820152602260248201526000805160206200566c83398151915260448201526137b760f11b6064820152608401620004d4565b600b5460ff1615620008e45760405162461bcd60e51b815260206004820152601d60248201527f566f74696e674275696c6465723a205265656e7472616e742063616c6c0000006044820152606401620004d4565b600b805460ff19166001908117909155600a54116200096c5760405162461bcd60e51b815260206004820152603760248201527f566f74696e674275696c6465723a20566f74696e672063616e6e6f742062652060448201527f6372656174656420776974686f75742063686f696365730000000000000000006064820152608401620004d4565b60045468010000000000000000900460ff161562000bcb5760003411620009fc5760405162461bcd60e51b815260206004820152602e60248201527f566f74696e674275696c6465723a204e6f2065746865722073656e7420666f7260448201527f2066756e64656420766f74696e670000000000000000000000000000000000006064820152608401620004d4565b6008548062000a745760405162461bcd60e51b815260206004820152602c60248201527f566f74696e674275696c6465723a204e6f2061646472657373657320746f206460448201527f69737472696275746520746f00000000000000000000000000000000000000006064820152608401620004d4565b600062000a82823462002ab1565b90506000805b8381101562000bc157600060048001828154811062000aab5762000aab62002ad4565b60009182526020822001546040516001600160a01b039091169250829186919081818185875af1925050503d806000811462000b04576040519150601f19603f3d011682016040523d82523d6000602084013e62000b09565b606091505b5050604080517f566f74696e674275696c6465723a2065746865722066756e64696e672066616960208201527f6c656420666f7220766f7465722000000000000000000000000000000000000081830152606084901b6bffffffffffffffffffffffff1916604e8201528151604281830301815260629091019091529093508362000ba95760405162461bcd60e51b8152600401620004d4919062002aea565b5050808062000bb89062002aff565b91505062000a88565b5050505062000c41565b341562000c415760405162461bcd60e51b815260206004820152603b60248201527f566f74696e674275696c6465723a2046756e64696e672069732064656163746960448201527f76617465642c2054582076616c75652073686f756c64206265203000000000006064820152608401620004d4565b604080516101e0810182526004805460ff808216151584526101008083048216151560208087019190915262010000840483161515868801526301000000840483161515606087015264010000000084048316151560808701526501000000000084048316151560a0870152660100000000000084048316151560c087015267010000000000000084048316151560e087015268010000000000000000909304909116151590840152600554610120840152600654610140840152600754610160840152600880548551818402810184019096528086526000956101808601939092919083018282801562000d6057602002820191906000526020600020905b81546001600160a01b0316815260019091019060200180831162000d41575b505050505081526020016005820180548060200260200160405190810160405280929190818152602001828054801562000dba57602002820191906000526020600020905b81548152602001906001019080831162000da5575b5050505050815260200160068201805480602002602001604051908101604052809291908181526020016000905b8282101562000e9e57838290600052602060002001805462000e0a9062002b27565b80601f016020809104026020016040519081016040528092919081815260200182805462000e389062002b27565b801562000e895780601f1062000e5d5761010080835404028352916020019162000e89565b820191906000526020600020905b81548152906001019060200180831162000e6b57829003601f168201915b50505050508152602001906001019062000de8565b505050508152505090508060405162000eb790620023b7565b62000ec39190620027d8565b604051809103906000f08015801562000ee0573d6000803e3d6000fd5b506003805473ffffffffffffffffffffffffffffffffffffffff19166001600160a01b039290921691909117905550600b805460ff19169055565b3360009081526020819052604090205460ff1662000f765760405162461bcd60e51b815260206004820152602260248201526000805160206200566c83398151915260448201526137b760f11b6064820152608401620004d4565b600454640100000000900460ff16620010e65761138881511115620010045760405162461bcd60e51b815260206004820152603b60248201527f566f74696e674275696c6465723a205072697661746520766f74696e6720737560448201527f70706f727473203530303020766f74657273206d6178696d756d2000000000006064820152608401620004d4565b6004546301000000900460ff1615620010b85760065481511115620010b85760405162461bcd60e51b815260206004820152604d60248201527f566f74696e674275696c6465723a205072697661746520566f7465727320616d60448201527f6f756e742063616e6e6f7420626520686967686572207468616e20746f74616c60648201527f20766f74657273206c696d697400000000000000000000000000000000000000608482015260a401620004d4565b8051620010cd906008906020840190620023c5565b506004805464ff00000000191664010000000017905550565b620010f4600860006200243c565b6004805468ff000000ff00ff0000191690555b50565b3360009081526020819052604090205460ff16620011655760405162461bcd60e51b815260206004820152602260248201526000805160206200566c83398151915260448201526137b760f11b6064820152608401620004d4565b6004805466ff00000000000019811666010000000000009182900460ff1615909102179055565b3360009081526020819052604090205460ff16620011e75760405162461bcd60e51b815260206004820152602260248201526000805160206200566c83398151915260448201526137b760f11b6064820152608401620004d4565b6064811115620012865760405162461bcd60e51b815260206004820152604260248201527f566f74696e674275696c6465723a20766f74696e672077696e6e696e6720506560448201527f7263656e74616765206d757374206265206265747765656e203020616e64203160648201527f3030000000000000000000000000000000000000000000000000000000000000608482015260a401620004d4565b60328111620012a65760006007556004805465ff00000000001916905550565b6007556004805465ff0000000000191665010000000000179055565b6002546001600160a01b03163314620013295760405162461bcd60e51b815260206004820152602260248201527f4f6e6c79206f776e65722063616e20706572666f726d2074686973206163746960448201526137b760f11b6064820152608401620004d4565b6001600160a01b03811660009081526020819052604090205460ff16620013b95760405162461bcd60e51b815260206004820152603460248201527f566f74696e67526f6c654d6f64656c3a20526f6c65206973206e6f742067726160448201527f6e74656420746f207468697320616464726573730000000000000000000000006064820152608401620004d4565b6001600160a01b03166000908152602081905260409020805460ff19169055565b3360009081526020819052604090205460ff16620014355760405162461bcd60e51b815260206004820152602260248201526000805160206200566c83398151915260448201526137b760f11b6064820152608401620004d4565b60045460ff1662001559576004546301000000900460ff161515600114620014c65760405162461bcd60e51b815260206004820152603c60248201527f566f74696e674275696c6465723a20766f74696e672073686f756c642068617360448201527f20766f74657273204c696d697420746f206265205265706561746564000000006064820152608401620004d4565b6006546113881015620015425760405162461bcd60e51b815260206004820152603c60248201527f566f74696e674275696c6465723a20526570656174656420766f74696e67207360448201527f7570706f727473203530303020766f74657273206d6178696d756d20000000006064820152608401620004d4565b6004805468ff00000000000000ff19166001179055565b6004805460ff19169055565b604080516101e0810182526000808252602080830182905282840182905260608084018390526080840183905260a0840183905260c0840183905260e08401839052610100840183905261012084018390526101408401839052610160840183905261018084018190526101a084018190526101c0840152338252819052919091205460ff16620016335760405162461bcd60e51b815260206004820152602260248201526000805160206200566c83398151915260448201526137b760f11b6064820152608401620004d4565b604080516101e0810182526004805460ff808216151584526101008083048216151560208087019190915262010000840483161515868801526301000000840483161515606087015264010000000084048316151560808701526501000000000084048316151560a0870152660100000000000084048316151560c087015267010000000000000084048316151560e0870152680100000000000000009093049091161515908401526005546101208401526006546101408401526007546101608401526008805485518184028101840190965280865293949293610180860193928301828280156200175057602002820191906000526020600020905b81546001600160a01b0316815260019091019060200180831162001731575b5050505050815260200160058201805480602002602001604051908101604052809291908181526020018280548015620017aa57602002820191906000526020600020905b81548152602001906001019080831162001795575b5050505050815260200160068201805480602002602001604051908101604052809291908181526020016000905b828210156200188e578382906000526020600020018054620017fa9062002b27565b80601f0160208091040260200160405190810160405280929190818152602001828054620018289062002b27565b8015620018795780601f106200184d5761010080835404028352916020019162001879565b820191906000526020600020905b8154815290600101906020018083116200185b57829003601f168201915b505050505081526020019060010190620017d8565b5050505081525050905090565b3360009081526020819052604090205460ff16620018f65760405162461bcd60e51b815260206004820152602260248201526000805160206200566c83398151915260448201526137b760f11b6064820152608401620004d4565b6004805461ff001981166101009182900460ff1615909102179055565b3360009081526020819052604090205460ff166200196e5760405162461bcd60e51b815260206004820152602260248201526000805160206200566c83398151915260448201526137b760f11b6064820152608401620004d4565b6004546301000000900460ff1662001998576006556004805463ff00000019166301000000179055565b60048054600060065568ff000000ffffff00001916905550565b3360009081526020819052604090205460ff1662001a0d5760405162461bcd60e51b815260206004820152602260248201526000805160206200566c83398151915260448201526137b760f11b6064820152608401620004d4565b60148151111562001a875760405162461bcd60e51b815260206004820152602760248201527f566f74696e674275696c6465723a204d61782063686f6963657320616d6f756e60448201527f74206973203230000000000000000000000000000000000000000000000000006064820152608401620004d4565b62001a95600a60006200245c565b600181511162001b9f57600a805460018101825560009190915260408051808201909152600381527f796573000000000000000000000000000000000000000000000000000000000060208201527fc65a7bb8d6351c1cf70c95a316cc6a92839c986682d98bc35f958f4883f9d2a89091019062001b14908262002bb6565b50600a805460018101825560009190915260408051808201909152600281527f6e6f00000000000000000000000000000000000000000000000000000000000060208201527fc65a7bb8d6351c1cf70c95a316cc6a92839c986682d98bc35f958f4883f9d2a89091019062001b8a908262002bb6565b506004805467ff000000000000001916905550565b805162001bb490600a9060208401906200247c565b506004805467ff00000000000000191667010000000000000017905550565b3360009081526020819052604090205460ff1662001c2e5760405162461bcd60e51b815260206004820152602260248201526000805160206200566c83398151915260448201526137b760f11b6064820152608401620004d4565b60045468010000000000000000900460ff1662001eff576004546301000000900460ff16151560011462001cf15760405162461bcd60e51b815260206004820152604760248201527f566f74696e674275696c6465723a20766f74696e672073686f756c642068617360448201527f20766f74657273206c696d697420746f2062652061626c6520746f2066756e6460648201527f20766f7465727300000000000000000000000000000000000000000000000000608482015260a401620004d4565b600454640100000000900460ff16151560011462001d9e5760405162461bcd60e51b815260206004820152604960248201527f566f74696e674275696c6465723a20766f74696e672073686f756c642068617360448201527f207072697661746520766f7465727320746f2062652061626c6520746f20667560648201527f6e6420766f746572730000000000000000000000000000000000000000000000608482015260a401620004d4565b60065481101562001e3e5760405162461bcd60e51b815260206004820152604a60248201527f566f74696e674275696c6465723a2046756e64696e67207573657273206c696d60448201527f69742063616e6e6f74206265206c6f776572207468616e20746f74616c20766f60648201527f74657273206c696d697400000000000000000000000000000000000000000000608482015260a401620004d4565b600854811462001edd5760405162461bcd60e51b815260206004820152604560248201527f566f74696e674275696c6465723a2046756e64696e67207573657273206c696d60448201527f697420616e64205072697661746520566f7465727320616d6f756e74206d697360648201527f6d61746368000000000000000000000000000000000000000000000000000000608482015260a401620004d4565b6005556004805468ff0000000000000000191668010000000000000000179055565b6004805468ff00000000000000001916905550565b6002546001600160a01b0316331462001f7b5760405162461bcd60e51b815260206004820152602260248201527f4f6e6c79206f776e65722063616e20706572666f726d2074686973206163746960448201526137b760f11b6064820152608401620004d4565b6002546001600160a01b0390811690821603620020015760405162461bcd60e51b815260206004820152603560248201527f566f74696e67526f6c654d6f64656c3a2063616e6e6f74207472616e7366657260448201527f204f776e65727368697020746f2068696d73656c6600000000000000000000006064820152608401620004d4565b6002805473ffffffffffffffffffffffffffffffffffffffff19166001600160a01b0392909216919091179055565b3360009081526020819052604090205460ff166200208b5760405162461bcd60e51b815260206004820152602260248201526000805160206200566c83398151915260448201526137b760f11b6064820152608401620004d4565b60045462010000900460ff166200239a576004546301000000900460ff161515600114620021485760405162461bcd60e51b815260206004820152604660248201527f566f74696e674275696c6465723a20766f74696e672073686f756c642068617360448201527f20766f74657273206c696d697420746f206772616e7420706f77657220746f2060648201527f766f746572730000000000000000000000000000000000000000000000000000608482015260a401620004d4565b600454640100000000900460ff161515600114620021f55760405162461bcd60e51b815260206004820152604860248201527f566f74696e674275696c6465723a20766f74696e672073686f756c642068617360448201527f207072697661746520766f7465727320746f206772616e7420706f776572207460648201527f6f20766f74657273000000000000000000000000000000000000000000000000608482015260a401620004d4565b600854815114620022955760405162461bcd60e51b815260206004820152604d60248201527f566f74696e674275696c6465723a20766f74657220506f7765727320616e642060448201527f616c6c6f776564205072697661746520566f7465727320617272617973206c6560648201527f6e677468206d69736d6174636800000000000000000000000000000000000000608482015260a401620004d4565b60005b815181101562002385576001828281518110620022b957620022b962002ad4565b60200260200101511015620023375760405162461bcd60e51b815260206004820152602d60248201527f566f74696e674275696c6465723a20766f74657220506f776572206d7573742060448201527f6265206174206c656173742031000000000000000000000000000000000000006064820152608401620004d4565b600460050182828151811062002351576200235162002ad4565b60209081029190910181015182546001810184556000938452919092200155806200237c8162002aff565b91505062002298565b506004805462ff000019166201000017905550565b620023a8600960006200243c565b6004805462ff00001916905550565b6129e88062002c8483390190565b8280548282559060005260206000209081019282156200242a579160200282015b828111156200242a578251825473ffffffffffffffffffffffffffffffffffffffff19166001600160a01b03909116178255602090920191600190910190620023e6565b5062002438929150620024d5565b5090565b5080546000825590600052602060002090810190620011079190620024d5565b5080546000825590600052602060002090810190620011079190620024ec565b828054828255906000526020600020908101928215620024c7579160200282015b82811115620024c75782518290620024b6908262002bb6565b50916020019190600101906200249d565b5062002438929150620024ec565b5b80821115620024385760008155600101620024d6565b80821115620024385760006200250382826200250d565b50600101620024ec565b5080546200251b9062002b27565b6000825580601f106200252c575050565b601f016020900490600052602060002090810190620011079190620024d5565b80356001600160a01b03811681146200256457600080fd5b919050565b6000602082840312156200257c57600080fd5b62002587826200254c565b9392505050565b634e487b7160e01b600052604160045260246000fd5b604051601f8201601f1916810167ffffffffffffffff81118282101715620025d057620025d06200258e565b604052919050565b600067ffffffffffffffff821115620025f557620025f56200258e565b5060051b60200190565b600060208083850312156200261357600080fd5b823567ffffffffffffffff8111156200262b57600080fd5b8301601f810185136200263d57600080fd5b8035620026546200264e82620025d8565b620025a4565b81815260059190911b820183019083810190878311156200267457600080fd5b928401925b828410156200269d576200268d846200254c565b8252928401929084019062002679565b979650505050505050565b600060208284031215620026bb57600080fd5b5035919050565b600081518084526020808501945080840160005b83811015620026fd5781516001600160a01b031687529582019590820190600101620026d6565b509495945050505050565b600081518084526020808501945080840160005b83811015620026fd578151875295820195908201906001016200271c565b6000815180845260005b81811015620027625760208185018101518683018201520162002744565b506000602082860101526020601f19601f83011685010191505092915050565b6000815180845260208085019450848260051b860182860160005b85811015620027cb578383038952620027b88383516200273a565b988501989250908401906001016200279d565b5090979650505050505050565b60208152620027ec60208201835115159052565b6000602083015162002802604084018215159052565b5060408301518015156060840152506060830151801515608084015250608083015180151560a08401525060a083015180151560c08401525060c083015180151560e08401525060e08301516101006200285f8185018315159052565b8401519050610120620028758482018315159052565b8401516101408481019190915284015161016080850191909152840151610180808501919091528401516101e06101a080860182905291925090620028bf610200860184620026c2565b9250808601519050601f196101c0818786030181880152620028e2858462002708565b90880151878203909201848801529350905062002900838262002782565b9695505050505050565b600060208083850312156200291e57600080fd5b823567ffffffffffffffff808211156200293757600080fd5b8185019150601f86818401126200294d57600080fd5b82356200295e6200264e82620025d8565b81815260059190911b840185019085810190898311156200297e57600080fd5b8686015b8381101562002a14578035868111156200299c5760008081fd5b8701603f81018c13620029af5760008081fd5b88810135604088821115620029c857620029c86200258e565b620029db828901601f19168c01620025a4565b8281528e82848601011115620029f15760008081fd5b828285018d83013760009281018c01929092525084525091870191870162002982565b509998505050505050505050565b6000602080838503121562002a3657600080fd5b823567ffffffffffffffff81111562002a4e57600080fd5b8301601f8101851362002a6057600080fd5b803562002a716200264e82620025d8565b81815260059190911b8201830190838101908783111562002a9157600080fd5b928401925b828410156200269d5783358252928401929084019062002a96565b60008262002acf57634e487b7160e01b600052601260045260246000fd5b500490565b634e487b7160e01b600052603260045260246000fd5b6020815260006200258760208301846200273a565b60006001820162002b2057634e487b7160e01b600052601160045260246000fd5b5060010190565b600181811c9082168062002b3c57607f821691505b60208210810362002b5d57634e487b7160e01b600052602260045260246000fd5b50919050565b601f82111562002bb157600081815260208120601f850160051c8101602086101562002b8c5750805b601f850160051c820191505b8181101562002bad5782815560010162002b98565b5050505b505050565b815167ffffffffffffffff81111562002bd35762002bd36200258e565b62002beb8162002be4845462002b27565b8462002b63565b602080601f83116001811462002c23576000841562002c0a5750858301515b600019600386901b1c1916600185901b17855562002bad565b600085815260208120601f198616915b8281101562002c545788860151825594840194600190910190840162002c33565b508582101562002c735787850151600019600388901b60f8161c191681555b5050505050600190811b0190555056fe6080604052600a805460ff191690553480156200001b57600080fd5b50604051620029e8380380620029e88339810160408190526200003e9162000764565b60028054326001600160a01b031990911617905580516003805460208085015160408601516060870151608088015160a089015160c08a015160e08b0151610100808d015161ffff19909a169b151561ff0019169b909b17961515909a029590951763ffff00001916620100009415159490940263ff0000001916939093176301000000921515929092029190911761ffff60201b19166401000000009115159190910260ff60281b19161765010000000000911515919091021761ffff60301b191666010000000000009115159190910260ff60381b191617670100000000000000941515949094029390931760ff60401b19166801000000000000000091151591909102178155610120830151600455610140830151600555610160830151600655610180830151805184936200017d9260079291019062000341565b506101a082015180516200019c916005840191602090910190620003ab565b506101c08201518051620001bb916006840191602090910190620003e9565b5050506101c08101518051620001da91600d91602090910190620003e9565b5060005b816101c00151518110156200023457600e805460018101825560009182527fbb7b4a454dc3493923482f07822329ed19e8244eff582cc204f8554c3620c3fd0155806200022b81620008fc565b915050620001de565b5060005b8161018001515181101562000339576001600b6000846101800151848151811062000267576200026762000924565b60200260200101516001600160a01b03166001600160a01b0316815260200190815260200160002060030160006101000a81548160ff0219169083151502179055508160400151156200032457816101a001518181518110620002ce57620002ce62000924565b6020026020010151600b60008461018001518481518110620002f457620002f462000924565b60200260200101516001600160a01b03166001600160a01b03168152602001908152602001600020600201819055505b806200033081620008fc565b91505062000238565b505062000a95565b82805482825590600052602060002090810192821562000399579160200282015b828111156200039957825182546001600160a01b0319166001600160a01b0390911617825560209092019160019091019062000362565b50620003a792915062000442565b5090565b82805482825590600052602060002090810192821562000399579160200282015b8281111562000399578251825591602001919060010190620003cc565b82805482825590600052602060002090810192821562000434579160200282015b82811115620004345782518290620004239082620009c9565b50916020019190600101906200040a565b50620003a792915062000459565b5b80821115620003a7576000815560010162000443565b80821115620003a75760006200047082826200047a565b5060010162000459565b50805462000488906200093a565b6000825580601f1062000499575050565b601f016020900490600052602060002090810190620004b9919062000442565b50565b634e487b7160e01b600052604160045260246000fd5b6040516101e081016001600160401b0381118282101715620004f857620004f8620004bc565b60405290565b604051601f8201601f191681016001600160401b0381118282101715620005295762000529620004bc565b604052919050565b805180151581146200054257600080fd5b919050565b60006001600160401b03821115620005635762000563620004bc565b5060051b60200190565b600082601f8301126200057f57600080fd5b8151602062000598620005928362000547565b620004fe565b82815260059290921b84018101918181019086841115620005b857600080fd5b8286015b84811015620005ec5780516001600160a01b0381168114620005de5760008081fd5b8352918301918301620005bc565b509695505050505050565b600082601f8301126200060957600080fd5b815160206200061c620005928362000547565b82815260059290921b840181019181810190868411156200063c57600080fd5b8286015b84811015620005ec578051835291830191830162000640565b6000601f83818401126200066c57600080fd5b825160206200067f620005928362000547565b82815260059290921b850181019181810190878411156200069f57600080fd5b8287015b84811015620007585780516001600160401b0380821115620006c55760008081fd5b818a0191508a603f830112620006db5760008081fd5b8582015181811115620006f257620006f2620004bc565b62000705818a01601f19168801620004fe565b915080825260408c818386010111156200071f5760008081fd5b60005b828110156200073f578481018201518482018a0152880162000722565b50506000908201870152845250918301918301620006a3565b50979650505050505050565b6000602082840312156200077757600080fd5b81516001600160401b03808211156200078f57600080fd5b908301906101e08286031215620007a557600080fd5b620007af620004d2565b620007ba8362000531565b8152620007ca6020840162000531565b6020820152620007dd6040840162000531565b6040820152620007f06060840162000531565b6060820152620008036080840162000531565b60808201526200081660a0840162000531565b60a08201526200082960c0840162000531565b60c08201526200083c60e0840162000531565b60e08201526101006200085181850162000531565b9082015261012083810151908201526101408084015190820152610160808401519082015261018080840151838111156200088b57600080fd5b62000899888287016200056d565b8284015250506101a08084015183811115620008b457600080fd5b620008c288828701620005f7565b8284015250506101c08084015183811115620008dd57600080fd5b620008eb8882870162000659565b918301919091525095945050505050565b6000600182016200091d57634e487b7160e01b600052601160045260246000fd5b5060010190565b634e487b7160e01b600052603260045260246000fd5b600181811c908216806200094f57607f821691505b6020821081036200097057634e487b7160e01b600052602260045260246000fd5b50919050565b601f821115620009c457600081815260208120601f850160051c810160208610156200099f5750805b601f850160051c820191505b81811015620009c057828155600101620009ab565b5050505b505050565b81516001600160401b03811115620009e557620009e5620004bc565b620009fd81620009f684546200093a565b8462000976565b602080601f83116001811462000a35576000841562000a1c5750858301515b600019600386901b1c1916600185901b178555620009c0565b600085815260208120601f198616915b8281101562000a665788860151825594840194600190910190840162000a45565b508582101562000a855787850151600019600388901b60f8161c191681555b5050505050600190811b01905550565b611f438062000aa56000396000f3fe608060405234801561001057600080fd5b50600436106100f55760003560e01c80639228274311610097578063de1ac2fd11610066578063de1ac2fd1461020d578063f2fde38b14610239578063f90943031461024c578063fba7cc791461025457600080fd5b806392282743146101bd578063a6c8210e146101d0578063be9a6555146101e5578063d4f50f98146101ed57600080fd5b806315fe5583116100d357806315fe558314610135578063671d2b7514610148578063893d20e8146101665780639026dee81461018157600080fd5b80630121b93f146100fa57806303175b9a1461010f5780630a84246d14610122575b600080fd5b61010d610108366004611873565b61025c565b005b61010d61011d36600461188c565b610623565b61010d61013036600461188c565b61073e565b61010d61014336600461188c565b610856565b61015061096a565b60405161015d9190611992565b60405180910390f35b6002546040516001600160a01b03909116815260200161015d565b6101ad61018f36600461188c565b6001600160a01b031660009081526020819052604090205460ff1690565b604051901515815260200161015d565b61010d6101cb36600461188c565b610b7f565b6101d8610c93565b60405161015d9190611a44565b61010d610fca565b6102006101fb36600461188c565b611200565b60405161015d9190611b6c565b6101ad61021b36600461188c565b6001600160a01b031660009081526001602052604090205460ff1690565b61010d61024736600461188c565b6113fd565b61010d611515565b6101ad6117ca565b600a5460ff166102b35760405162461bcd60e51b815260206004820152601d60248201527f566f74696e673a20566f74696e6720697320646561637469766174656400000060448201526064015b60405180910390fd5b336000908152600b602052604090205460ff16156103135760405162461bcd60e51b815260206004820152601560248201527f566f74696e673a20416c726561647920766f746564000000000000000000000060448201526064016102aa565b600d54811061038a5760405162461bcd60e51b815260206004820152602a60248201527f566f74696e673a207468652073656c65637465642043686f69636520646f657360448201527f206e6f742065786973740000000000000000000000000000000000000000000060648201526084016102aa565b6003546301000000900460ff161561041457600554600c54106104145760405162461bcd60e51b8152602060048201526024808201527f566f74696e673a20566f74657273204c696d697420616c72656164792072656160448201527f636865640000000000000000000000000000000000000000000000000000000060648201526084016102aa565b600354640100000000900460ff16156104af57336000908152600b602052604090206003015460ff166104af5760405162461bcd60e51b815260206004820152603460248201527f566f74696e673a20596f7520617265206e6f7420616d6f6e672074686520616c60448201527f6c6f776564205072697661746520566f7465727300000000000000000000000060648201526084016102aa565b336000908152600b60205260409020805460ff19166001179055600d8054829081106104dd576104dd611bb6565b60009182526020808320338452600b909152604090922060010191610503910182611c6b565b50600c80546001810182556000919091527fdf6966c971051c3d54ec59162606531493a51404a002842f56009d7e5cf4a8c701805473ffffffffffffffffffffffffffffffffffffffff19163317905560035460ff6201000090910416156105db57336000908152600b6020526040812060020154600f80549192909161058b908490611d62565b9091555050336000908152600b6020526040902060020154600e8054839081106105b7576105b7611bb6565b9060005260206000200160008282546105d09190611d62565b909155506106209050565b600f80549060006105eb83611d7b565b9091555050600e80548290811061060457610604611bb6565b6000918252602082200180549161061a83611d7b565b91905055505b50565b6002546001600160a01b031633146106885760405162461bcd60e51b815260206004820152602260248201527f4f6e6c79206f776e65722063616e20706572666f726d2074686973206163746960448201526137b760f11b60648201526084016102aa565b6001600160a01b03811660009081526001602052604090205460ff16156107175760405162461bcd60e51b815260206004820152603560248201527f566f74696e67526f6c654d6f64656c3a20526f6c6520616c726561647920677260448201527f616e74656420746f20746869732061646472657373000000000000000000000060648201526084016102aa565b6001600160a01b03166000908152600160208190526040909120805460ff19169091179055565b6002546001600160a01b031633146107a35760405162461bcd60e51b815260206004820152602260248201527f4f6e6c79206f776e65722063616e20706572666f726d2074686973206163746960448201526137b760f11b60648201526084016102aa565b6001600160a01b03811660009081526020819052604090205460ff16156108325760405162461bcd60e51b815260206004820152603560248201527f566f74696e67526f6c654d6f64656c3a20526f6c6520616c726561647920677260448201527f616e74656420746f20746869732061646472657373000000000000000000000060648201526084016102aa565b6001600160a01b03166000908152602081905260409020805460ff19166001179055565b6002546001600160a01b031633146108bb5760405162461bcd60e51b815260206004820152602260248201527f4f6e6c79206f776e65722063616e20706572666f726d2074686973206163746960448201526137b760f11b60648201526084016102aa565b6001600160a01b03811660009081526001602052604090205460ff166109495760405162461bcd60e51b815260206004820152603460248201527f566f74696e67526f6c654d6f64656c3a20526f6c65206973206e6f742067726160448201527f6e74656420746f2074686973206164647265737300000000000000000000000060648201526084016102aa565b6001600160a01b03166000908152600160205260409020805460ff19169055565b61099c6040518060a0016040528060608152602001606081526020016000815260200160608152602001600081525090565b60408051600d805460c0602082028401810190945260a083018181529293919284929091849160009085015b82821015610a745783829060005260206000200180546109e790611bcc565b80601f0160208091040260200160405190810160405280929190818152602001828054610a1390611bcc565b8015610a605780601f10610a3557610100808354040283529160200191610a60565b820191906000526020600020905b815481529060010190602001808311610a4357829003601f168201915b5050505050815260200190600101906109c8565b50505050815260200160018201805480602002602001604051908101604052809291908181526020018280548015610acb57602002820191906000526020600020905b815481526020019060010190808311610ab7575b5050505050815260200160028201548152602001600382018054610aee90611bcc565b80601f0160208091040260200160405190810160405280929190818152602001828054610b1a90611bcc565b8015610b675780601f10610b3c57610100808354040283529160200191610b67565b820191906000526020600020905b815481529060010190602001808311610b4a57829003601f168201915b50505050508152602001600482015481525050905090565b6002546001600160a01b03163314610be45760405162461bcd60e51b815260206004820152602260248201527f4f6e6c79206f776e65722063616e20706572666f726d2074686973206163746960448201526137b760f11b60648201526084016102aa565b6001600160a01b03811660009081526020819052604090205460ff16610c725760405162461bcd60e51b815260206004820152603460248201527f566f74696e67526f6c654d6f64656c3a20526f6c65206973206e6f742067726160448201527f6e74656420746f2074686973206164647265737300000000000000000000000060648201526084016102aa565b6001600160a01b03166000908152602081905260409020805460ff19169055565b604080516101e0810182526000808252602080830182905282840182905260608084018390526080840183905260a0840183905260c0840183905260e08401839052610100840183905261012084018390526101408401839052610160840183905261018084018190526101a084018190526101c0840152338252819052919091205460ff16610d705760405162461bcd60e51b815260206004820152602260248201527f4f6e6c792041646d696e2063616e20706572666f726d2074686973206163746960448201526137b760f11b60648201526084016102aa565b604080516101e0810182526003805460ff808216151584526101008083048216151560208087019190915262010000840483161515868801526301000000840483161515606087015264010000000084048316151560808701526501000000000084048316151560a0870152660100000000000084048316151560c087015267010000000000000084048316151560e087015268010000000000000000909304909116151590840152600454610120840152600554610140840152600654610160840152600780548551818402810184019096528086529394929361018086019392830182828015610e8b57602002820191906000526020600020905b81546001600160a01b03168152600190910190602001808311610e6d575b5050505050815260200160058201805480602002602001604051908101604052809291908181526020018280548015610ee357602002820191906000526020600020905b815481526020019060010190808311610ecf575b5050505050815260200160068201805480602002602001604051908101604052809291908181526020016000905b82821015610fbd578382906000526020600020018054610f3090611bcc565b80601f0160208091040260200160405190810160405280929190818152602001828054610f5c90611bcc565b8015610fa95780601f10610f7e57610100808354040283529160200191610fa9565b820191906000526020600020905b815481529060010190602001808311610f8c57829003601f168201915b505050505081526020019060010190610f11565b5050505081525050905090565b3360009081526001602052604090205460ff166110375760405162461bcd60e51b815260206004820152602560248201527f4f6e6c79204f70657261746f722063616e20706572666f726d2074686973206160448201526431ba34b7b760d91b60648201526084016102aa565b600a5460ff161561108a5760405162461bcd60e51b815260206004820152601e60248201527f566f74696e673a20566f74696e6720616c72656164792073746172746564000060448201526064016102aa565b60035460ff161561117b5760005b600c54811015611101576000600b6000600c84815481106110bb576110bb611bb6565b6000918252602080832091909101546001600160a01b031683528201929092526040019020805460ff1916911515919091179055806110f981611d7b565b915050611098565b5061110e600c6000611841565b6000600f81905560408051602081019091529081526010906111309082611d94565b50600060118190555b600954811015611179576000600d600101828154811061115b5761115b611bb6565b6000918252602090912001558061117181611d7b565b915050611139565b505b600f54156111f15760405162461bcd60e51b815260206004820152603660248201527f566f74696e673a20566f74696e6720697320616c72656164792066696e69736860448201527f656420616e64206973206e6f742072657065617465640000000000000000000060648201526084016102aa565b600a805460ff19166001179055565b61122f604051806080016040528060001515815260200160608152602001600081526020016000151581525090565b3360009081526001602052604090205460ff1661129c5760405162461bcd60e51b815260206004820152602560248201527f4f6e6c79204f70657261746f722063616e20706572666f726d2074686973206160448201526431ba34b7b760d91b60648201526084016102aa565b600354610100900460ff166113195760405162461bcd60e51b815260206004820152602760248201527f566f74696e673a20566f74657320646973636c6f73757265206973206e6f742060448201527f616c6c6f7765640000000000000000000000000000000000000000000000000060648201526084016102aa565b6001600160a01b0382166000908152600b6020908152604091829020825160808101909352805460ff1615158352600181018054919284019161135b90611bcc565b80601f016020809104026020016040519081016040528092919081815260200182805461138790611bcc565b80156113d45780601f106113a9576101008083540402835291602001916113d4565b820191906000526020600020905b8154815290600101906020018083116113b757829003601f168201915b50505091835250506002820154602082015260039091015460ff16151560409091015292915050565b6002546001600160a01b031633146114625760405162461bcd60e51b815260206004820152602260248201527f4f6e6c79206f776e65722063616e20706572666f726d2074686973206163746960448201526137b760f11b60648201526084016102aa565b6002546001600160a01b03908116908216036114e65760405162461bcd60e51b815260206004820152603560248201527f566f74696e67526f6c654d6f64656c3a2063616e6e6f74207472616e7366657260448201527f204f776e65727368697020746f2068696d73656c66000000000000000000000060648201526084016102aa565b6002805473ffffffffffffffffffffffffffffffffffffffff19166001600160a01b0392909216919091179055565b600a5460ff166115675760405162461bcd60e51b815260206004820152601d60248201527f566f74696e673a20566f74696e6720697320646561637469766174656400000060448201526064016102aa565b3360009081526001602052604090205460ff166115d45760405162461bcd60e51b815260206004820152602560248201527f4f6e6c79204f70657261746f722063616e20706572666f726d2074686973206160448201526431ba34b7b760d91b60648201526084016102aa565b6000806000805b600e548110156116735783600d60010182815481106115fc576115fc611bb6565b9060005260206000200154106116615783600d600101828154811061162357611623611bb6565b90600052602060002001540361163c5760019150611673565b600e80548290811061165057611650611bb6565b906000526020600020015493508092505b8061166b81611d7b565b9150506115db565b5082158061168357506001811515145b156116c057604051806060016040528060228152602001611e88602291396010906116ae9082611d94565b505050601155600a805460ff19169055565b6003546601000000000000900460ff1680156116f45750600f546116e5846064611e4e565b6116ef9190611e65565b606414155b1561171f57604051806060016040528060238152602001611eeb602391396010906116ae9082611d94565b60035465010000000000900460ff1680156117525750600654600f54611746856064611e4e565b6117509190611e65565b105b1561178857604051806080016040528060418152602001611eaa6041913960109061177d9082611d94565b5060118390556117bb565b600d80548390811061179c5761179c611bb6565b600091825260209091206010916117b4910182611c6b565b5060118390555b5050600a805460ff1916905550565b3360009081526001602052604081205460ff166118375760405162461bcd60e51b815260206004820152602560248201527f4f6e6c79204f70657261746f722063616e20706572666f726d2074686973206160448201526431ba34b7b760d91b60648201526084016102aa565b50600a5460ff1690565b508054600082559060005260206000209081019061062091905b8082111561186f576000815560010161185b565b5090565b60006020828403121561188557600080fd5b5035919050565b60006020828403121561189e57600080fd5b81356001600160a01b03811681146118b557600080fd5b9392505050565b6000815180845260005b818110156118e2576020818501810151868301820152016118c6565b506000602082860101526020601f19601f83011685010191505092915050565b600081518084526020808501808196508360051b8101915082860160005b8581101561194a5782840389526119388483516118bc565b98850198935090840190600101611920565b5091979650505050505050565b600081518084526020808501945080840160005b838110156119875781518752958201959082019060010161196b565b509495945050505050565b602081526000825160a060208401526119ae60c0840182611902565b90506020840151601f19808584030160408601526119cc8383611957565b9250604086015160608601526060860151915080858403016080860152506119f482826118bc565b915050608084015160a08401528091505092915050565b600081518084526020808501945080840160005b838110156119875781516001600160a01b031687529582019590820190600101611a1f565b60208152611a5760208201835115159052565b60006020830151611a6c604084018215159052565b5060408301518015156060840152506060830151801515608084015250608083015180151560a08401525060a083015180151560c08401525060c083015180151560e08401525060e0830151610100611ac88185018315159052565b8401519050610120611add8482018315159052565b8401516101408481019190915284015161016080850191909152840151610180808501919091528401516101e06101a080860182905291925090611b25610200860184611a0b565b9250808601519050601f196101c0818786030181880152611b468584611957565b908801518782039092018488015293509050611b628382611902565b9695505050505050565b602081528151151560208201526000602083015160806040840152611b9460a08401826118bc565b9050604084015160608401526060840151151560808401528091505092915050565b634e487b7160e01b600052603260045260246000fd5b600181811c90821680611be057607f821691505b602082108103611c0057634e487b7160e01b600052602260045260246000fd5b50919050565b634e487b7160e01b600052604160045260246000fd5b601f821115611c6657600081815260208120601f850160051c81016020861015611c435750805b601f850160051c820191505b81811015611c6257828155600101611c4f565b5050505b505050565b818103611c76575050565b611c808254611bcc565b67ffffffffffffffff811115611c9857611c98611c06565b611cac81611ca68454611bcc565b84611c1c565b6000601f821160018114611ce05760008315611cc85750848201545b600019600385901b1c1916600184901b178455611d45565b600085815260209020601f19841690600086815260209020845b83811015611d1a5782860154825560019586019590910190602001611cfa565b5085831015611d385781850154600019600388901b60f8161c191681555b50505060018360011b0184555b5050505050565b634e487b7160e01b600052601160045260246000fd5b80820180821115611d7557611d75611d4c565b92915050565b600060018201611d8d57611d8d611d4c565b5060010190565b815167ffffffffffffffff811115611dae57611dae611c06565b611dbc81611ca68454611bcc565b602080601f831160018114611df15760008415611dd95750858301515b600019600386901b1c1916600185901b178555611c62565b600085815260208120601f198616915b82811015611e2057888601518255948401946001909101908401611e01565b5085821015611e3e5787850151600019600388901b60f8161c191681555b5050505050600190811b01905550565b8082028115828204841417611d7557611d75611d4c565b600082611e8257634e487b7160e01b600052601260045260246000fd5b50049056fe4e6f2077696e6e65723a206e6f20766f746573206f722074776f2077696e6e6572734e6f2077696e6e65723a204e6f2063686f69636520726561636865642074686520726571756972656420566f7465732050657263656e7461676520546f2057696e4e6f2077696e6e65723a20766f74696e6720726573756c742077617320566f746f6564a264697066735822122060cee8abe811be76a8b64ce77acc6ffa8a16344a2a16730134381e62418fd6b564736f6c634300081100334f6e6c792041646d696e2063616e20706572666f726d20746869732061637469a2646970667358221220f4ca52447eec435bd2941067f4f4dd97348a2044baf410d1f73151f8cbfdddc364736f6c63430008110033","opcodes":"PUSH1 0x80 PUSH1 0x40 MSTORE CALLVALUE DUP1 ISZERO PUSH2 0x10 JUMPI PUSH1 0x0 DUP1 REVERT JUMPDEST POP PUSH1 0x2 DUP1 SLOAD PUSH1 0x1 PUSH1 0x1 PUSH1 0xA0 SHL SUB NOT AND ORIGIN OR SWAP1 SSTORE PUSH2 0x56C1 DUP1 PUSH2 0x32 PUSH1 0x0 CODECOPY PUSH1 0x0 RETURN INVALID PUSH1 0x80 PUSH1 0x40 MSTORE PUSH1 0x4 CALLDATASIZE LT PUSH3 0x17B JUMPI PUSH1 0x0 CALLDATALOAD PUSH1 0xE0 SHR DUP1 PUSH4 0x92282743 GT PUSH3 0xCF JUMPI DUP1 PUSH4 0xBB17BB5D GT PUSH3 0x7D JUMPI DUP1 PUSH4 0xE2E29468 GT PUSH3 0x60 JUMPI DUP1 PUSH4 0xE2E29468 EQ PUSH3 0x403 JUMPI DUP1 PUSH4 0xF2FDE38B EQ PUSH3 0x428 JUMPI DUP1 PUSH4 0xF61D9567 EQ PUSH3 0x44D JUMPI PUSH1 0x0 DUP1 REVERT JUMPDEST DUP1 PUSH4 0xBB17BB5D EQ PUSH3 0x3A1 JUMPI DUP1 PUSH4 0xDE1AC2FD EQ PUSH3 0x3C6 JUMPI PUSH1 0x0 DUP1 REVERT JUMPDEST DUP1 PUSH4 0xA6C8210E GT PUSH3 0xB2 JUMPI DUP1 PUSH4 0xA6C8210E EQ PUSH3 0x33D JUMPI DUP1 PUSH4 0xA84A505F EQ PUSH3 0x364 JUMPI DUP1 PUSH4 0xB336E5CC EQ PUSH3 0x37C JUMPI PUSH1 0x0 DUP1 REVERT JUMPDEST DUP1 PUSH4 0x92282743 EQ PUSH3 0x300 JUMPI DUP1 PUSH4 0x9CFEE576 EQ PUSH3 0x325 JUMPI PUSH1 0x0 DUP1 REVERT JUMPDEST DUP1 PUSH4 0x44702EC6 GT PUSH3 0x12D JUMPI DUP1 PUSH4 0x85C0B3AF GT PUSH3 0x110 JUMPI DUP1 PUSH4 0x85C0B3AF EQ PUSH3 0x26D JUMPI DUP1 PUSH4 0x893D20E8 EQ PUSH3 0x292 JUMPI DUP1 PUSH4 0x9026DEE8 EQ PUSH3 0x2B2 JUMPI PUSH1 0x0 DUP1 REVERT JUMPDEST DUP1 PUSH4 0x44702EC6 EQ PUSH3 0x230 JUMPI DUP1 PUSH4 0x62EB965C EQ PUSH3 0x255 JUMPI PUSH1 0x0 DUP1 REVERT JUMPDEST DUP1 PUSH4 0x15FE5583 GT PUSH3 0x162 JUMPI DUP1 PUSH4 0x15FE5583 EQ PUSH3 0x1CC JUMPI DUP1 PUSH4 0x1986D376 EQ PUSH3 0x1F1 JUMPI DUP1 PUSH4 0x3C5663DF EQ PUSH3 0x226 JUMPI PUSH1 0x0 DUP1 REVERT JUMPDEST DUP1 PUSH4 0x3175B9A EQ PUSH3 0x180 JUMPI DUP1 PUSH4 0xA84246D EQ PUSH3 0x1A7 JUMPI JUMPDEST PUSH1 0x0 DUP1 REVERT JUMPDEST CALLVALUE DUP1 ISZERO PUSH3 0x18D JUMPI PUSH1 0x0 DUP1 REVERT JUMPDEST POP PUSH3 0x1A5 PUSH3 0x19F CALLDATASIZE PUSH1 0x4 PUSH3 0x2569 JUMP JUMPDEST PUSH3 0x472 JUMP JUMPDEST STOP JUMPDEST CALLVALUE DUP1 ISZERO PUSH3 0x1B4 JUMPI PUSH1 0x0 DUP1 REVERT JUMPDEST POP PUSH3 0x1A5 PUSH3 0x1C6 CALLDATASIZE PUSH1 0x4 PUSH3 0x2569 JUMP JUMPDEST PUSH3 0x595 JUMP JUMPDEST CALLVALUE DUP1 ISZERO PUSH3 0x1D9 JUMPI PUSH1 0x0 DUP1 REVERT JUMPDEST POP PUSH3 0x1A5 PUSH3 0x1EB CALLDATASIZE PUSH1 0x4 PUSH3 0x2569 JUMP JUMPDEST PUSH3 0x6B1 JUMP JUMPDEST CALLVALUE DUP1 ISZERO PUSH3 0x1FE JUMPI PUSH1 0x0 DUP1 REVERT JUMPDEST POP PUSH3 0x209 PUSH3 0x7C9 JUMP JUMPDEST PUSH1 0x40 MLOAD PUSH1 0x1 PUSH1 0x1 PUSH1 0xA0 SHL SUB SWAP1 SWAP2 AND DUP2 MSTORE PUSH1 0x20 ADD JUMPDEST PUSH1 0x40 MLOAD DUP1 SWAP2 SUB SWAP1 RETURN JUMPDEST PUSH3 0x1A5 PUSH3 0x834 JUMP JUMPDEST CALLVALUE DUP1 ISZERO PUSH3 0x23D JUMPI PUSH1 0x0 DUP1 REVERT JUMPDEST POP PUSH3 0x1A5 PUSH3 0x24F CALLDATASIZE PUSH1 0x4 PUSH3 0x25FF JUMP JUMPDEST PUSH3 0xF1B JUMP JUMPDEST CALLVALUE DUP1 ISZERO PUSH3 0x262 JUMPI PUSH1 0x0 DUP1 REVERT JUMPDEST POP PUSH3 0x1A5 PUSH3 0x110A JUMP JUMPDEST CALLVALUE DUP1 ISZERO PUSH3 0x27A JUMPI PUSH1 0x0 DUP1 REVERT JUMPDEST POP PUSH3 0x1A5 PUSH3 0x28C CALLDATASIZE PUSH1 0x4 PUSH3 0x26A8 JUMP JUMPDEST PUSH3 0x118C JUMP JUMPDEST CALLVALUE DUP1 ISZERO PUSH3 0x29F JUMPI PUSH1 0x0 DUP1 REVERT JUMPDEST POP PUSH1 0x2 SLOAD PUSH1 0x1 PUSH1 0x1 PUSH1 0xA0 SHL SUB AND PUSH3 0x209 JUMP JUMPDEST CALLVALUE DUP1 ISZERO PUSH3 0x2BF JUMPI PUSH1 0x0 DUP1 REVERT JUMPDEST POP PUSH3 0x2EF PUSH3 0x2D1 CALLDATASIZE PUSH1 0x4 PUSH3 0x2569 JUMP JUMPDEST PUSH1 0x1 PUSH1 0x1 PUSH1 0xA0 SHL SUB AND PUSH1 0x0 SWAP1 DUP2 MSTORE PUSH1 0x20 DUP2 SWAP1 MSTORE PUSH1 0x40 SWAP1 KECCAK256 SLOAD PUSH1 0xFF AND SWAP1 JUMP JUMPDEST PUSH1 0x40 MLOAD SWAP1 ISZERO ISZERO DUP2 MSTORE PUSH1 0x20 ADD PUSH3 0x21D JUMP JUMPDEST CALLVALUE DUP1 ISZERO PUSH3 0x30D JUMPI PUSH1 0x0 DUP1 REVERT JUMPDEST POP PUSH3 0x1A5 PUSH3 0x31F CALLDATASIZE PUSH1 0x4 PUSH3 0x2569 JUMP JUMPDEST PUSH3 0x12C2 JUMP JUMPDEST CALLVALUE DUP1 ISZERO PUSH3 0x332 JUMPI PUSH1 0x0 DUP1 REVERT JUMPDEST POP PUSH3 0x1A5 PUSH3 0x13DA JUMP JUMPDEST CALLVALUE DUP1 ISZERO PUSH3 0x34A JUMPI PUSH1 0x0 DUP1 REVERT JUMPDEST POP PUSH3 0x355 PUSH3 0x1565 JUMP JUMPDEST PUSH1 0x40 MLOAD PUSH3 0x21D SWAP2 SWAP1 PUSH3 0x27D8 JUMP JUMPDEST CALLVALUE DUP1 ISZERO PUSH3 0x371 JUMPI PUSH1 0x0 DUP1 REVERT JUMPDEST POP PUSH3 0x1A5 PUSH3 0x189B JUMP JUMPDEST CALLVALUE DUP1 ISZERO PUSH3 0x389 JUMPI PUSH1 0x0 DUP1 REVERT JUMPDEST POP PUSH3 0x1A5 PUSH3 0x39B CALLDATASIZE PUSH1 0x4 PUSH3 0x26A8 JUMP JUMPDEST PUSH3 0x1913 JUMP JUMPDEST CALLVALUE DUP1 ISZERO PUSH3 0x3AE JUMPI PUSH1 0x0 DUP1 REVERT JUMPDEST POP PUSH3 0x1A5 PUSH3 0x3C0 CALLDATASIZE PUSH1 0x4 PUSH3 0x290A JUMP JUMPDEST PUSH3 0x19B2 JUMP JUMPDEST CALLVALUE DUP1 ISZERO PUSH3 0x3D3 JUMPI PUSH1 0x0 DUP1 REVERT JUMPDEST POP PUSH3 0x2EF PUSH3 0x3E5 CALLDATASIZE PUSH1 0x4 PUSH3 0x2569 JUMP JUMPDEST PUSH1 0x1 PUSH1 0x1 PUSH1 0xA0 SHL SUB AND PUSH1 0x0 SWAP1 DUP2 MSTORE PUSH1 0x1 PUSH1 0x20 MSTORE PUSH1 0x40 SWAP1 KECCAK256 SLOAD PUSH1 0xFF AND SWAP1 JUMP JUMPDEST CALLVALUE DUP1 ISZERO PUSH3 0x410 JUMPI PUSH1 0x0 DUP1 REVERT JUMPDEST POP PUSH3 0x1A5 PUSH3 0x422 CALLDATASIZE PUSH1 0x4 PUSH3 0x26A8 JUMP JUMPDEST PUSH3 0x1BD3 JUMP JUMPDEST CALLVALUE DUP1 ISZERO PUSH3 0x435 JUMPI PUSH1 0x0 DUP1 REVERT JUMPDEST POP PUSH3 0x1A5 PUSH3 0x447 CALLDATASIZE PUSH1 0x4 PUSH3 0x2569 JUMP JUMPDEST PUSH3 0x1F14 JUMP JUMPDEST CALLVALUE DUP1 ISZERO PUSH3 0x45A JUMPI PUSH1 0x0 DUP1 REVERT JUMPDEST POP PUSH3 0x1A5 PUSH3 0x46C CALLDATASIZE PUSH1 0x4 PUSH3 0x2A22 JUMP JUMPDEST PUSH3 0x2030 JUMP JUMPDEST PUSH1 0x2 SLOAD PUSH1 0x1 PUSH1 0x1 PUSH1 0xA0 SHL SUB AND CALLER EQ PUSH3 0x4DD JUMPI PUSH1 0x40 MLOAD PUSH3 0x461BCD PUSH1 0xE5 SHL DUP2 MSTORE PUSH1 0x20 PUSH1 0x4 DUP3 ADD MSTORE PUSH1 0x22 PUSH1 0x24 DUP3 ADD MSTORE PUSH32 0x4F6E6C79206F776E65722063616E20706572666F726D20746869732061637469 PUSH1 0x44 DUP3 ADD MSTORE PUSH2 0x37B7 PUSH1 0xF1 SHL PUSH1 0x64 DUP3 ADD MSTORE PUSH1 0x84 ADD JUMPDEST PUSH1 0x40 MLOAD DUP1 SWAP2 SUB SWAP1 REVERT JUMPDEST PUSH1 0x1 PUSH1 0x1 PUSH1 0xA0 SHL SUB DUP2 AND PUSH1 0x0 SWAP1 DUP2 MSTORE PUSH1 0x1 PUSH1 0x20 MSTORE PUSH1 0x40 SWAP1 KECCAK256 SLOAD PUSH1 0xFF AND ISZERO PUSH3 0x56E JUMPI PUSH1 0x40 MLOAD PUSH3 0x461BCD PUSH1 0xE5 SHL DUP2 MSTORE PUSH1 0x20 PUSH1 0x4 DUP3 ADD MSTORE PUSH1 0x35 PUSH1 0x24 DUP3 ADD MSTORE PUSH32 0x566F74696E67526F6C654D6F64656C3A20526F6C6520616C7265616479206772 PUSH1 0x44 DUP3 ADD MSTORE PUSH32 0x616E74656420746F207468697320616464726573730000000000000000000000 PUSH1 0x64 DUP3 ADD MSTORE PUSH1 0x84 ADD PUSH3 0x4D4 JUMP JUMPDEST PUSH1 0x1 PUSH1 0x1 PUSH1 0xA0 SHL SUB AND PUSH1 0x0 SWAP1 DUP2 MSTORE PUSH1 0x1 PUSH1 0x20 DUP2 SWAP1 MSTORE PUSH1 0x40 SWAP1 SWAP2 KECCAK256 DUP1 SLOAD PUSH1 0xFF NOT AND SWAP1 SWAP2 OR SWAP1 SSTORE JUMP JUMPDEST PUSH1 0x2 SLOAD PUSH1 0x1 PUSH1 0x1 PUSH1 0xA0 SHL SUB AND CALLER EQ PUSH3 0x5FC JUMPI PUSH1 0x40 MLOAD PUSH3 0x461BCD PUSH1 0xE5 SHL DUP2 MSTORE PUSH1 0x20 PUSH1 0x4 DUP3 ADD MSTORE PUSH1 0x22 PUSH1 0x24 DUP3 ADD MSTORE PUSH32 0x4F6E6C79206F776E65722063616E20706572666F726D20746869732061637469 PUSH1 0x44 DUP3 ADD MSTORE PUSH2 0x37B7 PUSH1 0xF1 SHL PUSH1 0x64 DUP3 ADD MSTORE PUSH1 0x84 ADD PUSH3 0x4D4 JUMP JUMPDEST PUSH1 0x1 PUSH1 0x1 PUSH1 0xA0 SHL SUB DUP2 AND PUSH1 0x0 SWAP1 DUP2 MSTORE PUSH1 0x20 DUP2 SWAP1 MSTORE PUSH1 0x40 SWAP1 KECCAK256 SLOAD PUSH1 0xFF AND ISZERO PUSH3 0x68D JUMPI PUSH1 0x40 MLOAD PUSH3 0x461BCD PUSH1 0xE5 SHL DUP2 MSTORE PUSH1 0x20 PUSH1 0x4 DUP3 ADD MSTORE PUSH1 0x35 PUSH1 0x24 DUP3 ADD MSTORE PUSH32 0x566F74696E67526F6C654D6F64656C3A20526F6C6520616C7265616479206772 PUSH1 0x44 DUP3 ADD MSTORE PUSH32 0x616E74656420746F207468697320616464726573730000000000000000000000 PUSH1 0x64 DUP3 ADD MSTORE PUSH1 0x84 ADD PUSH3 0x4D4 JUMP JUMPDEST PUSH1 0x1 PUSH1 0x1 PUSH1 0xA0 SHL SUB AND PUSH1 0x0 SWAP1 DUP2 MSTORE PUSH1 0x20 DUP2 SWAP1 MSTORE PUSH1 0x40 SWAP1 KECCAK256 DUP1 SLOAD PUSH1 0xFF NOT AND PUSH1 0x1 OR SWAP1 SSTORE JUMP JUMPDEST PUSH1 0x2 SLOAD PUSH1 0x1 PUSH1 0x1 PUSH1 0xA0 SHL SUB AND CALLER EQ PUSH3 0x718 JUMPI PUSH1 0x40 MLOAD PUSH3 0x461BCD PUSH1 0xE5 SHL DUP2 MSTORE PUSH1 0x20 PUSH1 0x4 DUP3 ADD MSTORE PUSH1 0x22 PUSH1 0x24 DUP3 ADD MSTORE PUSH32 0x4F6E6C79206F776E65722063616E20706572666F726D20746869732061637469 PUSH1 0x44 DUP3 ADD MSTORE PUSH2 0x37B7 PUSH1 0xF1 SHL PUSH1 0x64 DUP3 ADD MSTORE PUSH1 0x84 ADD PUSH3 0x4D4 JUMP JUMPDEST PUSH1 0x1 PUSH1 0x1 PUSH1 0xA0 SHL SUB DUP2 AND PUSH1 0x0 SWAP1 DUP2 MSTORE PUSH1 0x1 PUSH1 0x20 MSTORE PUSH1 0x40 SWAP1 KECCAK256 SLOAD PUSH1 0xFF AND PUSH3 0x7A8 JUMPI PUSH1 0x40 MLOAD PUSH3 0x461BCD PUSH1 0xE5 SHL DUP2 MSTORE PUSH1 0x20 PUSH1 0x4 DUP3 ADD MSTORE PUSH1 0x34 PUSH1 0x24 DUP3 ADD MSTORE PUSH32 0x566F74696E67526F6C654D6F64656C3A20526F6C65206973206E6F7420677261 PUSH1 0x44 DUP3 ADD MSTORE PUSH32 0x6E74656420746F20746869732061646472657373000000000000000000000000 PUSH1 0x64 DUP3 ADD MSTORE PUSH1 0x84 ADD PUSH3 0x4D4 JUMP JUMPDEST PUSH1 0x1 PUSH1 0x1 PUSH1 0xA0 SHL SUB AND PUSH1 0x0 SWAP1 DUP2 MSTORE PUSH1 0x1 PUSH1 0x20 MSTORE PUSH1 0x40 SWAP1 KECCAK256 DUP1 SLOAD PUSH1 0xFF NOT AND SWAP1 SSTORE JUMP JUMPDEST CALLER PUSH1 0x0 SWAP1 DUP2 MSTORE PUSH1 0x20 DUP2 SWAP1 MSTORE PUSH1 0x40 DUP2 KECCAK256 SLOAD PUSH1 0xFF AND PUSH3 0x824 JUMPI PUSH1 0x40 MLOAD PUSH3 0x461BCD PUSH1 0xE5 SHL DUP2 MSTORE PUSH1 0x20 PUSH1 0x4 DUP3 ADD MSTORE PUSH1 0x22 PUSH1 0x24 DUP3 ADD MSTORE PUSH1 0x0 DUP1 MLOAD PUSH1 0x20 PUSH3 0x566C DUP4 CODECOPY DUP2 MLOAD SWAP2 MSTORE PUSH1 0x44 DUP3 ADD MSTORE PUSH2 0x37B7 PUSH1 0xF1 SHL PUSH1 0x64 DUP3 ADD MSTORE PUSH1 0x84 ADD PUSH3 0x4D4 JUMP JUMPDEST POP PUSH1 0x3 SLOAD PUSH1 0x1 PUSH1 0x1 PUSH1 0xA0 SHL SUB AND SWAP1 JUMP JUMPDEST CALLER PUSH1 0x0 SWAP1 DUP2 MSTORE PUSH1 0x20 DUP2 SWAP1 MSTORE PUSH1 0x40 SWAP1 KECCAK256 SLOAD PUSH1 0xFF AND PUSH3 0x88F JUMPI PUSH1 0x40 MLOAD PUSH3 0x461BCD PUSH1 0xE5 SHL DUP2 MSTORE PUSH1 0x20 PUSH1 0x4 DUP3 ADD MSTORE PUSH1 0x22 PUSH1 0x24 DUP3 ADD MSTORE PUSH1 0x0 DUP1 MLOAD PUSH1 0x20 PUSH3 0x566C DUP4 CODECOPY DUP2 MLOAD SWAP2 MSTORE PUSH1 0x44 DUP3 ADD MSTORE PUSH2 0x37B7 PUSH1 0xF1 SHL PUSH1 0x64 DUP3 ADD MSTORE PUSH1 0x84 ADD PUSH3 0x4D4 JUMP JUMPDEST PUSH1 0xB SLOAD PUSH1 0xFF AND ISZERO PUSH3 0x8E4 JUMPI PUSH1 0x40 MLOAD PUSH3 0x461BCD PUSH1 0xE5 SHL DUP2 MSTORE PUSH1 0x20 PUSH1 0x4 DUP3 ADD MSTORE PUSH1 0x1D PUSH1 0x24 DUP3 ADD MSTORE PUSH32 0x566F74696E674275696C6465723A205265656E7472616E742063616C6C000000 PUSH1 0x44 DUP3 ADD MSTORE PUSH1 0x64 ADD PUSH3 0x4D4 JUMP JUMPDEST PUSH1 0xB DUP1 SLOAD PUSH1 0xFF NOT AND PUSH1 0x1 SWAP1 DUP2 OR SWAP1 SWAP2 SSTORE PUSH1 0xA SLOAD GT PUSH3 0x96C JUMPI PUSH1 0x40 MLOAD PUSH3 0x461BCD PUSH1 0xE5 SHL DUP2 MSTORE PUSH1 0x20 PUSH1 0x4 DUP3 ADD MSTORE PUSH1 0x37 PUSH1 0x24 DUP3 ADD MSTORE PUSH32 0x566F74696E674275696C6465723A20566F74696E672063616E6E6F7420626520 PUSH1 0x44 DUP3 ADD MSTORE PUSH32 0x6372656174656420776974686F75742063686F69636573000000000000000000 PUSH1 0x64 DUP3 ADD MSTORE PUSH1 0x84 ADD PUSH3 0x4D4 JUMP JUMPDEST PUSH1 0x4 SLOAD PUSH9 0x10000000000000000 SWAP1 DIV PUSH1 0xFF AND ISZERO PUSH3 0xBCB JUMPI PUSH1 0x0 CALLVALUE GT PUSH3 0x9FC JUMPI PUSH1 0x40 MLOAD PUSH3 0x461BCD PUSH1 0xE5 SHL DUP2 MSTORE PUSH1 0x20 PUSH1 0x4 DUP3 ADD MSTORE PUSH1 0x2E PUSH1 0x24 DUP3 ADD MSTORE PUSH32 0x566F74696E674275696C6465723A204E6F2065746865722073656E7420666F72 PUSH1 0x44 DUP3 ADD MSTORE PUSH32 0x2066756E64656420766F74696E67000000000000000000000000000000000000 PUSH1 0x64 DUP3 ADD MSTORE PUSH1 0x84 ADD PUSH3 0x4D4 JUMP JUMPDEST PUSH1 0x8 SLOAD DUP1 PUSH3 0xA74 JUMPI PUSH1 0x40 MLOAD PUSH3 0x461BCD PUSH1 0xE5 SHL DUP2 MSTORE PUSH1 0x20 PUSH1 0x4 DUP3 ADD MSTORE PUSH1 0x2C PUSH1 0x24 DUP3 ADD MSTORE PUSH32 0x566F74696E674275696C6465723A204E6F2061646472657373657320746F2064 PUSH1 0x44 DUP3 ADD MSTORE PUSH32 0x69737472696275746520746F0000000000000000000000000000000000000000 PUSH1 0x64 DUP3 ADD MSTORE PUSH1 0x84 ADD PUSH3 0x4D4 JUMP JUMPDEST PUSH1 0x0 PUSH3 0xA82 DUP3 CALLVALUE PUSH3 0x2AB1 JUMP JUMPDEST SWAP1 POP PUSH1 0x0 DUP1 JUMPDEST DUP4 DUP2 LT ISZERO PUSH3 0xBC1 JUMPI PUSH1 0x0 PUSH1 0x4 DUP1 ADD DUP3 DUP2 SLOAD DUP2 LT PUSH3 0xAAB JUMPI PUSH3 0xAAB PUSH3 0x2AD4 JUMP JUMPDEST PUSH1 0x0 SWAP2 DUP3 MSTORE PUSH1 0x20 DUP3 KECCAK256 ADD SLOAD PUSH1 0x40 MLOAD PUSH1 0x1 PUSH1 0x1 PUSH1 0xA0 SHL SUB SWAP1 SWAP2 AND SWAP3 POP DUP3 SWAP2 DUP7 SWAP2 SWAP1 DUP2 DUP2 DUP2 DUP6 DUP8 GAS CALL SWAP3 POP POP POP RETURNDATASIZE DUP1 PUSH1 0x0 DUP2 EQ PUSH3 0xB04 JUMPI PUSH1 0x40 MLOAD SWAP2 POP PUSH1 0x1F NOT PUSH1 0x3F RETURNDATASIZE ADD AND DUP3 ADD PUSH1 0x40 MSTORE RETURNDATASIZE DUP3 MSTORE RETURNDATASIZE PUSH1 0x0 PUSH1 0x20 DUP5 ADD RETURNDATACOPY PUSH3 0xB09 JUMP JUMPDEST PUSH1 0x60 SWAP2 POP JUMPDEST POP POP PUSH1 0x40 DUP1 MLOAD PUSH32 0x566F74696E674275696C6465723A2065746865722066756E64696E6720666169 PUSH1 0x20 DUP3 ADD MSTORE PUSH32 0x6C656420666F7220766F74657220000000000000000000000000000000000000 DUP2 DUP4 ADD MSTORE PUSH1 0x60 DUP5 SWAP1 SHL PUSH12 0xFFFFFFFFFFFFFFFFFFFFFFFF NOT AND PUSH1 0x4E DUP3 ADD MSTORE DUP2 MLOAD PUSH1 0x42 DUP2 DUP4 SUB ADD DUP2 MSTORE PUSH1 0x62 SWAP1 SWAP2 ADD SWAP1 SWAP2 MSTORE SWAP1 SWAP4 POP DUP4 PUSH3 0xBA9 JUMPI PUSH1 0x40 MLOAD PUSH3 0x461BCD PUSH1 0xE5 SHL DUP2 MSTORE PUSH1 0x4 ADD PUSH3 0x4D4 SWAP2 SWAP1 PUSH3 0x2AEA JUMP JUMPDEST POP POP DUP1 DUP1 PUSH3 0xBB8 SWAP1 PUSH3 0x2AFF JUMP JUMPDEST SWAP2 POP POP PUSH3 0xA88 JUMP JUMPDEST POP POP POP POP PUSH3 0xC41 JUMP JUMPDEST CALLVALUE ISZERO PUSH3 0xC41 JUMPI PUSH1 0x40 MLOAD PUSH3 0x461BCD PUSH1 0xE5 SHL DUP2 MSTORE PUSH1 0x20 PUSH1 0x4 DUP3 ADD MSTORE PUSH1 0x3B PUSH1 0x24 DUP3 ADD MSTORE PUSH32 0x566F74696E674275696C6465723A2046756E64696E6720697320646561637469 PUSH1 0x44 DUP3 ADD MSTORE PUSH32 0x76617465642C2054582076616C75652073686F756C6420626520300000000000 PUSH1 0x64 DUP3 ADD MSTORE PUSH1 0x84 ADD PUSH3 0x4D4 JUMP JUMPDEST PUSH1 0x40 DUP1 MLOAD PUSH2 0x1E0 DUP2 ADD DUP3 MSTORE PUSH1 0x4 DUP1 SLOAD PUSH1 0xFF DUP1 DUP3 AND ISZERO ISZERO DUP5 MSTORE PUSH2 0x100 DUP1 DUP4 DIV DUP3 AND ISZERO ISZERO PUSH1 0x20 DUP1 DUP8 ADD SWAP2 SWAP1 SWAP2 MSTORE PUSH3 0x10000 DUP5 DIV DUP4 AND ISZERO ISZERO DUP7 DUP9 ADD MSTORE PUSH4 0x1000000 DUP5 DIV DUP4 AND ISZERO ISZERO PUSH1 0x60 DUP8 ADD MSTORE PUSH5 0x100000000 DUP5 DIV DUP4 AND ISZERO ISZERO PUSH1 0x80 DUP8 ADD MSTORE PUSH6 0x10000000000 DUP5 DIV DUP4 AND ISZERO ISZERO PUSH1 0xA0 DUP8 ADD MSTORE PUSH7 0x1000000000000 DUP5 DIV DUP4 AND ISZERO ISZERO PUSH1 0xC0 DUP8 ADD MSTORE PUSH8 0x100000000000000 DUP5 DIV DUP4 AND ISZERO ISZERO PUSH1 0xE0 DUP8 ADD MSTORE PUSH9 0x10000000000000000 SWAP1 SWAP4 DIV SWAP1 SWAP2 AND ISZERO ISZERO SWAP1 DUP5 ADD MSTORE PUSH1 0x5 SLOAD PUSH2 0x120 DUP5 ADD MSTORE PUSH1 0x6 SLOAD PUSH2 0x140 DUP5 ADD MSTORE PUSH1 0x7 SLOAD PUSH2 0x160 DUP5 ADD MSTORE PUSH1 0x8 DUP1 SLOAD DUP6 MLOAD DUP2 DUP5 MUL DUP2 ADD DUP5 ADD SWAP1 SWAP7 MSTORE DUP1 DUP7 MSTORE PUSH1 0x0 SWAP6 PUSH2 0x180 DUP7 ADD SWAP4 SWAP1 SWAP3 SWAP2 SWAP1 DUP4 ADD DUP3 DUP3 DUP1 ISZERO PUSH3 0xD60 JUMPI PUSH1 0x20 MUL DUP3 ADD SWAP2 SWAP1 PUSH1 0x0 MSTORE PUSH1 0x20 PUSH1 0x0 KECCAK256 SWAP1 JUMPDEST DUP2 SLOAD PUSH1 0x1 PUSH1 0x1 PUSH1 0xA0 SHL SUB AND DUP2 MSTORE PUSH1 0x1 SWAP1 SWAP2 ADD SWAP1 PUSH1 0x20 ADD DUP1 DUP4 GT PUSH3 0xD41 JUMPI JUMPDEST POP POP POP POP POP DUP2 MSTORE PUSH1 0x20 ADD PUSH1 0x5 DUP3 ADD DUP1 SLOAD DUP1 PUSH1 0x20 MUL PUSH1 0x20 ADD PUSH1 0x40 MLOAD SWAP1 DUP2 ADD PUSH1 0x40 MSTORE DUP1 SWAP3 SWAP2 SWAP1 DUP2 DUP2 MSTORE PUSH1 0x20 ADD DUP3 DUP1 SLOAD DUP1 ISZERO PUSH3 0xDBA JUMPI PUSH1 0x20 MUL DUP3 ADD SWAP2 SWAP1 PUSH1 0x0 MSTORE PUSH1 0x20 PUSH1 0x0 KECCAK256 SWAP1 JUMPDEST DUP2 SLOAD DUP2 MSTORE PUSH1 0x20 ADD SWAP1 PUSH1 0x1 ADD SWAP1 DUP1 DUP4 GT PUSH3 0xDA5 JUMPI JUMPDEST POP POP POP POP POP DUP2 MSTORE PUSH1 0x20 ADD PUSH1 0x6 DUP3 ADD DUP1 SLOAD DUP1 PUSH1 0x20 MUL PUSH1 0x20 ADD PUSH1 0x40 MLOAD SWAP1 DUP2 ADD PUSH1 0x40 MSTORE DUP1 SWAP3 SWAP2 SWAP1 DUP2 DUP2 MSTORE PUSH1 0x20 ADD PUSH1 0x0 SWAP1 JUMPDEST DUP3 DUP3 LT ISZERO PUSH3 0xE9E JUMPI DUP4 DUP3 SWAP1 PUSH1 0x0 MSTORE PUSH1 0x20 PUSH1 0x0 KECCAK256 ADD DUP1 SLOAD PUSH3 0xE0A SWAP1 PUSH3 0x2B27 JUMP JUMPDEST DUP1 PUSH1 0x1F ADD PUSH1 0x20 DUP1 SWAP2 DIV MUL PUSH1 0x20 ADD PUSH1 0x40 MLOAD SWAP1 DUP2 ADD PUSH1 0x40 MSTORE DUP1 SWAP3 SWAP2 SWAP1 DUP2 DUP2 MSTORE PUSH1 0x20 ADD DUP3 DUP1 SLOAD PUSH3 0xE38 SWAP1 PUSH3 0x2B27 JUMP JUMPDEST DUP1 ISZERO PUSH3 0xE89 JUMPI DUP1 PUSH1 0x1F LT PUSH3 0xE5D JUMPI PUSH2 0x100 DUP1 DUP4 SLOAD DIV MUL DUP4 MSTORE SWAP2 PUSH1 0x20 ADD SWAP2 PUSH3 0xE89 JUMP JUMPDEST DUP3 ADD SWAP2 SWAP1 PUSH1 0x0 MSTORE PUSH1 0x20 PUSH1 0x0 KECCAK256 SWAP1 JUMPDEST DUP2 SLOAD DUP2 MSTORE SWAP1 PUSH1 0x1 ADD SWAP1 PUSH1 0x20 ADD DUP1 DUP4 GT PUSH3 0xE6B JUMPI DUP3 SWAP1 SUB PUSH1 0x1F AND DUP3 ADD SWAP2 JUMPDEST POP POP POP POP POP DUP2 MSTORE PUSH1 0x20 ADD SWAP1 PUSH1 0x1 ADD SWAP1 PUSH3 0xDE8 JUMP JUMPDEST POP POP POP POP DUP2 MSTORE POP POP SWAP1 POP DUP1 PUSH1 0x40 MLOAD PUSH3 0xEB7 SWAP1 PUSH3 0x23B7 JUMP JUMPDEST PUSH3 0xEC3 SWAP2 SWAP1 PUSH3 0x27D8 JUMP JUMPDEST PUSH1 0x40 MLOAD DUP1 SWAP2 SUB SWAP1 PUSH1 0x0 CREATE DUP1 ISZERO DUP1 ISZERO PUSH3 0xEE0 JUMPI RETURNDATASIZE PUSH1 0x0 DUP1 RETURNDATACOPY RETURNDATASIZE PUSH1 0x0 REVERT JUMPDEST POP PUSH1 0x3 DUP1 SLOAD PUSH20 0xFFFFFFFFFFFFFFFFFFFFFFFFFFFFFFFFFFFFFFFF NOT AND PUSH1 0x1 PUSH1 0x1 PUSH1 0xA0 SHL SUB SWAP3 SWAP1 SWAP3 AND SWAP2 SWAP1 SWAP2 OR SWAP1 SSTORE POP PUSH1 0xB DUP1 SLOAD PUSH1 0xFF NOT AND SWAP1 SSTORE JUMP JUMPDEST CALLER PUSH1 0x0 SWAP1 DUP2 MSTORE PUSH1 0x20 DUP2 SWAP1 MSTORE PUSH1 0x40 SWAP1 KECCAK256 SLOAD PUSH1 0xFF AND PUSH3 0xF76 JUMPI PUSH1 0x40 MLOAD PUSH3 0x461BCD PUSH1 0xE5 SHL DUP2 MSTORE PUSH1 0x20 PUSH1 0x4 DUP3 ADD MSTORE PUSH1 0x22 PUSH1 0x24 DUP3 ADD MSTORE PUSH1 0x0 DUP1 MLOAD PUSH1 0x20 PUSH3 0x566C DUP4 CODECOPY DUP2 MLOAD SWAP2 MSTORE PUSH1 0x44 DUP3 ADD MSTORE PUSH2 0x37B7 PUSH1 0xF1 SHL PUSH1 0x64 DUP3 ADD MSTORE PUSH1 0x84 ADD PUSH3 0x4D4 JUMP JUMPDEST PUSH1 0x4 SLOAD PUSH5 0x100000000 SWAP1 DIV PUSH1 0xFF AND PUSH3 0x10E6 JUMPI PUSH2 0x1388 DUP2 MLOAD GT ISZERO PUSH3 0x1004 JUMPI PUSH1 0x40 MLOAD PUSH3 0x461BCD PUSH1 0xE5 SHL DUP2 MSTORE PUSH1 0x20 PUSH1 0x4 DUP3 ADD MSTORE PUSH1 0x3B PUSH1 0x24 DUP3 ADD MSTORE PUSH32 0x566F74696E674275696C6465723A205072697661746520766F74696E67207375 PUSH1 0x44 DUP3 ADD MSTORE PUSH32 0x70706F727473203530303020766F74657273206D6178696D756D200000000000 PUSH1 0x64 DUP3 ADD MSTORE PUSH1 0x84 ADD PUSH3 0x4D4 JUMP JUMPDEST PUSH1 0x4 SLOAD PUSH4 0x1000000 SWAP1 DIV PUSH1 0xFF AND ISZERO PUSH3 0x10B8 JUMPI PUSH1 0x6 SLOAD DUP2 MLOAD GT ISZERO PUSH3 0x10B8 JUMPI PUSH1 0x40 MLOAD PUSH3 0x461BCD PUSH1 0xE5 SHL DUP2 MSTORE PUSH1 0x20 PUSH1 0x4 DUP3 ADD MSTORE PUSH1 0x4D PUSH1 0x24 DUP3 ADD MSTORE PUSH32 0x566F74696E674275696C6465723A205072697661746520566F7465727320616D PUSH1 0x44 DUP3 ADD MSTORE PUSH32 0x6F756E742063616E6E6F7420626520686967686572207468616E20746F74616C PUSH1 0x64 DUP3 ADD MSTORE PUSH32 0x20766F74657273206C696D697400000000000000000000000000000000000000 PUSH1 0x84 DUP3 ADD MSTORE PUSH1 0xA4 ADD PUSH3 0x4D4 JUMP JUMPDEST DUP1 MLOAD PUSH3 0x10CD SWAP1 PUSH1 0x8 SWAP1 PUSH1 0x20 DUP5 ADD SWAP1 PUSH3 0x23C5 JUMP JUMPDEST POP PUSH1 0x4 DUP1 SLOAD PUSH5 0xFF00000000 NOT AND PUSH5 0x100000000 OR SWAP1 SSTORE POP JUMP JUMPDEST PUSH3 0x10F4 PUSH1 0x8 PUSH1 0x0 PUSH3 0x243C JUMP JUMPDEST PUSH1 0x4 DUP1 SLOAD PUSH9 0xFF000000FF00FF0000 NOT AND SWAP1 SSTORE JUMPDEST POP JUMP JUMPDEST CALLER PUSH1 0x0 SWAP1 DUP2 MSTORE PUSH1 0x20 DUP2 SWAP1 MSTORE PUSH1 0x40 SWAP1 KECCAK256 SLOAD PUSH1 0xFF AND PUSH3 0x1165 JUMPI PUSH1 0x40 MLOAD PUSH3 0x461BCD PUSH1 0xE5 SHL DUP2 MSTORE PUSH1 0x20 PUSH1 0x4 DUP3 ADD MSTORE PUSH1 0x22 PUSH1 0x24 DUP3 ADD MSTORE PUSH1 0x0 DUP1 MLOAD PUSH1 0x20 PUSH3 0x566C DUP4 CODECOPY DUP2 MLOAD SWAP2 MSTORE PUSH1 0x44 DUP3 ADD MSTORE PUSH2 0x37B7 PUSH1 0xF1 SHL PUSH1 0x64 DUP3 ADD MSTORE PUSH1 0x84 ADD PUSH3 0x4D4 JUMP JUMPDEST PUSH1 0x4 DUP1 SLOAD PUSH7 0xFF000000000000 NOT DUP2 AND PUSH7 0x1000000000000 SWAP2 DUP3 SWAP1 DIV PUSH1 0xFF AND ISZERO SWAP1 SWAP2 MUL OR SWAP1 SSTORE JUMP JUMPDEST CALLER PUSH1 0x0 SWAP1 DUP2 MSTORE PUSH1 0x20 DUP2 SWAP1 MSTORE PUSH1 0x40 SWAP1 KECCAK256 SLOAD PUSH1 0xFF AND PUSH3 0x11E7 JUMPI PUSH1 0x40 MLOAD PUSH3 0x461BCD PUSH1 0xE5 SHL DUP2 MSTORE PUSH1 0x20 PUSH1 0x4 DUP3 ADD MSTORE PUSH1 0x22 PUSH1 0x24 DUP3 ADD MSTORE PUSH1 0x0 DUP1 MLOAD PUSH1 0x20 PUSH3 0x566C DUP4 CODECOPY DUP2 MLOAD SWAP2 MSTORE PUSH1 0x44 DUP3 ADD MSTORE PUSH2 0x37B7 PUSH1 0xF1 SHL PUSH1 0x64 DUP3 ADD MSTORE PUSH1 0x84 ADD PUSH3 0x4D4 JUMP JUMPDEST PUSH1 0x64 DUP2 GT ISZERO PUSH3 0x1286 JUMPI PUSH1 0x40 MLOAD PUSH3 0x461BCD PUSH1 0xE5 SHL DUP2 MSTORE PUSH1 0x20 PUSH1 0x4 DUP3 ADD MSTORE PUSH1 0x42 PUSH1 0x24 DUP3 ADD MSTORE PUSH32 0x566F74696E674275696C6465723A20766F74696E672077696E6E696E67205065 PUSH1 0x44 DUP3 ADD MSTORE PUSH32 0x7263656E74616765206D757374206265206265747765656E203020616E642031 PUSH1 0x64 DUP3 ADD MSTORE PUSH32 0x3030000000000000000000000000000000000000000000000000000000000000 PUSH1 0x84 DUP3 ADD MSTORE PUSH1 0xA4 ADD PUSH3 0x4D4 JUMP JUMPDEST PUSH1 0x32 DUP2 GT PUSH3 0x12A6 JUMPI PUSH1 0x0 PUSH1 0x7 SSTORE PUSH1 0x4 DUP1 SLOAD PUSH6 0xFF0000000000 NOT AND SWAP1 SSTORE POP JUMP JUMPDEST PUSH1 0x7 SSTORE PUSH1 0x4 DUP1 SLOAD PUSH6 0xFF0000000000 NOT AND PUSH6 0x10000000000 OR SWAP1 SSTORE JUMP JUMPDEST PUSH1 0x2 SLOAD PUSH1 0x1 PUSH1 0x1 PUSH1 0xA0 SHL SUB AND CALLER EQ PUSH3 0x1329 JUMPI PUSH1 0x40 MLOAD PUSH3 0x461BCD PUSH1 0xE5 SHL DUP2 MSTORE PUSH1 0x20 PUSH1 0x4 DUP3 ADD MSTORE PUSH1 0x22 PUSH1 0x24 DUP3 ADD MSTORE PUSH32 0x4F6E6C79206F776E65722063616E20706572666F726D20746869732061637469 PUSH1 0x44 DUP3 ADD MSTORE PUSH2 0x37B7 PUSH1 0xF1 SHL PUSH1 0x64 DUP3 ADD MSTORE PUSH1 0x84 ADD PUSH3 0x4D4 JUMP JUMPDEST PUSH1 0x1 PUSH1 0x1 PUSH1 0xA0 SHL SUB DUP2 AND PUSH1 0x0 SWAP1 DUP2 MSTORE PUSH1 0x20 DUP2 SWAP1 MSTORE PUSH1 0x40 SWAP1 KECCAK256 SLOAD PUSH1 0xFF AND PUSH3 0x13B9 JUMPI PUSH1 0x40 MLOAD PUSH3 0x461BCD PUSH1 0xE5 SHL DUP2 MSTORE PUSH1 0x20 PUSH1 0x4 DUP3 ADD MSTORE PUSH1 0x34 PUSH1 0x24 DUP3 ADD MSTORE PUSH32 0x566F74696E67526F6C654D6F64656C3A20526F6C65206973206E6F7420677261 PUSH1 0x44 DUP3 ADD MSTORE PUSH32 0x6E74656420746F20746869732061646472657373000000000000000000000000 PUSH1 0x64 DUP3 ADD MSTORE PUSH1 0x84 ADD PUSH3 0x4D4 JUMP JUMPDEST PUSH1 0x1 PUSH1 0x1 PUSH1 0xA0 SHL SUB AND PUSH1 0x0 SWAP1 DUP2 MSTORE PUSH1 0x20 DUP2 SWAP1 MSTORE PUSH1 0x40 SWAP1 KECCAK256 DUP1 SLOAD PUSH1 0xFF NOT AND SWAP1 SSTORE JUMP JUMPDEST CALLER PUSH1 0x0 SWAP1 DUP2 MSTORE PUSH1 0x20 DUP2 SWAP1 MSTORE PUSH1 0x40 SWAP1 KECCAK256 SLOAD PUSH1 0xFF AND PUSH3 0x1435 JUMPI PUSH1 0x40 MLOAD PUSH3 0x461BCD PUSH1 0xE5 SHL DUP2 MSTORE PUSH1 0x20 PUSH1 0x4 DUP3 ADD MSTORE PUSH1 0x22 PUSH1 0x24 DUP3 ADD MSTORE PUSH1 0x0 DUP1 MLOAD PUSH1 0x20 PUSH3 0x566C DUP4 CODECOPY DUP2 MLOAD SWAP2 MSTORE PUSH1 0x44 DUP3 ADD MSTORE PUSH2 0x37B7 PUSH1 0xF1 SHL PUSH1 0x64 DUP3 ADD MSTORE PUSH1 0x84 ADD PUSH3 0x4D4 JUMP JUMPDEST PUSH1 0x4 SLOAD PUSH1 0xFF AND PUSH3 0x1559 JUMPI PUSH1 0x4 SLOAD PUSH4 0x1000000 SWAP1 DIV PUSH1 0xFF AND ISZERO ISZERO PUSH1 0x1 EQ PUSH3 0x14C6 JUMPI PUSH1 0x40 MLOAD PUSH3 0x461BCD PUSH1 0xE5 SHL DUP2 MSTORE PUSH1 0x20 PUSH1 0x4 DUP3 ADD MSTORE PUSH1 0x3C PUSH1 0x24 DUP3 ADD MSTORE PUSH32 0x566F74696E674275696C6465723A20766F74696E672073686F756C6420686173 PUSH1 0x44 DUP3 ADD MSTORE PUSH32 0x20766F74657273204C696D697420746F20626520526570656174656400000000 PUSH1 0x64 DUP3 ADD MSTORE PUSH1 0x84 ADD PUSH3 0x4D4 JUMP JUMPDEST PUSH1 0x6 SLOAD PUSH2 0x1388 LT ISZERO PUSH3 0x1542 JUMPI PUSH1 0x40 MLOAD PUSH3 0x461BCD PUSH1 0xE5 SHL DUP2 MSTORE PUSH1 0x20 PUSH1 0x4 DUP3 ADD MSTORE PUSH1 0x3C PUSH1 0x24 DUP3 ADD MSTORE PUSH32 0x566F74696E674275696C6465723A20526570656174656420766F74696E672073 PUSH1 0x44 DUP3 ADD MSTORE PUSH32 0x7570706F727473203530303020766F74657273206D6178696D756D2000000000 PUSH1 0x64 DUP3 ADD MSTORE PUSH1 0x84 ADD PUSH3 0x4D4 JUMP JUMPDEST PUSH1 0x4 DUP1 SLOAD PUSH9 0xFF00000000000000FF NOT AND PUSH1 0x1 OR SWAP1 SSTORE JUMP JUMPDEST PUSH1 0x4 DUP1 SLOAD PUSH1 0xFF NOT AND SWAP1 SSTORE JUMP JUMPDEST PUSH1 0x40 DUP1 MLOAD PUSH2 0x1E0 DUP2 ADD DUP3 MSTORE PUSH1 0x0 DUP1 DUP3 MSTORE PUSH1 0x20 DUP1 DUP4 ADD DUP3 SWAP1 MSTORE DUP3 DUP5 ADD DUP3 SWAP1 MSTORE PUSH1 0x60 DUP1 DUP5 ADD DUP4 SWAP1 MSTORE PUSH1 0x80 DUP5 ADD DUP4 SWAP1 MSTORE PUSH1 0xA0 DUP5 ADD DUP4 SWAP1 MSTORE PUSH1 0xC0 DUP5 ADD DUP4 SWAP1 MSTORE PUSH1 0xE0 DUP5 ADD DUP4 SWAP1 MSTORE PUSH2 0x100 DUP5 ADD DUP4 SWAP1 MSTORE PUSH2 0x120 DUP5 ADD DUP4 SWAP1 MSTORE PUSH2 0x140 DUP5 ADD DUP4 SWAP1 MSTORE PUSH2 0x160 DUP5 ADD DUP4 SWAP1 MSTORE PUSH2 0x180 DUP5 ADD DUP2 SWAP1 MSTORE PUSH2 0x1A0 DUP5 ADD DUP2 SWAP1 MSTORE PUSH2 0x1C0 DUP5 ADD MSTORE CALLER DUP3 MSTORE DUP2 SWAP1 MSTORE SWAP2 SWAP1 SWAP2 KECCAK256 SLOAD PUSH1 0xFF AND PUSH3 0x1633 JUMPI PUSH1 0x40 MLOAD PUSH3 0x461BCD PUSH1 0xE5 SHL DUP2 MSTORE PUSH1 0x20 PUSH1 0x4 DUP3 ADD MSTORE PUSH1 0x22 PUSH1 0x24 DUP3 ADD MSTORE PUSH1 0x0 DUP1 MLOAD PUSH1 0x20 PUSH3 0x566C DUP4 CODECOPY DUP2 MLOAD SWAP2 MSTORE PUSH1 0x44 DUP3 ADD MSTORE PUSH2 0x37B7 PUSH1 0xF1 SHL PUSH1 0x64 DUP3 ADD MSTORE PUSH1 0x84 ADD PUSH3 0x4D4 JUMP JUMPDEST PUSH1 0x40 DUP1 MLOAD PUSH2 0x1E0 DUP2 ADD DUP3 MSTORE PUSH1 0x4 DUP1 SLOAD PUSH1 0xFF DUP1 DUP3 AND ISZERO ISZERO DUP5 MSTORE PUSH2 0x100 DUP1 DUP4 DIV DUP3 AND ISZERO ISZERO PUSH1 0x20 DUP1 DUP8 ADD SWAP2 SWAP1 SWAP2 MSTORE PUSH3 0x10000 DUP5 DIV DUP4 AND ISZERO ISZERO DUP7 DUP9 ADD MSTORE PUSH4 0x1000000 DUP5 DIV DUP4 AND ISZERO ISZERO PUSH1 0x60 DUP8 ADD MSTORE PUSH5 0x100000000 DUP5 DIV DUP4 AND ISZERO ISZERO PUSH1 0x80 DUP8 ADD MSTORE PUSH6 0x10000000000 DUP5 DIV DUP4 AND ISZERO ISZERO PUSH1 0xA0 DUP8 ADD MSTORE PUSH7 0x1000000000000 DUP5 DIV DUP4 AND ISZERO ISZERO PUSH1 0xC0 DUP8 ADD MSTORE PUSH8 0x100000000000000 DUP5 DIV DUP4 AND ISZERO ISZERO PUSH1 0xE0 DUP8 ADD MSTORE PUSH9 0x10000000000000000 SWAP1 SWAP4 DIV SWAP1 SWAP2 AND ISZERO ISZERO SWAP1 DUP5 ADD MSTORE PUSH1 0x5 SLOAD PUSH2 0x120 DUP5 ADD MSTORE PUSH1 0x6 SLOAD PUSH2 0x140 DUP5 ADD MSTORE PUSH1 0x7 SLOAD PUSH2 0x160 DUP5 ADD MSTORE PUSH1 0x8 DUP1 SLOAD DUP6 MLOAD DUP2 DUP5 MUL DUP2 ADD DUP5 ADD SWAP1 SWAP7 MSTORE DUP1 DUP7 MSTORE SWAP4 SWAP5 SWAP3 SWAP4 PUSH2 0x180 DUP7 ADD SWAP4 SWAP3 DUP4 ADD DUP3 DUP3 DUP1 ISZERO PUSH3 0x1750 JUMPI PUSH1 0x20 MUL DUP3 ADD SWAP2 SWAP1 PUSH1 0x0 MSTORE PUSH1 0x20 PUSH1 0x0 KECCAK256 SWAP1 JUMPDEST DUP2 SLOAD PUSH1 0x1 PUSH1 0x1 PUSH1 0xA0 SHL SUB AND DUP2 MSTORE PUSH1 0x1 SWAP1 SWAP2 ADD SWAP1 PUSH1 0x20 ADD DUP1 DUP4 GT PUSH3 0x1731 JUMPI JUMPDEST POP POP POP POP POP DUP2 MSTORE PUSH1 0x20 ADD PUSH1 0x5 DUP3 ADD DUP1 SLOAD DUP1 PUSH1 0x20 MUL PUSH1 0x20 ADD PUSH1 0x40 MLOAD SWAP1 DUP2 ADD PUSH1 0x40 MSTORE DUP1 SWAP3 SWAP2 SWAP1 DUP2 DUP2 MSTORE PUSH1 0x20 ADD DUP3 DUP1 SLOAD DUP1 ISZERO PUSH3 0x17AA JUMPI PUSH1 0x20 MUL DUP3 ADD SWAP2 SWAP1 PUSH1 0x0 MSTORE PUSH1 0x20 PUSH1 0x0 KECCAK256 SWAP1 JUMPDEST DUP2 SLOAD DUP2 MSTORE PUSH1 0x20 ADD SWAP1 PUSH1 0x1 ADD SWAP1 DUP1 DUP4 GT PUSH3 0x1795 JUMPI JUMPDEST POP POP POP POP POP DUP2 MSTORE PUSH1 0x20 ADD PUSH1 0x6 DUP3 ADD DUP1 SLOAD DUP1 PUSH1 0x20 MUL PUSH1 0x20 ADD PUSH1 0x40 MLOAD SWAP1 DUP2 ADD PUSH1 0x40 MSTORE DUP1 SWAP3 SWAP2 SWAP1 DUP2 DUP2 MSTORE PUSH1 0x20 ADD PUSH1 0x0 SWAP1 JUMPDEST DUP3 DUP3 LT ISZERO PUSH3 0x188E JUMPI DUP4 DUP3 SWAP1 PUSH1 0x0 MSTORE PUSH1 0x20 PUSH1 0x0 KECCAK256 ADD DUP1 SLOAD PUSH3 0x17FA SWAP1 PUSH3 0x2B27 JUMP JUMPDEST DUP1 PUSH1 0x1F ADD PUSH1 0x20 DUP1 SWAP2 DIV MUL PUSH1 0x20 ADD PUSH1 0x40 MLOAD SWAP1 DUP2 ADD PUSH1 0x40 MSTORE DUP1 SWAP3 SWAP2 SWAP1 DUP2 DUP2 MSTORE PUSH1 0x20 ADD DUP3 DUP1 SLOAD PUSH3 0x1828 SWAP1 PUSH3 0x2B27 JUMP JUMPDEST DUP1 ISZERO PUSH3 0x1879 JUMPI DUP1 PUSH1 0x1F LT PUSH3 0x184D JUMPI PUSH2 0x100 DUP1 DUP4 SLOAD DIV MUL DUP4 MSTORE SWAP2 PUSH1 0x20 ADD SWAP2 PUSH3 0x1879 JUMP JUMPDEST DUP3 ADD SWAP2 SWAP1 PUSH1 0x0 MSTORE PUSH1 0x20 PUSH1 0x0 KECCAK256 SWAP1 JUMPDEST DUP2 SLOAD DUP2 MSTORE SWAP1 PUSH1 0x1 ADD SWAP1 PUSH1 0x20 ADD DUP1 DUP4 GT PUSH3 0x185B JUMPI DUP3 SWAP1 SUB PUSH1 0x1F AND DUP3 ADD SWAP2 JUMPDEST POP POP POP POP POP DUP2 MSTORE PUSH1 0x20 ADD SWAP1 PUSH1 0x1 ADD SWAP1 PUSH3 0x17D8 JUMP JUMPDEST POP POP POP POP DUP2 MSTORE POP POP SWAP1 POP SWAP1 JUMP JUMPDEST CALLER PUSH1 0x0 SWAP1 DUP2 MSTORE PUSH1 0x20 DUP2 SWAP1 MSTORE PUSH1 0x40 SWAP1 KECCAK256 SLOAD PUSH1 0xFF AND PUSH3 0x18F6 JUMPI PUSH1 0x40 MLOAD PUSH3 0x461BCD PUSH1 0xE5 SHL DUP2 MSTORE PUSH1 0x20 PUSH1 0x4 DUP3 ADD MSTORE PUSH1 0x22 PUSH1 0x24 DUP3 ADD MSTORE PUSH1 0x0 DUP1 MLOAD PUSH1 0x20 PUSH3 0x566C DUP4 CODECOPY DUP2 MLOAD SWAP2 MSTORE PUSH1 0x44 DUP3 ADD MSTORE PUSH2 0x37B7 PUSH1 0xF1 SHL PUSH1 0x64 DUP3 ADD MSTORE PUSH1 0x84 ADD PUSH3 0x4D4 JUMP JUMPDEST PUSH1 0x4 DUP1 SLOAD PUSH2 0xFF00 NOT DUP2 AND PUSH2 0x100 SWAP2 DUP3 SWAP1 DIV PUSH1 0xFF AND ISZERO SWAP1 SWAP2 MUL OR SWAP1 SSTORE JUMP JUMPDEST CALLER PUSH1 0x0 SWAP1 DUP2 MSTORE PUSH1 0x20 DUP2 SWAP1 MSTORE PUSH1 0x40 SWAP1 KECCAK256 SLOAD PUSH1 0xFF AND PUSH3 0x196E JUMPI PUSH1 0x40 MLOAD PUSH3 0x461BCD PUSH1 0xE5 SHL DUP2 MSTORE PUSH1 0x20 PUSH1 0x4 DUP3 ADD MSTORE PUSH1 0x22 PUSH1 0x24 DUP3 ADD MSTORE PUSH1 0x0 DUP1 MLOAD PUSH1 0x20 PUSH3 0x566C DUP4 CODECOPY DUP2 MLOAD SWAP2 MSTORE PUSH1 0x44 DUP3 ADD MSTORE PUSH2 0x37B7 PUSH1 0xF1 SHL PUSH1 0x64 DUP3 ADD MSTORE PUSH1 0x84 ADD PUSH3 0x4D4 JUMP JUMPDEST PUSH1 0x4 SLOAD PUSH4 0x1000000 SWAP1 DIV PUSH1 0xFF AND PUSH3 0x1998 JUMPI PUSH1 0x6 SSTORE PUSH1 0x4 DUP1 SLOAD PUSH4 0xFF000000 NOT AND PUSH4 0x1000000 OR SWAP1 SSTORE JUMP JUMPDEST PUSH1 0x4 DUP1 SLOAD PUSH1 0x0 PUSH1 0x6 SSTORE PUSH9 0xFF000000FFFFFF0000 NOT AND SWAP1 SSTORE POP JUMP JUMPDEST CALLER PUSH1 0x0 SWAP1 DUP2 MSTORE PUSH1 0x20 DUP2 SWAP1 MSTORE PUSH1 0x40 SWAP1 KECCAK256 SLOAD PUSH1 0xFF AND PUSH3 0x1A0D JUMPI PUSH1 0x40 MLOAD PUSH3 0x461BCD PUSH1 0xE5 SHL DUP2 MSTORE PUSH1 0x20 PUSH1 0x4 DUP3 ADD MSTORE PUSH1 0x22 PUSH1 0x24 DUP3 ADD MSTORE PUSH1 0x0 DUP1 MLOAD PUSH1 0x20 PUSH3 0x566C DUP4 CODECOPY DUP2 MLOAD SWAP2 MSTORE PUSH1 0x44 DUP3 ADD MSTORE PUSH2 0x37B7 PUSH1 0xF1 SHL PUSH1 0x64 DUP3 ADD MSTORE PUSH1 0x84 ADD PUSH3 0x4D4 JUMP JUMPDEST PUSH1 0x14 DUP2 MLOAD GT ISZERO PUSH3 0x1A87 JUMPI PUSH1 0x40 MLOAD PUSH3 0x461BCD PUSH1 0xE5 SHL DUP2 MSTORE PUSH1 0x20 PUSH1 0x4 DUP3 ADD MSTORE PUSH1 0x27 PUSH1 0x24 DUP3 ADD MSTORE PUSH32 0x566F74696E674275696C6465723A204D61782063686F6963657320616D6F756E PUSH1 0x44 DUP3 ADD MSTORE PUSH32 0x7420697320323000000000000000000000000000000000000000000000000000 PUSH1 0x64 DUP3 ADD MSTORE PUSH1 0x84 ADD PUSH3 0x4D4 JUMP JUMPDEST PUSH3 0x1A95 PUSH1 0xA PUSH1 0x0 PUSH3 0x245C JUMP JUMPDEST PUSH1 0x1 DUP2 MLOAD GT PUSH3 0x1B9F JUMPI PUSH1 0xA DUP1 SLOAD PUSH1 0x1 DUP2 ADD DUP3 SSTORE PUSH1 0x0 SWAP2 SWAP1 SWAP2 MSTORE PUSH1 0x40 DUP1 MLOAD DUP1 DUP3 ADD SWAP1 SWAP2 MSTORE PUSH1 0x3 DUP2 MSTORE PUSH32 0x7965730000000000000000000000000000000000000000000000000000000000 PUSH1 0x20 DUP3 ADD MSTORE PUSH32 0xC65A7BB8D6351C1CF70C95A316CC6A92839C986682D98BC35F958F4883F9D2A8 SWAP1 SWAP2 ADD SWAP1 PUSH3 0x1B14 SWAP1 DUP3 PUSH3 0x2BB6 JUMP JUMPDEST POP PUSH1 0xA DUP1 SLOAD PUSH1 0x1 DUP2 ADD DUP3 SSTORE PUSH1 0x0 SWAP2 SWAP1 SWAP2 MSTORE PUSH1 0x40 DUP1 MLOAD DUP1 DUP3 ADD SWAP1 SWAP2 MSTORE PUSH1 0x2 DUP2 MSTORE PUSH32 0x6E6F000000000000000000000000000000000000000000000000000000000000 PUSH1 0x20 DUP3 ADD MSTORE PUSH32 0xC65A7BB8D6351C1CF70C95A316CC6A92839C986682D98BC35F958F4883F9D2A8 SWAP1 SWAP2 ADD SWAP1 PUSH3 0x1B8A SWAP1 DUP3 PUSH3 0x2BB6 JUMP JUMPDEST POP PUSH1 0x4 DUP1 SLOAD PUSH8 0xFF00000000000000 NOT AND SWAP1 SSTORE POP JUMP JUMPDEST DUP1 MLOAD PUSH3 0x1BB4 SWAP1 PUSH1 0xA SWAP1 PUSH1 0x20 DUP5 ADD SWAP1 PUSH3 0x247C JUMP JUMPDEST POP PUSH1 0x4 DUP1 SLOAD PUSH8 0xFF00000000000000 NOT AND PUSH8 0x100000000000000 OR SWAP1 SSTORE POP JUMP JUMPDEST CALLER PUSH1 0x0 SWAP1 DUP2 MSTORE PUSH1 0x20 DUP2 SWAP1 MSTORE PUSH1 0x40 SWAP1 KECCAK256 SLOAD PUSH1 0xFF AND PUSH3 0x1C2E JUMPI PUSH1 0x40 MLOAD PUSH3 0x461BCD PUSH1 0xE5 SHL DUP2 MSTORE PUSH1 0x20 PUSH1 0x4 DUP3 ADD MSTORE PUSH1 0x22 PUSH1 0x24 DUP3 ADD MSTORE PUSH1 0x0 DUP1 MLOAD PUSH1 0x20 PUSH3 0x566C DUP4 CODECOPY DUP2 MLOAD SWAP2 MSTORE PUSH1 0x44 DUP3 ADD MSTORE PUSH2 0x37B7 PUSH1 0xF1 SHL PUSH1 0x64 DUP3 ADD MSTORE PUSH1 0x84 ADD PUSH3 0x4D4 JUMP JUMPDEST PUSH1 0x4 SLOAD PUSH9 0x10000000000000000 SWAP1 DIV PUSH1 0xFF AND PUSH3 0x1EFF JUMPI PUSH1 0x4 SLOAD PUSH4 0x1000000 SWAP1 DIV PUSH1 0xFF AND ISZERO ISZERO PUSH1 0x1 EQ PUSH3 0x1CF1 JUMPI PUSH1 0x40 MLOAD PUSH3 0x461BCD PUSH1 0xE5 SHL DUP2 MSTORE PUSH1 0x20 PUSH1 0x4 DUP3 ADD MSTORE PUSH1 0x47 PUSH1 0x24 DUP3 ADD MSTORE PUSH32 0x566F74696E674275696C6465723A20766F74696E672073686F756C6420686173 PUSH1 0x44 DUP3 ADD MSTORE PUSH32 0x20766F74657273206C696D697420746F2062652061626C6520746F2066756E64 PUSH1 0x64 DUP3 ADD MSTORE PUSH32 0x20766F7465727300000000000000000000000000000000000000000000000000 PUSH1 0x84 DUP3 ADD MSTORE PUSH1 0xA4 ADD PUSH3 0x4D4 JUMP JUMPDEST PUSH1 0x4 SLOAD PUSH5 0x100000000 SWAP1 DIV PUSH1 0xFF AND ISZERO ISZERO PUSH1 0x1 EQ PUSH3 0x1D9E JUMPI PUSH1 0x40 MLOAD PUSH3 0x461BCD PUSH1 0xE5 SHL DUP2 MSTORE PUSH1 0x20 PUSH1 0x4 DUP3 ADD MSTORE PUSH1 0x49 PUSH1 0x24 DUP3 ADD MSTORE PUSH32 0x566F74696E674275696C6465723A20766F74696E672073686F756C6420686173 PUSH1 0x44 DUP3 ADD MSTORE PUSH32 0x207072697661746520766F7465727320746F2062652061626C6520746F206675 PUSH1 0x64 DUP3 ADD MSTORE PUSH32 0x6E6420766F746572730000000000000000000000000000000000000000000000 PUSH1 0x84 DUP3 ADD MSTORE PUSH1 0xA4 ADD PUSH3 0x4D4 JUMP JUMPDEST PUSH1 0x6 SLOAD DUP2 LT ISZERO PUSH3 0x1E3E JUMPI PUSH1 0x40 MLOAD PUSH3 0x461BCD PUSH1 0xE5 SHL DUP2 MSTORE PUSH1 0x20 PUSH1 0x4 DUP3 ADD MSTORE PUSH1 0x4A PUSH1 0x24 DUP3 ADD MSTORE PUSH32 0x566F74696E674275696C6465723A2046756E64696E67207573657273206C696D PUSH1 0x44 DUP3 ADD MSTORE PUSH32 0x69742063616E6E6F74206265206C6F776572207468616E20746F74616C20766F PUSH1 0x64 DUP3 ADD MSTORE PUSH32 0x74657273206C696D697400000000000000000000000000000000000000000000 PUSH1 0x84 DUP3 ADD MSTORE PUSH1 0xA4 ADD PUSH3 0x4D4 JUMP JUMPDEST PUSH1 0x8 SLOAD DUP2 EQ PUSH3 0x1EDD JUMPI PUSH1 0x40 MLOAD PUSH3 0x461BCD PUSH1 0xE5 SHL DUP2 MSTORE PUSH1 0x20 PUSH1 0x4 DUP3 ADD MSTORE PUSH1 0x45 PUSH1 0x24 DUP3 ADD MSTORE PUSH32 0x566F74696E674275696C6465723A2046756E64696E67207573657273206C696D PUSH1 0x44 DUP3 ADD MSTORE PUSH32 0x697420616E64205072697661746520566F7465727320616D6F756E74206D6973 PUSH1 0x64 DUP3 ADD MSTORE PUSH32 0x6D61746368000000000000000000000000000000000000000000000000000000 PUSH1 0x84 DUP3 ADD MSTORE PUSH1 0xA4 ADD PUSH3 0x4D4 JUMP JUMPDEST PUSH1 0x5 SSTORE PUSH1 0x4 DUP1 SLOAD PUSH9 0xFF0000000000000000 NOT AND PUSH9 0x10000000000000000 OR SWAP1 SSTORE JUMP JUMPDEST PUSH1 0x4 DUP1 SLOAD PUSH9 0xFF0000000000000000 NOT AND SWAP1 SSTORE POP JUMP JUMPDEST PUSH1 0x2 SLOAD PUSH1 0x1 PUSH1 0x1 PUSH1 0xA0 SHL SUB AND CALLER EQ PUSH3 0x1F7B JUMPI PUSH1 0x40 MLOAD PUSH3 0x461BCD PUSH1 0xE5 SHL DUP2 MSTORE PUSH1 0x20 PUSH1 0x4 DUP3 ADD MSTORE PUSH1 0x22 PUSH1 0x24 DUP3 ADD MSTORE PUSH32 0x4F6E6C79206F776E65722063616E20706572666F726D20746869732061637469 PUSH1 0x44 DUP3 ADD MSTORE PUSH2 0x37B7 PUSH1 0xF1 SHL PUSH1 0x64 DUP3 ADD MSTORE PUSH1 0x84 ADD PUSH3 0x4D4 JUMP JUMPDEST PUSH1 0x2 SLOAD PUSH1 0x1 PUSH1 0x1 PUSH1 0xA0 SHL SUB SWAP1 DUP2 AND SWAP1 DUP3 AND SUB PUSH3 0x2001 JUMPI PUSH1 0x40 MLOAD PUSH3 0x461BCD PUSH1 0xE5 SHL DUP2 MSTORE PUSH1 0x20 PUSH1 0x4 DUP3 ADD MSTORE PUSH1 0x35 PUSH1 0x24 DUP3 ADD MSTORE PUSH32 0x566F74696E67526F6C654D6F64656C3A2063616E6E6F74207472616E73666572 PUSH1 0x44 DUP3 ADD MSTORE PUSH32 0x204F776E65727368697020746F2068696D73656C660000000000000000000000 PUSH1 0x64 DUP3 ADD MSTORE PUSH1 0x84 ADD PUSH3 0x4D4 JUMP JUMPDEST PUSH1 0x2 DUP1 SLOAD PUSH20 0xFFFFFFFFFFFFFFFFFFFFFFFFFFFFFFFFFFFFFFFF NOT AND PUSH1 0x1 PUSH1 0x1 PUSH1 0xA0 SHL SUB SWAP3 SWAP1 SWAP3 AND SWAP2 SWAP1 SWAP2 OR SWAP1 SSTORE JUMP JUMPDEST CALLER PUSH1 0x0 SWAP1 DUP2 MSTORE PUSH1 0x20 DUP2 SWAP1 MSTORE PUSH1 0x40 SWAP1 KECCAK256 SLOAD PUSH1 0xFF AND PUSH3 0x208B JUMPI PUSH1 0x40 MLOAD PUSH3 0x461BCD PUSH1 0xE5 SHL DUP2 MSTORE PUSH1 0x20 PUSH1 0x4 DUP3 ADD MSTORE PUSH1 0x22 PUSH1 0x24 DUP3 ADD MSTORE PUSH1 0x0 DUP1 MLOAD PUSH1 0x20 PUSH3 0x566C DUP4 CODECOPY DUP2 MLOAD SWAP2 MSTORE PUSH1 0x44 DUP3 ADD MSTORE PUSH2 0x37B7 PUSH1 0xF1 SHL PUSH1 0x64 DUP3 ADD MSTORE PUSH1 0x84 ADD PUSH3 0x4D4 JUMP JUMPDEST PUSH1 0x4 SLOAD PUSH3 0x10000 SWAP1 DIV PUSH1 0xFF AND PUSH3 0x239A JUMPI PUSH1 0x4 SLOAD PUSH4 0x1000000 SWAP1 DIV PUSH1 0xFF AND ISZERO ISZERO PUSH1 0x1 EQ PUSH3 0x2148 JUMPI PUSH1 0x40 MLOAD PUSH3 0x461BCD PUSH1 0xE5 SHL DUP2 MSTORE PUSH1 0x20 PUSH1 0x4 DUP3 ADD MSTORE PUSH1 0x46 PUSH1 0x24 DUP3 ADD MSTORE PUSH32 0x566F74696E674275696C6465723A20766F74696E672073686F756C6420686173 PUSH1 0x44 DUP3 ADD MSTORE PUSH32 0x20766F74657273206C696D697420746F206772616E7420706F77657220746F20 PUSH1 0x64 DUP3 ADD MSTORE PUSH32 0x766F746572730000000000000000000000000000000000000000000000000000 PUSH1 0x84 DUP3 ADD MSTORE PUSH1 0xA4 ADD PUSH3 0x4D4 JUMP JUMPDEST PUSH1 0x4 SLOAD PUSH5 0x100000000 SWAP1 DIV PUSH1 0xFF AND ISZERO ISZERO PUSH1 0x1 EQ PUSH3 0x21F5 JUMPI PUSH1 0x40 MLOAD PUSH3 0x461BCD PUSH1 0xE5 SHL DUP2 MSTORE PUSH1 0x20 PUSH1 0x4 DUP3 ADD MSTORE PUSH1 0x48 PUSH1 0x24 DUP3 ADD MSTORE PUSH32 0x566F74696E674275696C6465723A20766F74696E672073686F756C6420686173 PUSH1 0x44 DUP3 ADD MSTORE PUSH32 0x207072697661746520766F7465727320746F206772616E7420706F7765722074 PUSH1 0x64 DUP3 ADD MSTORE PUSH32 0x6F20766F74657273000000000000000000000000000000000000000000000000 PUSH1 0x84 DUP3 ADD MSTORE PUSH1 0xA4 ADD PUSH3 0x4D4 JUMP JUMPDEST PUSH1 0x8 SLOAD DUP2 MLOAD EQ PUSH3 0x2295 JUMPI PUSH1 0x40 MLOAD PUSH3 0x461BCD PUSH1 0xE5 SHL DUP2 MSTORE PUSH1 0x20 PUSH1 0x4 DUP3 ADD MSTORE PUSH1 0x4D PUSH1 0x24 DUP3 ADD MSTORE PUSH32 0x566F74696E674275696C6465723A20766F74657220506F7765727320616E6420 PUSH1 0x44 DUP3 ADD MSTORE PUSH32 0x616C6C6F776564205072697661746520566F7465727320617272617973206C65 PUSH1 0x64 DUP3 ADD MSTORE PUSH32 0x6E677468206D69736D6174636800000000000000000000000000000000000000 PUSH1 0x84 DUP3 ADD MSTORE PUSH1 0xA4 ADD PUSH3 0x4D4 JUMP JUMPDEST PUSH1 0x0 JUMPDEST DUP2 MLOAD DUP2 LT ISZERO PUSH3 0x2385 JUMPI PUSH1 0x1 DUP3 DUP3 DUP2 MLOAD DUP2 LT PUSH3 0x22B9 JUMPI PUSH3 0x22B9 PUSH3 0x2AD4 JUMP JUMPDEST PUSH1 0x20 MUL PUSH1 0x20 ADD ADD MLOAD LT ISZERO PUSH3 0x2337 JUMPI PUSH1 0x40 MLOAD PUSH3 0x461BCD PUSH1 0xE5 SHL DUP2 MSTORE PUSH1 0x20 PUSH1 0x4 DUP3 ADD MSTORE PUSH1 0x2D PUSH1 0x24 DUP3 ADD MSTORE PUSH32 0x566F74696E674275696C6465723A20766F74657220506F776572206D75737420 PUSH1 0x44 DUP3 ADD MSTORE PUSH32 0x6265206174206C65617374203100000000000000000000000000000000000000 PUSH1 0x64 DUP3 ADD MSTORE PUSH1 0x84 ADD PUSH3 0x4D4 JUMP JUMPDEST PUSH1 0x4 PUSH1 0x5 ADD DUP3 DUP3 DUP2 MLOAD DUP2 LT PUSH3 0x2351 JUMPI PUSH3 0x2351 PUSH3 0x2AD4 JUMP JUMPDEST PUSH1 0x20 SWAP1 DUP2 MUL SWAP2 SWAP1 SWAP2 ADD DUP2 ADD MLOAD DUP3 SLOAD PUSH1 0x1 DUP2 ADD DUP5 SSTORE PUSH1 0x0 SWAP4 DUP5 MSTORE SWAP2 SWAP1 SWAP3 KECCAK256 ADD SSTORE DUP1 PUSH3 0x237C DUP2 PUSH3 0x2AFF JUMP JUMPDEST SWAP2 POP POP PUSH3 0x2298 JUMP JUMPDEST POP PUSH1 0x4 DUP1 SLOAD PUSH3 0xFF0000 NOT AND PUSH3 0x10000 OR SWAP1 SSTORE POP JUMP JUMPDEST PUSH3 0x23A8 PUSH1 0x9 PUSH1 0x0 PUSH3 0x243C JUMP JUMPDEST PUSH1 0x4 DUP1 SLOAD PUSH3 0xFF0000 NOT AND SWAP1 SSTORE POP JUMP JUMPDEST PUSH2 0x29E8 DUP1 PUSH3 0x2C84 DUP4 CODECOPY ADD SWAP1 JUMP JUMPDEST DUP3 DUP1 SLOAD DUP3 DUP3 SSTORE SWAP1 PUSH1 0x0 MSTORE PUSH1 0x20 PUSH1 0x0 KECCAK256 SWAP1 DUP2 ADD SWAP3 DUP3 ISZERO PUSH3 0x242A JUMPI SWAP2 PUSH1 0x20 MUL DUP3 ADD JUMPDEST DUP3 DUP2 GT ISZERO PUSH3 0x242A JUMPI DUP3 MLOAD DUP3 SLOAD PUSH20 0xFFFFFFFFFFFFFFFFFFFFFFFFFFFFFFFFFFFFFFFF NOT AND PUSH1 0x1 PUSH1 0x1 PUSH1 0xA0 SHL SUB SWAP1 SWAP2 AND OR DUP3 SSTORE PUSH1 0x20 SWAP1 SWAP3 ADD SWAP2 PUSH1 0x1 SWAP1 SWAP2 ADD SWAP1 PUSH3 0x23E6 JUMP JUMPDEST POP PUSH3 0x2438 SWAP3 SWAP2 POP PUSH3 0x24D5 JUMP JUMPDEST POP SWAP1 JUMP JUMPDEST POP DUP1 SLOAD PUSH1 0x0 DUP3 SSTORE SWAP1 PUSH1 0x0 MSTORE PUSH1 0x20 PUSH1 0x0 KECCAK256 SWAP1 DUP2 ADD SWAP1 PUSH3 0x1107 SWAP2 SWAP1 PUSH3 0x24D5 JUMP JUMPDEST POP DUP1 SLOAD PUSH1 0x0 DUP3 SSTORE SWAP1 PUSH1 0x0 MSTORE PUSH1 0x20 PUSH1 0x0 KECCAK256 SWAP1 DUP2 ADD SWAP1 PUSH3 0x1107 SWAP2 SWAP1 PUSH3 0x24EC JUMP JUMPDEST DUP3 DUP1 SLOAD DUP3 DUP3 SSTORE SWAP1 PUSH1 0x0 MSTORE PUSH1 0x20 PUSH1 0x0 KECCAK256 SWAP1 DUP2 ADD SWAP3 DUP3 ISZERO PUSH3 0x24C7 JUMPI SWAP2 PUSH1 0x20 MUL DUP3 ADD JUMPDEST DUP3 DUP2 GT ISZERO PUSH3 0x24C7 JUMPI DUP3 MLOAD DUP3 SWAP1 PUSH3 0x24B6 SWAP1 DUP3 PUSH3 0x2BB6 JUMP JUMPDEST POP SWAP2 PUSH1 0x20 ADD SWAP2 SWAP1 PUSH1 0x1 ADD SWAP1 PUSH3 0x249D JUMP JUMPDEST POP PUSH3 0x2438 SWAP3 SWAP2 POP PUSH3 0x24EC JUMP JUMPDEST JUMPDEST DUP1 DUP3 GT ISZERO PUSH3 0x2438 JUMPI PUSH1 0x0 DUP2 SSTORE PUSH1 0x1 ADD PUSH3 0x24D6 JUMP JUMPDEST DUP1 DUP3 GT ISZERO PUSH3 0x2438 JUMPI PUSH1 0x0 PUSH3 0x2503 DUP3 DUP3 PUSH3 0x250D JUMP JUMPDEST POP PUSH1 0x1 ADD PUSH3 0x24EC JUMP JUMPDEST POP DUP1 SLOAD PUSH3 0x251B SWAP1 PUSH3 0x2B27 JUMP JUMPDEST PUSH1 0x0 DUP3 SSTORE DUP1 PUSH1 0x1F LT PUSH3 0x252C JUMPI POP POP JUMP JUMPDEST PUSH1 0x1F ADD PUSH1 0x20 SWAP1 DIV SWAP1 PUSH1 0x0 MSTORE PUSH1 0x20 PUSH1 0x0 KECCAK256 SWAP1 DUP2 ADD SWAP1 PUSH3 0x1107 SWAP2 SWAP1 PUSH3 0x24D5 JUMP JUMPDEST DUP1 CALLDATALOAD PUSH1 0x1 PUSH1 0x1 PUSH1 0xA0 SHL SUB DUP2 AND DUP2 EQ PUSH3 0x2564 JUMPI PUSH1 0x0 DUP1 REVERT JUMPDEST SWAP2 SWAP1 POP JUMP JUMPDEST PUSH1 0x0 PUSH1 0x20 DUP3 DUP5 SUB SLT ISZERO PUSH3 0x257C JUMPI PUSH1 0x0 DUP1 REVERT JUMPDEST PUSH3 0x2587 DUP3 PUSH3 0x254C JUMP JUMPDEST SWAP4 SWAP3 POP POP POP JUMP JUMPDEST PUSH4 0x4E487B71 PUSH1 0xE0 SHL PUSH1 0x0 MSTORE PUSH1 0x41 PUSH1 0x4 MSTORE PUSH1 0x24 PUSH1 0x0 REVERT JUMPDEST PUSH1 0x40 MLOAD PUSH1 0x1F DUP3 ADD PUSH1 0x1F NOT AND DUP2 ADD PUSH8 0xFFFFFFFFFFFFFFFF DUP2 GT DUP3 DUP3 LT OR ISZERO PUSH3 0x25D0 JUMPI PUSH3 0x25D0 PUSH3 0x258E JUMP JUMPDEST PUSH1 0x40 MSTORE SWAP2 SWAP1 POP JUMP JUMPDEST PUSH1 0x0 PUSH8 0xFFFFFFFFFFFFFFFF DUP3 GT ISZERO PUSH3 0x25F5 JUMPI PUSH3 0x25F5 PUSH3 0x258E JUMP JUMPDEST POP PUSH1 0x5 SHL PUSH1 0x20 ADD SWAP1 JUMP JUMPDEST PUSH1 0x0 PUSH1 0x20 DUP1 DUP4 DUP6 SUB SLT ISZERO PUSH3 0x2613 JUMPI PUSH1 0x0 DUP1 REVERT JUMPDEST DUP3 CALLDATALOAD PUSH8 0xFFFFFFFFFFFFFFFF DUP2 GT ISZERO PUSH3 0x262B JUMPI PUSH1 0x0 DUP1 REVERT JUMPDEST DUP4 ADD PUSH1 0x1F DUP2 ADD DUP6 SGT PUSH3 0x263D JUMPI PUSH1 0x0 DUP1 REVERT JUMPDEST DUP1 CALLDATALOAD PUSH3 0x2654 PUSH3 0x264E DUP3 PUSH3 0x25D8 JUMP JUMPDEST PUSH3 0x25A4 JUMP JUMPDEST DUP2 DUP2 MSTORE PUSH1 0x5 SWAP2 SWAP1 SWAP2 SHL DUP3 ADD DUP4 ADD SWAP1 DUP4 DUP2 ADD SWAP1 DUP8 DUP4 GT ISZERO PUSH3 0x2674 JUMPI PUSH1 0x0 DUP1 REVERT JUMPDEST SWAP3 DUP5 ADD SWAP3 JUMPDEST DUP3 DUP5 LT ISZERO PUSH3 0x269D JUMPI PUSH3 0x268D DUP5 PUSH3 0x254C JUMP JUMPDEST DUP3 MSTORE SWAP3 DUP5 ADD SWAP3 SWAP1 DUP5 ADD SWAP1 PUSH3 0x2679 JUMP JUMPDEST SWAP8 SWAP7 POP POP POP POP POP POP POP JUMP JUMPDEST PUSH1 0x0 PUSH1 0x20 DUP3 DUP5 SUB SLT ISZERO PUSH3 0x26BB JUMPI PUSH1 0x0 DUP1 REVERT JUMPDEST POP CALLDATALOAD SWAP2 SWAP1 POP JUMP JUMPDEST PUSH1 0x0 DUP2 MLOAD DUP1 DUP5 MSTORE PUSH1 0x20 DUP1 DUP6 ADD SWAP5 POP DUP1 DUP5 ADD PUSH1 0x0 JUMPDEST DUP4 DUP2 LT ISZERO PUSH3 0x26FD JUMPI DUP2 MLOAD PUSH1 0x1 PUSH1 0x1 PUSH1 0xA0 SHL SUB AND DUP8 MSTORE SWAP6 DUP3 ADD SWAP6 SWAP1 DUP3 ADD SWAP1 PUSH1 0x1 ADD PUSH3 0x26D6 JUMP JUMPDEST POP SWAP5 SWAP6 SWAP5 POP POP POP POP POP JUMP JUMPDEST PUSH1 0x0 DUP2 MLOAD DUP1 DUP5 MSTORE PUSH1 0x20 DUP1 DUP6 ADD SWAP5 POP DUP1 DUP5 ADD PUSH1 0x0 JUMPDEST DUP4 DUP2 LT ISZERO PUSH3 0x26FD JUMPI DUP2 MLOAD DUP8 MSTORE SWAP6 DUP3 ADD SWAP6 SWAP1 DUP3 ADD SWAP1 PUSH1 0x1 ADD PUSH3 0x271C JUMP JUMPDEST PUSH1 0x0 DUP2 MLOAD DUP1 DUP5 MSTORE PUSH1 0x0 JUMPDEST DUP2 DUP2 LT ISZERO PUSH3 0x2762 JUMPI PUSH1 0x20 DUP2 DUP6 ADD DUP2 ADD MLOAD DUP7 DUP4 ADD DUP3 ADD MSTORE ADD PUSH3 0x2744 JUMP JUMPDEST POP PUSH1 0x0 PUSH1 0x20 DUP3 DUP7 ADD ADD MSTORE PUSH1 0x20 PUSH1 0x1F NOT PUSH1 0x1F DUP4 ADD AND DUP6 ADD ADD SWAP2 POP POP SWAP3 SWAP2 POP POP JUMP JUMPDEST PUSH1 0x0 DUP2 MLOAD DUP1 DUP5 MSTORE PUSH1 0x20 DUP1 DUP6 ADD SWAP5 POP DUP5 DUP3 PUSH1 0x5 SHL DUP7 ADD DUP3 DUP7 ADD PUSH1 0x0 JUMPDEST DUP6 DUP2 LT ISZERO PUSH3 0x27CB JUMPI DUP4 DUP4 SUB DUP10 MSTORE PUSH3 0x27B8 DUP4 DUP4 MLOAD PUSH3 0x273A JUMP JUMPDEST SWAP9 DUP6 ADD SWAP9 SWAP3 POP SWAP1 DUP5 ADD SWAP1 PUSH1 0x1 ADD PUSH3 0x279D JUMP JUMPDEST POP SWAP1 SWAP8 SWAP7 POP POP POP POP POP POP POP JUMP JUMPDEST PUSH1 0x20 DUP2 MSTORE PUSH3 0x27EC PUSH1 0x20 DUP3 ADD DUP4 MLOAD ISZERO ISZERO SWAP1 MSTORE JUMP JUMPDEST PUSH1 0x0 PUSH1 0x20 DUP4 ADD MLOAD PUSH3 0x2802 PUSH1 0x40 DUP5 ADD DUP3 ISZERO ISZERO SWAP1 MSTORE JUMP JUMPDEST POP PUSH1 0x40 DUP4 ADD MLOAD DUP1 ISZERO ISZERO PUSH1 0x60 DUP5 ADD MSTORE POP PUSH1 0x60 DUP4 ADD MLOAD DUP1 ISZERO ISZERO PUSH1 0x80 DUP5 ADD MSTORE POP PUSH1 0x80 DUP4 ADD MLOAD DUP1 ISZERO ISZERO PUSH1 0xA0 DUP5 ADD MSTORE POP PUSH1 0xA0 DUP4 ADD MLOAD DUP1 ISZERO ISZERO PUSH1 0xC0 DUP5 ADD MSTORE POP PUSH1 0xC0 DUP4 ADD MLOAD DUP1 ISZERO ISZERO PUSH1 0xE0 DUP5 ADD MSTORE POP PUSH1 0xE0 DUP4 ADD MLOAD PUSH2 0x100 PUSH3 0x285F DUP2 DUP6 ADD DUP4 ISZERO ISZERO SWAP1 MSTORE JUMP JUMPDEST DUP5 ADD MLOAD SWAP1 POP PUSH2 0x120 PUSH3 0x2875 DUP5 DUP3 ADD DUP4 ISZERO ISZERO SWAP1 MSTORE JUMP JUMPDEST DUP5 ADD MLOAD PUSH2 0x140 DUP5 DUP2 ADD SWAP2 SWAP1 SWAP2 MSTORE DUP5 ADD MLOAD PUSH2 0x160 DUP1 DUP6 ADD SWAP2 SWAP1 SWAP2 MSTORE DUP5 ADD MLOAD PUSH2 0x180 DUP1 DUP6 ADD SWAP2 SWAP1 SWAP2 MSTORE DUP5 ADD MLOAD PUSH2 0x1E0 PUSH2 0x1A0 DUP1 DUP7 ADD DUP3 SWAP1 MSTORE SWAP2 SWAP3 POP SWAP1 PUSH3 0x28BF PUSH2 0x200 DUP7 ADD DUP5 PUSH3 0x26C2 JUMP JUMPDEST SWAP3 POP DUP1 DUP7 ADD MLOAD SWAP1 POP PUSH1 0x1F NOT PUSH2 0x1C0 DUP2 DUP8 DUP7 SUB ADD DUP2 DUP9 ADD MSTORE PUSH3 0x28E2 DUP6 DUP5 PUSH3 0x2708 JUMP JUMPDEST SWAP1 DUP9 ADD MLOAD DUP8 DUP3 SUB SWAP1 SWAP3 ADD DUP5 DUP9 ADD MSTORE SWAP4 POP SWAP1 POP PUSH3 0x2900 DUP4 DUP3 PUSH3 0x2782 JUMP JUMPDEST SWAP7 SWAP6 POP POP POP POP POP POP JUMP JUMPDEST PUSH1 0x0 PUSH1 0x20 DUP1 DUP4 DUP6 SUB SLT ISZERO PUSH3 0x291E JUMPI PUSH1 0x0 DUP1 REVERT JUMPDEST DUP3 CALLDATALOAD PUSH8 0xFFFFFFFFFFFFFFFF DUP1 DUP3 GT ISZERO PUSH3 0x2937 JUMPI PUSH1 0x0 DUP1 REVERT JUMPDEST DUP2 DUP6 ADD SWAP2 POP PUSH1 0x1F DUP7 DUP2 DUP5 ADD SLT PUSH3 0x294D JUMPI PUSH1 0x0 DUP1 REVERT JUMPDEST DUP3 CALLDATALOAD PUSH3 0x295E PUSH3 0x264E DUP3 PUSH3 0x25D8 JUMP JUMPDEST DUP2 DUP2 MSTORE PUSH1 0x5 SWAP2 SWAP1 SWAP2 SHL DUP5 ADD DUP6 ADD SWAP1 DUP6 DUP2 ADD SWAP1 DUP10 DUP4 GT ISZERO PUSH3 0x297E JUMPI PUSH1 0x0 DUP1 REVERT JUMPDEST DUP7 DUP7 ADD JUMPDEST DUP4 DUP2 LT ISZERO PUSH3 0x2A14 JUMPI DUP1 CALLDATALOAD DUP7 DUP2 GT ISZERO PUSH3 0x299C JUMPI PUSH1 0x0 DUP1 DUP2 REVERT JUMPDEST DUP8 ADD PUSH1 0x3F DUP2 ADD DUP13 SGT PUSH3 0x29AF JUMPI PUSH1 0x0 DUP1 DUP2 REVERT JUMPDEST DUP9 DUP2 ADD CALLDATALOAD PUSH1 0x40 DUP9 DUP3 GT ISZERO PUSH3 0x29C8 JUMPI PUSH3 0x29C8 PUSH3 0x258E JUMP JUMPDEST PUSH3 0x29DB DUP3 DUP10 ADD PUSH1 0x1F NOT AND DUP13 ADD PUSH3 0x25A4 JUMP JUMPDEST DUP3 DUP2 MSTORE DUP15 DUP3 DUP5 DUP7 ADD ADD GT ISZERO PUSH3 0x29F1 JUMPI PUSH1 0x0 DUP1 DUP2 REVERT JUMPDEST DUP3 DUP3 DUP6 ADD DUP14 DUP4 ADD CALLDATACOPY PUSH1 0x0 SWAP3 DUP2 ADD DUP13 ADD SWAP3 SWAP1 SWAP3 MSTORE POP DUP5 MSTORE POP SWAP2 DUP8 ADD SWAP2 DUP8 ADD PUSH3 0x2982 JUMP JUMPDEST POP SWAP10 SWAP9 POP POP POP POP POP POP POP POP POP JUMP JUMPDEST PUSH1 0x0 PUSH1 0x20 DUP1 DUP4 DUP6 SUB SLT ISZERO PUSH3 0x2A36 JUMPI PUSH1 0x0 DUP1 REVERT JUMPDEST DUP3 CALLDATALOAD PUSH8 0xFFFFFFFFFFFFFFFF DUP2 GT ISZERO PUSH3 0x2A4E JUMPI PUSH1 0x0 DUP1 REVERT JUMPDEST DUP4 ADD PUSH1 0x1F DUP2 ADD DUP6 SGT PUSH3 0x2A60 JUMPI PUSH1 0x0 DUP1 REVERT JUMPDEST DUP1 CALLDATALOAD PUSH3 0x2A71 PUSH3 0x264E DUP3 PUSH3 0x25D8 JUMP JUMPDEST DUP2 DUP2 MSTORE PUSH1 0x5 SWAP2 SWAP1 SWAP2 SHL DUP3 ADD DUP4 ADD SWAP1 DUP4 DUP2 ADD SWAP1 DUP8 DUP4 GT ISZERO PUSH3 0x2A91 JUMPI PUSH1 0x0 DUP1 REVERT JUMPDEST SWAP3 DUP5 ADD SWAP3 JUMPDEST DUP3 DUP5 LT ISZERO PUSH3 0x269D JUMPI DUP4 CALLDATALOAD DUP3 MSTORE SWAP3 DUP5 ADD SWAP3 SWAP1 DUP5 ADD SWAP1 PUSH3 0x2A96 JUMP JUMPDEST PUSH1 0x0 DUP3 PUSH3 0x2ACF JUMPI PUSH4 0x4E487B71 PUSH1 0xE0 SHL PUSH1 0x0 MSTORE PUSH1 0x12 PUSH1 0x4 MSTORE PUSH1 0x24 PUSH1 0x0 REVERT JUMPDEST POP DIV SWAP1 JUMP JUMPDEST PUSH4 0x4E487B71 PUSH1 0xE0 SHL PUSH1 0x0 MSTORE PUSH1 0x32 PUSH1 0x4 MSTORE PUSH1 0x24 PUSH1 0x0 REVERT JUMPDEST PUSH1 0x20 DUP2 MSTORE PUSH1 0x0 PUSH3 0x2587 PUSH1 0x20 DUP4 ADD DUP5 PUSH3 0x273A JUMP JUMPDEST PUSH1 0x0 PUSH1 0x1 DUP3 ADD PUSH3 0x2B20 JUMPI PUSH4 0x4E487B71 PUSH1 0xE0 SHL PUSH1 0x0 MSTORE PUSH1 0x11 PUSH1 0x4 MSTORE PUSH1 0x24 PUSH1 0x0 REVERT JUMPDEST POP PUSH1 0x1 ADD SWAP1 JUMP JUMPDEST PUSH1 0x1 DUP2 DUP2 SHR SWAP1 DUP3 AND DUP1 PUSH3 0x2B3C JUMPI PUSH1 0x7F DUP3 AND SWAP2 POP JUMPDEST PUSH1 0x20 DUP3 LT DUP2 SUB PUSH3 0x2B5D JUMPI PUSH4 0x4E487B71 PUSH1 0xE0 SHL PUSH1 0x0 MSTORE PUSH1 0x22 PUSH1 0x4 MSTORE PUSH1 0x24 PUSH1 0x0 REVERT JUMPDEST POP SWAP2 SWAP1 POP JUMP JUMPDEST PUSH1 0x1F DUP3 GT ISZERO PUSH3 0x2BB1 JUMPI PUSH1 0x0 DUP2 DUP2 MSTORE PUSH1 0x20 DUP2 KECCAK256 PUSH1 0x1F DUP6 ADD PUSH1 0x5 SHR DUP2 ADD PUSH1 0x20 DUP7 LT ISZERO PUSH3 0x2B8C JUMPI POP DUP1 JUMPDEST PUSH1 0x1F DUP6 ADD PUSH1 0x5 SHR DUP3 ADD SWAP2 POP JUMPDEST DUP2 DUP2 LT ISZERO PUSH3 0x2BAD JUMPI DUP3 DUP2 SSTORE PUSH1 0x1 ADD PUSH3 0x2B98 JUMP JUMPDEST POP POP POP JUMPDEST POP POP POP JUMP JUMPDEST DUP2 MLOAD PUSH8 0xFFFFFFFFFFFFFFFF DUP2 GT ISZERO PUSH3 0x2BD3 JUMPI PUSH3 0x2BD3 PUSH3 0x258E JUMP JUMPDEST PUSH3 0x2BEB DUP2 PUSH3 0x2BE4 DUP5 SLOAD PUSH3 0x2B27 JUMP JUMPDEST DUP5 PUSH3 0x2B63 JUMP JUMPDEST PUSH1 0x20 DUP1 PUSH1 0x1F DUP4 GT PUSH1 0x1 DUP2 EQ PUSH3 0x2C23 JUMPI PUSH1 0x0 DUP5 ISZERO PUSH3 0x2C0A JUMPI POP DUP6 DUP4 ADD MLOAD JUMPDEST PUSH1 0x0 NOT PUSH1 0x3 DUP7 SWAP1 SHL SHR NOT AND PUSH1 0x1 DUP6 SWAP1 SHL OR DUP6 SSTORE PUSH3 0x2BAD JUMP JUMPDEST PUSH1 0x0 DUP6 DUP2 MSTORE PUSH1 0x20 DUP2 KECCAK256 PUSH1 0x1F NOT DUP7 AND SWAP2 JUMPDEST DUP3 DUP2 LT ISZERO PUSH3 0x2C54 JUMPI DUP9 DUP7 ADD MLOAD DUP3 SSTORE SWAP5 DUP5 ADD SWAP5 PUSH1 0x1 SWAP1 SWAP2 ADD SWAP1 DUP5 ADD PUSH3 0x2C33 JUMP JUMPDEST POP DUP6 DUP3 LT ISZERO PUSH3 0x2C73 JUMPI DUP8 DUP6 ADD MLOAD PUSH1 0x0 NOT PUSH1 0x3 DUP9 SWAP1 SHL PUSH1 0xF8 AND SHR NOT AND DUP2 SSTORE JUMPDEST POP POP POP POP POP PUSH1 0x1 SWAP1 DUP2 SHL ADD SWAP1 SSTORE POP JUMP INVALID PUSH1 0x80 PUSH1 0x40 MSTORE PUSH1 0xA DUP1 SLOAD PUSH1 0xFF NOT AND SWAP1 SSTORE CALLVALUE DUP1 ISZERO PUSH3 0x1B JUMPI PUSH1 0x0 DUP1 REVERT JUMPDEST POP PUSH1 0x40 MLOAD PUSH3 0x29E8 CODESIZE SUB DUP1 PUSH3 0x29E8 DUP4 CODECOPY DUP2 ADD PUSH1 0x40 DUP2 SWAP1 MSTORE PUSH3 0x3E SWAP2 PUSH3 0x764 JUMP JUMPDEST PUSH1 0x2 DUP1 SLOAD ORIGIN PUSH1 0x1 PUSH1 0x1 PUSH1 0xA0 SHL SUB NOT SWAP1 SWAP2 AND OR SWAP1 SSTORE DUP1 MLOAD PUSH1 0x3 DUP1 SLOAD PUSH1 0x20 DUP1 DUP6 ADD MLOAD PUSH1 0x40 DUP7 ADD MLOAD PUSH1 0x60 DUP8 ADD MLOAD PUSH1 0x80 DUP9 ADD MLOAD PUSH1 0xA0 DUP10 ADD MLOAD PUSH1 0xC0 DUP11 ADD MLOAD PUSH1 0xE0 DUP12 ADD MLOAD PUSH2 0x100 DUP1 DUP14 ADD MLOAD PUSH2 0xFFFF NOT SWAP1 SWAP11 AND SWAP12 ISZERO ISZERO PUSH2 0xFF00 NOT AND SWAP12 SWAP1 SWAP12 OR SWAP7 ISZERO ISZERO SWAP1 SWAP11 MUL SWAP6 SWAP1 SWAP6 OR PUSH4 0xFFFF0000 NOT AND PUSH3 0x10000 SWAP5 ISZERO ISZERO SWAP5 SWAP1 SWAP5 MUL PUSH4 0xFF000000 NOT AND SWAP4 SWAP1 SWAP4 OR PUSH4 0x1000000 SWAP3 ISZERO ISZERO SWAP3 SWAP1 SWAP3 MUL SWAP2 SWAP1 SWAP2 OR PUSH2 0xFFFF PUSH1 0x20 SHL NOT AND PUSH5 0x100000000 SWAP2 ISZERO ISZERO SWAP2 SWAP1 SWAP2 MUL PUSH1 0xFF PUSH1 0x28 SHL NOT AND OR PUSH6 0x10000000000 SWAP2 ISZERO ISZERO SWAP2 SWAP1 SWAP2 MUL OR PUSH2 0xFFFF PUSH1 0x30 SHL NOT AND PUSH7 0x1000000000000 SWAP2 ISZERO ISZERO SWAP2 SWAP1 SWAP2 MUL PUSH1 0xFF PUSH1 0x38 SHL NOT AND OR PUSH8 0x100000000000000 SWAP5 ISZERO ISZERO SWAP5 SWAP1 SWAP5 MUL SWAP4 SWAP1 SWAP4 OR PUSH1 0xFF PUSH1 0x40 SHL NOT AND PUSH9 0x10000000000000000 SWAP2 ISZERO ISZERO SWAP2 SWAP1 SWAP2 MUL OR DUP2 SSTORE PUSH2 0x120 DUP4 ADD MLOAD PUSH1 0x4 SSTORE PUSH2 0x140 DUP4 ADD MLOAD PUSH1 0x5 SSTORE PUSH2 0x160 DUP4 ADD MLOAD PUSH1 0x6 SSTORE PUSH2 0x180 DUP4 ADD MLOAD DUP1 MLOAD DUP5 SWAP4 PUSH3 0x17D SWAP3 PUSH1 0x7 SWAP3 SWAP2 ADD SWAP1 PUSH3 0x341 JUMP JUMPDEST POP PUSH2 0x1A0 DUP3 ADD MLOAD DUP1 MLOAD PUSH3 0x19C SWAP2 PUSH1 0x5 DUP5 ADD SWAP2 PUSH1 0x20 SWAP1 SWAP2 ADD SWAP1 PUSH3 0x3AB JUMP JUMPDEST POP PUSH2 0x1C0 DUP3 ADD MLOAD DUP1 MLOAD PUSH3 0x1BB SWAP2 PUSH1 0x6 DUP5 ADD SWAP2 PUSH1 0x20 SWAP1 SWAP2 ADD SWAP1 PUSH3 0x3E9 JUMP JUMPDEST POP POP POP PUSH2 0x1C0 DUP2 ADD MLOAD DUP1 MLOAD PUSH3 0x1DA SWAP2 PUSH1 0xD SWAP2 PUSH1 0x20 SWAP1 SWAP2 ADD SWAP1 PUSH3 0x3E9 JUMP JUMPDEST POP PUSH1 0x0 JUMPDEST DUP2 PUSH2 0x1C0 ADD MLOAD MLOAD DUP2 LT ISZERO PUSH3 0x234 JUMPI PUSH1 0xE DUP1 SLOAD PUSH1 0x1 DUP2 ADD DUP3 SSTORE PUSH1 0x0 SWAP2 DUP3 MSTORE PUSH32 0xBB7B4A454DC3493923482F07822329ED19E8244EFF582CC204F8554C3620C3FD ADD SSTORE DUP1 PUSH3 0x22B DUP2 PUSH3 0x8FC JUMP JUMPDEST SWAP2 POP POP PUSH3 0x1DE JUMP JUMPDEST POP PUSH1 0x0 JUMPDEST DUP2 PUSH2 0x180 ADD MLOAD MLOAD DUP2 LT ISZERO PUSH3 0x339 JUMPI PUSH1 0x1 PUSH1 0xB PUSH1 0x0 DUP5 PUSH2 0x180 ADD MLOAD DUP5 DUP2 MLOAD DUP2 LT PUSH3 0x267 JUMPI PUSH3 0x267 PUSH3 0x924 JUMP JUMPDEST PUSH1 0x20 MUL PUSH1 0x20 ADD ADD MLOAD PUSH1 0x1 PUSH1 0x1 PUSH1 0xA0 SHL SUB AND PUSH1 0x1 PUSH1 0x1 PUSH1 0xA0 SHL SUB AND DUP2 MSTORE PUSH1 0x20 ADD SWAP1 DUP2 MSTORE PUSH1 0x20 ADD PUSH1 0x0 KECCAK256 PUSH1 0x3 ADD PUSH1 0x0 PUSH2 0x100 EXP DUP2 SLOAD DUP2 PUSH1 0xFF MUL NOT AND SWAP1 DUP4 ISZERO ISZERO MUL OR SWAP1 SSTORE POP DUP2 PUSH1 0x40 ADD MLOAD ISZERO PUSH3 0x324 JUMPI DUP2 PUSH2 0x1A0 ADD MLOAD DUP2 DUP2 MLOAD DUP2 LT PUSH3 0x2CE JUMPI PUSH3 0x2CE PUSH3 0x924 JUMP JUMPDEST PUSH1 0x20 MUL PUSH1 0x20 ADD ADD MLOAD PUSH1 0xB PUSH1 0x0 DUP5 PUSH2 0x180 ADD MLOAD DUP5 DUP2 MLOAD DUP2 LT PUSH3 0x2F4 JUMPI PUSH3 0x2F4 PUSH3 0x924 JUMP JUMPDEST PUSH1 0x20 MUL PUSH1 0x20 ADD ADD MLOAD PUSH1 0x1 PUSH1 0x1 PUSH1 0xA0 SHL SUB AND PUSH1 0x1 PUSH1 0x1 PUSH1 0xA0 SHL SUB AND DUP2 MSTORE PUSH1 0x20 ADD SWAP1 DUP2 MSTORE PUSH1 0x20 ADD PUSH1 0x0 KECCAK256 PUSH1 0x2 ADD DUP2 SWAP1 SSTORE POP JUMPDEST DUP1 PUSH3 0x330 DUP2 PUSH3 0x8FC JUMP JUMPDEST SWAP2 POP POP PUSH3 0x238 JUMP JUMPDEST POP POP PUSH3 0xA95 JUMP JUMPDEST DUP3 DUP1 SLOAD DUP3 DUP3 SSTORE SWAP1 PUSH1 0x0 MSTORE PUSH1 0x20 PUSH1 0x0 KECCAK256 SWAP1 DUP2 ADD SWAP3 DUP3 ISZERO PUSH3 0x399 JUMPI SWAP2 PUSH1 0x20 MUL DUP3 ADD JUMPDEST DUP3 DUP2 GT ISZERO PUSH3 0x399 JUMPI DUP3 MLOAD DUP3 SLOAD PUSH1 0x1 PUSH1 0x1 PUSH1 0xA0 SHL SUB NOT AND PUSH1 0x1 PUSH1 0x1 PUSH1 0xA0 SHL SUB SWAP1 SWAP2 AND OR DUP3 SSTORE PUSH1 0x20 SWAP1 SWAP3 ADD SWAP2 PUSH1 0x1 SWAP1 SWAP2 ADD SWAP1 PUSH3 0x362 JUMP JUMPDEST POP PUSH3 0x3A7 SWAP3 SWAP2 POP PUSH3 0x442 JUMP JUMPDEST POP SWAP1 JUMP JUMPDEST DUP3 DUP1 SLOAD DUP3 DUP3 SSTORE SWAP1 PUSH1 0x0 MSTORE PUSH1 0x20 PUSH1 0x0 KECCAK256 SWAP1 DUP2 ADD SWAP3 DUP3 ISZERO PUSH3 0x399 JUMPI SWAP2 PUSH1 0x20 MUL DUP3 ADD JUMPDEST DUP3 DUP2 GT ISZERO PUSH3 0x399 JUMPI DUP3 MLOAD DUP3 SSTORE SWAP2 PUSH1 0x20 ADD SWAP2 SWAP1 PUSH1 0x1 ADD SWAP1 PUSH3 0x3CC JUMP JUMPDEST DUP3 DUP1 SLOAD DUP3 DUP3 SSTORE SWAP1 PUSH1 0x0 MSTORE PUSH1 0x20 PUSH1 0x0 KECCAK256 SWAP1 DUP2 ADD SWAP3 DUP3 ISZERO PUSH3 0x434 JUMPI SWAP2 PUSH1 0x20 MUL DUP3 ADD JUMPDEST DUP3 DUP2 GT ISZERO PUSH3 0x434 JUMPI DUP3 MLOAD DUP3 SWAP1 PUSH3 0x423 SWAP1 DUP3 PUSH3 0x9C9 JUMP JUMPDEST POP SWAP2 PUSH1 0x20 ADD SWAP2 SWAP1 PUSH1 0x1 ADD SWAP1 PUSH3 0x40A JUMP JUMPDEST POP PUSH3 0x3A7 SWAP3 SWAP2 POP PUSH3 0x459 JUMP JUMPDEST JUMPDEST DUP1 DUP3 GT ISZERO PUSH3 0x3A7 JUMPI PUSH1 0x0 DUP2 SSTORE PUSH1 0x1 ADD PUSH3 0x443 JUMP JUMPDEST DUP1 DUP3 GT ISZERO PUSH3 0x3A7 JUMPI PUSH1 0x0 PUSH3 0x470 DUP3 DUP3 PUSH3 0x47A JUMP JUMPDEST POP PUSH1 0x1 ADD PUSH3 0x459 JUMP JUMPDEST POP DUP1 SLOAD PUSH3 0x488 SWAP1 PUSH3 0x93A JUMP JUMPDEST PUSH1 0x0 DUP3 SSTORE DUP1 PUSH1 0x1F LT PUSH3 0x499 JUMPI POP POP JUMP JUMPDEST PUSH1 0x1F ADD PUSH1 0x20 SWAP1 DIV SWAP1 PUSH1 0x0 MSTORE PUSH1 0x20 PUSH1 0x0 KECCAK256 SWAP1 DUP2 ADD SWAP1 PUSH3 0x4B9 SWAP2 SWAP1 PUSH3 0x442 JUMP JUMPDEST POP JUMP JUMPDEST PUSH4 0x4E487B71 PUSH1 0xE0 SHL PUSH1 0x0 MSTORE PUSH1 0x41 PUSH1 0x4 MSTORE PUSH1 0x24 PUSH1 0x0 REVERT JUMPDEST PUSH1 0x40 MLOAD PUSH2 0x1E0 DUP2 ADD PUSH1 0x1 PUSH1 0x1 PUSH1 0x40 SHL SUB DUP2 GT DUP3 DUP3 LT OR ISZERO PUSH3 0x4F8 JUMPI PUSH3 0x4F8 PUSH3 0x4BC JUMP JUMPDEST PUSH1 0x40 MSTORE SWAP1 JUMP JUMPDEST PUSH1 0x40 MLOAD PUSH1 0x1F DUP3 ADD PUSH1 0x1F NOT AND DUP2 ADD PUSH1 0x1 PUSH1 0x1 PUSH1 0x40 SHL SUB DUP2 GT DUP3 DUP3 LT OR ISZERO PUSH3 0x529 JUMPI PUSH3 0x529 PUSH3 0x4BC JUMP JUMPDEST PUSH1 0x40 MSTORE SWAP2 SWAP1 POP JUMP JUMPDEST DUP1 MLOAD DUP1 ISZERO ISZERO DUP2 EQ PUSH3 0x542 JUMPI PUSH1 0x0 DUP1 REVERT JUMPDEST SWAP2 SWAP1 POP JUMP JUMPDEST PUSH1 0x0 PUSH1 0x1 PUSH1 0x1 PUSH1 0x40 SHL SUB DUP3 GT ISZERO PUSH3 0x563 JUMPI PUSH3 0x563 PUSH3 0x4BC JUMP JUMPDEST POP PUSH1 0x5 SHL PUSH1 0x20 ADD SWAP1 JUMP JUMPDEST PUSH1 0x0 DUP3 PUSH1 0x1F DUP4 ADD SLT PUSH3 0x57F JUMPI PUSH1 0x0 DUP1 REVERT JUMPDEST DUP2 MLOAD PUSH1 0x20 PUSH3 0x598 PUSH3 0x592 DUP4 PUSH3 0x547 JUMP JUMPDEST PUSH3 0x4FE JUMP JUMPDEST DUP3 DUP2 MSTORE PUSH1 0x5 SWAP3 SWAP1 SWAP3 SHL DUP5 ADD DUP2 ADD SWAP2 DUP2 DUP2 ADD SWAP1 DUP7 DUP5 GT ISZERO PUSH3 0x5B8 JUMPI PUSH1 0x0 DUP1 REVERT JUMPDEST DUP3 DUP7 ADD JUMPDEST DUP5 DUP2 LT ISZERO PUSH3 0x5EC JUMPI DUP1 MLOAD PUSH1 0x1 PUSH1 0x1 PUSH1 0xA0 SHL SUB DUP2 AND DUP2 EQ PUSH3 0x5DE JUMPI PUSH1 0x0 DUP1 DUP2 REVERT JUMPDEST DUP4 MSTORE SWAP2 DUP4 ADD SWAP2 DUP4 ADD PUSH3 0x5BC JUMP JUMPDEST POP SWAP7 SWAP6 POP POP POP POP POP POP JUMP JUMPDEST PUSH1 0x0 DUP3 PUSH1 0x1F DUP4 ADD SLT PUSH3 0x609 JUMPI PUSH1 0x0 DUP1 REVERT JUMPDEST DUP2 MLOAD PUSH1 0x20 PUSH3 0x61C PUSH3 0x592 DUP4 PUSH3 0x547 JUMP JUMPDEST DUP3 DUP2 MSTORE PUSH1 0x5 SWAP3 SWAP1 SWAP3 SHL DUP5 ADD DUP2 ADD SWAP2 DUP2 DUP2 ADD SWAP1 DUP7 DUP5 GT ISZERO PUSH3 0x63C JUMPI PUSH1 0x0 DUP1 REVERT JUMPDEST DUP3 DUP7 ADD JUMPDEST DUP5 DUP2 LT ISZERO PUSH3 0x5EC JUMPI DUP1 MLOAD DUP4 MSTORE SWAP2 DUP4 ADD SWAP2 DUP4 ADD PUSH3 0x640 JUMP JUMPDEST PUSH1 0x0 PUSH1 0x1F DUP4 DUP2 DUP5 ADD SLT PUSH3 0x66C JUMPI PUSH1 0x0 DUP1 REVERT JUMPDEST DUP3 MLOAD PUSH1 0x20 PUSH3 0x67F PUSH3 0x592 DUP4 PUSH3 0x547 JUMP JUMPDEST DUP3 DUP2 MSTORE PUSH1 0x5 SWAP3 SWAP1 SWAP3 SHL DUP6 ADD DUP2 ADD SWAP2 DUP2 DUP2 ADD SWAP1 DUP8 DUP5 GT ISZERO PUSH3 0x69F JUMPI PUSH1 0x0 DUP1 REVERT JUMPDEST DUP3 DUP8 ADD JUMPDEST DUP5 DUP2 LT ISZERO PUSH3 0x758 JUMPI DUP1 MLOAD PUSH1 0x1 PUSH1 0x1 PUSH1 0x40 SHL SUB DUP1 DUP3 GT ISZERO PUSH3 0x6C5 JUMPI PUSH1 0x0 DUP1 DUP2 REVERT JUMPDEST DUP2 DUP11 ADD SWAP2 POP DUP11 PUSH1 0x3F DUP4 ADD SLT PUSH3 0x6DB JUMPI PUSH1 0x0 DUP1 DUP2 REVERT JUMPDEST DUP6 DUP3 ADD MLOAD DUP2 DUP2 GT ISZERO PUSH3 0x6F2 JUMPI PUSH3 0x6F2 PUSH3 0x4BC JUMP JUMPDEST PUSH3 0x705 DUP2 DUP11 ADD PUSH1 0x1F NOT AND DUP9 ADD PUSH3 0x4FE JUMP JUMPDEST SWAP2 POP DUP1 DUP3 MSTORE PUSH1 0x40 DUP13 DUP2 DUP4 DUP7 ADD ADD GT ISZERO PUSH3 0x71F JUMPI PUSH1 0x0 DUP1 DUP2 REVERT JUMPDEST PUSH1 0x0 JUMPDEST DUP3 DUP2 LT ISZERO PUSH3 0x73F JUMPI DUP5 DUP2 ADD DUP3 ADD MLOAD DUP5 DUP3 ADD DUP11 ADD MSTORE DUP9 ADD PUSH3 0x722 JUMP JUMPDEST POP POP PUSH1 0x0 SWAP1 DUP3 ADD DUP8 ADD MSTORE DUP5 MSTORE POP SWAP2 DUP4 ADD SWAP2 DUP4 ADD PUSH3 0x6A3 JUMP JUMPDEST POP SWAP8 SWAP7 POP POP POP POP POP POP POP JUMP JUMPDEST PUSH1 0x0 PUSH1 0x20 DUP3 DUP5 SUB SLT ISZERO PUSH3 0x777 JUMPI PUSH1 0x0 DUP1 REVERT JUMPDEST DUP2 MLOAD PUSH1 0x1 PUSH1 0x1 PUSH1 0x40 SHL SUB DUP1 DUP3 GT ISZERO PUSH3 0x78F JUMPI PUSH1 0x0 DUP1 REVERT JUMPDEST SWAP1 DUP4 ADD SWAP1 PUSH2 0x1E0 DUP3 DUP7 SUB SLT ISZERO PUSH3 0x7A5 JUMPI PUSH1 0x0 DUP1 REVERT JUMPDEST PUSH3 0x7AF PUSH3 0x4D2 JUMP JUMPDEST PUSH3 0x7BA DUP4 PUSH3 0x531 JUMP JUMPDEST DUP2 MSTORE PUSH3 0x7CA PUSH1 0x20 DUP5 ADD PUSH3 0x531 JUMP JUMPDEST PUSH1 0x20 DUP3 ADD MSTORE PUSH3 0x7DD PUSH1 0x40 DUP5 ADD PUSH3 0x531 JUMP JUMPDEST PUSH1 0x40 DUP3 ADD MSTORE PUSH3 0x7F0 PUSH1 0x60 DUP5 ADD PUSH3 0x531 JUMP JUMPDEST PUSH1 0x60 DUP3 ADD MSTORE PUSH3 0x803 PUSH1 0x80 DUP5 ADD PUSH3 0x531 JUMP JUMPDEST PUSH1 0x80 DUP3 ADD MSTORE PUSH3 0x816 PUSH1 0xA0 DUP5 ADD PUSH3 0x531 JUMP JUMPDEST PUSH1 0xA0 DUP3 ADD MSTORE PUSH3 0x829 PUSH1 0xC0 DUP5 ADD PUSH3 0x531 JUMP JUMPDEST PUSH1 0xC0 DUP3 ADD MSTORE PUSH3 0x83C PUSH1 0xE0 DUP5 ADD PUSH3 0x531 JUMP JUMPDEST PUSH1 0xE0 DUP3 ADD MSTORE PUSH2 0x100 PUSH3 0x851 DUP2 DUP6 ADD PUSH3 0x531 JUMP JUMPDEST SWAP1 DUP3 ADD MSTORE PUSH2 0x120 DUP4 DUP2 ADD MLOAD SWAP1 DUP3 ADD MSTORE PUSH2 0x140 DUP1 DUP5 ADD MLOAD SWAP1 DUP3 ADD MSTORE PUSH2 0x160 DUP1 DUP5 ADD MLOAD SWAP1 DUP3 ADD MSTORE PUSH2 0x180 DUP1 DUP5 ADD MLOAD DUP4 DUP2 GT ISZERO PUSH3 0x88B JUMPI PUSH1 0x0 DUP1 REVERT JUMPDEST PUSH3 0x899 DUP9 DUP3 DUP8 ADD PUSH3 0x56D JUMP JUMPDEST DUP3 DUP5 ADD MSTORE POP POP PUSH2 0x1A0 DUP1 DUP5 ADD MLOAD DUP4 DUP2 GT ISZERO PUSH3 0x8B4 JUMPI PUSH1 0x0 DUP1 REVERT JUMPDEST PUSH3 0x8C2 DUP9 DUP3 DUP8 ADD PUSH3 0x5F7 JUMP JUMPDEST DUP3 DUP5 ADD MSTORE POP POP PUSH2 0x1C0 DUP1 DUP5 ADD MLOAD DUP4 DUP2 GT ISZERO PUSH3 0x8DD JUMPI PUSH1 0x0 DUP1 REVERT JUMPDEST PUSH3 0x8EB DUP9 DUP3 DUP8 ADD PUSH3 0x659 JUMP JUMPDEST SWAP2 DUP4 ADD SWAP2 SWAP1 SWAP2 MSTORE POP SWAP6 SWAP5 POP POP POP POP POP JUMP JUMPDEST PUSH1 0x0 PUSH1 0x1 DUP3 ADD PUSH3 0x91D JUMPI PUSH4 0x4E487B71 PUSH1 0xE0 SHL PUSH1 0x0 MSTORE PUSH1 0x11 PUSH1 0x4 MSTORE PUSH1 0x24 PUSH1 0x0 REVERT JUMPDEST POP PUSH1 0x1 ADD SWAP1 JUMP JUMPDEST PUSH4 0x4E487B71 PUSH1 0xE0 SHL PUSH1 0x0 MSTORE PUSH1 0x32 PUSH1 0x4 MSTORE PUSH1 0x24 PUSH1 0x0 REVERT JUMPDEST PUSH1 0x1 DUP2 DUP2 SHR SWAP1 DUP3 AND DUP1 PUSH3 0x94F JUMPI PUSH1 0x7F DUP3 AND SWAP2 POP JUMPDEST PUSH1 0x20 DUP3 LT DUP2 SUB PUSH3 0x970 JUMPI PUSH4 0x4E487B71 PUSH1 0xE0 SHL PUSH1 0x0 MSTORE PUSH1 0x22 PUSH1 0x4 MSTORE PUSH1 0x24 PUSH1 0x0 REVERT JUMPDEST POP SWAP2 SWAP1 POP JUMP JUMPDEST PUSH1 0x1F DUP3 GT ISZERO PUSH3 0x9C4 JUMPI PUSH1 0x0 DUP2 DUP2 MSTORE PUSH1 0x20 DUP2 KECCAK256 PUSH1 0x1F DUP6 ADD PUSH1 0x5 SHR DUP2 ADD PUSH1 0x20 DUP7 LT ISZERO PUSH3 0x99F JUMPI POP DUP1 JUMPDEST PUSH1 0x1F DUP6 ADD PUSH1 0x5 SHR DUP3 ADD SWAP2 POP JUMPDEST DUP2 DUP2 LT ISZERO PUSH3 0x9C0 JUMPI DUP3 DUP2 SSTORE PUSH1 0x1 ADD PUSH3 0x9AB JUMP JUMPDEST POP POP POP JUMPDEST POP POP POP JUMP JUMPDEST DUP2 MLOAD PUSH1 0x1 PUSH1 0x1 PUSH1 0x40 SHL SUB DUP2 GT ISZERO PUSH3 0x9E5 JUMPI PUSH3 0x9E5 PUSH3 0x4BC JUMP JUMPDEST PUSH3 0x9FD DUP2 PUSH3 0x9F6 DUP5 SLOAD PUSH3 0x93A JUMP JUMPDEST DUP5 PUSH3 0x976 JUMP JUMPDEST PUSH1 0x20 DUP1 PUSH1 0x1F DUP4 GT PUSH1 0x1 DUP2 EQ PUSH3 0xA35 JUMPI PUSH1 0x0 DUP5 ISZERO PUSH3 0xA1C JUMPI POP DUP6 DUP4 ADD MLOAD JUMPDEST PUSH1 0x0 NOT PUSH1 0x3 DUP7 SWAP1 SHL SHR NOT AND PUSH1 0x1 DUP6 SWAP1 SHL OR DUP6 SSTORE PUSH3 0x9C0 JUMP JUMPDEST PUSH1 0x0 DUP6 DUP2 MSTORE PUSH1 0x20 DUP2 KECCAK256 PUSH1 0x1F NOT DUP7 AND SWAP2 JUMPDEST DUP3 DUP2 LT ISZERO PUSH3 0xA66 JUMPI DUP9 DUP7 ADD MLOAD DUP3 SSTORE SWAP5 DUP5 ADD SWAP5 PUSH1 0x1 SWAP1 SWAP2 ADD SWAP1 DUP5 ADD PUSH3 0xA45 JUMP JUMPDEST POP DUP6 DUP3 LT ISZERO PUSH3 0xA85 JUMPI DUP8 DUP6 ADD MLOAD PUSH1 0x0 NOT PUSH1 0x3 DUP9 SWAP1 SHL PUSH1 0xF8 AND SHR NOT AND DUP2 SSTORE JUMPDEST POP POP POP POP POP PUSH1 0x1 SWAP1 DUP2 SHL ADD SWAP1 SSTORE POP JUMP JUMPDEST PUSH2 0x1F43 DUP1 PUSH3 0xAA5 PUSH1 0x0 CODECOPY PUSH1 0x0 RETURN INVALID PUSH1 0x80 PUSH1 0x40 MSTORE CALLVALUE DUP1 ISZERO PUSH2 0x10 JUMPI PUSH1 0x0 DUP1 REVERT JUMPDEST POP PUSH1 0x4 CALLDATASIZE LT PUSH2 0xF5 JUMPI PUSH1 0x0 CALLDATALOAD PUSH1 0xE0 SHR DUP1 PUSH4 0x92282743 GT PUSH2 0x97 JUMPI DUP1 PUSH4 0xDE1AC2FD GT PUSH2 0x66 JUMPI DUP1 PUSH4 0xDE1AC2FD EQ PUSH2 0x20D JUMPI DUP1 PUSH4 0xF2FDE38B EQ PUSH2 0x239 JUMPI DUP1 PUSH4 0xF9094303 EQ PUSH2 0x24C JUMPI DUP1 PUSH4 0xFBA7CC79 EQ PUSH2 0x254 JUMPI PUSH1 0x0 DUP1 REVERT JUMPDEST DUP1 PUSH4 0x92282743 EQ PUSH2 0x1BD JUMPI DUP1 PUSH4 0xA6C8210E EQ PUSH2 0x1D0 JUMPI DUP1 PUSH4 0xBE9A6555 EQ PUSH2 0x1E5 JUMPI DUP1 PUSH4 0xD4F50F98 EQ PUSH2 0x1ED JUMPI PUSH1 0x0 DUP1 REVERT JUMPDEST DUP1 PUSH4 0x15FE5583 GT PUSH2 0xD3 JUMPI DUP1 PUSH4 0x15FE5583 EQ PUSH2 0x135 JUMPI DUP1 PUSH4 0x671D2B75 EQ PUSH2 0x148 JUMPI DUP1 PUSH4 0x893D20E8 EQ PUSH2 0x166 JUMPI DUP1 PUSH4 0x9026DEE8 EQ PUSH2 0x181 JUMPI PUSH1 0x0 DUP1 REVERT JUMPDEST DUP1 PUSH4 0x121B93F EQ PUSH2 0xFA JUMPI DUP1 PUSH4 0x3175B9A EQ PUSH2 0x10F JUMPI DUP1 PUSH4 0xA84246D EQ PUSH2 0x122 JUMPI JUMPDEST PUSH1 0x0 DUP1 REVERT JUMPDEST PUSH2 0x10D PUSH2 0x108 CALLDATASIZE PUSH1 0x4 PUSH2 0x1873 JUMP JUMPDEST PUSH2 0x25C JUMP JUMPDEST STOP JUMPDEST PUSH2 0x10D PUSH2 0x11D CALLDATASIZE PUSH1 0x4 PUSH2 0x188C JUMP JUMPDEST PUSH2 0x623 JUMP JUMPDEST PUSH2 0x10D PUSH2 0x130 CALLDATASIZE PUSH1 0x4 PUSH2 0x188C JUMP JUMPDEST PUSH2 0x73E JUMP JUMPDEST PUSH2 0x10D PUSH2 0x143 CALLDATASIZE PUSH1 0x4 PUSH2 0x188C JUMP JUMPDEST PUSH2 0x856 JUMP JUMPDEST PUSH2 0x150 PUSH2 0x96A JUMP JUMPDEST PUSH1 0x40 MLOAD PUSH2 0x15D SWAP2 SWAP1 PUSH2 0x1992 JUMP JUMPDEST PUSH1 0x40 MLOAD DUP1 SWAP2 SUB SWAP1 RETURN JUMPDEST PUSH1 0x2 SLOAD PUSH1 0x40 MLOAD PUSH1 0x1 PUSH1 0x1 PUSH1 0xA0 SHL SUB SWAP1 SWAP2 AND DUP2 MSTORE PUSH1 0x20 ADD PUSH2 0x15D JUMP JUMPDEST PUSH2 0x1AD PUSH2 0x18F CALLDATASIZE PUSH1 0x4 PUSH2 0x188C JUMP JUMPDEST PUSH1 0x1 PUSH1 0x1 PUSH1 0xA0 SHL SUB AND PUSH1 0x0 SWAP1 DUP2 MSTORE PUSH1 0x20 DUP2 SWAP1 MSTORE PUSH1 0x40 SWAP1 KECCAK256 SLOAD PUSH1 0xFF AND SWAP1 JUMP JUMPDEST PUSH1 0x40 MLOAD SWAP1 ISZERO ISZERO DUP2 MSTORE PUSH1 0x20 ADD PUSH2 0x15D JUMP JUMPDEST PUSH2 0x10D PUSH2 0x1CB CALLDATASIZE PUSH1 0x4 PUSH2 0x188C JUMP JUMPDEST PUSH2 0xB7F JUMP JUMPDEST PUSH2 0x1D8 PUSH2 0xC93 JUMP JUMPDEST PUSH1 0x40 MLOAD PUSH2 0x15D SWAP2 SWAP1 PUSH2 0x1A44 JUMP JUMPDEST PUSH2 0x10D PUSH2 0xFCA JUMP JUMPDEST PUSH2 0x200 PUSH2 0x1FB CALLDATASIZE PUSH1 0x4 PUSH2 0x188C JUMP JUMPDEST PUSH2 0x1200 JUMP JUMPDEST PUSH1 0x40 MLOAD PUSH2 0x15D SWAP2 SWAP1 PUSH2 0x1B6C JUMP JUMPDEST PUSH2 0x1AD PUSH2 0x21B CALLDATASIZE PUSH1 0x4 PUSH2 0x188C JUMP JUMPDEST PUSH1 0x1 PUSH1 0x1 PUSH1 0xA0 SHL SUB AND PUSH1 0x0 SWAP1 DUP2 MSTORE PUSH1 0x1 PUSH1 0x20 MSTORE PUSH1 0x40 SWAP1 KECCAK256 SLOAD PUSH1 0xFF AND SWAP1 JUMP JUMPDEST PUSH2 0x10D PUSH2 0x247 CALLDATASIZE PUSH1 0x4 PUSH2 0x188C JUMP JUMPDEST PUSH2 0x13FD JUMP JUMPDEST PUSH2 0x10D PUSH2 0x1515 JUMP JUMPDEST PUSH2 0x1AD PUSH2 0x17CA JUMP JUMPDEST PUSH1 0xA SLOAD PUSH1 0xFF AND PUSH2 0x2B3 JUMPI PUSH1 0x40 MLOAD PUSH3 0x461BCD PUSH1 0xE5 SHL DUP2 MSTORE PUSH1 0x20 PUSH1 0x4 DUP3 ADD MSTORE PUSH1 0x1D PUSH1 0x24 DUP3 ADD MSTORE PUSH32 0x566F74696E673A20566F74696E67206973206465616374697661746564000000 PUSH1 0x44 DUP3 ADD MSTORE PUSH1 0x64 ADD JUMPDEST PUSH1 0x40 MLOAD DUP1 SWAP2 SUB SWAP1 REVERT JUMPDEST CALLER PUSH1 0x0 SWAP1 DUP2 MSTORE PUSH1 0xB PUSH1 0x20 MSTORE PUSH1 0x40 SWAP1 KECCAK256 SLOAD PUSH1 0xFF AND ISZERO PUSH2 0x313 JUMPI PUSH1 0x40 MLOAD PUSH3 0x461BCD PUSH1 0xE5 SHL DUP2 MSTORE PUSH1 0x20 PUSH1 0x4 DUP3 ADD MSTORE PUSH1 0x15 PUSH1 0x24 DUP3 ADD MSTORE PUSH32 0x566F74696E673A20416C726561647920766F7465640000000000000000000000 PUSH1 0x44 DUP3 ADD MSTORE PUSH1 0x64 ADD PUSH2 0x2AA JUMP JUMPDEST PUSH1 0xD SLOAD DUP2 LT PUSH2 0x38A JUMPI PUSH1 0x40 MLOAD PUSH3 0x461BCD PUSH1 0xE5 SHL DUP2 MSTORE PUSH1 0x20 PUSH1 0x4 DUP3 ADD MSTORE PUSH1 0x2A PUSH1 0x24 DUP3 ADD MSTORE PUSH32 0x566F74696E673A207468652073656C65637465642043686F69636520646F6573 PUSH1 0x44 DUP3 ADD MSTORE PUSH32 0x206E6F7420657869737400000000000000000000000000000000000000000000 PUSH1 0x64 DUP3 ADD MSTORE PUSH1 0x84 ADD PUSH2 0x2AA JUMP JUMPDEST PUSH1 0x3 SLOAD PUSH4 0x1000000 SWAP1 DIV PUSH1 0xFF AND ISZERO PUSH2 0x414 JUMPI PUSH1 0x5 SLOAD PUSH1 0xC SLOAD LT PUSH2 0x414 JUMPI PUSH1 0x40 MLOAD PUSH3 0x461BCD PUSH1 0xE5 SHL DUP2 MSTORE PUSH1 0x20 PUSH1 0x4 DUP3 ADD MSTORE PUSH1 0x24 DUP1 DUP3 ADD MSTORE PUSH32 0x566F74696E673A20566F74657273204C696D697420616C726561647920726561 PUSH1 0x44 DUP3 ADD MSTORE PUSH32 0x6368656400000000000000000000000000000000000000000000000000000000 PUSH1 0x64 DUP3 ADD MSTORE PUSH1 0x84 ADD PUSH2 0x2AA JUMP JUMPDEST PUSH1 0x3 SLOAD PUSH5 0x100000000 SWAP1 DIV PUSH1 0xFF AND ISZERO PUSH2 0x4AF JUMPI CALLER PUSH1 0x0 SWAP1 DUP2 MSTORE PUSH1 0xB PUSH1 0x20 MSTORE PUSH1 0x40 SWAP1 KECCAK256 PUSH1 0x3 ADD SLOAD PUSH1 0xFF AND PUSH2 0x4AF JUMPI PUSH1 0x40 MLOAD PUSH3 0x461BCD PUSH1 0xE5 SHL DUP2 MSTORE PUSH1 0x20 PUSH1 0x4 DUP3 ADD MSTORE PUSH1 0x34 PUSH1 0x24 DUP3 ADD MSTORE PUSH32 0x566F74696E673A20596F7520617265206E6F7420616D6F6E672074686520616C PUSH1 0x44 DUP3 ADD MSTORE PUSH32 0x6C6F776564205072697661746520566F74657273000000000000000000000000 PUSH1 0x64 DUP3 ADD MSTORE PUSH1 0x84 ADD PUSH2 0x2AA JUMP JUMPDEST CALLER PUSH1 0x0 SWAP1 DUP2 MSTORE PUSH1 0xB PUSH1 0x20 MSTORE PUSH1 0x40 SWAP1 KECCAK256 DUP1 SLOAD PUSH1 0xFF NOT AND PUSH1 0x1 OR SWAP1 SSTORE PUSH1 0xD DUP1 SLOAD DUP3 SWAP1 DUP2 LT PUSH2 0x4DD JUMPI PUSH2 0x4DD PUSH2 0x1BB6 JUMP JUMPDEST PUSH1 0x0 SWAP2 DUP3 MSTORE PUSH1 0x20 DUP1 DUP4 KECCAK256 CALLER DUP5 MSTORE PUSH1 0xB SWAP1 SWAP2 MSTORE PUSH1 0x40 SWAP1 SWAP3 KECCAK256 PUSH1 0x1 ADD SWAP2 PUSH2 0x503 SWAP2 ADD DUP3 PUSH2 0x1C6B JUMP JUMPDEST POP PUSH1 0xC DUP1 SLOAD PUSH1 0x1 DUP2 ADD DUP3 SSTORE PUSH1 0x0 SWAP2 SWAP1 SWAP2 MSTORE PUSH32 0xDF6966C971051C3D54EC59162606531493A51404A002842F56009D7E5CF4A8C7 ADD DUP1 SLOAD PUSH20 0xFFFFFFFFFFFFFFFFFFFFFFFFFFFFFFFFFFFFFFFF NOT AND CALLER OR SWAP1 SSTORE PUSH1 0x3 SLOAD PUSH1 0xFF PUSH3 0x10000 SWAP1 SWAP2 DIV AND ISZERO PUSH2 0x5DB JUMPI CALLER PUSH1 0x0 SWAP1 DUP2 MSTORE PUSH1 0xB PUSH1 0x20 MSTORE PUSH1 0x40 DUP2 KECCAK256 PUSH1 0x2 ADD SLOAD PUSH1 0xF DUP1 SLOAD SWAP2 SWAP3 SWAP1 SWAP2 PUSH2 0x58B SWAP1 DUP5 SWAP1 PUSH2 0x1D62 JUMP JUMPDEST SWAP1 SWAP2 SSTORE POP POP CALLER PUSH1 0x0 SWAP1 DUP2 MSTORE PUSH1 0xB PUSH1 0x20 MSTORE PUSH1 0x40 SWAP1 KECCAK256 PUSH1 0x2 ADD SLOAD PUSH1 0xE DUP1 SLOAD DUP4 SWAP1 DUP2 LT PUSH2 0x5B7 JUMPI PUSH2 0x5B7 PUSH2 0x1BB6 JUMP JUMPDEST SWAP1 PUSH1 0x0 MSTORE PUSH1 0x20 PUSH1 0x0 KECCAK256 ADD PUSH1 0x0 DUP3 DUP3 SLOAD PUSH2 0x5D0 SWAP2 SWAP1 PUSH2 0x1D62 JUMP JUMPDEST SWAP1 SWAP2 SSTORE POP PUSH2 0x620 SWAP1 POP JUMP JUMPDEST PUSH1 0xF DUP1 SLOAD SWAP1 PUSH1 0x0 PUSH2 0x5EB DUP4 PUSH2 0x1D7B JUMP JUMPDEST SWAP1 SWAP2 SSTORE POP POP PUSH1 0xE DUP1 SLOAD DUP3 SWAP1 DUP2 LT PUSH2 0x604 JUMPI PUSH2 0x604 PUSH2 0x1BB6 JUMP JUMPDEST PUSH1 0x0 SWAP2 DUP3 MSTORE PUSH1 0x20 DUP3 KECCAK256 ADD DUP1 SLOAD SWAP2 PUSH2 0x61A DUP4 PUSH2 0x1D7B JUMP JUMPDEST SWAP2 SWAP1 POP SSTORE POP JUMPDEST POP JUMP JUMPDEST PUSH1 0x2 SLOAD PUSH1 0x1 PUSH1 0x1 PUSH1 0xA0 SHL SUB AND CALLER EQ PUSH2 0x688 JUMPI PUSH1 0x40 MLOAD PUSH3 0x461BCD PUSH1 0xE5 SHL DUP2 MSTORE PUSH1 0x20 PUSH1 0x4 DUP3 ADD MSTORE PUSH1 0x22 PUSH1 0x24 DUP3 ADD MSTORE PUSH32 0x4F6E6C79206F776E65722063616E20706572666F726D20746869732061637469 PUSH1 0x44 DUP3 ADD MSTORE PUSH2 0x37B7 PUSH1 0xF1 SHL PUSH1 0x64 DUP3 ADD MSTORE PUSH1 0x84 ADD PUSH2 0x2AA JUMP JUMPDEST PUSH1 0x1 PUSH1 0x1 PUSH1 0xA0 SHL SUB DUP2 AND PUSH1 0x0 SWAP1 DUP2 MSTORE PUSH1 0x1 PUSH1 0x20 MSTORE PUSH1 0x40 SWAP1 KECCAK256 SLOAD PUSH1 0xFF AND ISZERO PUSH2 0x717 JUMPI PUSH1 0x40 MLOAD PUSH3 0x461BCD PUSH1 0xE5 SHL DUP2 MSTORE PUSH1 0x20 PUSH1 0x4 DUP3 ADD MSTORE PUSH1 0x35 PUSH1 0x24 DUP3 ADD MSTORE PUSH32 0x566F74696E67526F6C654D6F64656C3A20526F6C6520616C7265616479206772 PUSH1 0x44 DUP3 ADD MSTORE PUSH32 0x616E74656420746F207468697320616464726573730000000000000000000000 PUSH1 0x64 DUP3 ADD MSTORE PUSH1 0x84 ADD PUSH2 0x2AA JUMP JUMPDEST PUSH1 0x1 PUSH1 0x1 PUSH1 0xA0 SHL SUB AND PUSH1 0x0 SWAP1 DUP2 MSTORE PUSH1 0x1 PUSH1 0x20 DUP2 SWAP1 MSTORE PUSH1 0x40 SWAP1 SWAP2 KECCAK256 DUP1 SLOAD PUSH1 0xFF NOT AND SWAP1 SWAP2 OR SWAP1 SSTORE JUMP JUMPDEST PUSH1 0x2 SLOAD PUSH1 0x1 PUSH1 0x1 PUSH1 0xA0 SHL SUB AND CALLER EQ PUSH2 0x7A3 JUMPI PUSH1 0x40 MLOAD PUSH3 0x461BCD PUSH1 0xE5 SHL DUP2 MSTORE PUSH1 0x20 PUSH1 0x4 DUP3 ADD MSTORE PUSH1 0x22 PUSH1 0x24 DUP3 ADD MSTORE PUSH32 0x4F6E6C79206F776E65722063616E20706572666F726D20746869732061637469 PUSH1 0x44 DUP3 ADD MSTORE PUSH2 0x37B7 PUSH1 0xF1 SHL PUSH1 0x64 DUP3 ADD MSTORE PUSH1 0x84 ADD PUSH2 0x2AA JUMP JUMPDEST PUSH1 0x1 PUSH1 0x1 PUSH1 0xA0 SHL SUB DUP2 AND PUSH1 0x0 SWAP1 DUP2 MSTORE PUSH1 0x20 DUP2 SWAP1 MSTORE PUSH1 0x40 SWAP1 KECCAK256 SLOAD PUSH1 0xFF AND ISZERO PUSH2 0x832 JUMPI PUSH1 0x40 MLOAD PUSH3 0x461BCD PUSH1 0xE5 SHL DUP2 MSTORE PUSH1 0x20 PUSH1 0x4 DUP3 ADD MSTORE PUSH1 0x35 PUSH1 0x24 DUP3 ADD MSTORE PUSH32 0x566F74696E67526F6C654D6F64656C3A20526F6C6520616C7265616479206772 PUSH1 0x44 DUP3 ADD MSTORE PUSH32 0x616E74656420746F207468697320616464726573730000000000000000000000 PUSH1 0x64 DUP3 ADD MSTORE PUSH1 0x84 ADD PUSH2 0x2AA JUMP JUMPDEST PUSH1 0x1 PUSH1 0x1 PUSH1 0xA0 SHL SUB AND PUSH1 0x0 SWAP1 DUP2 MSTORE PUSH1 0x20 DUP2 SWAP1 MSTORE PUSH1 0x40 SWAP1 KECCAK256 DUP1 SLOAD PUSH1 0xFF NOT AND PUSH1 0x1 OR SWAP1 SSTORE JUMP JUMPDEST PUSH1 0x2 SLOAD PUSH1 0x1 PUSH1 0x1 PUSH1 0xA0 SHL SUB AND CALLER EQ PUSH2 0x8BB JUMPI PUSH1 0x40 MLOAD PUSH3 0x461BCD PUSH1 0xE5 SHL DUP2 MSTORE PUSH1 0x20 PUSH1 0x4 DUP3 ADD MSTORE PUSH1 0x22 PUSH1 0x24 DUP3 ADD MSTORE PUSH32 0x4F6E6C79206F776E65722063616E20706572666F726D20746869732061637469 PUSH1 0x44 DUP3 ADD MSTORE PUSH2 0x37B7 PUSH1 0xF1 SHL PUSH1 0x64 DUP3 ADD MSTORE PUSH1 0x84 ADD PUSH2 0x2AA JUMP JUMPDEST PUSH1 0x1 PUSH1 0x1 PUSH1 0xA0 SHL SUB DUP2 AND PUSH1 0x0 SWAP1 DUP2 MSTORE PUSH1 0x1 PUSH1 0x20 MSTORE PUSH1 0x40 SWAP1 KECCAK256 SLOAD PUSH1 0xFF AND PUSH2 0x949 JUMPI PUSH1 0x40 MLOAD PUSH3 0x461BCD PUSH1 0xE5 SHL DUP2 MSTORE PUSH1 0x20 PUSH1 0x4 DUP3 ADD MSTORE PUSH1 0x34 PUSH1 0x24 DUP3 ADD MSTORE PUSH32 0x566F74696E67526F6C654D6F64656C3A20526F6C65206973206E6F7420677261 PUSH1 0x44 DUP3 ADD MSTORE PUSH32 0x6E74656420746F20746869732061646472657373000000000000000000000000 PUSH1 0x64 DUP3 ADD MSTORE PUSH1 0x84 ADD PUSH2 0x2AA JUMP JUMPDEST PUSH1 0x1 PUSH1 0x1 PUSH1 0xA0 SHL SUB AND PUSH1 0x0 SWAP1 DUP2 MSTORE PUSH1 0x1 PUSH1 0x20 MSTORE PUSH1 0x40 SWAP1 KECCAK256 DUP1 SLOAD PUSH1 0xFF NOT AND SWAP1 SSTORE JUMP JUMPDEST PUSH2 0x99C PUSH1 0x40 MLOAD DUP1 PUSH1 0xA0 ADD PUSH1 0x40 MSTORE DUP1 PUSH1 0x60 DUP2 MSTORE PUSH1 0x20 ADD PUSH1 0x60 DUP2 MSTORE PUSH1 0x20 ADD PUSH1 0x0 DUP2 MSTORE PUSH1 0x20 ADD PUSH1 0x60 DUP2 MSTORE PUSH1 0x20 ADD PUSH1 0x0 DUP2 MSTORE POP SWAP1 JUMP JUMPDEST PUSH1 0x40 DUP1 MLOAD PUSH1 0xD DUP1 SLOAD PUSH1 0xC0 PUSH1 0x20 DUP3 MUL DUP5 ADD DUP2 ADD SWAP1 SWAP5 MSTORE PUSH1 0xA0 DUP4 ADD DUP2 DUP2 MSTORE SWAP3 SWAP4 SWAP2 SWAP3 DUP5 SWAP3 SWAP1 SWAP2 DUP5 SWAP2 PUSH1 0x0 SWAP1 DUP6 ADD JUMPDEST DUP3 DUP3 LT ISZERO PUSH2 0xA74 JUMPI DUP4 DUP3 SWAP1 PUSH1 0x0 MSTORE PUSH1 0x20 PUSH1 0x0 KECCAK256 ADD DUP1 SLOAD PUSH2 0x9E7 SWAP1 PUSH2 0x1BCC JUMP JUMPDEST DUP1 PUSH1 0x1F ADD PUSH1 0x20 DUP1 SWAP2 DIV MUL PUSH1 0x20 ADD PUSH1 0x40 MLOAD SWAP1 DUP2 ADD PUSH1 0x40 MSTORE DUP1 SWAP3 SWAP2 SWAP1 DUP2 DUP2 MSTORE PUSH1 0x20 ADD DUP3 DUP1 SLOAD PUSH2 0xA13 SWAP1 PUSH2 0x1BCC JUMP JUMPDEST DUP1 ISZERO PUSH2 0xA60 JUMPI DUP1 PUSH1 0x1F LT PUSH2 0xA35 JUMPI PUSH2 0x100 DUP1 DUP4 SLOAD DIV MUL DUP4 MSTORE SWAP2 PUSH1 0x20 ADD SWAP2 PUSH2 0xA60 JUMP JUMPDEST DUP3 ADD SWAP2 SWAP1 PUSH1 0x0 MSTORE PUSH1 0x20 PUSH1 0x0 KECCAK256 SWAP1 JUMPDEST DUP2 SLOAD DUP2 MSTORE SWAP1 PUSH1 0x1 ADD SWAP1 PUSH1 0x20 ADD DUP1 DUP4 GT PUSH2 0xA43 JUMPI DUP3 SWAP1 SUB PUSH1 0x1F AND DUP3 ADD SWAP2 JUMPDEST POP POP POP POP POP DUP2 MSTORE PUSH1 0x20 ADD SWAP1 PUSH1 0x1 ADD SWAP1 PUSH2 0x9C8 JUMP JUMPDEST POP POP POP POP DUP2 MSTORE PUSH1 0x20 ADD PUSH1 0x1 DUP3 ADD DUP1 SLOAD DUP1 PUSH1 0x20 MUL PUSH1 0x20 ADD PUSH1 0x40 MLOAD SWAP1 DUP2 ADD PUSH1 0x40 MSTORE DUP1 SWAP3 SWAP2 SWAP1 DUP2 DUP2 MSTORE PUSH1 0x20 ADD DUP3 DUP1 SLOAD DUP1 ISZERO PUSH2 0xACB JUMPI PUSH1 0x20 MUL DUP3 ADD SWAP2 SWAP1 PUSH1 0x0 MSTORE PUSH1 0x20 PUSH1 0x0 KECCAK256 SWAP1 JUMPDEST DUP2 SLOAD DUP2 MSTORE PUSH1 0x20 ADD SWAP1 PUSH1 0x1 ADD SWAP1 DUP1 DUP4 GT PUSH2 0xAB7 JUMPI JUMPDEST POP POP POP POP POP DUP2 MSTORE PUSH1 0x20 ADD PUSH1 0x2 DUP3 ADD SLOAD DUP2 MSTORE PUSH1 0x20 ADD PUSH1 0x3 DUP3 ADD DUP1 SLOAD PUSH2 0xAEE SWAP1 PUSH2 0x1BCC JUMP JUMPDEST DUP1 PUSH1 0x1F ADD PUSH1 0x20 DUP1 SWAP2 DIV MUL PUSH1 0x20 ADD PUSH1 0x40 MLOAD SWAP1 DUP2 ADD PUSH1 0x40 MSTORE DUP1 SWAP3 SWAP2 SWAP1 DUP2 DUP2 MSTORE PUSH1 0x20 ADD DUP3 DUP1 SLOAD PUSH2 0xB1A SWAP1 PUSH2 0x1BCC JUMP JUMPDEST DUP1 ISZERO PUSH2 0xB67 JUMPI DUP1 PUSH1 0x1F LT PUSH2 0xB3C JUMPI PUSH2 0x100 DUP1 DUP4 SLOAD DIV MUL DUP4 MSTORE SWAP2 PUSH1 0x20 ADD SWAP2 PUSH2 0xB67 JUMP JUMPDEST DUP3 ADD SWAP2 SWAP1 PUSH1 0x0 MSTORE PUSH1 0x20 PUSH1 0x0 KECCAK256 SWAP1 JUMPDEST DUP2 SLOAD DUP2 MSTORE SWAP1 PUSH1 0x1 ADD SWAP1 PUSH1 0x20 ADD DUP1 DUP4 GT PUSH2 0xB4A JUMPI DUP3 SWAP1 SUB PUSH1 0x1F AND DUP3 ADD SWAP2 JUMPDEST POP POP POP POP POP DUP2 MSTORE PUSH1 0x20 ADD PUSH1 0x4 DUP3 ADD SLOAD DUP2 MSTORE POP POP SWAP1 POP SWAP1 JUMP JUMPDEST PUSH1 0x2 SLOAD PUSH1 0x1 PUSH1 0x1 PUSH1 0xA0 SHL SUB AND CALLER EQ PUSH2 0xBE4 JUMPI PUSH1 0x40 MLOAD PUSH3 0x461BCD PUSH1 0xE5 SHL DUP2 MSTORE PUSH1 0x20 PUSH1 0x4 DUP3 ADD MSTORE PUSH1 0x22 PUSH1 0x24 DUP3 ADD MSTORE PUSH32 0x4F6E6C79206F776E65722063616E20706572666F726D20746869732061637469 PUSH1 0x44 DUP3 ADD MSTORE PUSH2 0x37B7 PUSH1 0xF1 SHL PUSH1 0x64 DUP3 ADD MSTORE PUSH1 0x84 ADD PUSH2 0x2AA JUMP JUMPDEST PUSH1 0x1 PUSH1 0x1 PUSH1 0xA0 SHL SUB DUP2 AND PUSH1 0x0 SWAP1 DUP2 MSTORE PUSH1 0x20 DUP2 SWAP1 MSTORE PUSH1 0x40 SWAP1 KECCAK256 SLOAD PUSH1 0xFF AND PUSH2 0xC72 JUMPI PUSH1 0x40 MLOAD PUSH3 0x461BCD PUSH1 0xE5 SHL DUP2 MSTORE PUSH1 0x20 PUSH1 0x4 DUP3 ADD MSTORE PUSH1 0x34 PUSH1 0x24 DUP3 ADD MSTORE PUSH32 0x566F74696E67526F6C654D6F64656C3A20526F6C65206973206E6F7420677261 PUSH1 0x44 DUP3 ADD MSTORE PUSH32 0x6E74656420746F20746869732061646472657373000000000000000000000000 PUSH1 0x64 DUP3 ADD MSTORE PUSH1 0x84 ADD PUSH2 0x2AA JUMP JUMPDEST PUSH1 0x1 PUSH1 0x1 PUSH1 0xA0 SHL SUB AND PUSH1 0x0 SWAP1 DUP2 MSTORE PUSH1 0x20 DUP2 SWAP1 MSTORE PUSH1 0x40 SWAP1 KECCAK256 DUP1 SLOAD PUSH1 0xFF NOT AND SWAP1 SSTORE JUMP JUMPDEST PUSH1 0x40 DUP1 MLOAD PUSH2 0x1E0 DUP2 ADD DUP3 MSTORE PUSH1 0x0 DUP1 DUP3 MSTORE PUSH1 0x20 DUP1 DUP4 ADD DUP3 SWAP1 MSTORE DUP3 DUP5 ADD DUP3 SWAP1 MSTORE PUSH1 0x60 DUP1 DUP5 ADD DUP4 SWAP1 MSTORE PUSH1 0x80 DUP5 ADD DUP4 SWAP1 MSTORE PUSH1 0xA0 DUP5 ADD DUP4 SWAP1 MSTORE PUSH1 0xC0 DUP5 ADD DUP4 SWAP1 MSTORE PUSH1 0xE0 DUP5 ADD DUP4 SWAP1 MSTORE PUSH2 0x100 DUP5 ADD DUP4 SWAP1 MSTORE PUSH2 0x120 DUP5 ADD DUP4 SWAP1 MSTORE PUSH2 0x140 DUP5 ADD DUP4 SWAP1 MSTORE PUSH2 0x160 DUP5 ADD DUP4 SWAP1 MSTORE PUSH2 0x180 DUP5 ADD DUP2 SWAP1 MSTORE PUSH2 0x1A0 DUP5 ADD DUP2 SWAP1 MSTORE PUSH2 0x1C0 DUP5 ADD MSTORE CALLER DUP3 MSTORE DUP2 SWAP1 MSTORE SWAP2 SWAP1 SWAP2 KECCAK256 SLOAD PUSH1 0xFF AND PUSH2 0xD70 JUMPI PUSH1 0x40 MLOAD PUSH3 0x461BCD PUSH1 0xE5 SHL DUP2 MSTORE PUSH1 0x20 PUSH1 0x4 DUP3 ADD MSTORE PUSH1 0x22 PUSH1 0x24 DUP3 ADD MSTORE PUSH32 0x4F6E6C792041646D696E2063616E20706572666F726D20746869732061637469 PUSH1 0x44 DUP3 ADD MSTORE PUSH2 0x37B7 PUSH1 0xF1 SHL PUSH1 0x64 DUP3 ADD MSTORE PUSH1 0x84 ADD PUSH2 0x2AA JUMP JUMPDEST PUSH1 0x40 DUP1 MLOAD PUSH2 0x1E0 DUP2 ADD DUP3 MSTORE PUSH1 0x3 DUP1 SLOAD PUSH1 0xFF DUP1 DUP3 AND ISZERO ISZERO DUP5 MSTORE PUSH2 0x100 DUP1 DUP4 DIV DUP3 AND ISZERO ISZERO PUSH1 0x20 DUP1 DUP8 ADD SWAP2 SWAP1 SWAP2 MSTORE PUSH3 0x10000 DUP5 DIV DUP4 AND ISZERO ISZERO DUP7 DUP9 ADD MSTORE PUSH4 0x1000000 DUP5 DIV DUP4 AND ISZERO ISZERO PUSH1 0x60 DUP8 ADD MSTORE PUSH5 0x100000000 DUP5 DIV DUP4 AND ISZERO ISZERO PUSH1 0x80 DUP8 ADD MSTORE PUSH6 0x10000000000 DUP5 DIV DUP4 AND ISZERO ISZERO PUSH1 0xA0 DUP8 ADD MSTORE PUSH7 0x1000000000000 DUP5 DIV DUP4 AND ISZERO ISZERO PUSH1 0xC0 DUP8 ADD MSTORE PUSH8 0x100000000000000 DUP5 DIV DUP4 AND ISZERO ISZERO PUSH1 0xE0 DUP8 ADD MSTORE PUSH9 0x10000000000000000 SWAP1 SWAP4 DIV SWAP1 SWAP2 AND ISZERO ISZERO SWAP1 DUP5 ADD MSTORE PUSH1 0x4 SLOAD PUSH2 0x120 DUP5 ADD MSTORE PUSH1 0x5 SLOAD PUSH2 0x140 DUP5 ADD MSTORE PUSH1 0x6 SLOAD PUSH2 0x160 DUP5 ADD MSTORE PUSH1 0x7 DUP1 SLOAD DUP6 MLOAD DUP2 DUP5 MUL DUP2 ADD DUP5 ADD SWAP1 SWAP7 MSTORE DUP1 DUP7 MSTORE SWAP4 SWAP5 SWAP3 SWAP4 PUSH2 0x180 DUP7 ADD SWAP4 SWAP3 DUP4 ADD DUP3 DUP3 DUP1 ISZERO PUSH2 0xE8B JUMPI PUSH1 0x20 MUL DUP3 ADD SWAP2 SWAP1 PUSH1 0x0 MSTORE PUSH1 0x20 PUSH1 0x0 KECCAK256 SWAP1 JUMPDEST DUP2 SLOAD PUSH1 0x1 PUSH1 0x1 PUSH1 0xA0 SHL SUB AND DUP2 MSTORE PUSH1 0x1 SWAP1 SWAP2 ADD SWAP1 PUSH1 0x20 ADD DUP1 DUP4 GT PUSH2 0xE6D JUMPI JUMPDEST POP POP POP POP POP DUP2 MSTORE PUSH1 0x20 ADD PUSH1 0x5 DUP3 ADD DUP1 SLOAD DUP1 PUSH1 0x20 MUL PUSH1 0x20 ADD PUSH1 0x40 MLOAD SWAP1 DUP2 ADD PUSH1 0x40 MSTORE DUP1 SWAP3 SWAP2 SWAP1 DUP2 DUP2 MSTORE PUSH1 0x20 ADD DUP3 DUP1 SLOAD DUP1 ISZERO PUSH2 0xEE3 JUMPI PUSH1 0x20 MUL DUP3 ADD SWAP2 SWAP1 PUSH1 0x0 MSTORE PUSH1 0x20 PUSH1 0x0 KECCAK256 SWAP1 JUMPDEST DUP2 SLOAD DUP2 MSTORE PUSH1 0x20 ADD SWAP1 PUSH1 0x1 ADD SWAP1 DUP1 DUP4 GT PUSH2 0xECF JUMPI JUMPDEST POP POP POP POP POP DUP2 MSTORE PUSH1 0x20 ADD PUSH1 0x6 DUP3 ADD DUP1 SLOAD DUP1 PUSH1 0x20 MUL PUSH1 0x20 ADD PUSH1 0x40 MLOAD SWAP1 DUP2 ADD PUSH1 0x40 MSTORE DUP1 SWAP3 SWAP2 SWAP1 DUP2 DUP2 MSTORE PUSH1 0x20 ADD PUSH1 0x0 SWAP1 JUMPDEST DUP3 DUP3 LT ISZERO PUSH2 0xFBD JUMPI DUP4 DUP3 SWAP1 PUSH1 0x0 MSTORE PUSH1 0x20 PUSH1 0x0 KECCAK256 ADD DUP1 SLOAD PUSH2 0xF30 SWAP1 PUSH2 0x1BCC JUMP JUMPDEST DUP1 PUSH1 0x1F ADD PUSH1 0x20 DUP1 SWAP2 DIV MUL PUSH1 0x20 ADD PUSH1 0x40 MLOAD SWAP1 DUP2 ADD PUSH1 0x40 MSTORE DUP1 SWAP3 SWAP2 SWAP1 DUP2 DUP2 MSTORE PUSH1 0x20 ADD DUP3 DUP1 SLOAD PUSH2 0xF5C SWAP1 PUSH2 0x1BCC JUMP JUMPDEST DUP1 ISZERO PUSH2 0xFA9 JUMPI DUP1 PUSH1 0x1F LT PUSH2 0xF7E JUMPI PUSH2 0x100 DUP1 DUP4 SLOAD DIV MUL DUP4 MSTORE SWAP2 PUSH1 0x20 ADD SWAP2 PUSH2 0xFA9 JUMP JUMPDEST DUP3 ADD SWAP2 SWAP1 PUSH1 0x0 MSTORE PUSH1 0x20 PUSH1 0x0 KECCAK256 SWAP1 JUMPDEST DUP2 SLOAD DUP2 MSTORE SWAP1 PUSH1 0x1 ADD SWAP1 PUSH1 0x20 ADD DUP1 DUP4 GT PUSH2 0xF8C JUMPI DUP3 SWAP1 SUB PUSH1 0x1F AND DUP3 ADD SWAP2 JUMPDEST POP POP POP POP POP DUP2 MSTORE PUSH1 0x20 ADD SWAP1 PUSH1 0x1 ADD SWAP1 PUSH2 0xF11 JUMP JUMPDEST POP POP POP POP DUP2 MSTORE POP POP SWAP1 POP SWAP1 JUMP JUMPDEST CALLER PUSH1 0x0 SWAP1 DUP2 MSTORE PUSH1 0x1 PUSH1 0x20 MSTORE PUSH1 0x40 SWAP1 KECCAK256 SLOAD PUSH1 0xFF AND PUSH2 0x1037 JUMPI PUSH1 0x40 MLOAD PUSH3 0x461BCD PUSH1 0xE5 SHL DUP2 MSTORE PUSH1 0x20 PUSH1 0x4 DUP3 ADD MSTORE PUSH1 0x25 PUSH1 0x24 DUP3 ADD MSTORE PUSH32 0x4F6E6C79204F70657261746F722063616E20706572666F726D20746869732061 PUSH1 0x44 DUP3 ADD MSTORE PUSH5 0x31BA34B7B7 PUSH1 0xD9 SHL PUSH1 0x64 DUP3 ADD MSTORE PUSH1 0x84 ADD PUSH2 0x2AA JUMP JUMPDEST PUSH1 0xA SLOAD PUSH1 0xFF AND ISZERO PUSH2 0x108A JUMPI PUSH1 0x40 MLOAD PUSH3 0x461BCD PUSH1 0xE5 SHL DUP2 MSTORE PUSH1 0x20 PUSH1 0x4 DUP3 ADD MSTORE PUSH1 0x1E PUSH1 0x24 DUP3 ADD MSTORE PUSH32 0x566F74696E673A20566F74696E6720616C726561647920737461727465640000 PUSH1 0x44 DUP3 ADD MSTORE PUSH1 0x64 ADD PUSH2 0x2AA JUMP JUMPDEST PUSH1 0x3 SLOAD PUSH1 0xFF AND ISZERO PUSH2 0x117B JUMPI PUSH1 0x0 JUMPDEST PUSH1 0xC SLOAD DUP2 LT ISZERO PUSH2 0x1101 JUMPI PUSH1 0x0 PUSH1 0xB PUSH1 0x0 PUSH1 0xC DUP5 DUP2 SLOAD DUP2 LT PUSH2 0x10BB JUMPI PUSH2 0x10BB PUSH2 0x1BB6 JUMP JUMPDEST PUSH1 0x0 SWAP2 DUP3 MSTORE PUSH1 0x20 DUP1 DUP4 KECCAK256 SWAP2 SWAP1 SWAP2 ADD SLOAD PUSH1 0x1 PUSH1 0x1 PUSH1 0xA0 SHL SUB AND DUP4 MSTORE DUP3 ADD SWAP3 SWAP1 SWAP3 MSTORE PUSH1 0x40 ADD SWAP1 KECCAK256 DUP1 SLOAD PUSH1 0xFF NOT AND SWAP2 ISZERO ISZERO SWAP2 SWAP1 SWAP2 OR SWAP1 SSTORE DUP1 PUSH2 0x10F9 DUP2 PUSH2 0x1D7B JUMP JUMPDEST SWAP2 POP POP PUSH2 0x1098 JUMP JUMPDEST POP PUSH2 0x110E PUSH1 0xC PUSH1 0x0 PUSH2 0x1841 JUMP JUMPDEST PUSH1 0x0 PUSH1 0xF DUP2 SWAP1 SSTORE PUSH1 0x40 DUP1 MLOAD PUSH1 0x20 DUP2 ADD SWAP1 SWAP2 MSTORE SWAP1 DUP2 MSTORE PUSH1 0x10 SWAP1 PUSH2 0x1130 SWAP1 DUP3 PUSH2 0x1D94 JUMP JUMPDEST POP PUSH1 0x0 PUSH1 0x11 DUP2 SWAP1 SSTORE JUMPDEST PUSH1 0x9 SLOAD DUP2 LT ISZERO PUSH2 0x1179 JUMPI PUSH1 0x0 PUSH1 0xD PUSH1 0x1 ADD DUP3 DUP2 SLOAD DUP2 LT PUSH2 0x115B JUMPI PUSH2 0x115B PUSH2 0x1BB6 JUMP JUMPDEST PUSH1 0x0 SWAP2 DUP3 MSTORE PUSH1 0x20 SWAP1 SWAP2 KECCAK256 ADD SSTORE DUP1 PUSH2 0x1171 DUP2 PUSH2 0x1D7B JUMP JUMPDEST SWAP2 POP POP PUSH2 0x1139 JUMP JUMPDEST POP JUMPDEST PUSH1 0xF SLOAD ISZERO PUSH2 0x11F1 JUMPI PUSH1 0x40 MLOAD PUSH3 0x461BCD PUSH1 0xE5 SHL DUP2 MSTORE PUSH1 0x20 PUSH1 0x4 DUP3 ADD MSTORE PUSH1 0x36 PUSH1 0x24 DUP3 ADD MSTORE PUSH32 0x566F74696E673A20566F74696E6720697320616C72656164792066696E697368 PUSH1 0x44 DUP3 ADD MSTORE PUSH32 0x656420616E64206973206E6F7420726570656174656400000000000000000000 PUSH1 0x64 DUP3 ADD MSTORE PUSH1 0x84 ADD PUSH2 0x2AA JUMP JUMPDEST PUSH1 0xA DUP1 SLOAD PUSH1 0xFF NOT AND PUSH1 0x1 OR SWAP1 SSTORE JUMP JUMPDEST PUSH2 0x122F PUSH1 0x40 MLOAD DUP1 PUSH1 0x80 ADD PUSH1 0x40 MSTORE DUP1 PUSH1 0x0 ISZERO ISZERO DUP2 MSTORE PUSH1 0x20 ADD PUSH1 0x60 DUP2 MSTORE PUSH1 0x20 ADD PUSH1 0x0 DUP2 MSTORE PUSH1 0x20 ADD PUSH1 0x0 ISZERO ISZERO DUP2 MSTORE POP SWAP1 JUMP JUMPDEST CALLER PUSH1 0x0 SWAP1 DUP2 MSTORE PUSH1 0x1 PUSH1 0x20 MSTORE PUSH1 0x40 SWAP1 KECCAK256 SLOAD PUSH1 0xFF AND PUSH2 0x129C JUMPI PUSH1 0x40 MLOAD PUSH3 0x461BCD PUSH1 0xE5 SHL DUP2 MSTORE PUSH1 0x20 PUSH1 0x4 DUP3 ADD MSTORE PUSH1 0x25 PUSH1 0x24 DUP3 ADD MSTORE PUSH32 0x4F6E6C79204F70657261746F722063616E20706572666F726D20746869732061 PUSH1 0x44 DUP3 ADD MSTORE PUSH5 0x31BA34B7B7 PUSH1 0xD9 SHL PUSH1 0x64 DUP3 ADD MSTORE PUSH1 0x84 ADD PUSH2 0x2AA JUMP JUMPDEST PUSH1 0x3 SLOAD PUSH2 0x100 SWAP1 DIV PUSH1 0xFF AND PUSH2 0x1319 JUMPI PUSH1 0x40 MLOAD PUSH3 0x461BCD PUSH1 0xE5 SHL DUP2 MSTORE PUSH1 0x20 PUSH1 0x4 DUP3 ADD MSTORE PUSH1 0x27 PUSH1 0x24 DUP3 ADD MSTORE PUSH32 0x566F74696E673A20566F74657320646973636C6F73757265206973206E6F7420 PUSH1 0x44 DUP3 ADD MSTORE PUSH32 0x616C6C6F77656400000000000000000000000000000000000000000000000000 PUSH1 0x64 DUP3 ADD MSTORE PUSH1 0x84 ADD PUSH2 0x2AA JUMP JUMPDEST PUSH1 0x1 PUSH1 0x1 PUSH1 0xA0 SHL SUB DUP3 AND PUSH1 0x0 SWAP1 DUP2 MSTORE PUSH1 0xB PUSH1 0x20 SWAP1 DUP2 MSTORE PUSH1 0x40 SWAP2 DUP3 SWAP1 KECCAK256 DUP3 MLOAD PUSH1 0x80 DUP2 ADD SWAP1 SWAP4 MSTORE DUP1 SLOAD PUSH1 0xFF AND ISZERO ISZERO DUP4 MSTORE PUSH1 0x1 DUP2 ADD DUP1 SLOAD SWAP2 SWAP3 DUP5 ADD SWAP2 PUSH2 0x135B SWAP1 PUSH2 0x1BCC JUMP JUMPDEST DUP1 PUSH1 0x1F ADD PUSH1 0x20 DUP1 SWAP2 DIV MUL PUSH1 0x20 ADD PUSH1 0x40 MLOAD SWAP1 DUP2 ADD PUSH1 0x40 MSTORE DUP1 SWAP3 SWAP2 SWAP1 DUP2 DUP2 MSTORE PUSH1 0x20 ADD DUP3 DUP1 SLOAD PUSH2 0x1387 SWAP1 PUSH2 0x1BCC JUMP JUMPDEST DUP1 ISZERO PUSH2 0x13D4 JUMPI DUP1 PUSH1 0x1F LT PUSH2 0x13A9 JUMPI PUSH2 0x100 DUP1 DUP4 SLOAD DIV MUL DUP4 MSTORE SWAP2 PUSH1 0x20 ADD SWAP2 PUSH2 0x13D4 JUMP JUMPDEST DUP3 ADD SWAP2 SWAP1 PUSH1 0x0 MSTORE PUSH1 0x20 PUSH1 0x0 KECCAK256 SWAP1 JUMPDEST DUP2 SLOAD DUP2 MSTORE SWAP1 PUSH1 0x1 ADD SWAP1 PUSH1 0x20 ADD DUP1 DUP4 GT PUSH2 0x13B7 JUMPI DUP3 SWAP1 SUB PUSH1 0x1F AND DUP3 ADD SWAP2 JUMPDEST POP POP POP SWAP2 DUP4 MSTORE POP POP PUSH1 0x2 DUP3 ADD SLOAD PUSH1 0x20 DUP3 ADD MSTORE PUSH1 0x3 SWAP1 SWAP2 ADD SLOAD PUSH1 0xFF AND ISZERO ISZERO PUSH1 0x40 SWAP1 SWAP2 ADD MSTORE SWAP3 SWAP2 POP POP JUMP JUMPDEST PUSH1 0x2 SLOAD PUSH1 0x1 PUSH1 0x1 PUSH1 0xA0 SHL SUB AND CALLER EQ PUSH2 0x1462 JUMPI PUSH1 0x40 MLOAD PUSH3 0x461BCD PUSH1 0xE5 SHL DUP2 MSTORE PUSH1 0x20 PUSH1 0x4 DUP3 ADD MSTORE PUSH1 0x22 PUSH1 0x24 DUP3 ADD MSTORE PUSH32 0x4F6E6C79206F776E65722063616E20706572666F726D20746869732061637469 PUSH1 0x44 DUP3 ADD MSTORE PUSH2 0x37B7 PUSH1 0xF1 SHL PUSH1 0x64 DUP3 ADD MSTORE PUSH1 0x84 ADD PUSH2 0x2AA JUMP JUMPDEST PUSH1 0x2 SLOAD PUSH1 0x1 PUSH1 0x1 PUSH1 0xA0 SHL SUB SWAP1 DUP2 AND SWAP1 DUP3 AND SUB PUSH2 0x14E6 JUMPI PUSH1 0x40 MLOAD PUSH3 0x461BCD PUSH1 0xE5 SHL DUP2 MSTORE PUSH1 0x20 PUSH1 0x4 DUP3 ADD MSTORE PUSH1 0x35 PUSH1 0x24 DUP3 ADD MSTORE PUSH32 0x566F74696E67526F6C654D6F64656C3A2063616E6E6F74207472616E73666572 PUSH1 0x44 DUP3 ADD MSTORE PUSH32 0x204F776E65727368697020746F2068696D73656C660000000000000000000000 PUSH1 0x64 DUP3 ADD MSTORE PUSH1 0x84 ADD PUSH2 0x2AA JUMP JUMPDEST PUSH1 0x2 DUP1 SLOAD PUSH20 0xFFFFFFFFFFFFFFFFFFFFFFFFFFFFFFFFFFFFFFFF NOT AND PUSH1 0x1 PUSH1 0x1 PUSH1 0xA0 SHL SUB SWAP3 SWAP1 SWAP3 AND SWAP2 SWAP1 SWAP2 OR SWAP1 SSTORE JUMP JUMPDEST PUSH1 0xA SLOAD PUSH1 0xFF AND PUSH2 0x1567 JUMPI PUSH1 0x40 MLOAD PUSH3 0x461BCD PUSH1 0xE5 SHL DUP2 MSTORE PUSH1 0x20 PUSH1 0x4 DUP3 ADD MSTORE PUSH1 0x1D PUSH1 0x24 DUP3 ADD MSTORE PUSH32 0x566F74696E673A20566F74696E67206973206465616374697661746564000000 PUSH1 0x44 DUP3 ADD MSTORE PUSH1 0x64 ADD PUSH2 0x2AA JUMP JUMPDEST CALLER PUSH1 0x0 SWAP1 DUP2 MSTORE PUSH1 0x1 PUSH1 0x20 MSTORE PUSH1 0x40 SWAP1 KECCAK256 SLOAD PUSH1 0xFF AND PUSH2 0x15D4 JUMPI PUSH1 0x40 MLOAD PUSH3 0x461BCD PUSH1 0xE5 SHL DUP2 MSTORE PUSH1 0x20 PUSH1 0x4 DUP3 ADD MSTORE PUSH1 0x25 PUSH1 0x24 DUP3 ADD MSTORE PUSH32 0x4F6E6C79204F70657261746F722063616E20706572666F726D20746869732061 PUSH1 0x44 DUP3 ADD MSTORE PUSH5 0x31BA34B7B7 PUSH1 0xD9 SHL PUSH1 0x64 DUP3 ADD MSTORE PUSH1 0x84 ADD PUSH2 0x2AA JUMP JUMPDEST PUSH1 0x0 DUP1 PUSH1 0x0 DUP1 JUMPDEST PUSH1 0xE SLOAD DUP2 LT ISZERO PUSH2 0x1673 JUMPI DUP4 PUSH1 0xD PUSH1 0x1 ADD DUP3 DUP2 SLOAD DUP2 LT PUSH2 0x15FC JUMPI PUSH2 0x15FC PUSH2 0x1BB6 JUMP JUMPDEST SWAP1 PUSH1 0x0 MSTORE PUSH1 0x20 PUSH1 0x0 KECCAK256 ADD SLOAD LT PUSH2 0x1661 JUMPI DUP4 PUSH1 0xD PUSH1 0x1 ADD DUP3 DUP2 SLOAD DUP2 LT PUSH2 0x1623 JUMPI PUSH2 0x1623 PUSH2 0x1BB6 JUMP JUMPDEST SWAP1 PUSH1 0x0 MSTORE PUSH1 0x20 PUSH1 0x0 KECCAK256 ADD SLOAD SUB PUSH2 0x163C JUMPI PUSH1 0x1 SWAP2 POP PUSH2 0x1673 JUMP JUMPDEST PUSH1 0xE DUP1 SLOAD DUP3 SWAP1 DUP2 LT PUSH2 0x1650 JUMPI PUSH2 0x1650 PUSH2 0x1BB6 JUMP JUMPDEST SWAP1 PUSH1 0x0 MSTORE PUSH1 0x20 PUSH1 0x0 KECCAK256 ADD SLOAD SWAP4 POP DUP1 SWAP3 POP JUMPDEST DUP1 PUSH2 0x166B DUP2 PUSH2 0x1D7B JUMP JUMPDEST SWAP2 POP POP PUSH2 0x15DB JUMP JUMPDEST POP DUP3 ISZERO DUP1 PUSH2 0x1683 JUMPI POP PUSH1 0x1 DUP2 ISZERO ISZERO EQ JUMPDEST ISZERO PUSH2 0x16C0 JUMPI PUSH1 0x40 MLOAD DUP1 PUSH1 0x60 ADD PUSH1 0x40 MSTORE DUP1 PUSH1 0x22 DUP2 MSTORE PUSH1 0x20 ADD PUSH2 0x1E88 PUSH1 0x22 SWAP2 CODECOPY PUSH1 0x10 SWAP1 PUSH2 0x16AE SWAP1 DUP3 PUSH2 0x1D94 JUMP JUMPDEST POP POP POP PUSH1 0x11 SSTORE PUSH1 0xA DUP1 SLOAD PUSH1 0xFF NOT AND SWAP1 SSTORE JUMP JUMPDEST PUSH1 0x3 SLOAD PUSH7 0x1000000000000 SWAP1 DIV PUSH1 0xFF AND DUP1 ISZERO PUSH2 0x16F4 JUMPI POP PUSH1 0xF SLOAD PUSH2 0x16E5 DUP5 PUSH1 0x64 PUSH2 0x1E4E JUMP JUMPDEST PUSH2 0x16EF SWAP2 SWAP1 PUSH2 0x1E65 JUMP JUMPDEST PUSH1 0x64 EQ ISZERO JUMPDEST ISZERO PUSH2 0x171F JUMPI PUSH1 0x40 MLOAD DUP1 PUSH1 0x60 ADD PUSH1 0x40 MSTORE DUP1 PUSH1 0x23 DUP2 MSTORE PUSH1 0x20 ADD PUSH2 0x1EEB PUSH1 0x23 SWAP2 CODECOPY PUSH1 0x10 SWAP1 PUSH2 0x16AE SWAP1 DUP3 PUSH2 0x1D94 JUMP JUMPDEST PUSH1 0x3 SLOAD PUSH6 0x10000000000 SWAP1 DIV PUSH1 0xFF AND DUP1 ISZERO PUSH2 0x1752 JUMPI POP PUSH1 0x6 SLOAD PUSH1 0xF SLOAD PUSH2 0x1746 DUP6 PUSH1 0x64 PUSH2 0x1E4E JUMP JUMPDEST PUSH2 0x1750 SWAP2 SWAP1 PUSH2 0x1E65 JUMP JUMPDEST LT JUMPDEST ISZERO PUSH2 0x1788 JUMPI PUSH1 0x40 MLOAD DUP1 PUSH1 0x80 ADD PUSH1 0x40 MSTORE DUP1 PUSH1 0x41 DUP2 MSTORE PUSH1 0x20 ADD PUSH2 0x1EAA PUSH1 0x41 SWAP2 CODECOPY PUSH1 0x10 SWAP1 PUSH2 0x177D SWAP1 DUP3 PUSH2 0x1D94 JUMP JUMPDEST POP PUSH1 0x11 DUP4 SWAP1 SSTORE PUSH2 0x17BB JUMP JUMPDEST PUSH1 0xD DUP1 SLOAD DUP4 SWAP1 DUP2 LT PUSH2 0x179C JUMPI PUSH2 0x179C PUSH2 0x1BB6 JUMP JUMPDEST PUSH1 0x0 SWAP2 DUP3 MSTORE PUSH1 0x20 SWAP1 SWAP2 KECCAK256 PUSH1 0x10 SWAP2 PUSH2 0x17B4 SWAP2 ADD DUP3 PUSH2 0x1C6B JUMP JUMPDEST POP PUSH1 0x11 DUP4 SWAP1 SSTORE JUMPDEST POP POP PUSH1 0xA DUP1 SLOAD PUSH1 0xFF NOT AND SWAP1 SSTORE POP JUMP JUMPDEST CALLER PUSH1 0x0 SWAP1 DUP2 MSTORE PUSH1 0x1 PUSH1 0x20 MSTORE PUSH1 0x40 DUP2 KECCAK256 SLOAD PUSH1 0xFF AND PUSH2 0x1837 JUMPI PUSH1 0x40 MLOAD PUSH3 0x461BCD PUSH1 0xE5 SHL DUP2 MSTORE PUSH1 0x20 PUSH1 0x4 DUP3 ADD MSTORE PUSH1 0x25 PUSH1 0x24 DUP3 ADD MSTORE PUSH32 0x4F6E6C79204F70657261746F722063616E20706572666F726D20746869732061 PUSH1 0x44 DUP3 ADD MSTORE PUSH5 0x31BA34B7B7 PUSH1 0xD9 SHL PUSH1 0x64 DUP3 ADD MSTORE PUSH1 0x84 ADD PUSH2 0x2AA JUMP JUMPDEST POP PUSH1 0xA SLOAD PUSH1 0xFF AND SWAP1 JUMP JUMPDEST POP DUP1 SLOAD PUSH1 0x0 DUP3 SSTORE SWAP1 PUSH1 0x0 MSTORE PUSH1 0x20 PUSH1 0x0 KECCAK256 SWAP1 DUP2 ADD SWAP1 PUSH2 0x620 SWAP2 SWAP1 JUMPDEST DUP1 DUP3 GT ISZERO PUSH2 0x186F JUMPI PUSH1 0x0 DUP2 SSTORE PUSH1 0x1 ADD PUSH2 0x185B JUMP JUMPDEST POP SWAP1 JUMP JUMPDEST PUSH1 0x0 PUSH1 0x20 DUP3 DUP5 SUB SLT ISZERO PUSH2 0x1885 JUMPI PUSH1 0x0 DUP1 REVERT JUMPDEST POP CALLDATALOAD SWAP2 SWAP1 POP JUMP JUMPDEST PUSH1 0x0 PUSH1 0x20 DUP3 DUP5 SUB SLT ISZERO PUSH2 0x189E JUMPI PUSH1 0x0 DUP1 REVERT JUMPDEST DUP2 CALLDATALOAD PUSH1 0x1 PUSH1 0x1 PUSH1 0xA0 SHL SUB DUP2 AND DUP2 EQ PUSH2 0x18B5 JUMPI PUSH1 0x0 DUP1 REVERT JUMPDEST SWAP4 SWAP3 POP POP POP JUMP JUMPDEST PUSH1 0x0 DUP2 MLOAD DUP1 DUP5 MSTORE PUSH1 0x0 JUMPDEST DUP2 DUP2 LT ISZERO PUSH2 0x18E2 JUMPI PUSH1 0x20 DUP2 DUP6 ADD DUP2 ADD MLOAD DUP7 DUP4 ADD DUP3 ADD MSTORE ADD PUSH2 0x18C6 JUMP JUMPDEST POP PUSH1 0x0 PUSH1 0x20 DUP3 DUP7 ADD ADD MSTORE PUSH1 0x20 PUSH1 0x1F NOT PUSH1 0x1F DUP4 ADD AND DUP6 ADD ADD SWAP2 POP POP SWAP3 SWAP2 POP POP JUMP JUMPDEST PUSH1 0x0 DUP2 MLOAD DUP1 DUP5 MSTORE PUSH1 0x20 DUP1 DUP6 ADD DUP1 DUP2 SWAP7 POP DUP4 PUSH1 0x5 SHL DUP2 ADD SWAP2 POP DUP3 DUP7 ADD PUSH1 0x0 JUMPDEST DUP6 DUP2 LT ISZERO PUSH2 0x194A JUMPI DUP3 DUP5 SUB DUP10 MSTORE PUSH2 0x1938 DUP5 DUP4 MLOAD PUSH2 0x18BC JUMP JUMPDEST SWAP9 DUP6 ADD SWAP9 SWAP4 POP SWAP1 DUP5 ADD SWAP1 PUSH1 0x1 ADD PUSH2 0x1920 JUMP JUMPDEST POP SWAP2 SWAP8 SWAP7 POP POP POP POP POP POP POP JUMP JUMPDEST PUSH1 0x0 DUP2 MLOAD DUP1 DUP5 MSTORE PUSH1 0x20 DUP1 DUP6 ADD SWAP5 POP DUP1 DUP5 ADD PUSH1 0x0 JUMPDEST DUP4 DUP2 LT ISZERO PUSH2 0x1987 JUMPI DUP2 MLOAD DUP8 MSTORE SWAP6 DUP3 ADD SWAP6 SWAP1 DUP3 ADD SWAP1 PUSH1 0x1 ADD PUSH2 0x196B JUMP JUMPDEST POP SWAP5 SWAP6 SWAP5 POP POP POP POP POP JUMP JUMPDEST PUSH1 0x20 DUP2 MSTORE PUSH1 0x0 DUP3 MLOAD PUSH1 0xA0 PUSH1 0x20 DUP5 ADD MSTORE PUSH2 0x19AE PUSH1 0xC0 DUP5 ADD DUP3 PUSH2 0x1902 JUMP JUMPDEST SWAP1 POP PUSH1 0x20 DUP5 ADD MLOAD PUSH1 0x1F NOT DUP1 DUP6 DUP5 SUB ADD PUSH1 0x40 DUP7 ADD MSTORE PUSH2 0x19CC DUP4 DUP4 PUSH2 0x1957 JUMP JUMPDEST SWAP3 POP PUSH1 0x40 DUP7 ADD MLOAD PUSH1 0x60 DUP7 ADD MSTORE PUSH1 0x60 DUP7 ADD MLOAD SWAP2 POP DUP1 DUP6 DUP5 SUB ADD PUSH1 0x80 DUP7 ADD MSTORE POP PUSH2 0x19F4 DUP3 DUP3 PUSH2 0x18BC JUMP JUMPDEST SWAP2 POP POP PUSH1 0x80 DUP5 ADD MLOAD PUSH1 0xA0 DUP5 ADD MSTORE DUP1 SWAP2 POP POP SWAP3 SWAP2 POP POP JUMP JUMPDEST PUSH1 0x0 DUP2 MLOAD DUP1 DUP5 MSTORE PUSH1 0x20 DUP1 DUP6 ADD SWAP5 POP DUP1 DUP5 ADD PUSH1 0x0 JUMPDEST DUP4 DUP2 LT ISZERO PUSH2 0x1987 JUMPI DUP2 MLOAD PUSH1 0x1 PUSH1 0x1 PUSH1 0xA0 SHL SUB AND DUP8 MSTORE SWAP6 DUP3 ADD SWAP6 SWAP1 DUP3 ADD SWAP1 PUSH1 0x1 ADD PUSH2 0x1A1F JUMP JUMPDEST PUSH1 0x20 DUP2 MSTORE PUSH2 0x1A57 PUSH1 0x20 DUP3 ADD DUP4 MLOAD ISZERO ISZERO SWAP1 MSTORE JUMP JUMPDEST PUSH1 0x0 PUSH1 0x20 DUP4 ADD MLOAD PUSH2 0x1A6C PUSH1 0x40 DUP5 ADD DUP3 ISZERO ISZERO SWAP1 MSTORE JUMP JUMPDEST POP PUSH1 0x40 DUP4 ADD MLOAD DUP1 ISZERO ISZERO PUSH1 0x60 DUP5 ADD MSTORE POP PUSH1 0x60 DUP4 ADD MLOAD DUP1 ISZERO ISZERO PUSH1 0x80 DUP5 ADD MSTORE POP PUSH1 0x80 DUP4 ADD MLOAD DUP1 ISZERO ISZERO PUSH1 0xA0 DUP5 ADD MSTORE POP PUSH1 0xA0 DUP4 ADD MLOAD DUP1 ISZERO ISZERO PUSH1 0xC0 DUP5 ADD MSTORE POP PUSH1 0xC0 DUP4 ADD MLOAD DUP1 ISZERO ISZERO PUSH1 0xE0 DUP5 ADD MSTORE POP PUSH1 0xE0 DUP4 ADD MLOAD PUSH2 0x100 PUSH2 0x1AC8 DUP2 DUP6 ADD DUP4 ISZERO ISZERO SWAP1 MSTORE JUMP JUMPDEST DUP5 ADD MLOAD SWAP1 POP PUSH2 0x120 PUSH2 0x1ADD DUP5 DUP3 ADD DUP4 ISZERO ISZERO SWAP1 MSTORE JUMP JUMPDEST DUP5 ADD MLOAD PUSH2 0x140 DUP5 DUP2 ADD SWAP2 SWAP1 SWAP2 MSTORE DUP5 ADD MLOAD PUSH2 0x160 DUP1 DUP6 ADD SWAP2 SWAP1 SWAP2 MSTORE DUP5 ADD MLOAD PUSH2 0x180 DUP1 DUP6 ADD SWAP2 SWAP1 SWAP2 MSTORE DUP5 ADD MLOAD PUSH2 0x1E0 PUSH2 0x1A0 DUP1 DUP7 ADD DUP3 SWAP1 MSTORE SWAP2 SWAP3 POP SWAP1 PUSH2 0x1B25 PUSH2 0x200 DUP7 ADD DUP5 PUSH2 0x1A0B JUMP JUMPDEST SWAP3 POP DUP1 DUP7 ADD MLOAD SWAP1 POP PUSH1 0x1F NOT PUSH2 0x1C0 DUP2 DUP8 DUP7 SUB ADD DUP2 DUP9 ADD MSTORE PUSH2 0x1B46 DUP6 DUP5 PUSH2 0x1957 JUMP JUMPDEST SWAP1 DUP9 ADD MLOAD DUP8 DUP3 SUB SWAP1 SWAP3 ADD DUP5 DUP9 ADD MSTORE SWAP4 POP SWAP1 POP PUSH2 0x1B62 DUP4 DUP3 PUSH2 0x1902 JUMP JUMPDEST SWAP7 SWAP6 POP POP POP POP POP POP JUMP JUMPDEST PUSH1 0x20 DUP2 MSTORE DUP2 MLOAD ISZERO ISZERO PUSH1 0x20 DUP3 ADD MSTORE PUSH1 0x0 PUSH1 0x20 DUP4 ADD MLOAD PUSH1 0x80 PUSH1 0x40 DUP5 ADD MSTORE PUSH2 0x1B94 PUSH1 0xA0 DUP5 ADD DUP3 PUSH2 0x18BC JUMP JUMPDEST SWAP1 POP PUSH1 0x40 DUP5 ADD MLOAD PUSH1 0x60 DUP5 ADD MSTORE PUSH1 0x60 DUP5 ADD MLOAD ISZERO ISZERO PUSH1 0x80 DUP5 ADD MSTORE DUP1 SWAP2 POP POP SWAP3 SWAP2 POP POP JUMP JUMPDEST PUSH4 0x4E487B71 PUSH1 0xE0 SHL PUSH1 0x0 MSTORE PUSH1 0x32 PUSH1 0x4 MSTORE PUSH1 0x24 PUSH1 0x0 REVERT JUMPDEST PUSH1 0x1 DUP2 DUP2 SHR SWAP1 DUP3 AND DUP1 PUSH2 0x1BE0 JUMPI PUSH1 0x7F DUP3 AND SWAP2 POP JUMPDEST PUSH1 0x20 DUP3 LT DUP2 SUB PUSH2 0x1C00 JUMPI PUSH4 0x4E487B71 PUSH1 0xE0 SHL PUSH1 0x0 MSTORE PUSH1 0x22 PUSH1 0x4 MSTORE PUSH1 0x24 PUSH1 0x0 REVERT JUMPDEST POP SWAP2 SWAP1 POP JUMP JUMPDEST PUSH4 0x4E487B71 PUSH1 0xE0 SHL PUSH1 0x0 MSTORE PUSH1 0x41 PUSH1 0x4 MSTORE PUSH1 0x24 PUSH1 0x0 REVERT JUMPDEST PUSH1 0x1F DUP3 GT ISZERO PUSH2 0x1C66 JUMPI PUSH1 0x0 DUP2 DUP2 MSTORE PUSH1 0x20 DUP2 KECCAK256 PUSH1 0x1F DUP6 ADD PUSH1 0x5 SHR DUP2 ADD PUSH1 0x20 DUP7 LT ISZERO PUSH2 0x1C43 JUMPI POP DUP1 JUMPDEST PUSH1 0x1F DUP6 ADD PUSH1 0x5 SHR DUP3 ADD SWAP2 POP JUMPDEST DUP2 DUP2 LT ISZERO PUSH2 0x1C62 JUMPI DUP3 DUP2 SSTORE PUSH1 0x1 ADD PUSH2 0x1C4F JUMP JUMPDEST POP POP POP JUMPDEST POP POP POP JUMP JUMPDEST DUP2 DUP2 SUB PUSH2 0x1C76 JUMPI POP POP JUMP JUMPDEST PUSH2 0x1C80 DUP3 SLOAD PUSH2 0x1BCC JUMP JUMPDEST PUSH8 0xFFFFFFFFFFFFFFFF DUP2 GT ISZERO PUSH2 0x1C98 JUMPI PUSH2 0x1C98 PUSH2 0x1C06 JUMP JUMPDEST PUSH2 0x1CAC DUP2 PUSH2 0x1CA6 DUP5 SLOAD PUSH2 0x1BCC JUMP JUMPDEST DUP5 PUSH2 0x1C1C JUMP JUMPDEST PUSH1 0x0 PUSH1 0x1F DUP3 GT PUSH1 0x1 DUP2 EQ PUSH2 0x1CE0 JUMPI PUSH1 0x0 DUP4 ISZERO PUSH2 0x1CC8 JUMPI POP DUP5 DUP3 ADD SLOAD JUMPDEST PUSH1 0x0 NOT PUSH1 0x3 DUP6 SWAP1 SHL SHR NOT AND PUSH1 0x1 DUP5 SWAP1 SHL OR DUP5 SSTORE PUSH2 0x1D45 JUMP JUMPDEST PUSH1 0x0 DUP6 DUP2 MSTORE PUSH1 0x20 SWAP1 KECCAK256 PUSH1 0x1F NOT DUP5 AND SWAP1 PUSH1 0x0 DUP7 DUP2 MSTORE PUSH1 0x20 SWAP1 KECCAK256 DUP5 JUMPDEST DUP4 DUP2 LT ISZERO PUSH2 0x1D1A JUMPI DUP3 DUP7 ADD SLOAD DUP3 SSTORE PUSH1 0x1 SWAP6 DUP7 ADD SWAP6 SWAP1 SWAP2 ADD SWAP1 PUSH1 0x20 ADD PUSH2 0x1CFA JUMP JUMPDEST POP DUP6 DUP4 LT ISZERO PUSH2 0x1D38 JUMPI DUP2 DUP6 ADD SLOAD PUSH1 0x0 NOT PUSH1 0x3 DUP9 SWAP1 SHL PUSH1 0xF8 AND SHR NOT AND DUP2 SSTORE JUMPDEST POP POP POP PUSH1 0x1 DUP4 PUSH1 0x1 SHL ADD DUP5 SSTORE JUMPDEST POP POP POP POP POP JUMP JUMPDEST PUSH4 0x4E487B71 PUSH1 0xE0 SHL PUSH1 0x0 MSTORE PUSH1 0x11 PUSH1 0x4 MSTORE PUSH1 0x24 PUSH1 0x0 REVERT JUMPDEST DUP1 DUP3 ADD DUP1 DUP3 GT ISZERO PUSH2 0x1D75 JUMPI PUSH2 0x1D75 PUSH2 0x1D4C JUMP JUMPDEST SWAP3 SWAP2 POP POP JUMP JUMPDEST PUSH1 0x0 PUSH1 0x1 DUP3 ADD PUSH2 0x1D8D JUMPI PUSH2 0x1D8D PUSH2 0x1D4C JUMP JUMPDEST POP PUSH1 0x1 ADD SWAP1 JUMP JUMPDEST DUP2 MLOAD PUSH8 0xFFFFFFFFFFFFFFFF DUP2 GT ISZERO PUSH2 0x1DAE JUMPI PUSH2 0x1DAE PUSH2 0x1C06 JUMP JUMPDEST PUSH2 0x1DBC DUP2 PUSH2 0x1CA6 DUP5 SLOAD PUSH2 0x1BCC JUMP JUMPDEST PUSH1 0x20 DUP1 PUSH1 0x1F DUP4 GT PUSH1 0x1 DUP2 EQ PUSH2 0x1DF1 JUMPI PUSH1 0x0 DUP5 ISZERO PUSH2 0x1DD9 JUMPI POP DUP6 DUP4 ADD MLOAD JUMPDEST PUSH1 0x0 NOT PUSH1 0x3 DUP7 SWAP1 SHL SHR NOT AND PUSH1 0x1 DUP6 SWAP1 SHL OR DUP6 SSTORE PUSH2 0x1C62 JUMP JUMPDEST PUSH1 0x0 DUP6 DUP2 MSTORE PUSH1 0x20 DUP2 KECCAK256 PUSH1 0x1F NOT DUP7 AND SWAP2 JUMPDEST DUP3 DUP2 LT ISZERO PUSH2 0x1E20 JUMPI DUP9 DUP7 ADD MLOAD DUP3 SSTORE SWAP5 DUP5 ADD SWAP5 PUSH1 0x1 SWAP1 SWAP2 ADD SWAP1 DUP5 ADD PUSH2 0x1E01 JUMP JUMPDEST POP DUP6 DUP3 LT ISZERO PUSH2 0x1E3E JUMPI DUP8 DUP6 ADD MLOAD PUSH1 0x0 NOT PUSH1 0x3 DUP9 SWAP1 SHL PUSH1 0xF8 AND SHR NOT AND DUP2 SSTORE JUMPDEST POP POP POP POP POP PUSH1 0x1 SWAP1 DUP2 SHL ADD SWAP1 SSTORE POP JUMP JUMPDEST DUP1 DUP3 MUL DUP2 ISZERO DUP3 DUP3 DIV DUP5 EQ OR PUSH2 0x1D75 JUMPI PUSH2 0x1D75 PUSH2 0x1D4C JUMP JUMPDEST PUSH1 0x0 DUP3 PUSH2 0x1E82 JUMPI PUSH4 0x4E487B71 PUSH1 0xE0 SHL PUSH1 0x0 MSTORE PUSH1 0x12 PUSH1 0x4 MSTORE PUSH1 0x24 PUSH1 0x0 REVERT JUMPDEST POP DIV SWAP1 JUMP INVALID 0x4E PUSH16 0x2077696E6E65723A206E6F20766F7465 PUSH20 0x206F722074776F2077696E6E6572734E6F207769 PUSH15 0x6E65723A204E6F2063686F69636520 PUSH19 0x65616368656420746865207265717569726564 KECCAK256 JUMP PUSH16 0x7465732050657263656E746167652054 PUSH16 0x2057696E4E6F2077696E6E65723A2076 PUSH16 0x74696E6720726573756C742077617320 JUMP PUSH16 0x746F6564A264697066735822122060CE 0xE8 0xAB 0xE8 GT 0xBE PUSH23 0xA8B64CE77ACC6FFA8A16344A2A16730134381E62418FD6 0xB5 PUSH5 0x736F6C6343 STOP ADDMOD GT STOP CALLER 0x4F PUSH15 0x6C792041646D696E2063616E207065 PUSH19 0x666F726D20746869732061637469A264697066 PUSH20 0x58221220F4CA52447EEC435BD2941067F4F4DD97 CALLVALUE DUP11 KECCAK256 DIFFICULTY 0xBA DELEGATECALL LT 0xD1 0xF7 BALANCE MLOAD 0xF8 0xCB REVERT 0xDD 0xC3 PUSH5 0x736F6C6343 STOP ADDMOD GT STOP CALLER "},"methodIdentifiers":{"checkAdmin(address)":"9026dee8","checkOperator(address)":"de1ac2fd","createVoting()":"3c5663df","getOwner()":"893d20e8","getVoting()":"1986d376","getVotingParams()":"a6c8210e","grantRoleAdmin(address)":"0a84246d","grantRoleOperator(address)":"03175b9a","revokeRoleAdmin(address)":"92282743","revokeRoleOperator(address)":"15fe5583","toggleIsFunded(uint256)":"e2e29468","toggleIsMultiChoiced(string[])":"bb17bb5d","toggleIsPrivate(address[])":"44702ec6","toggleIsRepeated()":"9cfee576","toggleIsResultPartial(uint256)":"85c0b3af","toggleIsResultVetoed()":"62eb965c","toggleIsVotePowered(uint256[])":"f61d9567","toggleIsVoterDisclosed()":"a84a505f","toggleIsVotersLimited(uint256)":"b336e5cc","transferOwnership(address)":"f2fde38b"}}}}}