{
  "_format": "hh-sol-artifact-1",
  "contractName": "Voting",
  "sourceName": "contracts/Voting system.sol",
  "abi": [
    {
      "inputs": [
        {
          "components": [
            {
              "internalType": "bool",
              "name": "isRepeated",
              "type": "bool"
            },
            {
              "internalType": "bool",
              "name": "isVoterDisclosed",
              "type": "bool"
            },
            {
              "internalType": "bool",
              "name": "isVotePowered",
              "type": "bool"
            },
            {
              "internalType": "bool",
              "name": "isVotersLimited",
              "type": "bool"
            },
            {
              "internalType": "bool",
              "name": "isPrivate",
              "type": "bool"
            },
            {
              "internalType": "bool",
              "name": "isResultPartial",
              "type": "bool"
            },
            {
              "internalType": "bool",
              "name": "isResultVetoed",
              "type": "bool"
            },
            {
              "internalType": "bool",
              "name": "isMultiChoiced",
              "type": "bool"
            },
            {
              "internalType": "bool",
              "name": "isFunded",
              "type": "bool"
            },
            {
              "internalType": "uint256",
              "name": "fundingUsersLimit",
              "type": "uint256"
            },
            {
              "internalType": "uint256",
              "name": "votersLimit",
              "type": "uint256"
            },
            {
              "internalType": "uint256",
              "name": "votesPercentageToWin",
              "type": "uint256"
            },
            {
              "internalType": "address[]",
              "name": "votersPrivate",
              "type": "address[]"
            },
            {
              "internalType": "uint256[]",
              "name": "voterPowers",
              "type": "uint256[]"
            },
            {
              "internalType": "string[]",
              "name": "choices",
              "type": "string[]"
            }
          ],
          "internalType": "struct VotingBuilder.VotingParameters",
          "name": "_votingParams",
          "type": "tuple"
        }
      ],
      "stateMutability": "nonpayable",
      "type": "constructor"
    },
    {
      "inputs": [
        {
          "internalType": "address",
          "name": "_address",
          "type": "address"
        }
      ],
      "name": "checkAdmin",
      "outputs": [
        {
          "internalType": "bool",
          "name": "",
          "type": "bool"
        }
      ],
      "stateMutability": "view",
      "type": "function"
    },
    {
      "inputs": [
        {
          "internalType": "address",
          "name": "_address",
          "type": "address"
        }
      ],
      "name": "checkOperator",
      "outputs": [
        {
          "internalType": "bool",
          "name": "",
          "type": "bool"
        }
      ],
      "stateMutability": "view",
      "type": "function"
    },
    {
      "inputs": [],
      "name": "finishVoting",
      "outputs": [],
      "stateMutability": "nonpayable",
      "type": "function"
    },
    {
      "inputs": [],
      "name": "getIsActive",
      "outputs": [
        {
          "internalType": "bool",
          "name": "",
          "type": "bool"
        }
      ],
      "stateMutability": "view",
      "type": "function"
    },
    {
      "inputs": [],
      "name": "getOwner",
      "outputs": [
        {
          "internalType": "address",
          "name": "",
          "type": "address"
        }
      ],
      "stateMutability": "view",
      "type": "function"
    },
    {
      "inputs": [
        {
          "internalType": "address",
          "name": "voter",
          "type": "address"
        }
      ],
      "name": "getVoter",
      "outputs": [
        {
          "components": [
            {
              "internalType": "bool",
              "name": "voted",
              "type": "bool"
            },
            {
              "internalType": "string",
              "name": "vote",
              "type": "string"
            },
            {
              "internalType": "uint256",
              "name": "power",
              "type": "uint256"
            },
            {
              "internalType": "bool",
              "name": "isPrivate",
              "type": "bool"
            }
          ],
          "internalType": "struct Voting.Voter",
          "name": "",
          "type": "tuple"
        }
      ],
      "stateMutability": "view",
      "type": "function"
    },
    {
      "inputs": [],
      "name": "getVotingParams",
      "outputs": [
        {
          "components": [
            {
              "internalType": "bool",
              "name": "isRepeated",
              "type": "bool"
            },
            {
              "internalType": "bool",
              "name": "isVoterDisclosed",
              "type": "bool"
            },
            {
              "internalType": "bool",
              "name": "isVotePowered",
              "type": "bool"
            },
            {
              "internalType": "bool",
              "name": "isVotersLimited",
              "type": "bool"
            },
            {
              "internalType": "bool",
              "name": "isPrivate",
              "type": "bool"
            },
            {
              "internalType": "bool",
              "name": "isResultPartial",
              "type": "bool"
            },
            {
              "internalType": "bool",
              "name": "isResultVetoed",
              "type": "bool"
            },
            {
              "internalType": "bool",
              "name": "isMultiChoiced",
              "type": "bool"
            },
            {
              "internalType": "bool",
              "name": "isFunded",
              "type": "bool"
            },
            {
              "internalType": "uint256",
              "name": "fundingUsersLimit",
              "type": "uint256"
            },
            {
              "internalType": "uint256",
              "name": "votersLimit",
              "type": "uint256"
            },
            {
              "internalType": "uint256",
              "name": "votesPercentageToWin",
              "type": "uint256"
            },
            {
              "internalType": "address[]",
              "name": "votersPrivate",
              "type": "address[]"
            },
            {
              "internalType": "uint256[]",
              "name": "voterPowers",
              "type": "uint256[]"
            },
            {
              "internalType": "string[]",
              "name": "choices",
              "type": "string[]"
            }
          ],
          "internalType": "struct VotingBuilder.VotingParameters",
          "name": "",
          "type": "tuple"
        }
      ],
      "stateMutability": "view",
      "type": "function"
    },
    {
      "inputs": [],
      "name": "getVotingResult",
      "outputs": [
        {
          "components": [
            {
              "internalType": "string[]",
              "name": "choices",
              "type": "string[]"
            },
            {
              "internalType": "uint256[]",
              "name": "votesReceived",
              "type": "uint256[]"
            },
            {
              "internalType": "uint256",
              "name": "totalVotes",
              "type": "uint256"
            },
            {
              "internalType": "string",
              "name": "winningChoice",
              "type": "string"
            },
            {
              "internalType": "uint256",
              "name": "winningVotes",
              "type": "uint256"
            }
          ],
          "internalType": "struct Voting.VotingResult",
          "name": "",
          "type": "tuple"
        }
      ],
      "stateMutability": "view",
      "type": "function"
    },
    {
      "inputs": [
        {
          "internalType": "address",
          "name": "_address",
          "type": "address"
        }
      ],
      "name": "grantRoleAdmin",
      "outputs": [],
      "stateMutability": "nonpayable",
      "type": "function"
    },
    {
      "inputs": [
        {
          "internalType": "address",
          "name": "_address",
          "type": "address"
        }
      ],
      "name": "grantRoleOperator",
      "outputs": [],
      "stateMutability": "nonpayable",
      "type": "function"
    },
    {
      "inputs": [
        {
          "internalType": "address",
          "name": "_address",
          "type": "address"
        }
      ],
      "name": "revokeRoleAdmin",
      "outputs": [],
      "stateMutability": "nonpayable",
      "type": "function"
    },
    {
      "inputs": [
        {
          "internalType": "address",
          "name": "_address",
          "type": "address"
        }
      ],
      "name": "revokeRoleOperator",
      "outputs": [],
      "stateMutability": "nonpayable",
      "type": "function"
    },
    {
      "inputs": [],
      "name": "start",
      "outputs": [],
      "stateMutability": "nonpayable",
      "type": "function"
    },
    {
      "inputs": [
        {
          "internalType": "address",
          "name": "newOwner",
          "type": "address"
        }
      ],
      "name": "transferOwnership",
      "outputs": [],
      "stateMutability": "nonpayable",
      "type": "function"
    },
    {
      "inputs": [
        {
          "internalType": "uint256",
          "name": "choiceIndex",
          "type": "uint256"
        }
      ],
      "name": "vote",
      "outputs": [],
      "stateMutability": "nonpayable",
      "type": "function"
    }
  ],
  "bytecode": "0x6080604052600a805460ff191690553480156200001b57600080fd5b50604051620029e8380380620029e88339810160408190526200003e9162000764565b60028054326001600160a01b031990911617905580516003805460208085015160408601516060870151608088015160a089015160c08a015160e08b0151610100808d015161ffff19909a169b151561ff0019169b909b17961515909a029590951763ffff00001916620100009415159490940263ff0000001916939093176301000000921515929092029190911761ffff60201b19166401000000009115159190910260ff60281b19161765010000000000911515919091021761ffff60301b191666010000000000009115159190910260ff60381b191617670100000000000000941515949094029390931760ff60401b19166801000000000000000091151591909102178155610120830151600455610140830151600555610160830151600655610180830151805184936200017d9260079291019062000341565b506101a082015180516200019c916005840191602090910190620003ab565b506101c08201518051620001bb916006840191602090910190620003e9565b5050506101c08101518051620001da91600d91602090910190620003e9565b5060005b816101c00151518110156200023457600e805460018101825560009182527fbb7b4a454dc3493923482f07822329ed19e8244eff582cc204f8554c3620c3fd0155806200022b81620008fc565b915050620001de565b5060005b8161018001515181101562000339576001600b6000846101800151848151811062000267576200026762000924565b60200260200101516001600160a01b03166001600160a01b0316815260200190815260200160002060030160006101000a81548160ff0219169083151502179055508160400151156200032457816101a001518181518110620002ce57620002ce62000924565b6020026020010151600b60008461018001518481518110620002f457620002f462000924565b60200260200101516001600160a01b03166001600160a01b03168152602001908152602001600020600201819055505b806200033081620008fc565b91505062000238565b505062000a95565b82805482825590600052602060002090810192821562000399579160200282015b828111156200039957825182546001600160a01b0319166001600160a01b0390911617825560209092019160019091019062000362565b50620003a792915062000442565b5090565b82805482825590600052602060002090810192821562000399579160200282015b8281111562000399578251825591602001919060010190620003cc565b82805482825590600052602060002090810192821562000434579160200282015b82811115620004345782518290620004239082620009c9565b50916020019190600101906200040a565b50620003a792915062000459565b5b80821115620003a7576000815560010162000443565b80821115620003a75760006200047082826200047a565b5060010162000459565b50805462000488906200093a565b6000825580601f1062000499575050565b601f016020900490600052602060002090810190620004b9919062000442565b50565b634e487b7160e01b600052604160045260246000fd5b6040516101e081016001600160401b0381118282101715620004f857620004f8620004bc565b60405290565b604051601f8201601f191681016001600160401b0381118282101715620005295762000529620004bc565b604052919050565b805180151581146200054257600080fd5b919050565b60006001600160401b03821115620005635762000563620004bc565b5060051b60200190565b600082601f8301126200057f57600080fd5b8151602062000598620005928362000547565b620004fe565b82815260059290921b84018101918181019086841115620005b857600080fd5b8286015b84811015620005ec5780516001600160a01b0381168114620005de5760008081fd5b8352918301918301620005bc565b509695505050505050565b600082601f8301126200060957600080fd5b815160206200061c620005928362000547565b82815260059290921b840181019181810190868411156200063c57600080fd5b8286015b84811015620005ec578051835291830191830162000640565b6000601f83818401126200066c57600080fd5b825160206200067f620005928362000547565b82815260059290921b850181019181810190878411156200069f57600080fd5b8287015b84811015620007585780516001600160401b0380821115620006c55760008081fd5b818a0191508a603f830112620006db5760008081fd5b8582015181811115620006f257620006f2620004bc565b62000705818a01601f19168801620004fe565b915080825260408c818386010111156200071f5760008081fd5b60005b828110156200073f578481018201518482018a0152880162000722565b50506000908201870152845250918301918301620006a3565b50979650505050505050565b6000602082840312156200077757600080fd5b81516001600160401b03808211156200078f57600080fd5b908301906101e08286031215620007a557600080fd5b620007af620004d2565b620007ba8362000531565b8152620007ca6020840162000531565b6020820152620007dd6040840162000531565b6040820152620007f06060840162000531565b6060820152620008036080840162000531565b60808201526200081660a0840162000531565b60a08201526200082960c0840162000531565b60c08201526200083c60e0840162000531565b60e08201526101006200085181850162000531565b9082015261012083810151908201526101408084015190820152610160808401519082015261018080840151838111156200088b57600080fd5b62000899888287016200056d565b8284015250506101a08084015183811115620008b457600080fd5b620008c288828701620005f7565b8284015250506101c08084015183811115620008dd57600080fd5b620008eb8882870162000659565b918301919091525095945050505050565b6000600182016200091d57634e487b7160e01b600052601160045260246000fd5b5060010190565b634e487b7160e01b600052603260045260246000fd5b600181811c908216806200094f57607f821691505b6020821081036200097057634e487b7160e01b600052602260045260246000fd5b50919050565b601f821115620009c457600081815260208120601f850160051c810160208610156200099f5750805b601f850160051c820191505b81811015620009c057828155600101620009ab565b5050505b505050565b81516001600160401b03811115620009e557620009e5620004bc565b620009fd81620009f684546200093a565b8462000976565b602080601f83116001811462000a35576000841562000a1c5750858301515b600019600386901b1c1916600185901b178555620009c0565b600085815260208120601f198616915b8281101562000a665788860151825594840194600190910190840162000a45565b508582101562000a855787850151600019600388901b60f8161c191681555b5050505050600190811b01905550565b611f438062000aa56000396000f3fe608060405234801561001057600080fd5b50600436106100f55760003560e01c80639228274311610097578063de1ac2fd11610066578063de1ac2fd1461020d578063f2fde38b14610239578063f90943031461024c578063fba7cc791461025457600080fd5b806392282743146101bd578063a6c8210e146101d0578063be9a6555146101e5578063d4f50f98146101ed57600080fd5b806315fe5583116100d357806315fe558314610135578063671d2b7514610148578063893d20e8146101665780639026dee81461018157600080fd5b80630121b93f146100fa57806303175b9a1461010f5780630a84246d14610122575b600080fd5b61010d610108366004611873565b61025c565b005b61010d61011d36600461188c565b610623565b61010d61013036600461188c565b61073e565b61010d61014336600461188c565b610856565b61015061096a565b60405161015d9190611992565b60405180910390f35b6002546040516001600160a01b03909116815260200161015d565b6101ad61018f36600461188c565b6001600160a01b031660009081526020819052604090205460ff1690565b604051901515815260200161015d565b61010d6101cb36600461188c565b610b7f565b6101d8610c93565b60405161015d9190611a44565b61010d610fca565b6102006101fb36600461188c565b611200565b60405161015d9190611b6c565b6101ad61021b36600461188c565b6001600160a01b031660009081526001602052604090205460ff1690565b61010d61024736600461188c565b6113fd565b61010d611515565b6101ad6117ca565b600a5460ff166102b35760405162461bcd60e51b815260206004820152601d60248201527f566f74696e673a20566f74696e6720697320646561637469766174656400000060448201526064015b60405180910390fd5b336000908152600b602052604090205460ff16156103135760405162461bcd60e51b815260206004820152601560248201527f566f74696e673a20416c726561647920766f746564000000000000000000000060448201526064016102aa565b600d54811061038a5760405162461bcd60e51b815260206004820152602a60248201527f566f74696e673a207468652073656c65637465642043686f69636520646f657360448201527f206e6f742065786973740000000000000000000000000000000000000000000060648201526084016102aa565b6003546301000000900460ff161561041457600554600c54106104145760405162461bcd60e51b8152602060048201526024808201527f566f74696e673a20566f74657273204c696d697420616c72656164792072656160448201527f636865640000000000000000000000000000000000000000000000000000000060648201526084016102aa565b600354640100000000900460ff16156104af57336000908152600b602052604090206003015460ff166104af5760405162461bcd60e51b815260206004820152603460248201527f566f74696e673a20596f7520617265206e6f7420616d6f6e672074686520616c60448201527f6c6f776564205072697661746520566f7465727300000000000000000000000060648201526084016102aa565b336000908152600b60205260409020805460ff19166001179055600d8054829081106104dd576104dd611bb6565b60009182526020808320338452600b909152604090922060010191610503910182611c6b565b50600c80546001810182556000919091527fdf6966c971051c3d54ec59162606531493a51404a002842f56009d7e5cf4a8c701805473ffffffffffffffffffffffffffffffffffffffff19163317905560035460ff6201000090910416156105db57336000908152600b6020526040812060020154600f80549192909161058b908490611d62565b9091555050336000908152600b6020526040902060020154600e8054839081106105b7576105b7611bb6565b9060005260206000200160008282546105d09190611d62565b909155506106209050565b600f80549060006105eb83611d7b565b9091555050600e80548290811061060457610604611bb6565b6000918252602082200180549161061a83611d7b565b91905055505b50565b6002546001600160a01b031633146106885760405162461bcd60e51b815260206004820152602260248201527f4f6e6c79206f776e65722063616e20706572666f726d2074686973206163746960448201526137b760f11b60648201526084016102aa565b6001600160a01b03811660009081526001602052604090205460ff16156107175760405162461bcd60e51b815260206004820152603560248201527f566f74696e67526f6c654d6f64656c3a20526f6c6520616c726561647920677260448201527f616e74656420746f20746869732061646472657373000000000000000000000060648201526084016102aa565b6001600160a01b03166000908152600160208190526040909120805460ff19169091179055565b6002546001600160a01b031633146107a35760405162461bcd60e51b815260206004820152602260248201527f4f6e6c79206f776e65722063616e20706572666f726d2074686973206163746960448201526137b760f11b60648201526084016102aa565b6001600160a01b03811660009081526020819052604090205460ff16156108325760405162461bcd60e51b815260206004820152603560248201527f566f74696e67526f6c654d6f64656c3a20526f6c6520616c726561647920677260448201527f616e74656420746f20746869732061646472657373000000000000000000000060648201526084016102aa565b6001600160a01b03166000908152602081905260409020805460ff19166001179055565b6002546001600160a01b031633146108bb5760405162461bcd60e51b815260206004820152602260248201527f4f6e6c79206f776e65722063616e20706572666f726d2074686973206163746960448201526137b760f11b60648201526084016102aa565b6001600160a01b03811660009081526001602052604090205460ff166109495760405162461bcd60e51b815260206004820152603460248201527f566f74696e67526f6c654d6f64656c3a20526f6c65206973206e6f742067726160448201527f6e74656420746f2074686973206164647265737300000000000000000000000060648201526084016102aa565b6001600160a01b03166000908152600160205260409020805460ff19169055565b61099c6040518060a0016040528060608152602001606081526020016000815260200160608152602001600081525090565b60408051600d805460c0602082028401810190945260a083018181529293919284929091849160009085015b82821015610a745783829060005260206000200180546109e790611bcc565b80601f0160208091040260200160405190810160405280929190818152602001828054610a1390611bcc565b8015610a605780601f10610a3557610100808354040283529160200191610a60565b820191906000526020600020905b815481529060010190602001808311610a4357829003601f168201915b5050505050815260200190600101906109c8565b50505050815260200160018201805480602002602001604051908101604052809291908181526020018280548015610acb57602002820191906000526020600020905b815481526020019060010190808311610ab7575b5050505050815260200160028201548152602001600382018054610aee90611bcc565b80601f0160208091040260200160405190810160405280929190818152602001828054610b1a90611bcc565b8015610b675780601f10610b3c57610100808354040283529160200191610b67565b820191906000526020600020905b815481529060010190602001808311610b4a57829003601f168201915b50505050508152602001600482015481525050905090565b6002546001600160a01b03163314610be45760405162461bcd60e51b815260206004820152602260248201527f4f6e6c79206f776e65722063616e20706572666f726d2074686973206163746960448201526137b760f11b60648201526084016102aa565b6001600160a01b03811660009081526020819052604090205460ff16610c725760405162461bcd60e51b815260206004820152603460248201527f566f74696e67526f6c654d6f64656c3a20526f6c65206973206e6f742067726160448201527f6e74656420746f2074686973206164647265737300000000000000000000000060648201526084016102aa565b6001600160a01b03166000908152602081905260409020805460ff19169055565b604080516101e0810182526000808252602080830182905282840182905260608084018390526080840183905260a0840183905260c0840183905260e08401839052610100840183905261012084018390526101408401839052610160840183905261018084018190526101a084018190526101c0840152338252819052919091205460ff16610d705760405162461bcd60e51b815260206004820152602260248201527f4f6e6c792041646d696e2063616e20706572666f726d2074686973206163746960448201526137b760f11b60648201526084016102aa565b604080516101e0810182526003805460ff808216151584526101008083048216151560208087019190915262010000840483161515868801526301000000840483161515606087015264010000000084048316151560808701526501000000000084048316151560a0870152660100000000000084048316151560c087015267010000000000000084048316151560e087015268010000000000000000909304909116151590840152600454610120840152600554610140840152600654610160840152600780548551818402810184019096528086529394929361018086019392830182828015610e8b57602002820191906000526020600020905b81546001600160a01b03168152600190910190602001808311610e6d575b5050505050815260200160058201805480602002602001604051908101604052809291908181526020018280548015610ee357602002820191906000526020600020905b815481526020019060010190808311610ecf575b5050505050815260200160068201805480602002602001604051908101604052809291908181526020016000905b82821015610fbd578382906000526020600020018054610f3090611bcc565b80601f0160208091040260200160405190810160405280929190818152602001828054610f5c90611bcc565b8015610fa95780601f10610f7e57610100808354040283529160200191610fa9565b820191906000526020600020905b815481529060010190602001808311610f8c57829003601f168201915b505050505081526020019060010190610f11565b5050505081525050905090565b3360009081526001602052604090205460ff166110375760405162461bcd60e51b815260206004820152602560248201527f4f6e6c79204f70657261746f722063616e20706572666f726d2074686973206160448201526431ba34b7b760d91b60648201526084016102aa565b600a5460ff161561108a5760405162461bcd60e51b815260206004820152601e60248201527f566f74696e673a20566f74696e6720616c72656164792073746172746564000060448201526064016102aa565b60035460ff161561117b5760005b600c54811015611101576000600b6000600c84815481106110bb576110bb611bb6565b6000918252602080832091909101546001600160a01b031683528201929092526040019020805460ff1916911515919091179055806110f981611d7b565b915050611098565b5061110e600c6000611841565b6000600f81905560408051602081019091529081526010906111309082611d94565b50600060118190555b600954811015611179576000600d600101828154811061115b5761115b611bb6565b6000918252602090912001558061117181611d7b565b915050611139565b505b600f54156111f15760405162461bcd60e51b815260206004820152603660248201527f566f74696e673a20566f74696e6720697320616c72656164792066696e69736860448201527f656420616e64206973206e6f742072657065617465640000000000000000000060648201526084016102aa565b600a805460ff19166001179055565b61122f604051806080016040528060001515815260200160608152602001600081526020016000151581525090565b3360009081526001602052604090205460ff1661129c5760405162461bcd60e51b815260206004820152602560248201527f4f6e6c79204f70657261746f722063616e20706572666f726d2074686973206160448201526431ba34b7b760d91b60648201526084016102aa565b600354610100900460ff166113195760405162461bcd60e51b815260206004820152602760248201527f566f74696e673a20566f74657320646973636c6f73757265206973206e6f742060448201527f616c6c6f7765640000000000000000000000000000000000000000000000000060648201526084016102aa565b6001600160a01b0382166000908152600b6020908152604091829020825160808101909352805460ff1615158352600181018054919284019161135b90611bcc565b80601f016020809104026020016040519081016040528092919081815260200182805461138790611bcc565b80156113d45780601f106113a9576101008083540402835291602001916113d4565b820191906000526020600020905b8154815290600101906020018083116113b757829003601f168201915b50505091835250506002820154602082015260039091015460ff16151560409091015292915050565b6002546001600160a01b031633146114625760405162461bcd60e51b815260206004820152602260248201527f4f6e6c79206f776e65722063616e20706572666f726d2074686973206163746960448201526137b760f11b60648201526084016102aa565b6002546001600160a01b03908116908216036114e65760405162461bcd60e51b815260206004820152603560248201527f566f74696e67526f6c654d6f64656c3a2063616e6e6f74207472616e7366657260448201527f204f776e65727368697020746f2068696d73656c66000000000000000000000060648201526084016102aa565b6002805473ffffffffffffffffffffffffffffffffffffffff19166001600160a01b0392909216919091179055565b600a5460ff166115675760405162461bcd60e51b815260206004820152601d60248201527f566f74696e673a20566f74696e6720697320646561637469766174656400000060448201526064016102aa565b3360009081526001602052604090205460ff166115d45760405162461bcd60e51b815260206004820152602560248201527f4f6e6c79204f70657261746f722063616e20706572666f726d2074686973206160448201526431ba34b7b760d91b60648201526084016102aa565b6000806000805b600e548110156116735783600d60010182815481106115fc576115fc611bb6565b9060005260206000200154106116615783600d600101828154811061162357611623611bb6565b90600052602060002001540361163c5760019150611673565b600e80548290811061165057611650611bb6565b906000526020600020015493508092505b8061166b81611d7b565b9150506115db565b5082158061168357506001811515145b156116c057604051806060016040528060228152602001611e88602291396010906116ae9082611d94565b505050601155600a805460ff19169055565b6003546601000000000000900460ff1680156116f45750600f546116e5846064611e4e565b6116ef9190611e65565b606414155b1561171f57604051806060016040528060238152602001611eeb602391396010906116ae9082611d94565b60035465010000000000900460ff1680156117525750600654600f54611746856064611e4e565b6117509190611e65565b105b1561178857604051806080016040528060418152602001611eaa6041913960109061177d9082611d94565b5060118390556117bb565b600d80548390811061179c5761179c611bb6565b600091825260209091206010916117b4910182611c6b565b5060118390555b5050600a805460ff1916905550565b3360009081526001602052604081205460ff166118375760405162461bcd60e51b815260206004820152602560248201527f4f6e6c79204f70657261746f722063616e20706572666f726d2074686973206160448201526431ba34b7b760d91b60648201526084016102aa565b50600a5460ff1690565b508054600082559060005260206000209081019061062091905b8082111561186f576000815560010161185b565b5090565b60006020828403121561188557600080fd5b5035919050565b60006020828403121561189e57600080fd5b81356001600160a01b03811681146118b557600080fd5b9392505050565b6000815180845260005b818110156118e2576020818501810151868301820152016118c6565b506000602082860101526020601f19601f83011685010191505092915050565b600081518084526020808501808196508360051b8101915082860160005b8581101561194a5782840389526119388483516118bc565b98850198935090840190600101611920565b5091979650505050505050565b600081518084526020808501945080840160005b838110156119875781518752958201959082019060010161196b565b509495945050505050565b602081526000825160a060208401526119ae60c0840182611902565b90506020840151601f19808584030160408601526119cc8383611957565b9250604086015160608601526060860151915080858403016080860152506119f482826118bc565b915050608084015160a08401528091505092915050565b600081518084526020808501945080840160005b838110156119875781516001600160a01b031687529582019590820190600101611a1f565b60208152611a5760208201835115159052565b60006020830151611a6c604084018215159052565b5060408301518015156060840152506060830151801515608084015250608083015180151560a08401525060a083015180151560c08401525060c083015180151560e08401525060e0830151610100611ac88185018315159052565b8401519050610120611add8482018315159052565b8401516101408481019190915284015161016080850191909152840151610180808501919091528401516101e06101a080860182905291925090611b25610200860184611a0b565b9250808601519050601f196101c0818786030181880152611b468584611957565b908801518782039092018488015293509050611b628382611902565b9695505050505050565b602081528151151560208201526000602083015160806040840152611b9460a08401826118bc565b9050604084015160608401526060840151151560808401528091505092915050565b634e487b7160e01b600052603260045260246000fd5b600181811c90821680611be057607f821691505b602082108103611c0057634e487b7160e01b600052602260045260246000fd5b50919050565b634e487b7160e01b600052604160045260246000fd5b601f821115611c6657600081815260208120601f850160051c81016020861015611c435750805b601f850160051c820191505b81811015611c6257828155600101611c4f565b5050505b505050565b818103611c76575050565b611c808254611bcc565b67ffffffffffffffff811115611c9857611c98611c06565b611cac81611ca68454611bcc565b84611c1c565b6000601f821160018114611ce05760008315611cc85750848201545b600019600385901b1c1916600184901b178455611d45565b600085815260209020601f19841690600086815260209020845b83811015611d1a5782860154825560019586019590910190602001611cfa565b5085831015611d385781850154600019600388901b60f8161c191681555b50505060018360011b0184555b5050505050565b634e487b7160e01b600052601160045260246000fd5b80820180821115611d7557611d75611d4c565b92915050565b600060018201611d8d57611d8d611d4c565b5060010190565b815167ffffffffffffffff811115611dae57611dae611c06565b611dbc81611ca68454611bcc565b602080601f831160018114611df15760008415611dd95750858301515b600019600386901b1c1916600185901b178555611c62565b600085815260208120601f198616915b82811015611e2057888601518255948401946001909101908401611e01565b5085821015611e3e5787850151600019600388901b60f8161c191681555b5050505050600190811b01905550565b8082028115828204841417611d7557611d75611d4c565b600082611e8257634e487b7160e01b600052601260045260246000fd5b50049056fe4e6f2077696e6e65723a206e6f20766f746573206f722074776f2077696e6e6572734e6f2077696e6e65723a204e6f2063686f69636520726561636865642074686520726571756972656420566f7465732050657263656e7461676520546f2057696e4e6f2077696e6e65723a20766f74696e6720726573756c742077617320566f746f6564a264697066735822122060cee8abe811be76a8b64ce77acc6ffa8a16344a2a16730134381e62418fd6b564736f6c63430008110033",
  "linkReferences": {},
  "deployedLinkReferences": {}
}