{
  "_format": "hh-sol-artifact-1",
  "contractName": "VotingRoleModel",
  "sourceName": "contracts/Voting system.sol",
  "abi": [
    {
      "inputs": [],
      "stateMutability": "nonpayable",
      "type": "constructor"
    },
    {
      "inputs": [
        {
          "internalType": "address",
          "name": "_address",
          "type": "address"
        }
      ],
      "name": "checkAdmin",
      "outputs": [
        {
          "internalType": "bool",
          "name": "",
          "type": "bool"
        }
      ],
      "stateMutability": "view",
      "type": "function"
    },
    {
      "inputs": [
        {
          "internalType": "address",
          "name": "_address",
          "type": "address"
        }
      ],
      "name": "checkOperator",
      "outputs": [
        {
          "internalType": "bool",
          "name": "",
          "type": "bool"
        }
      ],
      "stateMutability": "view",
      "type": "function"
    },
    {
      "inputs": [],
      "name": "getOwner",
      "outputs": [
        {
          "internalType": "address",
          "name": "",
          "type": "address"
        }
      ],
      "stateMutability": "view",
      "type": "function"
    },
    {
      "inputs": [
        {
          "internalType": "address",
          "name": "_address",
          "type": "address"
        }
      ],
      "name": "grantRoleAdmin",
      "outputs": [],
      "stateMutability": "nonpayable",
      "type": "function"
    },
    {
      "inputs": [
        {
          "internalType": "address",
          "name": "_address",
          "type": "address"
        }
      ],
      "name": "grantRoleOperator",
      "outputs": [],
      "stateMutability": "nonpayable",
      "type": "function"
    },
    {
      "inputs": [
        {
          "internalType": "address",
          "name": "_address",
          "type": "address"
        }
      ],
      "name": "revokeRoleAdmin",
      "outputs": [],
      "stateMutability": "nonpayable",
      "type": "function"
    },
    {
      "inputs": [
        {
          "internalType": "address",
          "name": "_address",
          "type": "address"
        }
      ],
      "name": "revokeRoleOperator",
      "outputs": [],
      "stateMutability": "nonpayable",
      "type": "function"
    },
    {
      "inputs": [
        {
          "internalType": "address",
          "name": "newOwner",
          "type": "address"
        }
      ],
      "name": "transferOwnership",
      "outputs": [],
      "stateMutability": "nonpayable",
      "type": "function"
    }
  ],
  "bytecode": "0x608060405234801561001057600080fd5b50600280546001600160a01b0319163217905561075f806100326000396000f3fe608060405234801561001057600080fd5b50600436106100885760003560e01c80639026dee81161005b5780639026dee8146100e85780639228274314610124578063de1ac2fd14610137578063f2fde38b1461016357600080fd5b806303175b9a1461008d5780630a84246d146100a257806315fe5583146100b5578063893d20e8146100c8575b600080fd5b6100a061009b3660046106f9565b610176565b005b6100a06100b03660046106f9565b610296565b6100a06100c33660046106f9565b6103ae565b6002546040516001600160a01b0390911681526020015b60405180910390f35b6101146100f63660046106f9565b6001600160a01b031660009081526020819052604090205460ff1690565b60405190151581526020016100df565b6100a06101323660046106f9565b6104c2565b6101146101453660046106f9565b6001600160a01b031660009081526001602052604090205460ff1690565b6100a06101713660046106f9565b6105d6565b6002546001600160a01b031633146101e05760405162461bcd60e51b815260206004820152602260248201527f4f6e6c79206f776e65722063616e20706572666f726d2074686973206163746960448201526137b760f11b60648201526084015b60405180910390fd5b6001600160a01b03811660009081526001602052604090205460ff161561026f5760405162461bcd60e51b815260206004820152603560248201527f566f74696e67526f6c654d6f64656c3a20526f6c6520616c726561647920677260448201527f616e74656420746f20746869732061646472657373000000000000000000000060648201526084016101d7565b6001600160a01b03166000908152600160208190526040909120805460ff19169091179055565b6002546001600160a01b031633146102fb5760405162461bcd60e51b815260206004820152602260248201527f4f6e6c79206f776e65722063616e20706572666f726d2074686973206163746960448201526137b760f11b60648201526084016101d7565b6001600160a01b03811660009081526020819052604090205460ff161561038a5760405162461bcd60e51b815260206004820152603560248201527f566f74696e67526f6c654d6f64656c3a20526f6c6520616c726561647920677260448201527f616e74656420746f20746869732061646472657373000000000000000000000060648201526084016101d7565b6001600160a01b03166000908152602081905260409020805460ff19166001179055565b6002546001600160a01b031633146104135760405162461bcd60e51b815260206004820152602260248201527f4f6e6c79206f776e65722063616e20706572666f726d2074686973206163746960448201526137b760f11b60648201526084016101d7565b6001600160a01b03811660009081526001602052604090205460ff166104a15760405162461bcd60e51b815260206004820152603460248201527f566f74696e67526f6c654d6f64656c3a20526f6c65206973206e6f742067726160448201527f6e74656420746f2074686973206164647265737300000000000000000000000060648201526084016101d7565b6001600160a01b03166000908152600160205260409020805460ff19169055565b6002546001600160a01b031633146105275760405162461bcd60e51b815260206004820152602260248201527f4f6e6c79206f776e65722063616e20706572666f726d2074686973206163746960448201526137b760f11b60648201526084016101d7565b6001600160a01b03811660009081526020819052604090205460ff166105b55760405162461bcd60e51b815260206004820152603460248201527f566f74696e67526f6c654d6f64656c3a20526f6c65206973206e6f742067726160448201527f6e74656420746f2074686973206164647265737300000000000000000000000060648201526084016101d7565b6001600160a01b03166000908152602081905260409020805460ff19169055565b6002546001600160a01b0316331461063b5760405162461bcd60e51b815260206004820152602260248201527f4f6e6c79206f776e65722063616e20706572666f726d2074686973206163746960448201526137b760f11b60648201526084016101d7565b6002546001600160a01b03908116908216036106bf5760405162461bcd60e51b815260206004820152603560248201527f566f74696e67526f6c654d6f64656c3a2063616e6e6f74207472616e7366657260448201527f204f776e65727368697020746f2068696d73656c66000000000000000000000060648201526084016101d7565b600280547fffffffffffffffffffffffff0000000000000000000000000000000000000000166001600160a01b0392909216919091179055565b60006020828403121561070b57600080fd5b81356001600160a01b038116811461072257600080fd5b939250505056fea264697066735822122090a5d3cf9bf6178791e3ae948270e6e43b969769d7d45d173447cec3fbed8aa964736f6c63430008110033",
  "linkReferences": {},
  "deployedLinkReferences": {}
}