{
  "_format": "hh-sol-artifact-1",
  "contractName": "VotingBuilder",
  "sourceName": "contracts/Voting system.sol",
  "abi": [
    {
      "inputs": [
        {
          "internalType": "address",
          "name": "_address",
          "type": "address"
        }
      ],
      "name": "checkAdmin",
      "outputs": [
        {
          "internalType": "bool",
          "name": "",
          "type": "bool"
        }
      ],
      "stateMutability": "view",
      "type": "function"
    },
    {
      "inputs": [
        {
          "internalType": "address",
          "name": "_address",
          "type": "address"
        }
      ],
      "name": "checkOperator",
      "outputs": [
        {
          "internalType": "bool",
          "name": "",
          "type": "bool"
        }
      ],
      "stateMutability": "view",
      "type": "function"
    },
    {
      "inputs": [],
      "name": "createVoting",
      "outputs": [],
      "stateMutability": "payable",
      "type": "function"
    },
    {
      "inputs": [],
      "name": "getOwner",
      "outputs": [
        {
          "internalType": "address",
          "name": "",
          "type": "address"
        }
      ],
      "stateMutability": "view",
      "type": "function"
    },
    {
      "inputs": [],
      "name": "getVoting",
      "outputs": [
        {
          "internalType": "contract Voting",
          "name": "",
          "type": "address"
        }
      ],
      "stateMutability": "view",
      "type": "function"
    },
    {
      "inputs": [],
      "name": "getVotingParams",
      "outputs": [
        {
          "components": [
            {
              "internalType": "bool",
              "name": "isRepeated",
              "type": "bool"
            },
            {
              "internalType": "bool",
              "name": "isVoterDisclosed",
              "type": "bool"
            },
            {
              "internalType": "bool",
              "name": "isVotePowered",
              "type": "bool"
            },
            {
              "internalType": "bool",
              "name": "isVotersLimited",
              "type": "bool"
            },
            {
              "internalType": "bool",
              "name": "isPrivate",
              "type": "bool"
            },
            {
              "internalType": "bool",
              "name": "isResultPartial",
              "type": "bool"
            },
            {
              "internalType": "bool",
              "name": "isResultVetoed",
              "type": "bool"
            },
            {
              "internalType": "bool",
              "name": "isMultiChoiced",
              "type": "bool"
            },
            {
              "internalType": "bool",
              "name": "isFunded",
              "type": "bool"
            },
            {
              "internalType": "uint256",
              "name": "fundingUsersLimit",
              "type": "uint256"
            },
            {
              "internalType": "uint256",
              "name": "votersLimit",
              "type": "uint256"
            },
            {
              "internalType": "uint256",
              "name": "votesPercentageToWin",
              "type": "uint256"
            },
            {
              "internalType": "address[]",
              "name": "votersPrivate",
              "type": "address[]"
            },
            {
              "internalType": "uint256[]",
              "name": "voterPowers",
              "type": "uint256[]"
            },
            {
              "internalType": "string[]",
              "name": "choices",
              "type": "string[]"
            }
          ],
          "internalType": "struct VotingBuilder.VotingParameters",
          "name": "",
          "type": "tuple"
        }
      ],
      "stateMutability": "view",
      "type": "function"
    },
    {
      "inputs": [
        {
          "internalType": "address",
          "name": "_address",
          "type": "address"
        }
      ],
      "name": "grantRoleAdmin",
      "outputs": [],
      "stateMutability": "nonpayable",
      "type": "function"
    },
    {
      "inputs": [
        {
          "internalType": "address",
          "name": "_address",
          "type": "address"
        }
      ],
      "name": "grantRoleOperator",
      "outputs": [],
      "stateMutability": "nonpayable",
      "type": "function"
    },
    {
      "inputs": [
        {
          "internalType": "address",
          "name": "_address",
          "type": "address"
        }
      ],
      "name": "revokeRoleAdmin",
      "outputs": [],
      "stateMutability": "nonpayable",
      "type": "function"
    },
    {
      "inputs": [
        {
          "internalType": "address",
          "name": "_address",
          "type": "address"
        }
      ],
      "name": "revokeRoleOperator",
      "outputs": [],
      "stateMutability": "nonpayable",
      "type": "function"
    },
    {
      "inputs": [
        {
          "internalType": "uint256",
          "name": "usersAmount",
          "type": "uint256"
        }
      ],
      "name": "toggleIsFunded",
      "outputs": [],
      "stateMutability": "nonpayable",
      "type": "function"
    },
    {
      "inputs": [
        {
          "internalType": "string[]",
          "name": "_choices",
          "type": "string[]"
        }
      ],
      "name": "toggleIsMultiChoiced",
      "outputs": [],
      "stateMutability": "nonpayable",
      "type": "function"
    },
    {
      "inputs": [
        {
          "internalType": "address[]",
          "name": "voters",
          "type": "address[]"
        }
      ],
      "name": "toggleIsPrivate",
      "outputs": [],
      "stateMutability": "nonpayable",
      "type": "function"
    },
    {
      "inputs": [],
      "name": "toggleIsRepeated",
      "outputs": [],
      "stateMutability": "nonpayable",
      "type": "function"
    },
    {
      "inputs": [
        {
          "internalType": "uint256",
          "name": "_percentage",
          "type": "uint256"
        }
      ],
      "name": "toggleIsResultPartial",
      "outputs": [],
      "stateMutability": "nonpayable",
      "type": "function"
    },
    {
      "inputs": [],
      "name": "toggleIsResultVetoed",
      "outputs": [],
      "stateMutability": "nonpayable",
      "type": "function"
    },
    {
      "inputs": [
        {
          "internalType": "uint256[]",
          "name": "powers",
          "type": "uint256[]"
        }
      ],
      "name": "toggleIsVotePowered",
      "outputs": [],
      "stateMutability": "nonpayable",
      "type": "function"
    },
    {
      "inputs": [],
      "name": "toggleIsVoterDisclosed",
      "outputs": [],
      "stateMutability": "nonpayable",
      "type": "function"
    },
    {
      "inputs": [
        {
          "internalType": "uint256",
          "name": "_votersLimit",
          "type": "uint256"
        }
      ],
      "name": "toggleIsVotersLimited",
      "outputs": [],
      "stateMutability": "nonpayable",
      "type": "function"
    },
    {
      "inputs": [
        {
          "internalType": "address",
          "name": "newOwner",
          "type": "address"
        }
      ],
      "name": "transferOwnership",
      "outputs": [],
      "stateMutability": "nonpayable",
      "type": "function"
    }
  ],
  "bytecode": "0x608060405234801561001057600080fd5b50600280546001600160a01b031916321790556156c1806100326000396000f3fe6080604052600436106200017b5760003560e01c80639228274311620000cf578063bb17bb5d116200007d578063e2e294681162000060578063e2e294681462000403578063f2fde38b1462000428578063f61d9567146200044d57600080fd5b8063bb17bb5d14620003a1578063de1ac2fd14620003c657600080fd5b8063a6c8210e11620000b2578063a6c8210e146200033d578063a84a505f1462000364578063b336e5cc146200037c57600080fd5b80639228274314620003005780639cfee576146200032557600080fd5b806344702ec6116200012d57806385c0b3af116200011057806385c0b3af146200026d578063893d20e814620002925780639026dee814620002b257600080fd5b806344702ec6146200023057806362eb965c146200025557600080fd5b806315fe5583116200016257806315fe558314620001cc5780631986d37614620001f15780633c5663df146200022657600080fd5b806303175b9a14620001805780630a84246d14620001a7575b600080fd5b3480156200018d57600080fd5b50620001a56200019f36600462002569565b62000472565b005b348015620001b457600080fd5b50620001a5620001c636600462002569565b62000595565b348015620001d957600080fd5b50620001a5620001eb36600462002569565b620006b1565b348015620001fe57600080fd5b5062000209620007c9565b6040516001600160a01b0390911681526020015b60405180910390f35b620001a562000834565b3480156200023d57600080fd5b50620001a56200024f366004620025ff565b62000f1b565b3480156200026257600080fd5b50620001a56200110a565b3480156200027a57600080fd5b50620001a56200028c366004620026a8565b6200118c565b3480156200029f57600080fd5b506002546001600160a01b031662000209565b348015620002bf57600080fd5b50620002ef620002d136600462002569565b6001600160a01b031660009081526020819052604090205460ff1690565b60405190151581526020016200021d565b3480156200030d57600080fd5b50620001a56200031f36600462002569565b620012c2565b3480156200033257600080fd5b50620001a5620013da565b3480156200034a57600080fd5b506200035562001565565b6040516200021d9190620027d8565b3480156200037157600080fd5b50620001a56200189b565b3480156200038957600080fd5b50620001a56200039b366004620026a8565b62001913565b348015620003ae57600080fd5b50620001a5620003c03660046200290a565b620019b2565b348015620003d357600080fd5b50620002ef620003e536600462002569565b6001600160a01b031660009081526001602052604090205460ff1690565b3480156200041057600080fd5b50620001a562000422366004620026a8565b62001bd3565b3480156200043557600080fd5b50620001a56200044736600462002569565b62001f14565b3480156200045a57600080fd5b50620001a56200046c36600462002a22565b62002030565b6002546001600160a01b03163314620004dd5760405162461bcd60e51b815260206004820152602260248201527f4f6e6c79206f776e65722063616e20706572666f726d2074686973206163746960448201526137b760f11b60648201526084015b60405180910390fd5b6001600160a01b03811660009081526001602052604090205460ff16156200056e5760405162461bcd60e51b815260206004820152603560248201527f566f74696e67526f6c654d6f64656c3a20526f6c6520616c726561647920677260448201527f616e74656420746f2074686973206164647265737300000000000000000000006064820152608401620004d4565b6001600160a01b03166000908152600160208190526040909120805460ff19169091179055565b6002546001600160a01b03163314620005fc5760405162461bcd60e51b815260206004820152602260248201527f4f6e6c79206f776e65722063616e20706572666f726d2074686973206163746960448201526137b760f11b6064820152608401620004d4565b6001600160a01b03811660009081526020819052604090205460ff16156200068d5760405162461bcd60e51b815260206004820152603560248201527f566f74696e67526f6c654d6f64656c3a20526f6c6520616c726561647920677260448201527f616e74656420746f2074686973206164647265737300000000000000000000006064820152608401620004d4565b6001600160a01b03166000908152602081905260409020805460ff19166001179055565b6002546001600160a01b03163314620007185760405162461bcd60e51b815260206004820152602260248201527f4f6e6c79206f776e65722063616e20706572666f726d2074686973206163746960448201526137b760f11b6064820152608401620004d4565b6001600160a01b03811660009081526001602052604090205460ff16620007a85760405162461bcd60e51b815260206004820152603460248201527f566f74696e67526f6c654d6f64656c3a20526f6c65206973206e6f742067726160448201527f6e74656420746f207468697320616464726573730000000000000000000000006064820152608401620004d4565b6001600160a01b03166000908152600160205260409020805460ff19169055565b3360009081526020819052604081205460ff16620008245760405162461bcd60e51b815260206004820152602260248201526000805160206200566c83398151915260448201526137b760f11b6064820152608401620004d4565b506003546001600160a01b031690565b3360009081526020819052604090205460ff166200088f5760405162461bcd60e51b815260206004820152602260248201526000805160206200566c83398151915260448201526137b760f11b6064820152608401620004d4565b600b5460ff1615620008e45760405162461bcd60e51b815260206004820152601d60248201527f566f74696e674275696c6465723a205265656e7472616e742063616c6c0000006044820152606401620004d4565b600b805460ff19166001908117909155600a54116200096c5760405162461bcd60e51b815260206004820152603760248201527f566f74696e674275696c6465723a20566f74696e672063616e6e6f742062652060448201527f6372656174656420776974686f75742063686f696365730000000000000000006064820152608401620004d4565b60045468010000000000000000900460ff161562000bcb5760003411620009fc5760405162461bcd60e51b815260206004820152602e60248201527f566f74696e674275696c6465723a204e6f2065746865722073656e7420666f7260448201527f2066756e64656420766f74696e670000000000000000000000000000000000006064820152608401620004d4565b6008548062000a745760405162461bcd60e51b815260206004820152602c60248201527f566f74696e674275696c6465723a204e6f2061646472657373657320746f206460448201527f69737472696275746520746f00000000000000000000000000000000000000006064820152608401620004d4565b600062000a82823462002ab1565b90506000805b8381101562000bc157600060048001828154811062000aab5762000aab62002ad4565b60009182526020822001546040516001600160a01b039091169250829186919081818185875af1925050503d806000811462000b04576040519150601f19603f3d011682016040523d82523d6000602084013e62000b09565b606091505b5050604080517f566f74696e674275696c6465723a2065746865722066756e64696e672066616960208201527f6c656420666f7220766f7465722000000000000000000000000000000000000081830152606084901b6bffffffffffffffffffffffff1916604e8201528151604281830301815260629091019091529093508362000ba95760405162461bcd60e51b8152600401620004d4919062002aea565b5050808062000bb89062002aff565b91505062000a88565b5050505062000c41565b341562000c415760405162461bcd60e51b815260206004820152603b60248201527f566f74696e674275696c6465723a2046756e64696e672069732064656163746960448201527f76617465642c2054582076616c75652073686f756c64206265203000000000006064820152608401620004d4565b604080516101e0810182526004805460ff808216151584526101008083048216151560208087019190915262010000840483161515868801526301000000840483161515606087015264010000000084048316151560808701526501000000000084048316151560a0870152660100000000000084048316151560c087015267010000000000000084048316151560e087015268010000000000000000909304909116151590840152600554610120840152600654610140840152600754610160840152600880548551818402810184019096528086526000956101808601939092919083018282801562000d6057602002820191906000526020600020905b81546001600160a01b0316815260019091019060200180831162000d41575b505050505081526020016005820180548060200260200160405190810160405280929190818152602001828054801562000dba57602002820191906000526020600020905b81548152602001906001019080831162000da5575b5050505050815260200160068201805480602002602001604051908101604052809291908181526020016000905b8282101562000e9e57838290600052602060002001805462000e0a9062002b27565b80601f016020809104026020016040519081016040528092919081815260200182805462000e389062002b27565b801562000e895780601f1062000e5d5761010080835404028352916020019162000e89565b820191906000526020600020905b81548152906001019060200180831162000e6b57829003601f168201915b50505050508152602001906001019062000de8565b505050508152505090508060405162000eb790620023b7565b62000ec39190620027d8565b604051809103906000f08015801562000ee0573d6000803e3d6000fd5b506003805473ffffffffffffffffffffffffffffffffffffffff19166001600160a01b039290921691909117905550600b805460ff19169055565b3360009081526020819052604090205460ff1662000f765760405162461bcd60e51b815260206004820152602260248201526000805160206200566c83398151915260448201526137b760f11b6064820152608401620004d4565b600454640100000000900460ff16620010e65761138881511115620010045760405162461bcd60e51b815260206004820152603b60248201527f566f74696e674275696c6465723a205072697661746520766f74696e6720737560448201527f70706f727473203530303020766f74657273206d6178696d756d2000000000006064820152608401620004d4565b6004546301000000900460ff1615620010b85760065481511115620010b85760405162461bcd60e51b815260206004820152604d60248201527f566f74696e674275696c6465723a205072697661746520566f7465727320616d60448201527f6f756e742063616e6e6f7420626520686967686572207468616e20746f74616c60648201527f20766f74657273206c696d697400000000000000000000000000000000000000608482015260a401620004d4565b8051620010cd906008906020840190620023c5565b506004805464ff00000000191664010000000017905550565b620010f4600860006200243c565b6004805468ff000000ff00ff0000191690555b50565b3360009081526020819052604090205460ff16620011655760405162461bcd60e51b815260206004820152602260248201526000805160206200566c83398151915260448201526137b760f11b6064820152608401620004d4565b6004805466ff00000000000019811666010000000000009182900460ff1615909102179055565b3360009081526020819052604090205460ff16620011e75760405162461bcd60e51b815260206004820152602260248201526000805160206200566c83398151915260448201526137b760f11b6064820152608401620004d4565b6064811115620012865760405162461bcd60e51b815260206004820152604260248201527f566f74696e674275696c6465723a20766f74696e672077696e6e696e6720506560448201527f7263656e74616765206d757374206265206265747765656e203020616e64203160648201527f3030000000000000000000000000000000000000000000000000000000000000608482015260a401620004d4565b60328111620012a65760006007556004805465ff00000000001916905550565b6007556004805465ff0000000000191665010000000000179055565b6002546001600160a01b03163314620013295760405162461bcd60e51b815260206004820152602260248201527f4f6e6c79206f776e65722063616e20706572666f726d2074686973206163746960448201526137b760f11b6064820152608401620004d4565b6001600160a01b03811660009081526020819052604090205460ff16620013b95760405162461bcd60e51b815260206004820152603460248201527f566f74696e67526f6c654d6f64656c3a20526f6c65206973206e6f742067726160448201527f6e74656420746f207468697320616464726573730000000000000000000000006064820152608401620004d4565b6001600160a01b03166000908152602081905260409020805460ff19169055565b3360009081526020819052604090205460ff16620014355760405162461bcd60e51b815260206004820152602260248201526000805160206200566c83398151915260448201526137b760f11b6064820152608401620004d4565b60045460ff1662001559576004546301000000900460ff161515600114620014c65760405162461bcd60e51b815260206004820152603c60248201527f566f74696e674275696c6465723a20766f74696e672073686f756c642068617360448201527f20766f74657273204c696d697420746f206265205265706561746564000000006064820152608401620004d4565b6006546113881015620015425760405162461bcd60e51b815260206004820152603c60248201527f566f74696e674275696c6465723a20526570656174656420766f74696e67207360448201527f7570706f727473203530303020766f74657273206d6178696d756d20000000006064820152608401620004d4565b6004805468ff00000000000000ff19166001179055565b6004805460ff19169055565b604080516101e0810182526000808252602080830182905282840182905260608084018390526080840183905260a0840183905260c0840183905260e08401839052610100840183905261012084018390526101408401839052610160840183905261018084018190526101a084018190526101c0840152338252819052919091205460ff16620016335760405162461bcd60e51b815260206004820152602260248201526000805160206200566c83398151915260448201526137b760f11b6064820152608401620004d4565b604080516101e0810182526004805460ff808216151584526101008083048216151560208087019190915262010000840483161515868801526301000000840483161515606087015264010000000084048316151560808701526501000000000084048316151560a0870152660100000000000084048316151560c087015267010000000000000084048316151560e0870152680100000000000000009093049091161515908401526005546101208401526006546101408401526007546101608401526008805485518184028101840190965280865293949293610180860193928301828280156200175057602002820191906000526020600020905b81546001600160a01b0316815260019091019060200180831162001731575b5050505050815260200160058201805480602002602001604051908101604052809291908181526020018280548015620017aa57602002820191906000526020600020905b81548152602001906001019080831162001795575b5050505050815260200160068201805480602002602001604051908101604052809291908181526020016000905b828210156200188e578382906000526020600020018054620017fa9062002b27565b80601f0160208091040260200160405190810160405280929190818152602001828054620018289062002b27565b8015620018795780601f106200184d5761010080835404028352916020019162001879565b820191906000526020600020905b8154815290600101906020018083116200185b57829003601f168201915b505050505081526020019060010190620017d8565b5050505081525050905090565b3360009081526020819052604090205460ff16620018f65760405162461bcd60e51b815260206004820152602260248201526000805160206200566c83398151915260448201526137b760f11b6064820152608401620004d4565b6004805461ff001981166101009182900460ff1615909102179055565b3360009081526020819052604090205460ff166200196e5760405162461bcd60e51b815260206004820152602260248201526000805160206200566c83398151915260448201526137b760f11b6064820152608401620004d4565b6004546301000000900460ff1662001998576006556004805463ff00000019166301000000179055565b60048054600060065568ff000000ffffff00001916905550565b3360009081526020819052604090205460ff1662001a0d5760405162461bcd60e51b815260206004820152602260248201526000805160206200566c83398151915260448201526137b760f11b6064820152608401620004d4565b60148151111562001a875760405162461bcd60e51b815260206004820152602760248201527f566f74696e674275696c6465723a204d61782063686f6963657320616d6f756e60448201527f74206973203230000000000000000000000000000000000000000000000000006064820152608401620004d4565b62001a95600a60006200245c565b600181511162001b9f57600a805460018101825560009190915260408051808201909152600381527f796573000000000000000000000000000000000000000000000000000000000060208201527fc65a7bb8d6351c1cf70c95a316cc6a92839c986682d98bc35f958f4883f9d2a89091019062001b14908262002bb6565b50600a805460018101825560009190915260408051808201909152600281527f6e6f00000000000000000000000000000000000000000000000000000000000060208201527fc65a7bb8d6351c1cf70c95a316cc6a92839c986682d98bc35f958f4883f9d2a89091019062001b8a908262002bb6565b506004805467ff000000000000001916905550565b805162001bb490600a9060208401906200247c565b506004805467ff00000000000000191667010000000000000017905550565b3360009081526020819052604090205460ff1662001c2e5760405162461bcd60e51b815260206004820152602260248201526000805160206200566c83398151915260448201526137b760f11b6064820152608401620004d4565b60045468010000000000000000900460ff1662001eff576004546301000000900460ff16151560011462001cf15760405162461bcd60e51b815260206004820152604760248201527f566f74696e674275696c6465723a20766f74696e672073686f756c642068617360448201527f20766f74657273206c696d697420746f2062652061626c6520746f2066756e6460648201527f20766f7465727300000000000000000000000000000000000000000000000000608482015260a401620004d4565b600454640100000000900460ff16151560011462001d9e5760405162461bcd60e51b815260206004820152604960248201527f566f74696e674275696c6465723a20766f74696e672073686f756c642068617360448201527f207072697661746520766f7465727320746f2062652061626c6520746f20667560648201527f6e6420766f746572730000000000000000000000000000000000000000000000608482015260a401620004d4565b60065481101562001e3e5760405162461bcd60e51b815260206004820152604a60248201527f566f74696e674275696c6465723a2046756e64696e67207573657273206c696d60448201527f69742063616e6e6f74206265206c6f776572207468616e20746f74616c20766f60648201527f74657273206c696d697400000000000000000000000000000000000000000000608482015260a401620004d4565b600854811462001edd5760405162461bcd60e51b815260206004820152604560248201527f566f74696e674275696c6465723a2046756e64696e67207573657273206c696d60448201527f697420616e64205072697661746520566f7465727320616d6f756e74206d697360648201527f6d61746368000000000000000000000000000000000000000000000000000000608482015260a401620004d4565b6005556004805468ff0000000000000000191668010000000000000000179055565b6004805468ff00000000000000001916905550565b6002546001600160a01b0316331462001f7b5760405162461bcd60e51b815260206004820152602260248201527f4f6e6c79206f776e65722063616e20706572666f726d2074686973206163746960448201526137b760f11b6064820152608401620004d4565b6002546001600160a01b0390811690821603620020015760405162461bcd60e51b815260206004820152603560248201527f566f74696e67526f6c654d6f64656c3a2063616e6e6f74207472616e7366657260448201527f204f776e65727368697020746f2068696d73656c6600000000000000000000006064820152608401620004d4565b6002805473ffffffffffffffffffffffffffffffffffffffff19166001600160a01b0392909216919091179055565b3360009081526020819052604090205460ff166200208b5760405162461bcd60e51b815260206004820152602260248201526000805160206200566c83398151915260448201526137b760f11b6064820152608401620004d4565b60045462010000900460ff166200239a576004546301000000900460ff161515600114620021485760405162461bcd60e51b815260206004820152604660248201527f566f74696e674275696c6465723a20766f74696e672073686f756c642068617360448201527f20766f74657273206c696d697420746f206772616e7420706f77657220746f2060648201527f766f746572730000000000000000000000000000000000000000000000000000608482015260a401620004d4565b600454640100000000900460ff161515600114620021f55760405162461bcd60e51b815260206004820152604860248201527f566f74696e674275696c6465723a20766f74696e672073686f756c642068617360448201527f207072697661746520766f7465727320746f206772616e7420706f776572207460648201527f6f20766f74657273000000000000000000000000000000000000000000000000608482015260a401620004d4565b600854815114620022955760405162461bcd60e51b815260206004820152604d60248201527f566f74696e674275696c6465723a20766f74657220506f7765727320616e642060448201527f616c6c6f776564205072697661746520566f7465727320617272617973206c6560648201527f6e677468206d69736d6174636800000000000000000000000000000000000000608482015260a401620004d4565b60005b815181101562002385576001828281518110620022b957620022b962002ad4565b60200260200101511015620023375760405162461bcd60e51b815260206004820152602d60248201527f566f74696e674275696c6465723a20766f74657220506f776572206d7573742060448201527f6265206174206c656173742031000000000000000000000000000000000000006064820152608401620004d4565b600460050182828151811062002351576200235162002ad4565b60209081029190910181015182546001810184556000938452919092200155806200237c8162002aff565b91505062002298565b506004805462ff000019166201000017905550565b620023a8600960006200243c565b6004805462ff00001916905550565b6129e88062002c8483390190565b8280548282559060005260206000209081019282156200242a579160200282015b828111156200242a578251825473ffffffffffffffffffffffffffffffffffffffff19166001600160a01b03909116178255602090920191600190910190620023e6565b5062002438929150620024d5565b5090565b5080546000825590600052602060002090810190620011079190620024d5565b5080546000825590600052602060002090810190620011079190620024ec565b828054828255906000526020600020908101928215620024c7579160200282015b82811115620024c75782518290620024b6908262002bb6565b50916020019190600101906200249d565b5062002438929150620024ec565b5b80821115620024385760008155600101620024d6565b80821115620024385760006200250382826200250d565b50600101620024ec565b5080546200251b9062002b27565b6000825580601f106200252c575050565b601f016020900490600052602060002090810190620011079190620024d5565b80356001600160a01b03811681146200256457600080fd5b919050565b6000602082840312156200257c57600080fd5b62002587826200254c565b9392505050565b634e487b7160e01b600052604160045260246000fd5b604051601f8201601f1916810167ffffffffffffffff81118282101715620025d057620025d06200258e565b604052919050565b600067ffffffffffffffff821115620025f557620025f56200258e565b5060051b60200190565b600060208083850312156200261357600080fd5b823567ffffffffffffffff8111156200262b57600080fd5b8301601f810185136200263d57600080fd5b8035620026546200264e82620025d8565b620025a4565b81815260059190911b820183019083810190878311156200267457600080fd5b928401925b828410156200269d576200268d846200254c565b8252928401929084019062002679565b979650505050505050565b600060208284031215620026bb57600080fd5b5035919050565b600081518084526020808501945080840160005b83811015620026fd5781516001600160a01b031687529582019590820190600101620026d6565b509495945050505050565b600081518084526020808501945080840160005b83811015620026fd578151875295820195908201906001016200271c565b6000815180845260005b81811015620027625760208185018101518683018201520162002744565b506000602082860101526020601f19601f83011685010191505092915050565b6000815180845260208085019450848260051b860182860160005b85811015620027cb578383038952620027b88383516200273a565b988501989250908401906001016200279d565b5090979650505050505050565b60208152620027ec60208201835115159052565b6000602083015162002802604084018215159052565b5060408301518015156060840152506060830151801515608084015250608083015180151560a08401525060a083015180151560c08401525060c083015180151560e08401525060e08301516101006200285f8185018315159052565b8401519050610120620028758482018315159052565b8401516101408481019190915284015161016080850191909152840151610180808501919091528401516101e06101a080860182905291925090620028bf610200860184620026c2565b9250808601519050601f196101c0818786030181880152620028e2858462002708565b90880151878203909201848801529350905062002900838262002782565b9695505050505050565b600060208083850312156200291e57600080fd5b823567ffffffffffffffff808211156200293757600080fd5b8185019150601f86818401126200294d57600080fd5b82356200295e6200264e82620025d8565b81815260059190911b840185019085810190898311156200297e57600080fd5b8686015b8381101562002a14578035868111156200299c5760008081fd5b8701603f81018c13620029af5760008081fd5b88810135604088821115620029c857620029c86200258e565b620029db828901601f19168c01620025a4565b8281528e82848601011115620029f15760008081fd5b828285018d83013760009281018c01929092525084525091870191870162002982565b509998505050505050505050565b6000602080838503121562002a3657600080fd5b823567ffffffffffffffff81111562002a4e57600080fd5b8301601f8101851362002a6057600080fd5b803562002a716200264e82620025d8565b81815260059190911b8201830190838101908783111562002a9157600080fd5b928401925b828410156200269d5783358252928401929084019062002a96565b60008262002acf57634e487b7160e01b600052601260045260246000fd5b500490565b634e487b7160e01b600052603260045260246000fd5b6020815260006200258760208301846200273a565b60006001820162002b2057634e487b7160e01b600052601160045260246000fd5b5060010190565b600181811c9082168062002b3c57607f821691505b60208210810362002b5d57634e487b7160e01b600052602260045260246000fd5b50919050565b601f82111562002bb157600081815260208120601f850160051c8101602086101562002b8c5750805b601f850160051c820191505b8181101562002bad5782815560010162002b98565b5050505b505050565b815167ffffffffffffffff81111562002bd35762002bd36200258e565b62002beb8162002be4845462002b27565b8462002b63565b602080601f83116001811462002c23576000841562002c0a5750858301515b600019600386901b1c1916600185901b17855562002bad565b600085815260208120601f198616915b8281101562002c545788860151825594840194600190910190840162002c33565b508582101562002c735787850151600019600388901b60f8161c191681555b5050505050600190811b0190555056fe6080604052600a805460ff191690553480156200001b57600080fd5b50604051620029e8380380620029e88339810160408190526200003e9162000764565b60028054326001600160a01b031990911617905580516003805460208085015160408601516060870151608088015160a089015160c08a015160e08b0151610100808d015161ffff19909a169b151561ff0019169b909b17961515909a029590951763ffff00001916620100009415159490940263ff0000001916939093176301000000921515929092029190911761ffff60201b19166401000000009115159190910260ff60281b19161765010000000000911515919091021761ffff60301b191666010000000000009115159190910260ff60381b191617670100000000000000941515949094029390931760ff60401b19166801000000000000000091151591909102178155610120830151600455610140830151600555610160830151600655610180830151805184936200017d9260079291019062000341565b506101a082015180516200019c916005840191602090910190620003ab565b506101c08201518051620001bb916006840191602090910190620003e9565b5050506101c08101518051620001da91600d91602090910190620003e9565b5060005b816101c00151518110156200023457600e805460018101825560009182527fbb7b4a454dc3493923482f07822329ed19e8244eff582cc204f8554c3620c3fd0155806200022b81620008fc565b915050620001de565b5060005b8161018001515181101562000339576001600b6000846101800151848151811062000267576200026762000924565b60200260200101516001600160a01b03166001600160a01b0316815260200190815260200160002060030160006101000a81548160ff0219169083151502179055508160400151156200032457816101a001518181518110620002ce57620002ce62000924565b6020026020010151600b60008461018001518481518110620002f457620002f462000924565b60200260200101516001600160a01b03166001600160a01b03168152602001908152602001600020600201819055505b806200033081620008fc565b91505062000238565b505062000a95565b82805482825590600052602060002090810192821562000399579160200282015b828111156200039957825182546001600160a01b0319166001600160a01b0390911617825560209092019160019091019062000362565b50620003a792915062000442565b5090565b82805482825590600052602060002090810192821562000399579160200282015b8281111562000399578251825591602001919060010190620003cc565b82805482825590600052602060002090810192821562000434579160200282015b82811115620004345782518290620004239082620009c9565b50916020019190600101906200040a565b50620003a792915062000459565b5b80821115620003a7576000815560010162000443565b80821115620003a75760006200047082826200047a565b5060010162000459565b50805462000488906200093a565b6000825580601f1062000499575050565b601f016020900490600052602060002090810190620004b9919062000442565b50565b634e487b7160e01b600052604160045260246000fd5b6040516101e081016001600160401b0381118282101715620004f857620004f8620004bc565b60405290565b604051601f8201601f191681016001600160401b0381118282101715620005295762000529620004bc565b604052919050565b805180151581146200054257600080fd5b919050565b60006001600160401b03821115620005635762000563620004bc565b5060051b60200190565b600082601f8301126200057f57600080fd5b8151602062000598620005928362000547565b620004fe565b82815260059290921b84018101918181019086841115620005b857600080fd5b8286015b84811015620005ec5780516001600160a01b0381168114620005de5760008081fd5b8352918301918301620005bc565b509695505050505050565b600082601f8301126200060957600080fd5b815160206200061c620005928362000547565b82815260059290921b840181019181810190868411156200063c57600080fd5b8286015b84811015620005ec578051835291830191830162000640565b6000601f83818401126200066c57600080fd5b825160206200067f620005928362000547565b82815260059290921b850181019181810190878411156200069f57600080fd5b8287015b84811015620007585780516001600160401b0380821115620006c55760008081fd5b818a0191508a603f830112620006db5760008081fd5b8582015181811115620006f257620006f2620004bc565b62000705818a01601f19168801620004fe565b915080825260408c818386010111156200071f5760008081fd5b60005b828110156200073f578481018201518482018a0152880162000722565b50506000908201870152845250918301918301620006a3565b50979650505050505050565b6000602082840312156200077757600080fd5b81516001600160401b03808211156200078f57600080fd5b908301906101e08286031215620007a557600080fd5b620007af620004d2565b620007ba8362000531565b8152620007ca6020840162000531565b6020820152620007dd6040840162000531565b6040820152620007f06060840162000531565b6060820152620008036080840162000531565b60808201526200081660a0840162000531565b60a08201526200082960c0840162000531565b60c08201526200083c60e0840162000531565b60e08201526101006200085181850162000531565b9082015261012083810151908201526101408084015190820152610160808401519082015261018080840151838111156200088b57600080fd5b62000899888287016200056d565b8284015250506101a08084015183811115620008b457600080fd5b620008c288828701620005f7565b8284015250506101c08084015183811115620008dd57600080fd5b620008eb8882870162000659565b918301919091525095945050505050565b6000600182016200091d57634e487b7160e01b600052601160045260246000fd5b5060010190565b634e487b7160e01b600052603260045260246000fd5b600181811c908216806200094f57607f821691505b6020821081036200097057634e487b7160e01b600052602260045260246000fd5b50919050565b601f821115620009c457600081815260208120601f850160051c810160208610156200099f5750805b601f850160051c820191505b81811015620009c057828155600101620009ab565b5050505b505050565b81516001600160401b03811115620009e557620009e5620004bc565b620009fd81620009f684546200093a565b8462000976565b602080601f83116001811462000a35576000841562000a1c5750858301515b600019600386901b1c1916600185901b178555620009c0565b600085815260208120601f198616915b8281101562000a665788860151825594840194600190910190840162000a45565b508582101562000a855787850151600019600388901b60f8161c191681555b5050505050600190811b01905550565b611f438062000aa56000396000f3fe608060405234801561001057600080fd5b50600436106100f55760003560e01c80639228274311610097578063de1ac2fd11610066578063de1ac2fd1461020d578063f2fde38b14610239578063f90943031461024c578063fba7cc791461025457600080fd5b806392282743146101bd578063a6c8210e146101d0578063be9a6555146101e5578063d4f50f98146101ed57600080fd5b806315fe5583116100d357806315fe558314610135578063671d2b7514610148578063893d20e8146101665780639026dee81461018157600080fd5b80630121b93f146100fa57806303175b9a1461010f5780630a84246d14610122575b600080fd5b61010d610108366004611873565b61025c565b005b61010d61011d36600461188c565b610623565b61010d61013036600461188c565b61073e565b61010d61014336600461188c565b610856565b61015061096a565b60405161015d9190611992565b60405180910390f35b6002546040516001600160a01b03909116815260200161015d565b6101ad61018f36600461188c565b6001600160a01b031660009081526020819052604090205460ff1690565b604051901515815260200161015d565b61010d6101cb36600461188c565b610b7f565b6101d8610c93565b60405161015d9190611a44565b61010d610fca565b6102006101fb36600461188c565b611200565b60405161015d9190611b6c565b6101ad61021b36600461188c565b6001600160a01b031660009081526001602052604090205460ff1690565b61010d61024736600461188c565b6113fd565b61010d611515565b6101ad6117ca565b600a5460ff166102b35760405162461bcd60e51b815260206004820152601d60248201527f566f74696e673a20566f74696e6720697320646561637469766174656400000060448201526064015b60405180910390fd5b336000908152600b602052604090205460ff16156103135760405162461bcd60e51b815260206004820152601560248201527f566f74696e673a20416c726561647920766f746564000000000000000000000060448201526064016102aa565b600d54811061038a5760405162461bcd60e51b815260206004820152602a60248201527f566f74696e673a207468652073656c65637465642043686f69636520646f657360448201527f206e6f742065786973740000000000000000000000000000000000000000000060648201526084016102aa565b6003546301000000900460ff161561041457600554600c54106104145760405162461bcd60e51b8152602060048201526024808201527f566f74696e673a20566f74657273204c696d697420616c72656164792072656160448201527f636865640000000000000000000000000000000000000000000000000000000060648201526084016102aa565b600354640100000000900460ff16156104af57336000908152600b602052604090206003015460ff166104af5760405162461bcd60e51b815260206004820152603460248201527f566f74696e673a20596f7520617265206e6f7420616d6f6e672074686520616c60448201527f6c6f776564205072697661746520566f7465727300000000000000000000000060648201526084016102aa565b336000908152600b60205260409020805460ff19166001179055600d8054829081106104dd576104dd611bb6565b60009182526020808320338452600b909152604090922060010191610503910182611c6b565b50600c80546001810182556000919091527fdf6966c971051c3d54ec59162606531493a51404a002842f56009d7e5cf4a8c701805473ffffffffffffffffffffffffffffffffffffffff19163317905560035460ff6201000090910416156105db57336000908152600b6020526040812060020154600f80549192909161058b908490611d62565b9091555050336000908152600b6020526040902060020154600e8054839081106105b7576105b7611bb6565b9060005260206000200160008282546105d09190611d62565b909155506106209050565b600f80549060006105eb83611d7b565b9091555050600e80548290811061060457610604611bb6565b6000918252602082200180549161061a83611d7b565b91905055505b50565b6002546001600160a01b031633146106885760405162461bcd60e51b815260206004820152602260248201527f4f6e6c79206f776e65722063616e20706572666f726d2074686973206163746960448201526137b760f11b60648201526084016102aa565b6001600160a01b03811660009081526001602052604090205460ff16156107175760405162461bcd60e51b815260206004820152603560248201527f566f74696e67526f6c654d6f64656c3a20526f6c6520616c726561647920677260448201527f616e74656420746f20746869732061646472657373000000000000000000000060648201526084016102aa565b6001600160a01b03166000908152600160208190526040909120805460ff19169091179055565b6002546001600160a01b031633146107a35760405162461bcd60e51b815260206004820152602260248201527f4f6e6c79206f776e65722063616e20706572666f726d2074686973206163746960448201526137b760f11b60648201526084016102aa565b6001600160a01b03811660009081526020819052604090205460ff16156108325760405162461bcd60e51b815260206004820152603560248201527f566f74696e67526f6c654d6f64656c3a20526f6c6520616c726561647920677260448201527f616e74656420746f20746869732061646472657373000000000000000000000060648201526084016102aa565b6001600160a01b03166000908152602081905260409020805460ff19166001179055565b6002546001600160a01b031633146108bb5760405162461bcd60e51b815260206004820152602260248201527f4f6e6c79206f776e65722063616e20706572666f726d2074686973206163746960448201526137b760f11b60648201526084016102aa565b6001600160a01b03811660009081526001602052604090205460ff166109495760405162461bcd60e51b815260206004820152603460248201527f566f74696e67526f6c654d6f64656c3a20526f6c65206973206e6f742067726160448201527f6e74656420746f2074686973206164647265737300000000000000000000000060648201526084016102aa565b6001600160a01b03166000908152600160205260409020805460ff19169055565b61099c6040518060a0016040528060608152602001606081526020016000815260200160608152602001600081525090565b60408051600d805460c0602082028401810190945260a083018181529293919284929091849160009085015b82821015610a745783829060005260206000200180546109e790611bcc565b80601f0160208091040260200160405190810160405280929190818152602001828054610a1390611bcc565b8015610a605780601f10610a3557610100808354040283529160200191610a60565b820191906000526020600020905b815481529060010190602001808311610a4357829003601f168201915b5050505050815260200190600101906109c8565b50505050815260200160018201805480602002602001604051908101604052809291908181526020018280548015610acb57602002820191906000526020600020905b815481526020019060010190808311610ab7575b5050505050815260200160028201548152602001600382018054610aee90611bcc565b80601f0160208091040260200160405190810160405280929190818152602001828054610b1a90611bcc565b8015610b675780601f10610b3c57610100808354040283529160200191610b67565b820191906000526020600020905b815481529060010190602001808311610b4a57829003601f168201915b50505050508152602001600482015481525050905090565b6002546001600160a01b03163314610be45760405162461bcd60e51b815260206004820152602260248201527f4f6e6c79206f776e65722063616e20706572666f726d2074686973206163746960448201526137b760f11b60648201526084016102aa565b6001600160a01b03811660009081526020819052604090205460ff16610c725760405162461bcd60e51b815260206004820152603460248201527f566f74696e67526f6c654d6f64656c3a20526f6c65206973206e6f742067726160448201527f6e74656420746f2074686973206164647265737300000000000000000000000060648201526084016102aa565b6001600160a01b03166000908152602081905260409020805460ff19169055565b604080516101e0810182526000808252602080830182905282840182905260608084018390526080840183905260a0840183905260c0840183905260e08401839052610100840183905261012084018390526101408401839052610160840183905261018084018190526101a084018190526101c0840152338252819052919091205460ff16610d705760405162461bcd60e51b815260206004820152602260248201527f4f6e6c792041646d696e2063616e20706572666f726d2074686973206163746960448201526137b760f11b60648201526084016102aa565b604080516101e0810182526003805460ff808216151584526101008083048216151560208087019190915262010000840483161515868801526301000000840483161515606087015264010000000084048316151560808701526501000000000084048316151560a0870152660100000000000084048316151560c087015267010000000000000084048316151560e087015268010000000000000000909304909116151590840152600454610120840152600554610140840152600654610160840152600780548551818402810184019096528086529394929361018086019392830182828015610e8b57602002820191906000526020600020905b81546001600160a01b03168152600190910190602001808311610e6d575b5050505050815260200160058201805480602002602001604051908101604052809291908181526020018280548015610ee357602002820191906000526020600020905b815481526020019060010190808311610ecf575b5050505050815260200160068201805480602002602001604051908101604052809291908181526020016000905b82821015610fbd578382906000526020600020018054610f3090611bcc565b80601f0160208091040260200160405190810160405280929190818152602001828054610f5c90611bcc565b8015610fa95780601f10610f7e57610100808354040283529160200191610fa9565b820191906000526020600020905b815481529060010190602001808311610f8c57829003601f168201915b505050505081526020019060010190610f11565b5050505081525050905090565b3360009081526001602052604090205460ff166110375760405162461bcd60e51b815260206004820152602560248201527f4f6e6c79204f70657261746f722063616e20706572666f726d2074686973206160448201526431ba34b7b760d91b60648201526084016102aa565b600a5460ff161561108a5760405162461bcd60e51b815260206004820152601e60248201527f566f74696e673a20566f74696e6720616c72656164792073746172746564000060448201526064016102aa565b60035460ff161561117b5760005b600c54811015611101576000600b6000600c84815481106110bb576110bb611bb6565b6000918252602080832091909101546001600160a01b031683528201929092526040019020805460ff1916911515919091179055806110f981611d7b565b915050611098565b5061110e600c6000611841565b6000600f81905560408051602081019091529081526010906111309082611d94565b50600060118190555b600954811015611179576000600d600101828154811061115b5761115b611bb6565b6000918252602090912001558061117181611d7b565b915050611139565b505b600f54156111f15760405162461bcd60e51b815260206004820152603660248201527f566f74696e673a20566f74696e6720697320616c72656164792066696e69736860448201527f656420616e64206973206e6f742072657065617465640000000000000000000060648201526084016102aa565b600a805460ff19166001179055565b61122f604051806080016040528060001515815260200160608152602001600081526020016000151581525090565b3360009081526001602052604090205460ff1661129c5760405162461bcd60e51b815260206004820152602560248201527f4f6e6c79204f70657261746f722063616e20706572666f726d2074686973206160448201526431ba34b7b760d91b60648201526084016102aa565b600354610100900460ff166113195760405162461bcd60e51b815260206004820152602760248201527f566f74696e673a20566f74657320646973636c6f73757265206973206e6f742060448201527f616c6c6f7765640000000000000000000000000000000000000000000000000060648201526084016102aa565b6001600160a01b0382166000908152600b6020908152604091829020825160808101909352805460ff1615158352600181018054919284019161135b90611bcc565b80601f016020809104026020016040519081016040528092919081815260200182805461138790611bcc565b80156113d45780601f106113a9576101008083540402835291602001916113d4565b820191906000526020600020905b8154815290600101906020018083116113b757829003601f168201915b50505091835250506002820154602082015260039091015460ff16151560409091015292915050565b6002546001600160a01b031633146114625760405162461bcd60e51b815260206004820152602260248201527f4f6e6c79206f776e65722063616e20706572666f726d2074686973206163746960448201526137b760f11b60648201526084016102aa565b6002546001600160a01b03908116908216036114e65760405162461bcd60e51b815260206004820152603560248201527f566f74696e67526f6c654d6f64656c3a2063616e6e6f74207472616e7366657260448201527f204f776e65727368697020746f2068696d73656c66000000000000000000000060648201526084016102aa565b6002805473ffffffffffffffffffffffffffffffffffffffff19166001600160a01b0392909216919091179055565b600a5460ff166115675760405162461bcd60e51b815260206004820152601d60248201527f566f74696e673a20566f74696e6720697320646561637469766174656400000060448201526064016102aa565b3360009081526001602052604090205460ff166115d45760405162461bcd60e51b815260206004820152602560248201527f4f6e6c79204f70657261746f722063616e20706572666f726d2074686973206160448201526431ba34b7b760d91b60648201526084016102aa565b6000806000805b600e548110156116735783600d60010182815481106115fc576115fc611bb6565b9060005260206000200154106116615783600d600101828154811061162357611623611bb6565b90600052602060002001540361163c5760019150611673565b600e80548290811061165057611650611bb6565b906000526020600020015493508092505b8061166b81611d7b565b9150506115db565b5082158061168357506001811515145b156116c057604051806060016040528060228152602001611e88602291396010906116ae9082611d94565b505050601155600a805460ff19169055565b6003546601000000000000900460ff1680156116f45750600f546116e5846064611e4e565b6116ef9190611e65565b606414155b1561171f57604051806060016040528060238152602001611eeb602391396010906116ae9082611d94565b60035465010000000000900460ff1680156117525750600654600f54611746856064611e4e565b6117509190611e65565b105b1561178857604051806080016040528060418152602001611eaa6041913960109061177d9082611d94565b5060118390556117bb565b600d80548390811061179c5761179c611bb6565b600091825260209091206010916117b4910182611c6b565b5060118390555b5050600a805460ff1916905550565b3360009081526001602052604081205460ff166118375760405162461bcd60e51b815260206004820152602560248201527f4f6e6c79204f70657261746f722063616e20706572666f726d2074686973206160448201526431ba34b7b760d91b60648201526084016102aa565b50600a5460ff1690565b508054600082559060005260206000209081019061062091905b8082111561186f576000815560010161185b565b5090565b60006020828403121561188557600080fd5b5035919050565b60006020828403121561189e57600080fd5b81356001600160a01b03811681146118b557600080fd5b9392505050565b6000815180845260005b818110156118e2576020818501810151868301820152016118c6565b506000602082860101526020601f19601f83011685010191505092915050565b600081518084526020808501808196508360051b8101915082860160005b8581101561194a5782840389526119388483516118bc565b98850198935090840190600101611920565b5091979650505050505050565b600081518084526020808501945080840160005b838110156119875781518752958201959082019060010161196b565b509495945050505050565b602081526000825160a060208401526119ae60c0840182611902565b90506020840151601f19808584030160408601526119cc8383611957565b9250604086015160608601526060860151915080858403016080860152506119f482826118bc565b915050608084015160a08401528091505092915050565b600081518084526020808501945080840160005b838110156119875781516001600160a01b031687529582019590820190600101611a1f565b60208152611a5760208201835115159052565b60006020830151611a6c604084018215159052565b5060408301518015156060840152506060830151801515608084015250608083015180151560a08401525060a083015180151560c08401525060c083015180151560e08401525060e0830151610100611ac88185018315159052565b8401519050610120611add8482018315159052565b8401516101408481019190915284015161016080850191909152840151610180808501919091528401516101e06101a080860182905291925090611b25610200860184611a0b565b9250808601519050601f196101c0818786030181880152611b468584611957565b908801518782039092018488015293509050611b628382611902565b9695505050505050565b602081528151151560208201526000602083015160806040840152611b9460a08401826118bc565b9050604084015160608401526060840151151560808401528091505092915050565b634e487b7160e01b600052603260045260246000fd5b600181811c90821680611be057607f821691505b602082108103611c0057634e487b7160e01b600052602260045260246000fd5b50919050565b634e487b7160e01b600052604160045260246000fd5b601f821115611c6657600081815260208120601f850160051c81016020861015611c435750805b601f850160051c820191505b81811015611c6257828155600101611c4f565b5050505b505050565b818103611c76575050565b611c808254611bcc565b67ffffffffffffffff811115611c9857611c98611c06565b611cac81611ca68454611bcc565b84611c1c565b6000601f821160018114611ce05760008315611cc85750848201545b600019600385901b1c1916600184901b178455611d45565b600085815260209020601f19841690600086815260209020845b83811015611d1a5782860154825560019586019590910190602001611cfa565b5085831015611d385781850154600019600388901b60f8161c191681555b50505060018360011b0184555b5050505050565b634e487b7160e01b600052601160045260246000fd5b80820180821115611d7557611d75611d4c565b92915050565b600060018201611d8d57611d8d611d4c565b5060010190565b815167ffffffffffffffff811115611dae57611dae611c06565b611dbc81611ca68454611bcc565b602080601f831160018114611df15760008415611dd95750858301515b600019600386901b1c1916600185901b178555611c62565b600085815260208120601f198616915b82811015611e2057888601518255948401946001909101908401611e01565b5085821015611e3e5787850151600019600388901b60f8161c191681555b5050505050600190811b01905550565b8082028115828204841417611d7557611d75611d4c565b600082611e8257634e487b7160e01b600052601260045260246000fd5b50049056fe4e6f2077696e6e65723a206e6f20766f746573206f722074776f2077696e6e6572734e6f2077696e6e65723a204e6f2063686f69636520726561636865642074686520726571756972656420566f7465732050657263656e7461676520546f2057696e4e6f2077696e6e65723a20766f74696e6720726573756c742077617320566f746f6564a264697066735822122060cee8abe811be76a8b64ce77acc6ffa8a16344a2a16730134381e62418fd6b564736f6c634300081100334f6e6c792041646d696e2063616e20706572666f726d20746869732061637469a2646970667358221220f4ca52447eec435bd2941067f4f4dd97348a2044baf410d1f73151f8cbfdddc364736f6c63430008110033",
  "linkReferences": {},
  "deployedLinkReferences": {}
}