{
  "contractName": "GameToken",
  "abi": [
    {
      "inputs": [
        {
          "internalType": "string",
          "name": "name_",
          "type": "string"
        },
        {
          "internalType": "string",
          "name": "symbol_",
          "type": "string"
        }
      ],
      "stateMutability": "nonpayable",
      "type": "constructor"
    },
    {
      "anonymous": false,
      "inputs": [
        {
          "indexed": true,
          "internalType": "address",
          "name": "owner",
          "type": "address"
        },
        {
          "indexed": true,
          "internalType": "address",
          "name": "spender",
          "type": "address"
        },
        {
          "indexed": false,
          "internalType": "uint256",
          "name": "value",
          "type": "uint256"
        }
      ],
      "name": "Approval",
      "type": "event"
    },
    {
      "anonymous": false,
      "inputs": [
        {
          "indexed": false,
          "internalType": "address",
          "name": "from",
          "type": "address"
        },
        {
          "indexed": false,
          "internalType": "address",
          "name": "to",
          "type": "address"
        },
        {
          "indexed": false,
          "internalType": "uint256",
          "name": "index",
          "type": "uint256"
        },
        {
          "indexed": false,
          "internalType": "uint256",
          "name": "amount",
          "type": "uint256"
        }
      ],
      "name": "GoodsTransferred",
      "type": "event"
    },
    {
      "anonymous": false,
      "inputs": [
        {
          "indexed": true,
          "internalType": "address",
          "name": "from",
          "type": "address"
        },
        {
          "indexed": true,
          "internalType": "address",
          "name": "to",
          "type": "address"
        },
        {
          "indexed": false,
          "internalType": "uint256",
          "name": "value",
          "type": "uint256"
        }
      ],
      "name": "Transfer",
      "type": "event"
    },
    {
      "anonymous": false,
      "inputs": [
        {
          "indexed": false,
          "internalType": "uint256",
          "name": "index",
          "type": "uint256"
        },
        {
          "indexed": false,
          "internalType": "uint256",
          "name": "newAmount",
          "type": "uint256"
        }
      ],
      "name": "goodsAmountChanged",
      "type": "event"
    },
    {
      "anonymous": false,
      "inputs": [
        {
          "indexed": false,
          "internalType": "uint256",
          "name": "index",
          "type": "uint256"
        },
        {
          "indexed": false,
          "internalType": "uint256",
          "name": "newPrice",
          "type": "uint256"
        }
      ],
      "name": "goodsPriceChanged",
      "type": "event"
    },
    {
      "anonymous": false,
      "inputs": [
        {
          "indexed": false,
          "internalType": "string",
          "name": "name",
          "type": "string"
        },
        {
          "indexed": false,
          "internalType": "uint256",
          "name": "costPerItem",
          "type": "uint256"
        },
        {
          "indexed": false,
          "internalType": "uint256",
          "name": "inStockAmount",
          "type": "uint256"
        }
      ],
      "name": "newGoodsAdded",
      "type": "event"
    },
    {
      "anonymous": false,
      "inputs": [
        {
          "indexed": false,
          "internalType": "address",
          "name": "to",
          "type": "address"
        },
        {
          "indexed": false,
          "internalType": "uint256",
          "name": "amount",
          "type": "uint256"
        }
      ],
      "name": "rewardsClaimed",
      "type": "event"
    },
    {
      "inputs": [
        {
          "internalType": "address",
          "name": "owner",
          "type": "address"
        },
        {
          "internalType": "address",
          "name": "spender",
          "type": "address"
        }
      ],
      "name": "allowance",
      "outputs": [
        {
          "internalType": "uint256",
          "name": "",
          "type": "uint256"
        }
      ],
      "stateMutability": "view",
      "type": "function",
      "constant": true
    },
    {
      "inputs": [
        {
          "internalType": "address",
          "name": "spender",
          "type": "address"
        },
        {
          "internalType": "uint256",
          "name": "amount",
          "type": "uint256"
        }
      ],
      "name": "approve",
      "outputs": [
        {
          "internalType": "bool",
          "name": "",
          "type": "bool"
        }
      ],
      "stateMutability": "nonpayable",
      "type": "function"
    },
    {
      "inputs": [
        {
          "internalType": "address",
          "name": "account",
          "type": "address"
        }
      ],
      "name": "balanceOf",
      "outputs": [
        {
          "internalType": "uint256",
          "name": "",
          "type": "uint256"
        }
      ],
      "stateMutability": "view",
      "type": "function",
      "constant": true
    },
    {
      "inputs": [
        {
          "internalType": "address",
          "name": "spender",
          "type": "address"
        },
        {
          "internalType": "uint256",
          "name": "subtractedValue",
          "type": "uint256"
        }
      ],
      "name": "decreaseAllowance",
      "outputs": [
        {
          "internalType": "bool",
          "name": "",
          "type": "bool"
        }
      ],
      "stateMutability": "nonpayable",
      "type": "function"
    },
    {
      "inputs": [
        {
          "internalType": "address",
          "name": "spender",
          "type": "address"
        },
        {
          "internalType": "uint256",
          "name": "addedValue",
          "type": "uint256"
        }
      ],
      "name": "increaseAllowance",
      "outputs": [
        {
          "internalType": "bool",
          "name": "",
          "type": "bool"
        }
      ],
      "stateMutability": "nonpayable",
      "type": "function"
    },
    {
      "inputs": [],
      "name": "name",
      "outputs": [
        {
          "internalType": "string",
          "name": "",
          "type": "string"
        }
      ],
      "stateMutability": "view",
      "type": "function",
      "constant": true
    },
    {
      "inputs": [],
      "name": "symbol",
      "outputs": [
        {
          "internalType": "string",
          "name": "",
          "type": "string"
        }
      ],
      "stateMutability": "view",
      "type": "function",
      "constant": true
    },
    {
      "inputs": [],
      "name": "totalSupply",
      "outputs": [
        {
          "internalType": "uint256",
          "name": "",
          "type": "uint256"
        }
      ],
      "stateMutability": "view",
      "type": "function",
      "constant": true
    },
    {
      "inputs": [
        {
          "internalType": "address",
          "name": "to",
          "type": "address"
        },
        {
          "internalType": "uint256",
          "name": "amount",
          "type": "uint256"
        }
      ],
      "name": "transfer",
      "outputs": [
        {
          "internalType": "bool",
          "name": "",
          "type": "bool"
        }
      ],
      "stateMutability": "nonpayable",
      "type": "function"
    },
    {
      "inputs": [
        {
          "internalType": "address",
          "name": "from",
          "type": "address"
        },
        {
          "internalType": "address",
          "name": "to",
          "type": "address"
        },
        {
          "internalType": "uint256",
          "name": "amount",
          "type": "uint256"
        }
      ],
      "name": "transferFrom",
      "outputs": [
        {
          "internalType": "bool",
          "name": "",
          "type": "bool"
        }
      ],
      "stateMutability": "nonpayable",
      "type": "function"
    },
    {
      "inputs": [],
      "name": "getOwner",
      "outputs": [
        {
          "internalType": "address",
          "name": "",
          "type": "address"
        }
      ],
      "stateMutability": "view",
      "type": "function",
      "constant": true
    },
    {
      "inputs": [],
      "name": "decimals",
      "outputs": [
        {
          "internalType": "uint8",
          "name": "",
          "type": "uint8"
        }
      ],
      "stateMutability": "view",
      "type": "function",
      "constant": true
    },
    {
      "inputs": [],
      "name": "getAllGoods",
      "outputs": [
        {
          "components": [
            {
              "internalType": "string",
              "name": "name",
              "type": "string"
            },
            {
              "internalType": "uint256",
              "name": "costPerItem",
              "type": "uint256"
            },
            {
              "internalType": "uint256",
              "name": "inStockAmount",
              "type": "uint256"
            }
          ],
          "internalType": "struct GameToken.Goods[]",
          "name": "",
          "type": "tuple[]"
        }
      ],
      "stateMutability": "view",
      "type": "function",
      "constant": true
    },
    {
      "inputs": [
        {
          "internalType": "uint256",
          "name": "index",
          "type": "uint256"
        }
      ],
      "name": "getExactGoods",
      "outputs": [
        {
          "components": [
            {
              "internalType": "string",
              "name": "name",
              "type": "string"
            },
            {
              "internalType": "uint256",
              "name": "costPerItem",
              "type": "uint256"
            },
            {
              "internalType": "uint256",
              "name": "inStockAmount",
              "type": "uint256"
            }
          ],
          "internalType": "struct GameToken.Goods",
          "name": "",
          "type": "tuple"
        }
      ],
      "stateMutability": "view",
      "type": "function",
      "constant": true
    },
    {
      "inputs": [
        {
          "internalType": "uint256",
          "name": "index",
          "type": "uint256"
        },
        {
          "internalType": "address",
          "name": "goodsOwner",
          "type": "address"
        }
      ],
      "name": "getOwnedQuantity",
      "outputs": [
        {
          "internalType": "uint256",
          "name": "",
          "type": "uint256"
        }
      ],
      "stateMutability": "view",
      "type": "function",
      "constant": true
    },
    {
      "inputs": [],
      "name": "getRewards",
      "outputs": [
        {
          "internalType": "uint256",
          "name": "",
          "type": "uint256"
        }
      ],
      "stateMutability": "view",
      "type": "function",
      "constant": true
    },
    {
      "inputs": [
        {
          "internalType": "string",
          "name": "name",
          "type": "string"
        },
        {
          "internalType": "uint256",
          "name": "costPerItem",
          "type": "uint256"
        },
        {
          "internalType": "uint256",
          "name": "inStockAmount",
          "type": "uint256"
        }
      ],
      "name": "addNewGoods",
      "outputs": [],
      "stateMutability": "nonpayable",
      "type": "function"
    },
    {
      "inputs": [
        {
          "internalType": "uint256",
          "name": "index",
          "type": "uint256"
        },
        {
          "internalType": "uint256",
          "name": "amount",
          "type": "uint256"
        }
      ],
      "name": "changeGoodsAmount",
      "outputs": [],
      "stateMutability": "nonpayable",
      "type": "function"
    },
    {
      "inputs": [
        {
          "internalType": "uint256",
          "name": "index",
          "type": "uint256"
        },
        {
          "internalType": "uint256",
          "name": "price",
          "type": "uint256"
        }
      ],
      "name": "changeGoodsPrice",
      "outputs": [],
      "stateMutability": "nonpayable",
      "type": "function"
    },
    {
      "inputs": [
        {
          "internalType": "address",
          "name": "user",
          "type": "address"
        },
        {
          "internalType": "uint256",
          "name": "amount",
          "type": "uint256"
        }
      ],
      "name": "addRewards",
      "outputs": [],
      "stateMutability": "nonpayable",
      "type": "function"
    },
    {
      "inputs": [],
      "name": "claimRewards",
      "outputs": [],
      "stateMutability": "nonpayable",
      "type": "function"
    },
    {
      "inputs": [
        {
          "internalType": "address",
          "name": "from",
          "type": "address"
        },
        {
          "internalType": "uint256",
          "name": "amount",
          "type": "uint256"
        }
      ],
      "name": "deductRewards",
      "outputs": [],
      "stateMutability": "nonpayable",
      "type": "function"
    },
    {
      "inputs": [
        {
          "internalType": "uint256",
          "name": "index",
          "type": "uint256"
        },
        {
          "internalType": "uint256",
          "name": "amount",
          "type": "uint256"
        }
      ],
      "name": "buyGoods",
      "outputs": [],
      "stateMutability": "nonpayable",
      "type": "function"
    },
    {
      "inputs": [
        {
          "internalType": "uint256",
          "name": "index",
          "type": "uint256"
        },
        {
          "internalType": "uint256",
          "name": "amount",
          "type": "uint256"
        }
      ],
      "name": "spendGoods",
      "outputs": [],
      "stateMutability": "nonpayable",
      "type": "function"
    },
    {
      "inputs": [
        {
          "internalType": "address",
          "name": "to",
          "type": "address"
        },
        {
          "internalType": "uint256",
          "name": "index",
          "type": "uint256"
        },
        {
          "internalType": "uint256",
          "name": "amount",
          "type": "uint256"
        }
      ],
      "name": "transferGoods",
      "outputs": [],
      "stateMutability": "nonpayable",
      "type": "function"
    }
  ],
  "bytecode": "0x60a06040523480156200001157600080fd5b5060405162003c1838038062003c18833981810160405281019062000037919062000245565b818181600390816200004a919062000515565b5080600490816200005c919062000515565b5050506200006f620000aa60201b60201c565b73ffffffffffffffffffffffffffffffffffffffff1660808173ffffffffffffffffffffffffffffffffffffffff16815250505050620005fc565b600033905090565b6000604051905090565b600080fd5b600080fd5b600080fd5b600080fd5b6000601f19601f8301169050919050565b7f4e487b7100000000000000000000000000000000000000000000000000000000600052604160045260246000fd5b6200011b82620000d0565b810181811067ffffffffffffffff821117156200013d576200013c620000e1565b5b80604052505050565b600062000152620000b2565b905062000160828262000110565b919050565b600067ffffffffffffffff821115620001835762000182620000e1565b5b6200018e82620000d0565b9050602081019050919050565b60005b83811015620001bb5780820151818401526020810190506200019e565b60008484015250505050565b6000620001de620001d88462000165565b62000146565b905082815260208101848484011115620001fd57620001fc620000cb565b5b6200020a8482856200019b565b509392505050565b600082601f8301126200022a5762000229620000c6565b5b81516200023c848260208601620001c7565b91505092915050565b600080604083850312156200025f576200025e620000bc565b5b600083015167ffffffffffffffff81111562000280576200027f620000c1565b5b6200028e8582860162000212565b925050602083015167ffffffffffffffff811115620002b257620002b1620000c1565b5b620002c08582860162000212565b9150509250929050565b600081519050919050565b7f4e487b7100000000000000000000000000000000000000000000000000000000600052602260045260246000fd5b600060028204905060018216806200031d57607f821691505b602082108103620003335762000332620002d5565b5b50919050565b60008190508160005260206000209050919050565b60006020601f8301049050919050565b600082821b905092915050565b6000600883026200039d7fffffffffffffffffffffffffffffffffffffffffffffffffffffffffffffffff826200035e565b620003a986836200035e565b95508019841693508086168417925050509392505050565b6000819050919050565b6000819050919050565b6000620003f6620003f0620003ea84620003c1565b620003cb565b620003c1565b9050919050565b6000819050919050565b6200041283620003d5565b6200042a6200042182620003fd565b8484546200036b565b825550505050565b600090565b6200044162000432565b6200044e81848462000407565b505050565b5b8181101562000476576200046a60008262000437565b60018101905062000454565b5050565b601f821115620004c5576200048f8162000339565b6200049a846200034e565b81016020851015620004aa578190505b620004c2620004b9856200034e565b83018262000453565b50505b505050565b600082821c905092915050565b6000620004ea60001984600802620004ca565b1980831691505092915050565b6000620005058383620004d7565b9150826002028217905092915050565b6200052082620002ca565b67ffffffffffffffff8111156200053c576200053b620000e1565b5b62000548825462000304565b620005558282856200047a565b600060209050601f8311600181146200058d576000841562000578578287015190505b620005848582620004f7565b865550620005f4565b601f1984166200059d8662000339565b60005b82811015620005c757848901518255600182019150602085019450602081019050620005a0565b86831015620005e75784890151620005e3601f891682620004d7565b8355505b6001600288020188555050505b505050505050565b6080516135dd6200063b6000396000818161062201528181610b4f01528181610c9201528181610e5301528181610fa5015261131a01526135dd6000f3fe608060405234801561001057600080fd5b50600436106101735760003560e01c80636f00b992116100de578063a9fc507b11610097578063e19a54fc11610071578063e19a54fc1461045e578063e9fa63d41461047a578063ed7fca0114610498578063f4699d16146104b457610173565b8063a9fc507b146103f6578063cc76888214610412578063dd62ed3e1461042e57610173565b80636f00b9921461030e57806370a082311461032a578063893d20e81461035a57806395d89b4114610378578063a457c2d714610396578063a9059cbb146103c657610173565b8063313ce56711610130578063313ce5671461024e578063372500ab1461026c5780633884ea1d1461027657806339509351146102a65780634565000e146102d65780636687c28b146102f257610173565b80630572b0cc1461017857806306fdde0314610196578063095ea7b3146101b457806318160ddd146101e457806323b872dd146102025780632f1487f714610232575b600080fd5b6101806104e4565b60405161018d9190612053565b60405180910390f35b61019e610532565b6040516101ab91906120fe565b60405180910390f35b6101ce60048036038101906101c991906121be565b6105c4565b6040516101db9190612219565b60405180910390f35b6101ec6105e7565b6040516101f99190612053565b60405180910390f35b61021c60048036038101906102179190612234565b6105f1565b6040516102299190612219565b60405180910390f35b61024c60048036038101906102479190612287565b610620565b005b610256610763565b60405161026391906122e3565b60405180910390f35b61027461076c565b005b610290600480360381019061028b91906122fe565b61089a565b60405161029d91906123d4565b60405180910390f35b6102c060048036038101906102bb91906121be565b6109c3565b6040516102cd9190612219565b60405180910390f35b6102f060048036038101906102eb9190612287565b6109fa565b005b61030c60048036038101906103079190612287565b610b4d565b005b610328600480360381019061032391906121be565b610c90565b005b610344600480360381019061033f91906123f6565b610e07565b6040516103519190612053565b60405180910390f35b610362610e4f565b60405161036f9190612432565b60405180910390f35b610380610e77565b60405161038d91906120fe565b60405180910390f35b6103b060048036038101906103ab91906121be565b610f09565b6040516103bd9190612219565b60405180910390f35b6103e060048036038101906103db91906121be565b610f80565b6040516103ed9190612219565b60405180910390f35b610410600480360381019061040b91906121be565b610fa3565b005b61042c6004803603810190610427919061244d565b611092565b005b610448600480360381019061044391906124a0565b611291565b6040516104559190612053565b60405180910390f35b61047860048036038101906104739190612615565b611318565b005b610482611465565b60405161048f9190612796565b60405180910390f35b6104b260048036038101906104ad9190612287565b61156a565b005b6104ce60048036038101906104c991906127b8565b6117be565b6040516104db9190612053565b60405180910390f35b6000600760006104f2611819565b73ffffffffffffffffffffffffffffffffffffffff1673ffffffffffffffffffffffffffffffffffffffff16815260200190815260200160002054905090565b60606003805461054190612827565b80601f016020809104026020016040519081016040528092919081815260200182805461056d90612827565b80156105ba5780601f1061058f576101008083540402835291602001916105ba565b820191906000526020600020905b81548152906001019060200180831161059d57829003601f168201915b5050505050905090565b6000806105cf611819565b90506105dc818585611821565b600191505092915050565b6000600254905090565b6000806105fc611819565b90506106098582856119ea565b610614858585611a76565b60019150509392505050565b7f000000000000000000000000000000000000000000000000000000000000000073ffffffffffffffffffffffffffffffffffffffff1661065f611819565b73ffffffffffffffffffffffffffffffffffffffff16146106b5576040517f08c379a00000000000000000000000000000000000000000000000000000000081526004016106ac906128ca565b60405180910390fd5b60058054905082106106fc576040517f08c379a00000000000000000000000000000000000000000000000000000000081526004016106f390612936565b60405180910390fd5b806005838154811061071157610710612956565b5b9060005260206000209060030201600201819055507f4a92198135f606d447367cd6bb22e3bf9f8379c24f44c0bc971d53e8bee3817a8282604051610757929190612985565b60405180910390a15050565b60006009905090565b60006007600061077a611819565b73ffffffffffffffffffffffffffffffffffffffff1673ffffffffffffffffffffffffffffffffffffffff168152602001908152602001600020549050600081116107fa576040517f08c379a00000000000000000000000000000000000000000000000000000000081526004016107f1906129fa565b60405180910390fd5b600060076000610808611819565b73ffffffffffffffffffffffffffffffffffffffff1673ffffffffffffffffffffffffffffffffffffffff16815260200190815260200160002081905550610857610851611819565b82611cec565b7f91d3cfdd28f012f5f26efe5e3c6a156e39cc7caa6288f227e934d04828e483ce610880611819565b8260405161088f929190612a1a565b60405180910390a150565b6108a2612019565b60058054905082106108e9576040517f08c379a00000000000000000000000000000000000000000000000000000000081526004016108e090612936565b60405180910390fd5b600582815481106108fd576108fc612956565b5b906000526020600020906003020160405180606001604052908160008201805461092690612827565b80601f016020809104026020016040519081016040528092919081815260200182805461095290612827565b801561099f5780601f106109745761010080835404028352916020019161099f565b820191906000526020600020905b81548152906001019060200180831161098257829003601f168201915b50505050508152602001600182015481526020016002820154815250509050919050565b6000806109ce611819565b90506109ef8185856109e08589611291565b6109ea9190612a72565b611821565b600191505092915050565b6005805490508210610a41576040517f08c379a0000000000000000000000000000000000000000000000000000000008152600401610a3890612936565b60405180910390fd5b600660008381526020019081526020016000206000610a5e611819565b73ffffffffffffffffffffffffffffffffffffffff1673ffffffffffffffffffffffffffffffffffffffff16815260200190815260200160002054811115610adb576040517f08c379a0000000000000000000000000000000000000000000000000000000008152600401610ad290612b18565b60405180910390fd5b80600660008481526020019081526020016000206000610af9611819565b73ffffffffffffffffffffffffffffffffffffffff1673ffffffffffffffffffffffffffffffffffffffff1681526020019081526020016000206000828254610b429190612b38565b925050819055505050565b7f000000000000000000000000000000000000000000000000000000000000000073ffffffffffffffffffffffffffffffffffffffff16610b8c611819565b73ffffffffffffffffffffffffffffffffffffffff1614610be2576040517f08c379a0000000000000000000000000000000000000000000000000000000008152600401610bd9906128ca565b60405180910390fd5b6005805490508210610c29576040517f08c379a0000000000000000000000000000000000000000000000000000000008152600401610c2090612936565b60405180910390fd5b8060058381548110610c3e57610c3d612956565b5b9060005260206000209060030201600101819055507fd63ab14d8896675d569af1e91087cc7721813ad1a35aef9f45b03061bfe3bbdb8282604051610c84929190612985565b60405180910390a15050565b7f000000000000000000000000000000000000000000000000000000000000000073ffffffffffffffffffffffffffffffffffffffff16610ccf611819565b73ffffffffffffffffffffffffffffffffffffffff1614610d25576040517f08c379a0000000000000000000000000000000000000000000000000000000008152600401610d1c906128ca565b60405180910390fd5b6000600760008473ffffffffffffffffffffffffffffffffffffffff1673ffffffffffffffffffffffffffffffffffffffff16815260200190815260200160002054905081811015610dac576040517f08c379a0000000000000000000000000000000000000000000000000000000008152600401610da390612bde565b60405180910390fd5b81600760008573ffffffffffffffffffffffffffffffffffffffff1673ffffffffffffffffffffffffffffffffffffffff1681526020019081526020016000206000828254610dfb9190612b38565b92505081905550505050565b60008060008373ffffffffffffffffffffffffffffffffffffffff1673ffffffffffffffffffffffffffffffffffffffff168152602001908152602001600020549050919050565b60007f0000000000000000000000000000000000000000000000000000000000000000905090565b606060048054610e8690612827565b80601f0160208091040260200160405190810160405280929190818152602001828054610eb290612827565b8015610eff5780601f10610ed457610100808354040283529160200191610eff565b820191906000526020600020905b815481529060010190602001808311610ee257829003601f168201915b5050505050905090565b600080610f14611819565b90506000610f228286611291565b905083811015610f67576040517f08c379a0000000000000000000000000000000000000000000000000000000008152600401610f5e90612c70565b60405180910390fd5b610f748286868403611821565b60019250505092915050565b600080610f8b611819565b9050610f98818585611a76565b600191505092915050565b7f000000000000000000000000000000000000000000000000000000000000000073ffffffffffffffffffffffffffffffffffffffff16610fe2611819565b73ffffffffffffffffffffffffffffffffffffffff1614611038576040517f08c379a000000000000000000000000000000000000000000000000000000000815260040161102f906128ca565b60405180910390fd5b80600760008473ffffffffffffffffffffffffffffffffffffffff1673ffffffffffffffffffffffffffffffffffffffff16815260200190815260200160002060008282546110879190612a72565b925050819055505050565b60058054905082106110d9576040517f08c379a00000000000000000000000000000000000000000000000000000000081526004016110d090612936565b60405180910390fd5b6006600083815260200190815260200160002060006110f6611819565b73ffffffffffffffffffffffffffffffffffffffff1673ffffffffffffffffffffffffffffffffffffffff16815260200190815260200160002054811115611173576040517f08c379a000000000000000000000000000000000000000000000000000000000815260040161116a90612b18565b60405180910390fd5b80600660008481526020019081526020016000206000611191611819565b73ffffffffffffffffffffffffffffffffffffffff1673ffffffffffffffffffffffffffffffffffffffff16815260200190815260200160002060008282546111da9190612b38565b92505081905550806006600084815260200190815260200160002060008573ffffffffffffffffffffffffffffffffffffffff1673ffffffffffffffffffffffffffffffffffffffff16815260200190815260200160002060008282546112419190612a72565b925050819055507f91b4be84e9cd547e33dc5a0b21abd86d58b79b1ba2728370ecafd876bcaa43c2611271611819565b8484846040516112849493929190612c90565b60405180910390a1505050565b6000600160008473ffffffffffffffffffffffffffffffffffffffff1673ffffffffffffffffffffffffffffffffffffffff16815260200190815260200160002060008373ffffffffffffffffffffffffffffffffffffffff1673ffffffffffffffffffffffffffffffffffffffff16815260200190815260200160002054905092915050565b7f000000000000000000000000000000000000000000000000000000000000000073ffffffffffffffffffffffffffffffffffffffff16611357611819565b73ffffffffffffffffffffffffffffffffffffffff16146113ad576040517f08c379a00000000000000000000000000000000000000000000000000000000081526004016113a4906128ca565b60405180910390fd5b600060405180606001604052808581526020018481526020018381525090506005819080600181540180825580915050600190039060005260206000209060030201600090919091909150600082015181600001908161140d9190612e81565b50602082015181600101556040820151816002015550507ff2577f431f35ca13e98f0f9d65a38478d8d36eaa88abbb5eb5a997762611b51784848460405161145793929190612f53565b60405180910390a150505050565b60606005805480602002602001604051908101604052809291908181526020016000905b8282101561156157838290600052602060002090600302016040518060600160405290816000820180546114bc90612827565b80601f01602080910402602001604051908101604052809291908181526020018280546114e890612827565b80156115355780601f1061150a57610100808354040283529160200191611535565b820191906000526020600020905b81548152906001019060200180831161151857829003601f168201915b505050505081526020016001820154815260200160028201548152505081526020019060010190611489565b50505050905090565b60058054905082106115b1576040517f08c379a00000000000000000000000000000000000000000000000000000000081526004016115a890612936565b60405180910390fd5b600582815481106115c5576115c4612956565b5b906000526020600020906003020160020154811115611619576040517f08c379a000000000000000000000000000000000000000000000000000000000815260040161161090613003565b60405180910390fd5b600081600584815481106116305761162f612956565b5b90600052602060002090600302016001015461164c9190613023565b90508061165f61165a611819565b610e07565b10156116a0576040517f08c379a0000000000000000000000000000000000000000000000000000000008152600401611697906130b1565b60405180910390fd5b6116b16116ab611819565b82611e42565b81600584815481106116c6576116c5612956565b5b906000526020600020906003020160020160008282546116e69190612b38565b925050819055508160066000858152602001908152602001600020600061170b611819565b73ffffffffffffffffffffffffffffffffffffffff1673ffffffffffffffffffffffffffffffffffffffff16815260200190815260200160002060008282546117549190612a72565b925050819055507f4a92198135f606d447367cd6bb22e3bf9f8379c24f44c0bc971d53e8bee3817a836005858154811061179157611790612956565b5b9060005260206000209060030201600201546040516117b1929190612985565b60405180910390a1505050565b60006006600084815260200190815260200160002060008373ffffffffffffffffffffffffffffffffffffffff1673ffffffffffffffffffffffffffffffffffffffff16815260200190815260200160002054905092915050565b600033905090565b600073ffffffffffffffffffffffffffffffffffffffff168373ffffffffffffffffffffffffffffffffffffffff1603611890576040517f08c379a000000000000000000000000000000000000000000000000000000000815260040161188790613143565b60405180910390fd5b600073ffffffffffffffffffffffffffffffffffffffff168273ffffffffffffffffffffffffffffffffffffffff16036118ff576040517f08c379a00000000000000000000000000000000000000000000000000000000081526004016118f6906131d5565b60405180910390fd5b80600160008573ffffffffffffffffffffffffffffffffffffffff1673ffffffffffffffffffffffffffffffffffffffff16815260200190815260200160002060008473ffffffffffffffffffffffffffffffffffffffff1673ffffffffffffffffffffffffffffffffffffffff168152602001908152602001600020819055508173ffffffffffffffffffffffffffffffffffffffff168373ffffffffffffffffffffffffffffffffffffffff167f8c5be1e5ebec7d5bd14f71427d1e84f3dd0314c0f7b2291e5b200ac8c7c3b925836040516119dd9190612053565b60405180910390a3505050565b60006119f68484611291565b90507fffffffffffffffffffffffffffffffffffffffffffffffffffffffffffffffff8114611a705781811015611a62576040517f08c379a0000000000000000000000000000000000000000000000000000000008152600401611a5990613241565b60405180910390fd5b611a6f8484848403611821565b5b50505050565b600073ffffffffffffffffffffffffffffffffffffffff168373ffffffffffffffffffffffffffffffffffffffff1603611ae5576040517f08c379a0000000000000000000000000000000000000000000000000000000008152600401611adc906132d3565b60405180910390fd5b600073ffffffffffffffffffffffffffffffffffffffff168273ffffffffffffffffffffffffffffffffffffffff1603611b54576040517f08c379a0000000000000000000000000000000000000000000000000000000008152600401611b4b90613365565b60405180910390fd5b611b5f83838361200f565b60008060008573ffffffffffffffffffffffffffffffffffffffff1673ffffffffffffffffffffffffffffffffffffffff16815260200190815260200160002054905081811015611be5576040517f08c379a0000000000000000000000000000000000000000000000000000000008152600401611bdc906133f7565b60405180910390fd5b8181036000808673ffffffffffffffffffffffffffffffffffffffff1673ffffffffffffffffffffffffffffffffffffffff16815260200190815260200160002081905550816000808573ffffffffffffffffffffffffffffffffffffffff1673ffffffffffffffffffffffffffffffffffffffff168152602001908152602001600020600082825401925050819055508273ffffffffffffffffffffffffffffffffffffffff168473ffffffffffffffffffffffffffffffffffffffff167fddf252ad1be2c89b69c2b068fc378daa952ba7f163c4a11628f55a4df523b3ef84604051611cd39190612053565b60405180910390a3611ce6848484612014565b50505050565b600073ffffffffffffffffffffffffffffffffffffffff168273ffffffffffffffffffffffffffffffffffffffff1603611d5b576040517f08c379a0000000000000000000000000000000000000000000000000000000008152600401611d5290613463565b60405180910390fd5b611d676000838361200f565b8060026000828254611d799190612a72565b92505081905550806000808473ffffffffffffffffffffffffffffffffffffffff1673ffffffffffffffffffffffffffffffffffffffff168152602001908152602001600020600082825401925050819055508173ffffffffffffffffffffffffffffffffffffffff16600073ffffffffffffffffffffffffffffffffffffffff167fddf252ad1be2c89b69c2b068fc378daa952ba7f163c4a11628f55a4df523b3ef83604051611e2a9190612053565b60405180910390a3611e3e60008383612014565b5050565b600073ffffffffffffffffffffffffffffffffffffffff168273ffffffffffffffffffffffffffffffffffffffff1603611eb1576040517f08c379a0000000000000000000000000000000000000000000000000000000008152600401611ea8906134f5565b60405180910390fd5b611ebd8260008361200f565b60008060008473ffffffffffffffffffffffffffffffffffffffff1673ffffffffffffffffffffffffffffffffffffffff16815260200190815260200160002054905081811015611f43576040517f08c379a0000000000000000000000000000000000000000000000000000000008152600401611f3a90613587565b60405180910390fd5b8181036000808573ffffffffffffffffffffffffffffffffffffffff1673ffffffffffffffffffffffffffffffffffffffff1681526020019081526020016000208190555081600260008282540392505081905550600073ffffffffffffffffffffffffffffffffffffffff168373ffffffffffffffffffffffffffffffffffffffff167fddf252ad1be2c89b69c2b068fc378daa952ba7f163c4a11628f55a4df523b3ef84604051611ff69190612053565b60405180910390a361200a83600084612014565b505050565b505050565b505050565b60405180606001604052806060815260200160008152602001600081525090565b6000819050919050565b61204d8161203a565b82525050565b60006020820190506120686000830184612044565b92915050565b600081519050919050565b600082825260208201905092915050565b60005b838110156120a857808201518184015260208101905061208d565b60008484015250505050565b6000601f19601f8301169050919050565b60006120d08261206e565b6120da8185612079565b93506120ea81856020860161208a565b6120f3816120b4565b840191505092915050565b6000602082019050818103600083015261211881846120c5565b905092915050565b6000604051905090565b600080fd5b600080fd5b600073ffffffffffffffffffffffffffffffffffffffff82169050919050565b600061215f82612134565b9050919050565b61216f81612154565b811461217a57600080fd5b50565b60008135905061218c81612166565b92915050565b61219b8161203a565b81146121a657600080fd5b50565b6000813590506121b881612192565b92915050565b600080604083850312156121d5576121d461212a565b5b60006121e38582860161217d565b92505060206121f4858286016121a9565b9150509250929050565b60008115159050919050565b612213816121fe565b82525050565b600060208201905061222e600083018461220a565b92915050565b60008060006060848603121561224d5761224c61212a565b5b600061225b8682870161217d565b935050602061226c8682870161217d565b925050604061227d868287016121a9565b9150509250925092565b6000806040838503121561229e5761229d61212a565b5b60006122ac858286016121a9565b92505060206122bd858286016121a9565b9150509250929050565b600060ff82169050919050565b6122dd816122c7565b82525050565b60006020820190506122f860008301846122d4565b92915050565b6000602082840312156123145761231361212a565b5b6000612322848285016121a9565b91505092915050565b600082825260208201905092915050565b60006123478261206e565b612351818561232b565b935061236181856020860161208a565b61236a816120b4565b840191505092915050565b61237e8161203a565b82525050565b600060608301600083015184820360008601526123a1828261233c565b91505060208301516123b66020860182612375565b5060408301516123c96040860182612375565b508091505092915050565b600060208201905081810360008301526123ee8184612384565b905092915050565b60006020828403121561240c5761240b61212a565b5b600061241a8482850161217d565b91505092915050565b61242c81612154565b82525050565b60006020820190506124476000830184612423565b92915050565b6000806000606084860312156124665761246561212a565b5b60006124748682870161217d565b9350506020612485868287016121a9565b9250506040612496868287016121a9565b9150509250925092565b600080604083850312156124b7576124b661212a565b5b60006124c58582860161217d565b92505060206124d68582860161217d565b9150509250929050565b600080fd5b600080fd5b7f4e487b7100000000000000000000000000000000000000000000000000000000600052604160045260246000fd5b612522826120b4565b810181811067ffffffffffffffff82111715612541576125406124ea565b5b80604052505050565b6000612554612120565b90506125608282612519565b919050565b600067ffffffffffffffff8211156125805761257f6124ea565b5b612589826120b4565b9050602081019050919050565b82818337600083830152505050565b60006125b86125b384612565565b61254a565b9050828152602081018484840111156125d4576125d36124e5565b5b6125df848285612596565b509392505050565b600082601f8301126125fc576125fb6124e0565b5b813561260c8482602086016125a5565b91505092915050565b60008060006060848603121561262e5761262d61212a565b5b600084013567ffffffffffffffff81111561264c5761264b61212f565b5b612658868287016125e7565b9350506020612669868287016121a9565b925050604061267a868287016121a9565b9150509250925092565b600081519050919050565b600082825260208201905092915050565b6000819050602082019050919050565b600060608301600083015184820360008601526126cd828261233c565b91505060208301516126e26020860182612375565b5060408301516126f56040860182612375565b508091505092915050565b600061270c83836126b0565b905092915050565b6000602082019050919050565b600061272c82612684565b612736818561268f565b935083602082028501612748856126a0565b8060005b8581101561278457848403895281516127658582612700565b945061277083612714565b925060208a0199505060018101905061274c565b50829750879550505050505092915050565b600060208201905081810360008301526127b08184612721565b905092915050565b600080604083850312156127cf576127ce61212a565b5b60006127dd858286016121a9565b92505060206127ee8582860161217d565b9150509250929050565b7f4e487b7100000000000000000000000000000000000000000000000000000000600052602260045260246000fd5b6000600282049050600182168061283f57607f821691505b602082108103612852576128516127f8565b5b50919050565b7f47616d65546f6b656e3a2043616c6c6572206973206e6f7420746865206f776e60008201527f6572000000000000000000000000000000000000000000000000000000000000602082015250565b60006128b4602283612079565b91506128bf82612858565b604082019050919050565b600060208201905081810360008301526128e3816128a7565b9050919050565b7f47616d65546f6b656e3a20496e76616c696420676f6f647320696e6465780000600082015250565b6000612920601e83612079565b915061292b826128ea565b602082019050919050565b6000602082019050818103600083015261294f81612913565b9050919050565b7f4e487b7100000000000000000000000000000000000000000000000000000000600052603260045260246000fd5b600060408201905061299a6000830185612044565b6129a76020830184612044565b9392505050565b7f47616d65546f6b656e3a204e6f207265776172647320746f20636c61696d0000600082015250565b60006129e4601e83612079565b91506129ef826129ae565b602082019050919050565b60006020820190508181036000830152612a13816129d7565b9050919050565b6000604082019050612a2f6000830185612423565b612a3c6020830184612044565b9392505050565b7f4e487b7100000000000000000000000000000000000000000000000000000000600052601160045260246000fd5b6000612a7d8261203a565b9150612a888361203a565b9250828201905080821115612aa057612a9f612a43565b5b92915050565b7f47616d65546f6b656e3a20496e73756666696369656e7420676f6f6473206f7760008201527f6e65640000000000000000000000000000000000000000000000000000000000602082015250565b6000612b02602383612079565b9150612b0d82612aa6565b604082019050919050565b60006020820190508181036000830152612b3181612af5565b9050919050565b6000612b438261203a565b9150612b4e8361203a565b9250828203905081811115612b6657612b65612a43565b5b92915050565b7f47616d65546f6b656e3a20496e73756666696369656e7420726577617264732060008201527f62616c616e636500000000000000000000000000000000000000000000000000602082015250565b6000612bc8602783612079565b9150612bd382612b6c565b604082019050919050565b60006020820190508181036000830152612bf781612bbb565b9050919050565b7f45524332303a2064656372656173656420616c6c6f77616e63652062656c6f7760008201527f207a65726f000000000000000000000000000000000000000000000000000000602082015250565b6000612c5a602583612079565b9150612c6582612bfe565b604082019050919050565b60006020820190508181036000830152612c8981612c4d565b9050919050565b6000608082019050612ca56000830187612423565b612cb26020830186612423565b612cbf6040830185612044565b612ccc6060830184612044565b95945050505050565b60008190508160005260206000209050919050565b60006020601f8301049050919050565b600082821b905092915050565b600060088302612d377fffffffffffffffffffffffffffffffffffffffffffffffffffffffffffffffff82612cfa565b612d418683612cfa565b95508019841693508086168417925050509392505050565b6000819050919050565b6000612d7e612d79612d748461203a565b612d59565b61203a565b9050919050565b6000819050919050565b612d9883612d63565b612dac612da482612d85565b848454612d07565b825550505050565b600090565b612dc1612db4565b612dcc818484612d8f565b505050565b5b81811015612df057612de5600082612db9565b600181019050612dd2565b5050565b601f821115612e3557612e0681612cd5565b612e0f84612cea565b81016020851015612e1e578190505b612e32612e2a85612cea565b830182612dd1565b50505b505050565b600082821c905092915050565b6000612e5860001984600802612e3a565b1980831691505092915050565b6000612e718383612e47565b9150826002028217905092915050565b612e8a8261206e565b67ffffffffffffffff811115612ea357612ea26124ea565b5b612ead8254612827565b612eb8828285612df4565b600060209050601f831160018114612eeb5760008415612ed9578287015190505b612ee38582612e65565b865550612f4b565b601f198416612ef986612cd5565b60005b82811015612f2157848901518255600182019150602085019450602081019050612efc565b86831015612f3e5784890151612f3a601f891682612e47565b8355505b6001600288020188555050505b505050505050565b60006060820190508181036000830152612f6d81866120c5565b9050612f7c6020830185612044565b612f896040830184612044565b949350505050565b7f47616d65546f6b656e3a20496e73756666696369656e7420676f6f647320616d60008201527f6f756e7400000000000000000000000000000000000000000000000000000000602082015250565b6000612fed602483612079565b9150612ff882612f91565b604082019050919050565b6000602082019050818103600083015261301c81612fe0565b9050919050565b600061302e8261203a565b91506130398361203a565b92508282026130478161203a565b9150828204841483151761305e5761305d612a43565b5b5092915050565b7f47616d65546f6b656e3a20496e73756666696369656e742062616c616e636500600082015250565b600061309b601f83612079565b91506130a682613065565b602082019050919050565b600060208201905081810360008301526130ca8161308e565b9050919050565b7f45524332303a20617070726f76652066726f6d20746865207a65726f2061646460008201527f7265737300000000000000000000000000000000000000000000000000000000602082015250565b600061312d602483612079565b9150613138826130d1565b604082019050919050565b6000602082019050818103600083015261315c81613120565b9050919050565b7f45524332303a20617070726f766520746f20746865207a65726f20616464726560008201527f7373000000000000000000000000000000000000000000000000000000000000602082015250565b60006131bf602283612079565b91506131ca82613163565b604082019050919050565b600060208201905081810360008301526131ee816131b2565b9050919050565b7f45524332303a20696e73756666696369656e7420616c6c6f77616e6365000000600082015250565b600061322b601d83612079565b9150613236826131f5565b602082019050919050565b6000602082019050818103600083015261325a8161321e565b9050919050565b7f45524332303a207472616e736665722066726f6d20746865207a65726f20616460008201527f6472657373000000000000000000000000000000000000000000000000000000602082015250565b60006132bd602583612079565b91506132c882613261565b604082019050919050565b600060208201905081810360008301526132ec816132b0565b9050919050565b7f45524332303a207472616e7366657220746f20746865207a65726f206164647260008201527f6573730000000000000000000000000000000000000000000000000000000000602082015250565b600061334f602383612079565b915061335a826132f3565b604082019050919050565b6000602082019050818103600083015261337e81613342565b9050919050565b7f45524332303a207472616e7366657220616d6f756e742065786365656473206260008201527f616c616e63650000000000000000000000000000000000000000000000000000602082015250565b60006133e1602683612079565b91506133ec82613385565b604082019050919050565b60006020820190508181036000830152613410816133d4565b9050919050565b7f45524332303a206d696e7420746f20746865207a65726f206164647265737300600082015250565b600061344d601f83612079565b915061345882613417565b602082019050919050565b6000602082019050818103600083015261347c81613440565b9050919050565b7f45524332303a206275726e2066726f6d20746865207a65726f2061646472657360008201527f7300000000000000000000000000000000000000000000000000000000000000602082015250565b60006134df602183612079565b91506134ea82613483565b604082019050919050565b6000602082019050818103600083015261350e816134d2565b9050919050565b7f45524332303a206275726e20616d6f756e7420657863656564732062616c616e60008201527f6365000000000000000000000000000000000000000000000000000000000000602082015250565b6000613571602283612079565b915061357c82613515565b604082019050919050565b600060208201905081810360008301526135a081613564565b905091905056fea26469706673582212207fb3e6a6b394ccd8b34dc8dc11be994f5a7839ddfb421633a027857322366f6064736f6c63430008110033",
  "immutableReferences": {
    "615": [
      {
        "length": 32,
        "start": 1570
      },
      {
        "length": 32,
        "start": 2895
      },
      {
        "length": 32,
        "start": 3218
      },
      {
        "length": 32,
        "start": 3667
      },
      {
        "length": 32,
        "start": 4005
      },
      {
        "length": 32,
        "start": 4890
      }
    ]
  },
  "source": "// SPDX-License-Identifier: MIT\r\npragma solidity ^0.8.17;\r\n\r\nimport \"./ERC20.sol\";\r\n\r\ncontract GameToken is ERC20 {\r\n    address immutable owner;\r\n\r\n    struct Goods {\r\n        string name;\r\n        uint256 costPerItem;\r\n        uint256 inStockAmount;\r\n    }\r\n    Goods[] goods;\r\n\r\n    mapping(uint256 => mapping(address => uint256)) ownedQuantity;\r\n    mapping(address => uint256) private rewards;\r\n\r\n    constructor(string memory name_, string memory symbol_) ERC20(name_, symbol_) {\r\n        owner = _msgSender();\r\n    }\r\n\r\n    function getOwner() public view returns (address) {\r\n        return owner;\r\n    }\r\n\r\n    function decimals() public view virtual override returns (uint8) {\r\n        return 9;\r\n    }\r\n\r\n    function getAllGoods() view public returns(Goods[] memory) {\r\n        return goods;\r\n    }\r\n\r\n    function getExactGoods(uint256 index) view public returns(Goods memory) {\r\n        require(index < goods.length, \"GameToken: Invalid goods index\");\r\n        return goods[index];\r\n    }\r\n\r\n    function getOwnedQuantity(uint256 index, address goodsOwner) public view returns (uint256) {\r\n        return ownedQuantity[index][goodsOwner];\r\n    }\r\n\r\n    function getRewards() public view returns (uint256) {\r\n        return rewards[_msgSender()];\r\n    }\r\n\r\n    function addNewGoods(string memory name, uint256 costPerItem, uint256 inStockAmount) public onlyOwner {\r\n        Goods memory newGoods = Goods(name, costPerItem, inStockAmount);\r\n        goods.push(newGoods);\r\n        emit newGoodsAdded(name, costPerItem, inStockAmount);\r\n    }\r\n\r\n    function changeGoodsAmount(uint256 index, uint256 amount) public onlyOwner {\r\n        require(index < goods.length, \"GameToken: Invalid goods index\");\r\n        goods[index].inStockAmount = amount;\r\n        emit goodsAmountChanged(index, amount);\r\n    }\r\n\r\n    function changeGoodsPrice(uint256 index, uint256 price) public onlyOwner {\r\n        require(index < goods.length, \"GameToken: Invalid goods index\");\r\n        goods[index].costPerItem = price;\r\n        emit goodsPriceChanged(index, price);\r\n    }\r\n\r\n    function addRewards(address user, uint256 amount) public onlyOwner {\r\n        rewards[user] += amount;\r\n    }\r\n\r\n    function claimRewards() public {\r\n        uint256 rewardAmount = rewards[_msgSender()];\r\n        require(rewardAmount > 0, \"GameToken: No rewards to claim\");\r\n\r\n        rewards[_msgSender()] = 0;\r\n        _mint(_msgSender(), rewardAmount);\r\n        emit rewardsClaimed(_msgSender(), rewardAmount);\r\n    }\r\n\r\n    function deductRewards(address from, uint256 amount) public onlyOwner {\r\n        uint256 rewardsAmount = rewards[from];\r\n        require(rewardsAmount >= amount, \"GameToken: Insufficient rewards balance\");\r\n\r\n        rewards[from] -= amount;\r\n    }\r\n\r\n    function buyGoods(uint256 index, uint256 amount) public {\r\n        require(index < goods.length, \"GameToken: Invalid goods index\");\r\n        require(amount <= goods[index].inStockAmount, \"GameToken: Insufficient goods amount\");\r\n        uint256 totalCost = goods[index].costPerItem * amount;\r\n        require(balanceOf(_msgSender()) >= totalCost, \"GameToken: Insufficient balance\");\r\n\r\n        _burn(_msgSender(), totalCost);\r\n        goods[index].inStockAmount -= amount;\r\n        ownedQuantity[index][_msgSender()] += amount;\r\n        emit goodsAmountChanged(index, goods[index].inStockAmount);\r\n    }\r\n\r\n    function spendGoods(uint256 index, uint256 amount) public {\r\n        require(index < goods.length, \"GameToken: Invalid goods index\");\r\n        require(amount <= ownedQuantity[index][_msgSender()], \"GameToken: Insufficient goods owned\");\r\n\r\n        ownedQuantity[index][_msgSender()] -= amount;\r\n    }\r\n\r\n    function transferGoods(address to, uint256 index, uint256 amount) public {\r\n        require(index < goods.length, \"GameToken: Invalid goods index\");\r\n        require(amount <= ownedQuantity[index][_msgSender()], \"GameToken: Insufficient goods owned\");\r\n\r\n        ownedQuantity[index][_msgSender()] -= amount;\r\n        ownedQuantity[index][to] += amount;\r\n        emit GoodsTransferred(_msgSender(), to, index, amount);\r\n    }\r\n\r\n    modifier onlyOwner() {\r\n        require(_msgSender() == owner, \"GameToken: Caller is not the owner\");\r\n        _;\r\n    }\r\n\r\n    event newGoodsAdded(string name, uint256 costPerItem, uint256 inStockAmount);\r\n    event goodsAmountChanged(uint256 index, uint256 newAmount);\r\n    event goodsPriceChanged(uint256 index, uint256 newPrice);\r\n    event rewardsClaimed(address to, uint256 amount);\r\n    event GoodsTransferred(address from, address to, uint256 index, uint256 amount);\r\n}\r\n",
  "sourcePath": "D:\\JS code\\VNTU\\Game Token\\contracts\\GameToken.sol",
  "compiler": {
    "name": "solc",
    "version": "0.8.17+commit.8df45f5f.Emscripten.clang"
  },
  "schemaVersion": "3.4.11",
  "updatedAt": "2023-05-18T02:37:26.267Z",
  "networkType": "ethereum",
  "devdoc": {
    "kind": "dev",
    "methods": {
      "allowance(address,address)": {
        "details": "See {IERC20-allowance}."
      },
      "approve(address,uint256)": {
        "details": "See {IERC20-approve}. NOTE: If `amount` is the maximum `uint256`, the allowance is not updated on `transferFrom`. This is semantically equivalent to an infinite approval. Requirements: - `spender` cannot be the zero address."
      },
      "balanceOf(address)": {
        "details": "See {IERC20-balanceOf}."
      },
      "decimals()": {
        "details": "Returns the number of decimals used to get its user representation. For example, if `decimals` equals `2`, a balance of `505` tokens should be displayed to a user as `5.05` (`505 / 10 ** 2`). Tokens usually opt for a value of 18, imitating the relationship between Ether and Wei. This is the default value returned by this function, unless it's overridden. NOTE: This information is only used for _display_ purposes: it in no way affects any of the arithmetic of the contract, including {IERC20-balanceOf} and {IERC20-transfer}."
      },
      "decreaseAllowance(address,uint256)": {
        "details": "Atomically decreases the allowance granted to `spender` by the caller. This is an alternative to {approve} that can be used as a mitigation for problems described in {IERC20-approve}. Emits an {Approval} event indicating the updated allowance. Requirements: - `spender` cannot be the zero address. - `spender` must have allowance for the caller of at least `subtractedValue`."
      },
      "increaseAllowance(address,uint256)": {
        "details": "Atomically increases the allowance granted to `spender` by the caller. This is an alternative to {approve} that can be used as a mitigation for problems described in {IERC20-approve}. Emits an {Approval} event indicating the updated allowance. Requirements: - `spender` cannot be the zero address."
      },
      "name()": {
        "details": "Returns the name of the token."
      },
      "symbol()": {
        "details": "Returns the symbol of the token, usually a shorter version of the name."
      },
      "totalSupply()": {
        "details": "See {IERC20-totalSupply}."
      },
      "transfer(address,uint256)": {
        "details": "See {IERC20-transfer}. Requirements: - `to` cannot be the zero address. - the caller must have a balance of at least `amount`."
      },
      "transferFrom(address,address,uint256)": {
        "details": "See {IERC20-transferFrom}. Emits an {Approval} event indicating the updated allowance. This is not required by the EIP. See the note at the beginning of {ERC20}. NOTE: Does not update the allowance if the current allowance is the maximum `uint256`. Requirements: - `from` and `to` cannot be the zero address. - `from` must have a balance of at least `amount`. - the caller must have allowance for ``from``'s tokens of at least `amount`."
      }
    },
    "version": 1
  },
  "userdoc": {
    "kind": "user",
    "methods": {},
    "version": 1
  }
}