{
  "contractName": "Reminder",
  "abi": [
    {
      "inputs": [],
      "stateMutability": "nonpayable",
      "type": "constructor"
    },
    {
      "anonymous": false,
      "inputs": [
        {
          "indexed": false,
          "internalType": "string",
          "name": "record",
          "type": "string"
        },
        {
          "indexed": false,
          "internalType": "uint16",
          "name": "year",
          "type": "uint16"
        },
        {
          "indexed": false,
          "internalType": "uint8",
          "name": "month",
          "type": "uint8"
        },
        {
          "indexed": false,
          "internalType": "uint8",
          "name": "day",
          "type": "uint8"
        }
      ],
      "name": "NewRecord",
      "type": "event"
    },
    {
      "anonymous": false,
      "inputs": [
        {
          "indexed": false,
          "internalType": "string",
          "name": "message",
          "type": "string"
        }
      ],
      "name": "Notification",
      "type": "event"
    },
    {
      "inputs": [],
      "name": "getOwner",
      "outputs": [
        {
          "internalType": "address",
          "name": "",
          "type": "address"
        }
      ],
      "stateMutability": "view",
      "type": "function",
      "constant": true
    },
    {
      "inputs": [],
      "name": "getRecords",
      "outputs": [
        {
          "components": [
            {
              "internalType": "uint16",
              "name": "year",
              "type": "uint16"
            },
            {
              "internalType": "uint8",
              "name": "month",
              "type": "uint8"
            },
            {
              "internalType": "uint8",
              "name": "day",
              "type": "uint8"
            },
            {
              "internalType": "string",
              "name": "message",
              "type": "string"
            }
          ],
          "internalType": "struct Reminder.Record[10]",
          "name": "",
          "type": "tuple[10]"
        }
      ],
      "stateMutability": "view",
      "type": "function",
      "constant": true
    },
    {
      "inputs": [],
      "name": "getNextIndex",
      "outputs": [
        {
          "internalType": "uint8",
          "name": "",
          "type": "uint8"
        }
      ],
      "stateMutability": "view",
      "type": "function",
      "constant": true
    },
    {
      "inputs": [],
      "name": "getRecordsMaxAmount",
      "outputs": [
        {
          "internalType": "uint8",
          "name": "",
          "type": "uint8"
        }
      ],
      "stateMutability": "pure",
      "type": "function",
      "constant": true
    },
    {
      "inputs": [],
      "name": "getTotalRecordsAdded",
      "outputs": [
        {
          "internalType": "uint256",
          "name": "",
          "type": "uint256"
        }
      ],
      "stateMutability": "view",
      "type": "function",
      "constant": true
    },
    {
      "inputs": [
        {
          "internalType": "string",
          "name": "_record",
          "type": "string"
        },
        {
          "internalType": "uint16",
          "name": "_year",
          "type": "uint16"
        },
        {
          "internalType": "uint8",
          "name": "_month",
          "type": "uint8"
        },
        {
          "internalType": "uint8",
          "name": "_day",
          "type": "uint8"
        }
      ],
      "name": "addRecord",
      "outputs": [],
      "stateMutability": "nonpayable",
      "type": "function"
    },
    {
      "inputs": [
        {
          "internalType": "uint8",
          "name": "index",
          "type": "uint8"
        }
      ],
      "name": "getRecord",
      "outputs": [
        {
          "components": [
            {
              "internalType": "uint16",
              "name": "year",
              "type": "uint16"
            },
            {
              "internalType": "uint8",
              "name": "month",
              "type": "uint8"
            },
            {
              "internalType": "uint8",
              "name": "day",
              "type": "uint8"
            },
            {
              "internalType": "string",
              "name": "message",
              "type": "string"
            }
          ],
          "internalType": "struct Reminder.Record",
          "name": "",
          "type": "tuple"
        }
      ],
      "stateMutability": "view",
      "type": "function",
      "constant": true
    }
  ],
  "bytecode": "0x60a06040526000601460006101000a81548160ff021916908360ff160217905550600060155534801561003157600080fd5b503373ffffffffffffffffffffffffffffffffffffffff1660808173ffffffffffffffffffffffffffffffffffffffff168152505060805161152161009d600039600081816101680152818161021c0152818161044b01528181610483015261064701526115216000f3fe608060405234801561001057600080fd5b506004361061007d5760003560e01c8063893d20e81161005b578063893d20e8146100ee57806389fae0b01461010c5780638eff3c291461012a57806399a7dbc2146101485761007d565b80630eb7606f146100825780633033c36c146100a05780633a48f193146100be575b600080fd5b61008a610164565b60405161009791906108ff565b60405180910390f35b6100a8610209565b6040516100b591906108ff565b60405180910390f35b6100d860048036038101906100d3919061095a565b610212565b6040516100e59190610aa6565b60405180910390f35b6100f6610447565b6040516101039190610b09565b60405180910390f35b61011461046f565b6040516101219190610b3d565b60405180910390f35b610132610479565b60405161013f9190610c71565b60405180910390f35b610162600480360381019061015d9190610df4565b610645565b005b60007f000000000000000000000000000000000000000000000000000000000000000073ffffffffffffffffffffffffffffffffffffffff163373ffffffffffffffffffffffffffffffffffffffff16146101f4576040517f08c379a00000000000000000000000000000000000000000000000000000000081526004016101eb90610efa565b60405180910390fd5b601460009054906101000a900460ff16905090565b6000600a905090565b61021a610883565b7f000000000000000000000000000000000000000000000000000000000000000073ffffffffffffffffffffffffffffffffffffffff163373ffffffffffffffffffffffffffffffffffffffff16146102a8576040517f08c379a000000000000000000000000000000000000000000000000000000000815260040161029f90610efa565b60405180910390fd5b600a8260ff16106102ee576040517f08c379a00000000000000000000000000000000000000000000000000000000081526004016102e590610f66565b60405180910390fd5b6000600a601554111561032957600a83601460009054906101000a900460ff166103189190610fb5565b6103229190611019565b905061032d565b8290505b60008160ff16600a81106103445761034361104a565b5b600202016040518060800160405290816000820160009054906101000a900461ffff1661ffff1661ffff1681526020016000820160029054906101000a900460ff1660ff1660ff1681526020016000820160039054906101000a900460ff1660ff1660ff1681526020016001820180546103bd906110a8565b80601f01602080910402602001604051908101604052809291908181526020018280546103e9906110a8565b80156104365780601f1061040b57610100808354040283529160200191610436565b820191906000526020600020905b81548152906001019060200180831161041957829003601f168201915b505050505081525050915050919050565b60007f0000000000000000000000000000000000000000000000000000000000000000905090565b6000601554905090565b6104816108b5565b7f000000000000000000000000000000000000000000000000000000000000000073ffffffffffffffffffffffffffffffffffffffff163373ffffffffffffffffffffffffffffffffffffffff161461050f576040517f08c379a000000000000000000000000000000000000000000000000000000000815260040161050690610efa565b60405180910390fd5b6000600a80602002604051908101604052809291906000905b8282101561063c578382600202016040518060800160405290816000820160009054906101000a900461ffff1661ffff1661ffff1681526020016000820160029054906101000a900460ff1660ff1660ff1681526020016000820160039054906101000a900460ff1660ff1660ff1681526020016001820180546105ab906110a8565b80601f01602080910402602001604051908101604052809291908181526020018280546105d7906110a8565b80156106245780601f106105f957610100808354040283529160200191610624565b820191906000526020600020905b81548152906001019060200180831161060757829003601f168201915b50505050508152505081526020019060010190610528565b50505050905090565b7f000000000000000000000000000000000000000000000000000000000000000073ffffffffffffffffffffffffffffffffffffffff163373ffffffffffffffffffffffffffffffffffffffff16146106d3576040517f08c379a00000000000000000000000000000000000000000000000000000000081526004016106ca90610efa565b60405180910390fd5b60405180608001604052808461ffff1681526020018360ff1681526020018260ff168152602001858152506000601460009054906101000a900460ff1660ff16600a81106107245761072361104a565b5b6002020160008201518160000160006101000a81548161ffff021916908361ffff16021790555060208201518160000160026101000a81548160ff021916908360ff16021790555060408201518160000160036101000a81548160ff021916908360ff16021790555060608201518160010190816107a29190611285565b509050507f7291c03192f6333dab0a9429d39082ad4d5637882c51e5a2da4389ee9a1a80bb848484846040516107db949392919061139f565b60405180910390a1600a6001601460009054906101000a900460ff166108019190610fb5565b61080b9190611019565b601460006101000a81548160ff021916908360ff16021790555060156000815480929190610838906113eb565b9190505550600a6015540361087d577f7d1ff22c1a82f0d8fc4f45d2aec63e679ecb08700b30f7e90ae3721d13b1f6bd604051610874906114cb565b60405180910390a15b50505050565b6040518060800160405280600061ffff168152602001600060ff168152602001600060ff168152602001606081525090565b604051806101400160405280600a905b6108cd610883565b8152602001906001900390816108c55790505090565b600060ff82169050919050565b6108f9816108e3565b82525050565b600060208201905061091460008301846108f0565b92915050565b6000604051905090565b600080fd5b600080fd5b610937816108e3565b811461094257600080fd5b50565b6000813590506109548161092e565b92915050565b6000602082840312156109705761096f610924565b5b600061097e84828501610945565b91505092915050565b600061ffff82169050919050565b61099e81610987565b82525050565b6109ad816108e3565b82525050565b600081519050919050565b600082825260208201905092915050565b60005b838110156109ed5780820151818401526020810190506109d2565b60008484015250505050565b6000601f19601f8301169050919050565b6000610a15826109b3565b610a1f81856109be565b9350610a2f8185602086016109cf565b610a38816109f9565b840191505092915050565b6000608083016000830151610a5b6000860182610995565b506020830151610a6e60208601826109a4565b506040830151610a8160408601826109a4565b5060608301518482036060860152610a998282610a0a565b9150508091505092915050565b60006020820190508181036000830152610ac08184610a43565b905092915050565b600073ffffffffffffffffffffffffffffffffffffffff82169050919050565b6000610af382610ac8565b9050919050565b610b0381610ae8565b82525050565b6000602082019050610b1e6000830184610afa565b92915050565b6000819050919050565b610b3781610b24565b82525050565b6000602082019050610b526000830184610b2e565b92915050565b6000600a9050919050565b600081905092915050565b6000819050919050565b6000608083016000830151610b906000860182610995565b506020830151610ba360208601826109a4565b506040830151610bb660408601826109a4565b5060608301518482036060860152610bce8282610a0a565b9150508091505092915050565b6000610be78383610b78565b905092915050565b6000602082019050919050565b6000610c0782610b58565b610c118185610b63565b935083602082028501610c2385610b6e565b8060005b85811015610c5f5784840389528151610c408582610bdb565b9450610c4b83610bef565b925060208a01995050600181019050610c27565b50829750879550505050505092915050565b60006020820190508181036000830152610c8b8184610bfc565b905092915050565b600080fd5b600080fd5b7f4e487b7100000000000000000000000000000000000000000000000000000000600052604160045260246000fd5b610cd5826109f9565b810181811067ffffffffffffffff82111715610cf457610cf3610c9d565b5b80604052505050565b6000610d0761091a565b9050610d138282610ccc565b919050565b600067ffffffffffffffff821115610d3357610d32610c9d565b5b610d3c826109f9565b9050602081019050919050565b82818337600083830152505050565b6000610d6b610d6684610d18565b610cfd565b905082815260208101848484011115610d8757610d86610c98565b5b610d92848285610d49565b509392505050565b600082601f830112610daf57610dae610c93565b5b8135610dbf848260208601610d58565b91505092915050565b610dd181610987565b8114610ddc57600080fd5b50565b600081359050610dee81610dc8565b92915050565b60008060008060808587031215610e0e57610e0d610924565b5b600085013567ffffffffffffffff811115610e2c57610e2b610929565b5b610e3887828801610d9a565b9450506020610e4987828801610ddf565b9350506040610e5a87828801610945565b9250506060610e6b87828801610945565b91505092959194509250565b600082825260208201905092915050565b7f5369676e65722073686f756c6420626520746865206f776e6572206f6620746860008201527f6520636f6e747261637400000000000000000000000000000000000000000000602082015250565b6000610ee4602a83610e77565b9150610eef82610e88565b604082019050919050565b60006020820190508181036000830152610f1381610ed7565b9050919050565b7f496e6465782065786365656473206d6178207265636f72647320616d6f756e74600082015250565b6000610f50602083610e77565b9150610f5b82610f1a565b602082019050919050565b60006020820190508181036000830152610f7f81610f43565b9050919050565b7f4e487b7100000000000000000000000000000000000000000000000000000000600052601160045260246000fd5b6000610fc0826108e3565b9150610fcb836108e3565b9250828201905060ff811115610fe457610fe3610f86565b5b92915050565b7f4e487b7100000000000000000000000000000000000000000000000000000000600052601260045260246000fd5b6000611024826108e3565b915061102f836108e3565b92508261103f5761103e610fea565b5b828206905092915050565b7f4e487b7100000000000000000000000000000000000000000000000000000000600052603260045260246000fd5b7f4e487b7100000000000000000000000000000000000000000000000000000000600052602260045260246000fd5b600060028204905060018216806110c057607f821691505b6020821081036110d3576110d2611079565b5b50919050565b60008190508160005260206000209050919050565b60006020601f8301049050919050565b600082821b905092915050565b60006008830261113b7fffffffffffffffffffffffffffffffffffffffffffffffffffffffffffffffff826110fe565b61114586836110fe565b95508019841693508086168417925050509392505050565b6000819050919050565b600061118261117d61117884610b24565b61115d565b610b24565b9050919050565b6000819050919050565b61119c83611167565b6111b06111a882611189565b84845461110b565b825550505050565b600090565b6111c56111b8565b6111d0818484611193565b505050565b5b818110156111f4576111e96000826111bd565b6001810190506111d6565b5050565b601f8211156112395761120a816110d9565b611213846110ee565b81016020851015611222578190505b61123661122e856110ee565b8301826111d5565b50505b505050565b600082821c905092915050565b600061125c6000198460080261123e565b1980831691505092915050565b6000611275838361124b565b9150826002028217905092915050565b61128e826109b3565b67ffffffffffffffff8111156112a7576112a6610c9d565b5b6112b182546110a8565b6112bc8282856111f8565b600060209050601f8311600181146112ef57600084156112dd578287015190505b6112e78582611269565b86555061134f565b601f1984166112fd866110d9565b60005b8281101561132557848901518255600182019150602085019450602081019050611300565b86831015611342578489015161133e601f89168261124b565b8355505b6001600288020188555050505b505050505050565b6000611362826109b3565b61136c8185610e77565b935061137c8185602086016109cf565b611385816109f9565b840191505092915050565b61139981610987565b82525050565b600060808201905081810360008301526113b98187611357565b90506113c86020830186611390565b6113d560408301856108f0565b6113e260608301846108f0565b95945050505050565b60006113f682610b24565b91507fffffffffffffffffffffffffffffffffffffffffffffffffffffffffffffffff820361142857611427610f86565b5b600182019050919050565b7f54686520617272617920636f6e7461696e73203130207265636f72647320616e60008201527f642069732066756c6c206e6f772e2045616368206e6577207265636f7264206f60208201527f766572726964657320746865206f6c64657374206f6e652e0000000000000000604082015250565b60006114b5605883610e77565b91506114c082611433565b606082019050919050565b600060208201905081810360008301526114e4816114a8565b905091905056fea2646970667358221220cc8fa8f50c72a816f68f2f632de36cea689a53830d3f8191c6289b76fec4a1ac64736f6c63430008110033",
  "immutableReferences": {
    "3": [
      {
        "length": 32,
        "start": 360
      },
      {
        "length": 32,
        "start": 540
      },
      {
        "length": 32,
        "start": 1099
      },
      {
        "length": 32,
        "start": 1155
      },
      {
        "length": 32,
        "start": 1607
      }
    ]
  },
  "source": "// SPDX-License-Identifier: MIT\r\n\r\npragma solidity ^0.8.17;\r\n\r\ncontract Reminder {\r\n    address immutable _owner;\r\n    \r\n    struct Record {\r\n        uint16 year;\r\n        uint8 month;\r\n        uint8 day;\r\n        string message;\r\n    }\r\n    Record[10] records;\r\n    uint8 nextIndex = 0;\r\n    uint256 totalRecordsAdded = 0;\r\n\r\n    constructor() {\r\n        _owner = msg.sender;\r\n    }\r\n\r\n    function getOwner() view public returns(address) {\r\n        return _owner;\r\n    }\r\n\r\n    function getRecords() view public OnlyOwner returns(Record[10] memory) {\r\n        return records;\r\n    }\r\n\r\n    function getNextIndex() view public OnlyOwner returns(uint8) {\r\n        return nextIndex;\r\n    }\r\n\r\n    function getRecordsMaxAmount() public pure returns(uint8) {\r\n        return 10;\r\n    }\r\n\r\n    function getTotalRecordsAdded() public view returns(uint256) {\r\n        return totalRecordsAdded;\r\n    }\r\n\r\n    function addRecord(string memory _record, uint16 _year, uint8 _month, uint8 _day) public OnlyOwner {\r\n        records[nextIndex] = Record(_year, _month,_day, _record);\r\n        emit NewRecord(_record, _year, _month, _day);\r\n\r\n        nextIndex = (nextIndex + 1) % 10;\r\n        totalRecordsAdded++;\r\n\r\n        if(totalRecordsAdded == 10) {\r\n            emit Notification(\"The array contains 10 records and is full now. Each new record overrides the oldest one.\");\r\n        }\r\n    }\r\n\r\n    function getRecord(uint8 index) public view OnlyOwner returns(Record memory) {\r\n        require(index < 10, \"Index exceeds max records amount\");\r\n        \r\n        uint8 actualIndex;\r\n        if(totalRecordsAdded > 10) {\r\n            actualIndex = (nextIndex + index) % 10;\r\n        }else {\r\n            actualIndex = index;\r\n        }\r\n        \r\n        return records[actualIndex];\r\n    }\r\n\r\n    modifier OnlyOwner() {\r\n        require(\r\n            msg.sender == _owner,\r\n            \"Signer should be the owner of the contract\"\r\n        );\r\n        _;\r\n    }\r\n\r\n    event NewRecord(string record, uint16 year, uint8 month, uint8 day);\r\n    event Notification(string message);\r\n}\r\n",
  "sourcePath": "D:\\JS code\\VNTU\\reminder\\src\\contracts\\Reminder.sol",
  "compiler": {
    "name": "solc",
    "version": "0.8.17+commit.8df45f5f.Emscripten.clang"
  },
  "schemaVersion": "3.4.11",
  "updatedAt": "2023-06-22T22:44:29.977Z",
  "networkType": "ethereum",
  "devdoc": {
    "kind": "dev",
    "methods": {},
    "version": 1
  },
  "userdoc": {
    "kind": "user",
    "methods": {},
    "version": 1
  }
}